:020000040800F2
:10400000401600207D410008D34E0008894E00086C
:10401000D14E0008E941000825590008E1BC8F8114
:10402000538017B1691C7FD5070000001D500008A0
:10403000794D0008A55AA55A1B5000089957000849
:1040400097410008974100089741000897410008F0
:1040500097410008974100089741000897410008E0
:1040600097410008974100089741000897410008D0
:1040700097410008974100089741000897410008C0
:104080009741000897410008000000009741000890
:1040900097410008974100089741000897410008A0
:1040A0009741000897410008974100089741000890
:1040B0009741000800000000974100080000000040
:1040C0009741000800000000974100089741000850
:1040D000974100082159000897410008000000009E
:1040E000000000000000000019590008FFFFFFFF5A
:1040F00011122020FFFFFFFFFFFFFFFFFFFFFFFF69
:1041000097410008000000000000000097410008EF
:10411000000000000000000000000000000000009F
:10412000000000000000000000000000000000008F
:10413000000000000000000000000000000000007F
:10414000000000000000000000000000000000006F
:10415000000000000000000097410008974100089F
:104160009741000897410008DFF80CD000F02AF8CA
:10417000004800473D5F0008401600200648804781
:1041800006480047FEE7FEE7FEE7FEE7FEE7FEE73C
:10419000FEE7FEE7FEE7FEE79D57000869410008DD
:1041A00040EA01039B0703D009E008C9121F08C0B9
:1041B000042AFAD203E011F8013B00F8013B521E39
:1041C000F9D27047064C074D06E0E06840F0010365
:1041D00094E8070098471034AC42F6D3FFF7C8FFC5
:1041E0000475000824750008FEE780B584B0362207
:1041F0008DF80020026843688068CDF80120AA226B
:104200008DF805202522CDF806308DF80A20CDF84E
:104210000B009B208DF80F00684601F031FB9DE8F4
:104220000F0048405040584004B080BD2DE9F04F89
:1042300089B0054690F900000C46B0F1FF3FC0B2CE
:1042400008DC9F2806D82846214609B0BDE8F04F73
:1042500000F06ABD00F16001C9B25E2941D9A146F2
:1042600009F8010B2F4617F8010B1D2800F2658293
:10427000DFE810F01E003E004F005C0069007D008A
:104280000802630268027E029D0263026302630207
:1042900063026302A2022F035303680376039203AF
:1042A0009B036302630263026302630263029F0370
:1042B0003A78A11CFD2A4FF0000000F3B683042ACF
:1042C00000F00E84F02A40F0178440F20000C2F2A1
:1042D000000000683122002808BF11220A7000F097
:1042E0000ABC2846214609B0BDE8F04F00F021BDC8
:1042F0003878012800F0D383002840F0DB83A878C9
:10430000C00740F002841020C4F600004FF40051B2
:10431000CDE33878012800F2908340F2E000C2F249
:1043200000000124047000F030FE87E340F2E0005A
:10433000C2F200000024047000F0FEFD012089F8A4
:10434000004000F0E2BC687840F2E001C2F20001F7
:10435000087368880882A8884882002089F80000CD
:104360000120C0F2020000F5403000F0CEBC40F267
:10437000E000C2F200000078012840F0648340F2BF
:10438000FC00C2F200004FF0000A80F800A0AA78FA
:1043900004F10308002A05F1030B00F0B2830020AA
:1043A000CDF80C8001904FF0000A002000219046CB
:1043B00005910292CDF810B01BF8016BB10717D42C
:1043C000BAF1000F56D040F2E000C2F20000058AB8
:1043D0000E2008A900F086FEF5B302283CD140F279
:1043E000FC00C2F200000078013D0028F0D0BAE3E2
:1043F000BAF1000F2DD040F2E000C2F20000058AB1
:1044000006F01100012811D10135304608A900F04D
:1044100069FE022855D1013D00F0A58340F2FC0061
:10442000C2F2000000780028EFD09CE30E2008A91B
:1044300000F058FE002D4FF0000A42D0022840D173
:1044400040F2FC00C2F200000078013D0028EDD0EF
:1044500087E34FF0000A43E0012840F08583089885
:1044600003990880BDF8220088709DF82300C87069
:10447000081D0390DDF810B0B106DBF801000BF168
:10448000050B089015D440F2E000C2F20000058A46
:10449000304608A900F026FE002D5FD002285DD12D
:1044A00040F2FC00C2F200000078013D0028EFD08D
:1044B00057E340F2E001C2F2000148614FF0000A08
:1044C000C4E0012840F05083089803990880BDF8A3
:1044D000220088709DF82300C870043101200391E8
:1044E000F10617D440F2E001C2F200010D8AF10793
:1044F0003CD1304608A900F0F5FD002D51D002282E
:104500004FD140F2FC00C2F200000078013D0028CB
:10451000EFD028E30499D1F801000531009040F272
:10452000E000C2F20000B0F812B0F00704914DD0E4
:1045300040F2E000C2F20000058A3046002100F09F
:10454000D1FD002D3FD002283DD140F2FC00C2F247
:1045500000000078013D0028EFD0C8E3012840F0BA
:10456000DC834FF0000A0120012103E0BAF1000FC3
:1045700002D0002101916AE03046002100F0B2FD36
:10458000002D76D0022874D140F2FC00C2F2000067
:104590000078013D4FF0000A00284FF00200EBD0F8
:1045A000E2E2012840F0E082089803990880BDF813
:1045B000220088709DF82300C8700431002001900B
:1045C0000120039143E0012840F0928340F2E00093
:1045D000C2F20000058A304608A900F083FD55B1FB
:1045E000022808D140F2FC01C2F200010978013D25
:1045F0000029F0D017E0012815D1BBF1000F12D02F
:1046000040F2E002C2F20002089952691140009A99
:10461000914208D040F2FC01C2F200010978ABF1EE
:10462000010B0029D2D040F2E002C2F20002089948
:1046300052691140009A914218BF40F010000128C1
:1046400040F0568300200190DDF810B0012040F2C8
:10465000FC01C2F20001029A09780029059901F1D2
:104660000101059140F08082B8F101087FF4A2AE0B
:1046700050E3012840F051830020019001204FF0C9
:10468000010AE4E740F2E003C2F2000318780128CF
:1046900040F0F08140F2FC0BC2F2000B00228BF8DC
:1046A0000020A878E97804F1040A40EA01210029F1
:1046B00000F029822E79B00700F13B8200200DF135
:1046C0001C08CDF80CA00590029157F8040FB3F820
:1046D00010A00139049107903046414600F002FDD8
:1046E000BAF1000F08D0022806D19BF80000AAF109
:1046F000010A0028F0D030E2012840F02F8204990E
:10470000059840F2E003002900F10100C2F2000325
:104710000590DAD1188A461C0E20002100F0E2FC38
:10472000022840F0FE82013E00F0FA829BF8000071
:1047300000284FF00200EFD0F3E2FF2020704FF08E
:104740000110E4E240F2E000C2F20000007801242F
:104750000128C0F2020440F09381D5F8020006A9B6
:1047600006900020002500F0BDFC89F800508AE189
:1047700040F20000C2F2000000684DF68361C4F20E
:104780001B31A0FB0101022000EB91404AF6AB2156
:10479000CAF6AA216A78AB78A0FB010142EA03229B
:1047A00049085143491EFDD101200021BCE10020F0
:1047B000A4F801000220A8E2AF786978D5F8036078
:1047C000102017F00102C4F6000007D0CB074FF00D
:1047D00008034FF0200508BF1823C55017F0020347
:1047E00007D08D074FF008054FF0100458BF18256B
:1047F000445117F0800C0AD04DB24FF48164B5F1EA
:10480000FF3F4FF40075C8BF4FF483640551002E7D
:1048100049D007F0040607F02007B7FA87F701F040
:10482000FC044FEA571AB6FA86F7B4FA84F47F0903
:10483000640944EA070B01F0E00741F20406B7FA05
:1048400087F7CEF200067F09356847EA0A044FEA87
:10485000D11E4FEA51080BEA040A8BF0010B84F0D9
:10486000010422B10768C7F34017B94218D15BB100
:104870000768C7F30017B8EB070718BF012747EA17
:104880000B07274303D00BE0BAF1000F08D0BCF1AF
:10489000000F08D0D0F80074C7F34027BE4502D0FF
:1048A0003768AF42DDD001680223C1F340110268CE
:1048B000D0F8000403EAD2021144802202EA9000F8
:1048C000084489F800000120C0F2020000F58020B1
:1048D0001BE2D5F80100002800F0D88040F200016A
:1048E000C2F200010968B0EB910F80F0E58000EBA7
:1048F00051010139B1FBF0F14AF6AB20CAF6AA200A
:10490000A1FB000240F2E000C2F20000002343706D
:104910000120022988BF5008D4E06C78A91C002C23
:1049200008BF4FF48074204600F00AFF002089F889
:1049300000004FF4604000EB443000F4FE0000F152
:104940000110E2E1387840F2E00200F003010131A9
:10495000C2F200021176C0F380005076002025E0FC
:10496000FF2089F800003878002869D0A91C0122AE
:104970000B78013813F03F0303F107034FEAD30329
:1049800008BF082319441A440131002802F101022A
:10499000EED110040130B8E13878FF2189F8001019
:1049A0004FF0011101EB0040AFE1FF2089F800005A
:1049B00046E0002089F8000097F800B0BBF1000F36
:1049C00066D0023504F102094FF001084FF0010AE8
:1049D00015F8016B16F03F0000F107004FEAD00414
:1049E00008BF082416F0800702D000F073FA01E037
:1049F00000F089FA304629464A4600F011FBBBF127
:104A0000010F08BF00F07FFAABF1010B27B10AF1EB
:104A1000010AA144A04404E00AEB0400254400F18B
:104A2000010ABBF1000FD3D136E0FE2A61D0FF2A84
:104A300062D14020608002205EE0002489F80040BE
:104A40004FF0011061E1A978E81C61B10278930789
:104A500001D4052204E0D2064FF0050258BF01221E
:104A600001391044F2D1C01B00210004A4F8011048
:104A700002304AE10020A4F80100E070032025E1A3
:104A8000FF2089F8000004F540303EE1FF201FE0E0
:104A90004FF0010A4FF0010848EA0A4035E1A878D2
:104AA000C00738D11020C4F600004FF48051C0F880
:104AB000181437E0FF2136E040F2E001C2F20001B5
:104AC0000120487040F2E001C2F20001486000207D
:104AD00089F800000120C0F2020000F5003014E166
:104AE0003020888042F63260C2F6306008600620CE
:104AF00002E020200870012089F8000000F1021077
:104B000005E10020F8E00020DAE01020C4F6000003
:104B10004FF4005104E01020C4F600004FF480511F
:104B2000C0F8081400210120C0F2020089F800102A
:104B3000EBE0F00700F087801F8A884630460021AE
:104B400000F0D0FA002F77D0022875D19BF8000032
:104B5000013F0028F2D00220C7E00220DDF80CA0BF
:104B6000ADE04FF0000A0220B8F1000F0FD0002195
:104B70009BF80020930701D4052204E0D2064FF0F1
:104B8000050258BF0122013188459344F0D1DDF878
:104B90000C8001281AD1BAF1000F1AD040F2E000BF
:104BA000C2F20000068ADDF814A008AD0E202946E6
:104BB00000F098FA76B302282CD140F2FC00C2F241
:104BC00000000078013E0028F0D021E0DDF814A0BC
:104BD00092E00198DDF814A0002800F08C8040F2EB
:104BE000E000C2F20000008A451C0E20002100F007
:104BF00079FA022840F08080013D09D040F2FC00A3
:104C0000C2F20000007800284FF00200EDD073E0FF
:104C1000022071E001286FD1089808F10401A8F87A
:104C20000000BDF8220088F802009DF8230088F8F3
:104C30000300012088465FE040F2E003012841467E
:104C4000C2F2000351D100200DF11C080A46059064
:104C50000291F007304618BF0E201F8A013A0492D5
:104C6000002A08BF06463046414600F03BFA3FB1F5
:104C7000022805D19BF80000013F0028F3D01DE079
:104C800001281CD10798BDF81E10AAF800008AF868
:104C900002109DF81F000AF104018AF8030005982C
:104CA00040F2E00301300590049A0120002A8A4670
:104CB000C2F20003CDD1029A8A4601E00220059A91
:104CC000110A6270A170E070AAEB090029798907C6
:104CD00008D4E978AA78890641EA824101F5802161
:104CE000084312E040F480200FE00022E8E70220B1
:104CF000DDF810B038E7012084F801A0A070ABEB1C
:104D00000700A8EB090141EA004000F1011009B0D9
:104D1000BDE8F08F1146059239E74FF0000A23E70E
:104D20000220DDE9022ACBE702784FF001100A7079
:104D30007047FF224FF001100A70704740F20000E8
:104D4000C2F2000000684DF68361C4F21B31A0FB83
:104D5000010140F2E0006FF00103C2F20000002206
:104D600003EBD1410280416064210273C0E9041267
:104D70000121018300F0E0B870470000F0B581B078
:104D800002780C4602F0F803D02B13D1254605F823
:104D9000012B0178D03907290AD8DFE801F0041681
:104DA0001911501C3F7300F00EFFC4F801000534C8
:104DB000FF2046E0214601B0BDE8F040FFF736BADB
:104DC000D0F8010000F0BAFF39E000F0FCFF36E057
:104DD00000F0AAFF33E0B0F80560711E89B23729F0
:104DE0002DD8D0F80140C71D394611F8010BB2B2D9
:104DF000012A02D100260F4604E07978023740EA02
:104E00000120023E81B2204600F048FFB8B93004CC
:104E100004F102044FF0FF00E6D111E04FF2AC7252
:104E2000D0F80110C1F6FF723C32B0F80500914293
:104E300004BF4FF2AC71C1F6FF713E2804D9FF20C8
:104E40002C46207001B0F0BD49F21C03C0F60003EF
:104E500000229942627010D0002804F10204A7D009
:104E60000138020407D000BF11F8012B01380304F8
:104E700004F8012BF8D10878E3E73F20C4F80200DA
:104E8000063495E700F050FDFEE710B540F200440F
:104E9000C4F600042046012100224FF4005301F023
:104EA00003F82046002103224FF4005301F024F8B8
:104EB0002046012100224FF4805300F0F5FF2046E8
:104EC000002103224FF48053BDE8104001F014B8D4
:104ED000FEE770470420C4F60000102141614FF046
:104EE00090410A6822F440720A600168012241F090
:104EF00010010160416841F440714160816862F3D2
:104F00000921816070470420C4F60000102141622D
:104F10004FF090410A68012363F309220A60016897
:104F200021F010010160416841F4407141608168E5
:104F300021F440718160704780B54FF090400021AE
:104F40000122202300F0B0FF4FF090400021012209
:104F5000102300F0A9FF4FF09040002101224023D0
:104F600000F0A2FF4FF0904000210122802300F0CA
:104F70009BFF40F20040C4F60000002101224FF4E4
:104F80000073BDE8804000F08FBFF0B581B04FF0F6
:104F90009040012100222023202500F085FF4FF0C2
:104FA000904000210322202300F0A6FF4FF0904004
:104FB000012100221023102600F076FF4FF09040D0
:104FC00000210322102300F097FF4FF090400021B2
:104FD0000122402300F068FF4FF0904000210122A1
:104FE000802300F061FF40F20044C4F60004204634
:104FF000002101224FF400734FF4007700F054FFBA
:105000004FF61840CFF6FF70255026500120A762BA
:1050100000F0E0FDA76101B0F0BD704770470000EF
:10502000F0B510F03F0C08BF4FF0400C000640F206
:105030001800C4F6000028D440F2E0024FF0100E31
:105040002023C2F2000200BF11F8014BACF10105B0
:10505000002600BFE707074608BF1037C7F800E083
:10506000036157687F1EFDD1036057687F1EFDD125
:10507000B54206F1010703D06408072E3E46E9D188
:10508000BCEB070C08BFF0BDDEE740F2E0034FF0D9
:10509000200EC2F2000300BFACF10105002400267F
:1050A000C0F810E05968491EFDD150F8081CC0F83E
:1050B00000E05F6801F010017F1EFDD1C90041EAE8
:1050C0005606A54204F1010102D0072C0C46E7D197
:1050D000C1F1080426FA04F4BCEB010C02F8014B00
:1050E000DAD1F0BD2DE9F04F81B040F2E00BC2F211
:1050F000000B0F469BF8011040F218088246C4F6D8
:105100000008102020260029C8F80000C8F8106008
:1051100000F09E805FEACA714446414644F8106B35
:1051200008BF214608601AF0020941462660C8F807
:10513000006008BF21465FEA4A7242460860266066
:10514000C8F800600AEB5A0158BF2246106001EB14
:105150009A015FEA0A72424601EBDA012660C8F85A
:10516000006058BF2246C907414610602660C8F853
:10517000006008BF214608602660C8F80060206013
:105180002660C8F80060C8F800002660C8F8006013
:10519000FFF7A0FE9BF81800266038B120210246D8
:1051A000013AC8F80010C8F81010F9D158F8081CD6
:1051B0002022C1F30011C8F80020C8F8102058F8C8
:1051C000083C0226C8F8002006EAD303C8F81020DD
:1051D000194458F8083C042606EA9303CE18042E16
:1051E000C8F8002018BF022E40F04981B9F1000F25
:1051F0000CD09BF8191049B16FF02001202200BF9C
:105200000131C8F81020C8F80020F9D330B12021AE
:105210000138C8F81010C8F80010F9D1FFF773FE74
:10522000B9F1000F40F084829BF81900002800F0CB
:105230007F821020C8F810006FF02000202100BFEE
:105240000130C8F81010C8F80010F9D300F070BA97
:10525000DBF804104446491EFDD144F8106BDBF81E
:105260000410491EFDD15FEACA71414608BF2146BC
:1052700008602660DBF80410491EFDD1C8F8006004
:10528000DBF80410491EFDD141461AF0020908BF9F
:10529000214608602660DBF80410491EFDD1C8F8DD
:1052A0000060DBF80410491EFDD15FEA4A714146F7
:1052B00058BF214608602660DBF80410491EFDD166
:1052C000C8F80060DBF80410491EFDD15FEA0A71DE
:1052D000414658BF214608602660DBF80410491E8D
:1052E000FDD1C8F800600AEB5A02DBF8041002EBAB
:1052F0009A02491EFDD102EBDA01C907414608BFF7
:10530000214608602660DBF80410491EFDD1C8F86C
:105310000060DBF80410491EFDD120602660DBF838
:105320000410491EFDD1C8F80060DBF80410491EC6
:10533000FDD1C8F800002660DBF80400401EFDD156
:10534000C8F80060DBF80400401EFDD1FFF7C2FD85
:105350009BF818002660DBF80410491EFDD180B1CF
:10536000202100BFC8F80010DBF80420521EFDD138
:10537000C8F81010DBF804200138521EFDD10028B7
:10538000F0D158F8080C2021C0F30010C8F8001024
:10539000DBF80420521EFDD1C8F81010DBF8042001
:1053A000521EFDD158F8082CC8F80010DBF8043064
:1053B0005B1EFDD1C8F810100223DBF8044003EA9D
:1053C000D202641EFDD158F8083CC8F80010DBF882
:1053D0000410491EFDD10421104401EA930146182E
:1053E000042E18BF022E40F07E80B9F1000F13D0BA
:1053F0009BF8190080B16FF020002021C8F8101030
:10540000DBF80420521EFDD1C8F80010DBF80420A0
:10541000521EFDD10130F1D39BF8180070B120214C
:10542000C8F81010DBF80420521EFDD1C8F8001097
:10543000DBF80420521EFDD10138F1D1FFF763FDE6
:10544000B9F1000F40F074819BF81900002800F0BA
:105450006F811020C8F810006FF02000202100BFDD
:10546000C8F81010DBF80420521EFDD1C8F8001057
:10547000DBF80420521EFDD10130F1D358E1012E9A
:1054800040F07F80B9F1000F40F09B8030B12021C7
:105490000138C8F81010C8F80010F9D1FFF733FD33
:1054A000396800206FF01F0308F110021026202435
:1054B000CD07474608BF1746084401334FEA51015C
:1054C0003E60C8F81040C8F80040F1D3C00740461D
:1054D00008BF10461021016020200126C8F81000E6
:1054E000C8F800009CE0012E40F05580B9F1000F93
:1054F00040F0B1809BF8180070B12021C8F810105E
:10550000DBF80420521EFDD1C8F80010DBF804209F
:10551000521EFDD10138F1D1FFF7F5FC39680020AA
:105520006FF01F0308F1100210262024CF07474612
:1055300008BF17463E60C8F81040DBF804506D1EE7
:10554000FDD1C8F80040DBF804506D1EFDD10844C1
:1055500001334FEA5101E9D3C007404608BF104666
:10556000102101602020C8F81000DBF80410491E4B
:10557000FDD1C8F80000DBF804000126401EFDD173
:10558000B6E02130202100BF0138C8F81010C8F85B
:105590000010F9D112E09BF818002021213000BF43
:1055A000C8F81010DBF80420521EFDD1C8F8001016
:1055B000DBF80420521EFDD10138F1D1FFF7A3FC26
:1055C000B6E04FF0200CC8F810C058F8082C0023A3
:1055D00012096FF01F060024C8F800C0C8F810C0F8
:1055E00002F0010158F8085C0B44610841EAC274FA
:1055F0002A090136C8F800C0F0D382EA0301C907BE
:105600004FF0080608BF012607B13C6030B12021E9
:105610000138C8F81010C8F80010F9D1FFF773FC72
:105620005FEA0A6006D541F20400CEF2000000688D
:10563000CBF808009BF80C00002800F079801021BE
:10564000C8F81010202100BF0138C8F81010C8F8A1
:105650000010F9D16CE02020C8F81000DBF804102D
:10566000491EFDD158F8081CC8F80000DBF80430CA
:105670005B1EFDD1BC460A0900216FF01F03002408
:10568000C8F81000DBF804506D1EFDD158F8085C16
:10569000C8F8000002F00106DBF804703144660827
:1056A0007F1EFDD146EAC27401334FEA1512E7D3DB
:1056B00082EA0100C0074FF0080608BF0126BCF1CE
:1056C000000F18BFCCF800409BF8180070B12021E3
:1056D000C8F81010DBF80420521EFDD1C8F80010E5
:1056E000DBF80420521EFDD10138F1D1FFF70BFC8D
:1056F0005FEA0A6006D541F20400CEF200000068BD
:10570000CBF808009BF80C0090B11021C8F81010DD
:10571000202100BFC8F81010DBF80420521EFDD174
:10572000C8F80010DBF80420521EFDD10138F1D179
:1057300010213046C8F8001001B0BDE8F08F00001D
:1057400070B540B3182240F2E0040023C4F6000212
:105750004FF0100C4FF0200EC2F20004002500BFE5
:10576000A0F1010013B911F8015B0823EE071646FA
:1057700008BF1036C6F800C0C2F810E06668761E92
:10578000FDD1C2F800E06668761EFDD16D080028E4
:10579000A3F10103E4D170BD00F026BA41F200008C
:1057A000C4F20200016841F001010160016889074B
:1057B000FCD541680C22C0F6FF02114041604168EF
:1057C0004FF6FF7CC7F2C27C01EA0C0141604168E0
:1057D0004FF6FF7221F4400141600168CFF6F2629A
:1057E00011400160C16A40F2431221F00F01C16211
:1057F000016B91430163416B40F2FF7221F00101A3
:10580000416300218160016841F48031016000BF83
:105810000168531E934203D211F400311A46F7D0A7
:105820000168890321D54168416041684160416850
:105830004160416801EA0C014160416841F4E811AE
:105840004160016841F08071016000BF0168890119
:10585000FCD5416821F003014160416841F002013B
:10586000416000BF41680907FCD54EF6085044F27C
:105870000001CEF20000C0F6000101607047000098
:105880002DE9F047D0F800A0846847F6B91E4FF024
:1058900000084FF0150CC9F6376E00BFF044C8F38E
:1058A0008109002600EB86077F68BA00FD0882EABE
:1058B000541285EA04152A4486EA090551F8255050
:1058C00087EA08036C4023445A4002EB0A0440F87C
:1058D00026400136022EBA46E4D1D0F800A08268F4
:1058E0004FEA8A034FEADA0583EA541385EA04157E
:1058F0002B4489F0020551F825508AEA08066C40CD
:10590000344463409C185FEA0C628460ACF1010C83
:1059100008BFBDE8F087C1E74FF4802000F0B7B9B9
:1059200001F054BAFEE700004EF60C50BFF34F8F63
:10593000CEF200000168042201F4E061C0F2FA52E4
:1059400011430160BFF34F8F00BFFDE72DE9F04128
:1059500082B041F2B417C2F2000704463868012948
:1059600000F10100386008BF012A1AD0002946D191
:10597000022A44D140F245160120C2F200060090EE
:105980000220002132464023002501F069F920461B
:1059900002213246402300F009FF386901303861A6
:1059A00044E040F2FE0540F20016C2F20005C2F2E9
:1059B00000062888318888420DD340F20412C2F2D2
:1059C00000020120002101234FF0000801F03EF801
:1059D0003080A5F80080308840280BD140F20412B6
:1059E000C2F2000220468121402300F027FF2888D0
:1059F00040302880F86800250130F86016E0012961
:105A000008BF002A09D052EA01000BD078690225AC
:105A100001307861B961FA6108E0786800250130E9
:105A2000786003E0B86800250130B860284602B00D
:105A3000BDE8F08110B58121044600F0B4FD204698
:105A4000022100F0B0FD002010BDB0B540F2040509
:105A5000C2F2000505F11B020021044600F0CCFD56
:105A600005F122022046002100F0C6FD40F2451259
:105A7000C2F2000220460221402300F097FE01F00E
:105A800064F80020B0BD0000B0B5044608784A882C
:105A900010F060034FEA122019D0202B40F09080C4
:105AA0004B78013B0A2B4BD8DFE803F0063C314A28
:105AB0004A4A4A4A4F54360003286AD0012878D10E
:105AC00040F20415D1B2C2F20005012067E04B7824
:105AD0000B2B10D00A2B15D0062B71D1212846D0C4
:105AE00022284FD1CB8847F26E42212B28BF212399
:105AF000C0F6000248E041F2EC11D0B2C2F200015F
:105B000008605DE041F2EC12C2F2000214E041F2E2
:105B1000F410C2F2000009E041F2F411D0B2C2F276
:105B200000011BE041F2F010C2F20000006841F2F7
:105B3000F812C2F20002107020468021012325E0F5
:105B4000204600F0DCFC02243BE041F2A010C2F24F
:105B5000000032E041F2F011C2F20001086020467C
:105B6000802100220023002400F068FE29E040F29A
:105B70000400CB88C2F2000000F11202092B28BFFA
:105B8000092301E0002300222046802100F056FE78
:105B900016E040F20215D1B2C2F2000503202A46F7
:105BA000002300F053FF204681212A46402300F0C5
:105BB00045FE41F29C10C2F2000001680131016013
:105BC00000242046B0BD42F20000CEF2040000687E
:105BD0007047000041F2A411C2F20001086000BF4A
:105BE00008680028FCD1704741F2A410C2F20000FE
:105BF000016811B1016801390160704740F2004C41
:105C0000C4F2010CDCF80030012923EA0003CCF8CF
:105C10000030DCF8043023EA0003CCF80430DCF870
:105C2000083023EA0003CCF80830DCF80C3023EA13
:105C30000003CCF80C3006D051B9DCF80010014359
:105C4000CCF8001004E0DCF804100143CCF8041098
:105C5000022A0DD0012A6FEA00010DD0B2B9DCF89A
:105C600008201043CCF80800DCF80C0008400BE0DA
:105C7000DCF80810014302E0DCF808201140CCF801
:105C80000810DCF80C100843CCF80C00704740F208
:105C90001441C4F2010108607047000010B50024EF
:105CA000CFF6F17442F20C0EC4F2020E224600BF8F
:105CB000DEF80030DB0704D00132F9D34FF0040CDA
:105CC00030E0DEF80020D20617D4DEF800200223F0
:105CD00003EA520CBCF1000F24D1DEF8042042F09C
:105CE0000102CEF804200180DEF80000C00707D0D2
:105CF0000134F9D34FF0040C0EE04FF0030C11E027
:105D0000DEF80000C00605D4DEF80000022101EA3A
:105D1000500C01E04FF0030CDEF8040020F001000D
:105D2000CEF80400604610BD42F21000C4F202003A
:105D3000016841F080010160704700000023CFF648
:105D4000F17342F20C0CC4F2020C1946DCF800208C
:105D5000D20703D00131F9D3042132E0DCF800107E
:105D6000C9061BD4DCF80010022202EA510141BB33
:105D7000DCF8041041F00201CCF80410CCF8080063
:105D8000DCF8040040F04000CCF80400DCF800002F
:105D9000C00705D00133F9D304210CE0032110E042
:105DA000DCF80000C00605D4DCF80000022101EA9E
:105DB000500100E00321DCF8040020F00200CCF8E0
:105DC00004000846704742F20400C4F20200C168B1
:105DD000090658BF704740F22311C4F267510160B1
:105DE00048F6AB11CCF6EF510160704780B540F238
:105DF000020ECFF6F07E43F2000CC4F2000C45F226
:105E000055527346CCF80020DCF80C2002F0010259
:105E10001BB1002A03F10103F6D16AB9CCF80410D2
:105E2000DCF80C10BEF1000F01F0020103D00029D4
:105E30000EF1010EF4D109B1002080BD6FF31F30C7
:105E4000CCF808004AF6AA20CCF80000012080BD5A
:105E500043F20000C4F200004AF6AA210160704734
:105E60008161704780B54FF09040012100224FF4CE
:105E7000807300F019F84FF09040002103224FF496
:105E8000807300F039F8FFF700F8FFF77EF84FF461
:105E90008020FFF7FCFE4FF4802000210022BDE8A7
:105EA0008040FFF7ABBE00002DE9F041D0F800E0E4
:105EB000D0F80CC000244FF00308002623FA06F7A0
:105EC000FF070DD008FA04F72EEA070E01FA04F5D1
:105ED0004EEA050E2CEA070702FA04F547EA050C1C
:105EE0000136102E04F10204E8D1C0F800E0C0F839
:105EF0000CC0BDE8F0810000B0B50129416814BFB5
:105F0000994319434160D0F808C000214FF0030EB7
:105F1000002400BF23FA04F5ED0707D00EFA01F5BF
:105F20002CEA050C02FA01F54CEA050C0134102CA0
:105F300001F10201EED1C0F808C0B0BD40F218492D
:105F40004FF2AC74F426C4F60009C1F6FF74C0F633
:105F5000000600F071F900F09FF800F001FAFFF779
:105F600081FF4FF40055C9F80050FEF7E7FEC9F86D
:105F7000105047F2A241B568C0F600012046FEF776
:105F800034F9854209D047F2A2413568C0F60001D4
:105F90002046FEF72AF9854269D10A20FFF71AFE4A
:105FA00040F23C04C2F20004204600F065FA00F022
:105FB000CCFD4FF090404FF48071FFF751FF41F25C
:105FC000D4160520C2F200064FF000086070C6F833
:105FD0000080607803281BD04FF40057002000BFDA
:105FE000411C3128316009D0042803D040B9C9F8D8
:105FF000007005E0C9F8107002E000BFC6F800802C
:106000000A20FFF7E7FD6078032801D03068E7E752
:1060100040F640544FF400576420C0F20304C9F81E
:106020001070FFF7D7FDC6F8008041F2D816C2F213
:1060300000064FF47A7005213460FFF7D7FE00BFE9
:10604000FFF706FF00F0A7FD002820460DD13068BD
:1060500030B1B0F57A7F07D1C9F80070306803E03D
:106060002046C9F81070346001383060E8E7002439
:1060700009F110064FF400574FF4805514F0010059
:106080004846314604BF30464946076032200D601D
:106090000134FFF79FFDF1E780B54FF4A06000F0F9
:1060A00060F825200221002200F007F82A200021B4
:1060B0000022BDE88040AFF300804EF60C5CCEF2CB
:1060C000000CDCF8003003F4E063B3F5E06F03D1BB
:1060D0004FF0000C04232BE0DCF8003003F4E06305
:1060E000B3F5C06F03D14FF0010C032320E0DCF8BF
:1060F000003003F4E063B3F5A06F03D102234FF047
:10610000020C15E0DCF8003003F4E063B3F5806FB7
:1061100003D14FF0030C01230AE0DCF800304FF00C
:10612000040C03F4E063B3F5407318BF01239B0034
:1061300099400F2323FA0CF31A4011434EF2001238
:10614000CEF20002090140EA020383F8001300F0D6
:106150001F01012303FA01F11C2303EAD00081503F
:10616000704740F080604EF60C5140F0FD70CEF26A
:10617000000108607047B0B547F20003C4F20003A5
:106180001A6841F2E01E22F003021A60D3F800C040
:106190004EF2001240EA0C00CEF200021860D2F873
:1061A000100C41F2DC1C40F00400C2F8100C52F854
:1061B000F00CC2F2000CCCF800001068C2F2000E25
:1061C000CEF80000536841F2E410C2F20000036010
:1061D000946841F2E813C2F200031C6052F8F04CDC
:1061E0000425C0F201052C4042F8F04C4EF619741B
:1061F000CBF2FF74C2F880406FF48064C2F8844030
:106200004FF0FF34C2F8884000290FBF30BF40BFB5
:1062100020BF20BFDCF8001042F8F01CDEF80010B0
:1062200011600068506018689060D2F8100C20F07F
:106230000400C2F8100CB0BD80B540F2115000F05F
:106240002DF840F2125000F029F840F21C7000F0D6
:1062500025F840F2177000F021F80020BDE88040DA
:1062600000F03DB841F200028109C4F202028958EF
:1062700000F01F0021FA00F000F00100704741F229
:10628000000300F01F018009C4F202034FF0010C6B
:10629000C2580CFA01F11143C150704741F200039A
:1062A00000F01F018009C4F202034FF0010CC25834
:1062B0000CFA01F11143C150704741F20401C4F2DC
:1062C00002010A6822F0030210430860704741F29D
:1062D0000400C4F20200006800F00C00704741F2B4
:1062E0000401C4F202010A6822F440020A600A684A
:1062F000104308607047000010B545F64044C4F2F2
:10630000000420684FF6FB71084020601020FFF762
:10631000B6FF00BF1120FFF7A5FF0028FAD0182014
:10632000FFF7ADFF1920FFF79DFF0028FAD00220EC
:10633000FFF7C3FFFFF7CBFF0828FBD1042000F0D5
:1063400006F820684FF6F7710840206010BD4EF641
:106350001051CEF200010A6822EA0000086070477E
:1063600040F20000C2F20000006844F6D351C1F2CE
:106370006201A0FB01014FF0FF3000EB9110B0F182
:10638000807F00D3FEE74EF21001CEF2000148609C
:106390004EF62350CEF20000F022027000208860FA
:1063A00007200860704770B50D460978044601F073
:1063B0001F0102291BD0012926D0002951D1607864
:1063C00000F0FE0002281ED16888022849D001286A
:1063D00019D1D4F89C20002620462946E670904723
:1063E00040F23800C2F200000068868029E0A888E8
:1063F000617803290ED0022918BF70BD40F08000DB
:10640000C0B280282DD170BD6078032825D0022825
:1064100027D0F8E7698841B940F08001C9B28029E6
:1064200003D0C1B2204600F06DF8D4F89C2020467D
:106430002946904740F23800C2F20000006800216F
:10644000818045F60040C4F20000016848F6BF7242
:10645000114081F03001016070BDA88810F0FE0F7E
:10646000D1D020460021BDE8704000F0B5B9D0F889
:106470008C008178118070470021C17045F6404042
:10648000C4F200000122026001604160016141F23A
:10649000AC11C2F200014FF41F420A600260704763
:1064A00010B54278032A04D10C46898811F0FE0FFA
:1064B00004D0002100F090F9002010BDD0F89C20FD
:1064C000214690470028F7D1E0880028F4D140F217
:1064D0003800C2F2000000680021818045F60040CB
:1064E000C4F20000016848F6BF72114081F030012B
:1064F0000160E1E7D0F88800017811807047002141
:1065000000F06AB94AB201F07F01B2F1FF3F01EB3E
:10651000810200EB820045F60042C4F2000213DD66
:1065200052F8213000F14C0C5B0442EA810106D59F
:106530000A6848F68F731A4002F580420A604FF4E9
:1065400040524BF68F7310E052F8213000F1100CDE
:106550005B0642EA810105D50A6848F68F731A4046
:1065600040320A60302248F6BF7308681840504035
:10657000086000208CF80000704700000132002302
:10658000B3EB520F08BF704746F20003C4F200039A
:10659000520803EB410100BF51F8043B013A20F8D7
:1065A000023BF9D1704745F6004301F07F02C4F287
:1065B000000348B253F82210B0F1FF3F43EA8200D3
:1065C0000BDD490406D5016848F68F72114001F5CC
:1065D000804101604BF68F7109E0490605D50168DD
:1065E00048F68F7211404031016048F6BF71026871
:1065F00011400160704700002DE9F041D37892F915
:10660000027003F0030365A656F8236007F00F033A
:1066100045F600451E43C4F2000545F82360928804
:10662000B7F1FF3F03EB830745EA830C00EB8700DC
:1066300034DD40F238080129C2F20008026563D156
:10664000DCF8007048F68F652F4007F58077CCF8AE
:106650000070DCF8007048F68F752F40403740F22C
:10666000300ECCF80070C2F2000E4FF6E076DEF885
:106670000040D8F80050C0F201061F013F2AEC5339
:106680004CD302F11F073E404FF0FF3748F20000A5
:1066900007EB4617CFF6FF70074343E0426140F235
:1066A000300040F23806C2F20000C2F2000607686D
:1066B00036681D0177534FF6E075C0F201050132CF
:1066C0001E352A4017440760DCF80070012921D1EB
:1066D00048F68F61394001F58071CCF800100168EF
:1066E00006EB0313198111440160DCF8000048F641
:1066F000BF71084080F03000CCF80000DCF80000EA
:106700004BF68F71084045E040F23007C2F20007B7
:106710003C680DE048F6BF70384036E0501C1E362D
:106720000640770205EB031034448780CEF8004022
:10673000D8F800003F2A00EB031004810CD34FF47B
:10674000787303EB421202F4F84248F20003013A74
:10675000CFF6FF731A4308E04FF4007303EB4222B5
:106760004FF60043C0F2FF331A408281DCF800008C
:106770004BF68F72012900EA020009D1CCF8000023
:10678000DCF8000048F6BF71084080F0200001E00E
:1067900080F40050CCF80000BDE8F0810002000059
:1067A00000040000000000000006000001F07F0C63
:1067B0000CEB8C0100EB8100C0E9152345F600408D
:1067C000C4F2000050F82C104BF68F72114081F487
:1067D000405140F82C10704710B54FFA81FE01F07F
:1067E0007F0101EB810245F6004C00EB8204C4F20C
:1067F000000C04F14C024BF68F73BEF1000F48BF42
:1068000048F6BF7348BF04F110025CF821404FF412
:10681000805048BF1020234058404CF821000120F0
:10682000107001B110BDDCF800004BF6BF710840DC
:1068300041F210014840CCF8000010BD10B581B005
:1068400001F07F0404EB84014FF0000C00EB8101A8
:10685000CDF800C08A614869CB619842C1F820C078
:106860002CBF0093009040F23800C2F20000D0F834
:1068700000E020013EF80000009945F6004C89B286
:106880004B1C0021B1EB530FC4F2000C0AD00CEBEF
:1068900040005B0800F5806032F8021B013B40F8C5
:1068A000041BF9D100980EEB041188804CEA840097
:1068B000016848F6BF72114081F03001016001B0FB
:1068C00010BD80B582B0C98800220129019207D18C
:1068D0004178032908D0022902D101AA802105E0CC
:1068E0000021FFF779FF04E0802102460123FFF732
:1068F000A5FF02B080BD0000B0B582B00D4609789A
:10690000044601F01F01012926D091BB68880021AF
:10691000B1EB902FADF8061027D100F0FE0105294C
:1069200023D8010A14A202EB810151F8043CC1B240
:106930000DF1060220469847BDF80610C9B1EB8854
:10694000BBB10246994238BF0B4620468021ADF8C4
:106950000630FFF773FF0CE0D4F89C204AB12046C4
:10696000294602B0BDE8B040104720460021FFF79D
:1069700033FF02B0B0BD00BFF56400086F640008CB
:10698000937300084278032A03D0022A18BF704785
:1069900003E08A8812F0FE0F02D00021FFF71CBF2F
:1069A000D0F89C2002B11047704780B582B00A78B9
:1069B000002302F01F02022AADF80630ADF80430C1
:1069C0000DD0012A16D0FAB9417801F0FE01022952
:1069D0003AD1C178E1B10221ADF8061018E0097989
:1069E0004278032A17D0022A2ED141F08001802953
:1069F0002AD009E04278032A02D0022A04D023E0F8
:106A0000898811F0FE0F03D00021FFF7E5FE1BE09F
:106A10000DF1060214E00A0606D401EB810100EB39
:106A2000810191F84C1006E001F07F0101EB81013A
:106A300000EB8101097C11B10121ADF8041001AA1C
:106A400080210223FFF7FAFE02B080BDB0B5012815
:106A50004FF0000008BF012B00D0B0BD41F29814E8
:106A600041F29415C2F20004C2F2000520682968C0
:106A7000884205D141F29010C2F200000078F0B1D6
:106A8000206840F69011C2F2000101EB801110461F
:106A90004022FDF785FB2068013020602068202817
:106AA00004BF0020206020682968884205D141F297
:106AB0009010C2F20000002101704020B0BD41F2F0
:106AC0009110C2F20000012101700020B0BD000051
:106AD000F0B581B0402A18DC40F23C00C2F2000060
:106AE00014464278032A10D140F20016C2F2000682
:106AF00032886AB14278032AFAD040F2FE01C2F22B
:106B0000000100200880308000E0002001B0F0BDCE
:106B100040F20415C2F2000528462246FDF740FB6C
:106B200040F2FE07C2F200070020388040F23C002D
:106B3000A3B2C2F2000081212A463480FFF77EFE14
:106B40003888204438800120E0E740F68610C2F201
:106B500000000021017040F68810C2F200000160C0
:106B600040F68C10C2F20000016041F29110C2F2B6
:106B700000000122027041F29010C2F20000017088
:106B800041F29410C2F20000016041F29810C2F28A
:106B9000000001607047F0B581B040F68C1640F6F9
:106BA0008817C2F20006C2F20007306839688842CE
:106BB00006D140F68610C2F20000007800284CD0C2
:106BC000306840F2861141F29414C2F20001C2F220
:106BD000000401EB8010216840F69015C2F2000518
:106BE00005EB8111FEF7CAF830680130B0F12001E1
:106BF00018BF0146316030683968884205D140F6D7
:106C00008610C2F200000021017041F29110C2F220
:106C10000000017851B1002101702068402205EB8D
:106C200080110020FFF754FF012017E02068013099
:106C3000B0F1200118BF0146216041F29811C2F263
:106C400000012068096888424FF0010002BF41F24C
:106C50009011C2F20001087000E0002001B0F0BD08
:106C600070B5022836D1ABB31078072806D140F2B0
:106C7000FC00C2F200000121017070BD40F68614D4
:106C8000C2F20004207840F6881540F68C16C2F255
:106C90000005C2F2000620B128683168884208BFAA
:106CA00070BD286840F28611C2F2000101EB80102D
:106CB00011461A46FDF774FA2868013028602868E2
:106CC000202804BF0020286028683168884204BF5B
:106CD0000120207070BDB0B50C46054679B104EBBB
:106CE000840005EB8000D0E90712891AC1611CD02D
:106CF00082698BB228462146FFF7A0FD63E0E96870
:106D0000E9B104EB840005EB8004204650F81C2F09
:106D100050F8083C9A4222D9D11A0160A2698BB27C
:106D200028468021FFF78AFD28E0687803284AD1A9
:106D3000D5F8A030284601212246984743E041F289
:106D4000A910C2F200000178E9B345F6004241F013
:106D50008001C4F20002D1640021017033E08A4254
:106D600013D2B2FBF3F101FB132171B92846802144
:106D7000002200230024FFF761FDEC60284600217B
:106D800000220023FFF712FD1DE000240460687854
:106D9000032805D1D5F8A0302846012100229847C4
:106DA00045F60040C4F20000016848F68F621140C9
:106DB00001F58071016001684BF68F72114081F41A
:106DC00040510160EC600020B0BD00002DE9F04FA3
:106DD00083B045F600470020C4F20007ADF8060076
:106DE000ADF80400796C41F2AC18ADF80610C2F2AF
:106DF0000008D8F80010BDF806200A40120440F13F
:106E00008680ADF80A00ADF80800786C0104ADF892
:106E10000A007AD540F2380A40F23C0448F60F796D
:106E2000C2F2000AC2F20004BDF80A0000F00F0529
:106E300047EA85000168ADF80810BDF80A20BDF8E2
:106E40000810D2061AD409065AD5016801EA0901C8
:106E50000160DAF8000005EB850100EB0510808881
:106E600004EB81018A696FF39F20086210448861F6
:106E700020462946FFF72FFF42E000BF09B2B1F1DB
:106E8000FF3F3DDC016840F68F7211400160DAF887
:106E9000000000EB05118E896FF39F266EB1BDF8DF
:106EA0000820120500F1ED8005EB850004EB800061
:106EB000406D09893246FFF761FB05EB850004EB65
:106EC000800083465BF85C1F3144CBF800105BE91F
:106ED00002138A19991B4BF8082C4BF8041C02D09A
:106EE000006DB04207D92046294600F0D3F80020B3
:106EF000CBF8000004E08BB220462946FFF756FC91
:106F0000786C0104ADF80A008ED4D8F80010BDF8F2
:106F100006000840C00410D54EF6FF70786440F2B9
:106F20003C00C2F200008178417041F2B010C2F220
:106F30000000007808B9FFF7DFF9D8F80000BDF8C5
:106F40000610014009051ED5396CC9061BD440F254
:106F50003C00C2F20000417881700421417040F28F
:106F60003400C2F20000007810B100F019FA05E018
:106F700041F2A810C2F20000032101704FF2FF702D
:106F80007864D8F80000BDF80610084080050ED5DA
:106F90004FF6FF50786441F23820C2F200000068DA
:106FA00028B1016840F23C00C2F200008847D8F8DE
:106FB0000000BDF806100840C00523D54FF6FF605D
:106FC000786441F2A810C2F200000178D1B10178D2
:106FD000013901700178A9B941F2B011C2F2000182
:106FE0000A783B6C4FF6EF76012A03EA060202D1DB
:106FF0003A64002005E042F010023A640322027075
:1070000001200870D8F80000BDF8061008404005BF
:1070100034D54FF6FF30786440F23800C2F20000F9
:107020000068302101807021018140F23001C2F2FC
:107030000001B0220A6048F2FF71818140F23C00F9
:10704000C2F20000402141610165002148F68F72C3
:10705000002300BF41EA07063568043115401D438F
:107060000133032B3560F5D18021F964396889B289
:10707000396043F2202139600121417003B0BDE83D
:10708000F08F0189201D3246FFF778FA204600F084
:1070900056F93AE710B50A46044641B1607803282C
:1070A00041D1D4F8A0302046002198473BE0E06869
:1070B00098B102EB820004EB8000014651F8582F92
:1070C00051F8083C9A4212D9D31A0B60426D9BB218
:1070D00020460021FFF76AFB25E045F60040C4F298
:1070E0000000016848F68F62114001601BE0607883
:1070F000032805D1D4F8A03020460021002298476B
:1071000040F23800C2F2000000680021818045F69C
:107110000040C4F20000026848F6BF731A4082F0D3
:1071200030020260E160002010BD70478A8862B9B9
:10713000CA8852B9897841F2A91201F07F01C2F2DE
:10714000000211704278032A02D10021FFF744BBEC
:1071500040F23802C2F200021268002345F6004CE9
:107160009380C4F2000CDCF8003048F6BF721A407D
:1071700082F030020029CCF800200CBF012102214E
:107180004170704770B50446488841F23C26C2F20F
:10719000000610F0FE0F307005D020460021BDE83B
:1071A0007040FFF719BB617803291FD0022918BF6F
:1071B00070BD010607D0032120706170D4F89420BF
:1071C000C1B22046904740F23800C2F20000006889
:1071D0000021818045F60040C4F20000016848F6B5
:1071E000BF72114081F03001016070BD010620D0F6
:1071F0002178C0B245F600458142C4F2000509D0AD
:10720000D4F89820204690473178D4F8942020462E
:107210002170904740F23800C2F20000006800215F
:107220008180286848F6BF71084080F030002860EF
:1072300070BD02206070D4F89820002520460021FF
:107240002570904740F23800C2F200000068858047
:10725000C0E7704780B50A7802F01F02022A0DD0FD
:10726000012A18D0F2BB427802F0FE02022A11D1A4
:10727000498801290ED10121C1701CE08A88437818
:10728000032B0ED0022B18BF80BD42F08001C9B283
:10729000802927D180BD4278032A1FD0022A21D01D
:1072A000F8E7498839B942F08001C9B2802902D093
:1072B000D1B2FFF791FA40F23800C2F20000006844
:1072C0000021818045F60040C4F20000016848F6C4
:1072D000BF72114081F03001016080BD898811F0DA
:1072E000FE0FD7D00021BDE88040FFF775BA80B50A
:1072F0004278032A03D0022A18BF80BD03E08A889F
:1073000012F0FE0F04D00021BDE88040FFF764BA00
:10731000D0F89C2002B1904740F23800C2F2000041
:1073200000680021818045F60040C4F20000016839
:1073300048F6BF72114081F03001016080BD80B518
:1073400082B00279D0F8063041798DF80020CDF86E
:107350000230438902F06002402A8DF80110ADF836
:107360000630C36012D0202A09D062B947F2B44275
:10737000C0F6000252F821206946904706E06946AF
:10738000FFF78EF802E00021FFF726FA002002B096
:1073900080BDD0F8900050F821000178118070472E
:1073A00045F64040C4F20000016841F00C0189B28A
:1073B00001604168C90403D401200021FEF7DBBE4F
:1073C0004EF6FF71416001684FF6F772114001609F
:1073D0007047704702E008C8121F08C1002AFAD19E
:1073E00070477047002001E001C1121F002AFBD145
:1073F0007047120347004400330032002000410070
:1074000052004D000000140343004D00530049009A
:1074100053002D0044004100500000001A033000CA
:1074200030003000310041003000300030003000CA
:1074300030003000300000001403470044004C00CE
:1074400069006E006B002D004F00420000001E031B
:1074500043004D005300490053002D0044004100FB
:1074600050002000470044003300320000000600B6
:10747000FF0901A101150026FF00750895400901CB
:10748000810295400901910295010901B102C000F4
:107490001201100100000040E9288F0600010102DE
:1074A0000301E48D70097BDD41DA886E0E95C161C0
:1074B000B92D0000AB690008A76300082B71000814
:1074C000557200082B7100082D710008F96800083A
:1074D00053720008C36800088571000885690008B8
:1074E000EF720008D373000804030904E87400086D
:1074F000F2730008067400081C7400083874000851
:107500004E7400082875000800000020E00000000C
:10751000D473000808760008E00000206015000021
:10752000E47300080000000000A24A0409022900D8
:107530000101048032090400000203000005092152
:107540000001000122210007058103400001070519
:1075500002034000010000003000000001000000B4
:10756000006000400000000000000000000000007B
:10757000000000000000000000000000000000000B
:1075800000000000000000000000000000000000FB
:1075900000000000000000000000000000000000EB
:1075A00000000000000000000000000000000000DB
:1075B00000000000000000000000000000000000CB
:1075C00000000000000000000000000000000000BB
:1075D00000000000000000000000000000000000AB
:1075E000000000000000000000000000907400088F
:1075F00004000020EC7400084B5A0008355A0008BB
:08760000895A00084D590008E9
:040000050800416945
:00000001FF
