:020000040800F2
:10400000501600207D4100089F5C00080553000801
:104010009D5C0008E9410008F5650008E1BC8F815E
:10402000538017B1691C7FD5070000007F5E000830
:1040300009520008A55AA55A7D5E0008856400084B
:1040400097410008974100089741000897410008F0
:1040500097410008974100089741000897410008E0
:1040600097410008974100089741000897410008D0
:1040700097410008974100089741000897410008C0
:104080009741000897410008000000009741000890
:1040900097410008974100089741000897410008A0
:1040A0009741000897410008974100089741000890
:1040B0009741000800000000974100080000000040
:1040C0009741000800000000974100089741000850
:1040D00097410008F16500089741000800000000C2
:1040E0000000000000000000E9650008FFFFFFFF7E
:1040F00011122020FFFFFFFFFFFFFFFFFFFFFFFF69
:1041000097410008000000000000000097410008EF
:10411000000000000000000000000000000000009F
:10412000000000000000000000000000000000008F
:10413000000000000000000000000000000000007F
:10414000000000000000000000000000000000006F
:10415000000000000000000097410008974100089F
:104160009741000897410008DFF80CD000F02AF8CA
:1041700000480047B56A00085016002006488047EE
:1041800006480047FEE7FEE7FEE7FEE7FEE7FEE73C
:10419000FEE7FEE7FEE7FEE78964000869410008E4
:1041A00040EA01039B0703D009E008C9121F08C0B9
:1041B000042AFAD203E011F8013B00F8013B521E39
:1041C000F9D27047064C074D06E0E06840F0010365
:1041D00094E8070098471034AC42F6D3FFF7C8FFC5
:1041E000A47D0008C47D0008FEE7F8B536228DF8EE
:1041F0000020AA228DF8052025228DF80A209B2276
:104200008DF80F20026843688068CDF80120CDF852
:104210000630CDF80B00684602F09EF99DE80F00CD
:1042200048405040584004B080BD00002DE9F04F98
:1042300089B00C4690F900100546C8B2B1F1FF3FB5
:1042400008DC9F2806D82846214609B0BDE8F04F73
:1042500000F0B6BF00F16001C9B25E293DD9A046A9
:1042600008F8010B2F4617F8010B1D2800F2FE81FC
:10427000DFE810F01E003A00440054005E006800C1
:10428000B201FC01020216022802FC01FC01FC0141
:10429000FC01FC012E02C002DC02F202FE0222033B
:1042A0004A03FC01FC01FC01FC01FC01FC0164036C
:1042B0003978FF2900F07A85A01CF02900F07A8572
:1042C000FE2900F08085042940F08185302181801D
:1042D000E0490160062000F07BBD2846214609B078
:1042E000BDE8F04F00F071BF3878012800F0678317
:1042F000002840F06D83A878012162E33878002817
:1043000008BF0120022800F06583012840F069837E
:10431000D1480124047101F061FD63E3CE4800241B
:10432000047101F037FD012088F8004000F0E7BE7D
:104330006878C949087468888882A888C88200207B
:1043400000F012BDC4490879022800F05B830128FF
:1043500040F09A840022002007900A7095F802B07D
:10436000E01C8946EA1C059000204FF0000A00215D
:10437000CDF808B00491CDF81880BBF1000F00F023
:10438000D586904618F8016BB10713D4BAF1000F27
:104390004CD0B9F8145003920E2008A901F0C0FDCA
:1043A000ADB3022833D199F80000013D0028F3D0C5
:1043B00000F027BDBAF1000F26D0B9F8145006F06E
:1043C0001100012803920FD10135304608A901F0F0
:1043D000A7FD02284AD1013D00F0138599F800009D
:1043E0000028F2D000F00DBD0E2008A901F098FDC4
:1043F0004FF0000AD5B3022838D199F80000013DEA
:104400000028F1D000F0FBBC4FF0000A3EE001288C
:1044100040F0F884089805990880BDF8220088705B
:104420009DF82300C87004310591039AD2F8010069
:1044300002F10508B106CA46089010D4BAF8145023
:10444000304608A901F06CFD002D4ED002284CD159
:104450009AF80000013D0028F2D000F0D0BCCAF864
:10446000180051464FF0000A0120A1E0012840F059
:10447000C984089805990880BDF8220088709DF8C5
:104480002300C87004310591039A0120F10612D46B
:10449000B9F81450F10730D1304608A901F040FDB9
:1044A000002D42D0022840D199F80000013D00289B
:1044B000F2D000F0A6BCB9F8160002F1050803908E
:1044C000D2F801000190F00741D0B9F814503046FD
:1044D000002101F025FDBDB3022835D199F8000077
:1044E000013D0028F3D000F08CBC012840F05A8632
:1044F0004FF0000A0120012103E0BAF1000F02D0C1
:104500000021049153E03046002101F009FD002D07
:1045100059D0022857D199F80010013D4FF0000AF8
:1045200002200029EFD000F06DBC012840F06A8421
:10453000089805990880BDF8220088709DF823002E
:10454000C870043105912FE0012840F05B84B9F870
:104550001450304608A901F0E3FC3DB1022805D112
:1045600099F80010013D0029F3D011E001280FD186
:10457000039969B1D9F81810089A1140019A91422B
:1045800006D003990139039199F800100029DED073
:10459000D9F81810089A1140019A914218BF40F0BA
:1045A0001000012840F02E8400200490012049468C
:1045B000079A013207920978002940F02384ABF171
:1045C000010B4246D9E6012840F0EC85002004901A
:1045D00001204FF0010AEAE7DFF820AC9AF8040066
:1045E000022800F06283012840F0A98300228AF8A3
:1045F0000020A878E97804F1040940EA012BBBF116
:10460000000F00F0EE832E79B00700F1EC8300205C
:10461000CDF81090C14607900DF12008CDF80CB0F0
:10462000BBF1000F00F08C85381D05907868BAF852
:104630001470ABF1010B08903046414601F070FC5C
:1046400067B102280AD19AF80000013F0028F3D090
:10465000CFE300BF322E302EE4000020012840F0CE
:10466000C983079801300790059FD9E7FF20207084
:104670004FF0011000F045BDDFF8800B01790229F1
:1046800000F06383012940F06E83D5F8020008A989
:1046900008900020002401F043FC88F8004065E306
:1046A000DFF85C0BD2490068AA78B0FBF1F0032177
:1046B0000230B0FBF1F0697841EA02214843401E24
:1046C000FDD159E30020A4F80100022000F017BD3D
:1046D000D5F803E06978AD78C64815F0010207D037
:1046E000CB074FF008034FF0200408BF1823C45035
:1046F00015F0020307D08C074FF008044FF01007A5
:1047000058BF1824075115F00404CDF8188007D0BD
:104710004F074FF008074FF0800658BF1827C651C3
:1047200015F08006079608D04EB20827B6F1FF3F75
:104730004FF00806C8BF18268751BEF1000F3BD0C6
:1047400005F0200501F0E006B5FA85F5B6FA86F623
:104750006D09760946EA050BA74D8BF0010E2E6810
:104760004FEA910A4FEA510C4FEAD1182AB1D0F81A
:104770000090C9F34017B9421BD123B10768C7F3B2
:104780000017BC4515D154B10768C7F3C017BAEB81
:10479000070718BF012757EA0E0703D009E0BBF14E
:1047A000000F06D0079F3FB10768C7F3C007B845A1
:1047B00002D02F68B742D9D0016802680368042488
:1047C00004EA5313022404EAD202C1F34011114453
:1047D000026819440823006803EAD202114400F079
:1047E000080041EA001006990870844800F580200E
:1047F00000F085BCD5F80100002800F0DE80DFF86D
:10480000001A0968B0EB910F80F0C28200EB5101F1
:104810000139DFF8E829B1FBF0F1002301205371E1
:104820000322022988BFB1FBF2F0B5E26C78A91C23
:10483000002C08BF4FF48074204601F0FFFD0020DB
:1048400088F800004FF4604000EB443000F4FE00B4
:1048500000F1011000F053BC3878DFF8A029C0F354
:10486000800100F003000130517710770020A1E0B3
:10487000002060706F78AE1C02344FF001084FF0DA
:1048800001095FB316F8015B22462846314600F065
:104890009FFE15F03F0000F107004FEAD00008BF6F
:1048A000082015F080011CBF8144044406444044A4
:1048B00000F10108013FE4E76878DFF84029AB1C0C
:1048C0009077002120320024A0420BD01D5D02EB26
:1048D00044061555718029440134F5E749EA08403A
:1048E00000F00DBC0023984206D0D55C02EB4304D7
:1048F000491BA1800133F6E7002188F800104FF032
:10490000011101EB0040FAE3DFF8F0080179022918
:104910004FD13978C177807F81424AD20E2000F092
:10492000F3FC00F0F1FD0021A0706170010E6171D7
:10493000010C000A2171E0703148E0E30020607052
:104940006878AE1C04F102094FF0010A4FF001082B
:10495000C0F10104012C29D016F8015B15F03F00CD
:1049600000F107004FEAD00708BF082715F0800BB9
:1049700002D001F095F901E001F0AAF9284631468C
:104980004A4601F07DFA0CB901F0A2F9BBF1000F23
:1049900006D10AEB07003E4400F1010A0134D9E7D1
:1049A000B844B94460420AF1010AD1E748EA0A4032
:1049B000A5E3FF2088F8000016E0FF20F0E1A878CA
:1049C0000221C0070B4840F0D581C0F81814D3E18C
:1049D000FF20D2E1DFF824080224047101F092F9EB
:1049E00000E0002488F800404FF0011087E300BF8A
:1049F00040420F0010000048041000E001000200D7
:104A00000500010000260E70687804F1030AC877DB
:104A1000897F884280F0E181CDE905A895F8028080
:104A200005F1030B0026002000254FF0000ACDF809
:104A30000480B8F1000F079600F08083CDF808B02D
:104A40001BF8019B0522494662F35F0104915FEA6E
:104A5000897119D4002D4AD0BAF10A0F039502D0FA
:104A60000A2000F051FCDFF89457DDF814A0AE8A5C
:104A70000E2008A900F0FCFD2EB3022823D12878CF
:104A8000013E0028F4D03BE2CDB119F010000390B4
:104A9000DFF86807868A51D1049882454ED10136E5
:104AA000484608A900F0E4FD02285ED1013E00F06E
:104AB000D582DFF8480700780028F1D0CEE209F06F
:104AC0001001002561E0012840F06F830898AAF8E2
:104AD0000000BDF822008AF802009DF823008AF841
:104AE00003000AF1040ACDF814A04FF00A0A029953
:104AF000D1F8010001F1050B5FEA8961089018D433
:104B000004988245824602D0504600F0FDFBDFF853
:104B1000EC56AE8A484608A900F0AAFD002E00F027
:104B20008680022840F083802878013E0028F1D05A
:104B300093E2DFF8C8160D4688617BE0BAF10A0FF0
:104B400002D00A2000F0E0FB0E2008A900F090FD42
:104B50004FF00A0A002546B1022806D1DFF89C066C
:104B6000013E00780028EFD075E2012840F07782FE
:104B7000089805990880BDF8220088709DF82300E8
:104B8000C870043105910399012001B3DFF86C0668
:104B90000395C08A0090029800F1050BD0F801003F
:104BA000029004988245824602D0504600F0ACFB49
:104BB000DFF84856AE8A4846002100F059FD5EB144
:104BC000022809D12878013E0028F4D09AE1F5B3F3
:104BD0000395DFF8285630E0012840F09481AE8A32
:104BE000484608A900F044FD36B1022804D12978CE
:104BF000013E0029F4D00FE001280DD1009959B1F0
:104C0000A969089A1140029A914205D00099013988
:104C1000009129780029E2D0A969089A1140029AE6
:104C2000914218BF40F01000012805D06BE1012827
:104C300040F0C082002003900120079E29780136B1
:104C4000002940F06181039DA8F10108F1E6049874
:104C50008245824602D0504600F056FBDFF89C5554
:104C6000AE8A4846002100F003FD36B1022804D187
:104C70002878013E0028F4D0EFE1012840F09A8224
:104C8000012101200391D8E7A978E81C002978D0F8
:104C90000278930701D4052204E0D2064FF0050202
:104CA00058BF012210440139F0E74FF0000B8AF899
:104CB00000B0387804F104098AF81F009AF81E1031
:104CC000884280F0C880A878E97840EA012BBBF1DF
:104CD000000F00F0BE802E7906F0010004900A302B
:104CE00000F012FBB00700F1E2800020CDF80C903C
:104CF000CDF8188007900DF12008D946B9F1000FC2
:104D000000F03382381D05907868BAF81470A9F164
:104D1000010908903046414600F0AAFC3FB1022844
:104D200005D19AF80000013F0028F3D0E0E0012807
:104D300040F0DF80079801300790059FDEE70020F4
:104D4000E070A4F8010003206CE13978C177807F1E
:104D5000814208D2082000F0D7FAD5F8020000F00E
:104D6000C9FEFFF7ECBAFF2088F80000D64800F52E
:104D70004030C4E1C0F80814002088F80000D24890
:104D8000BDE1C01B00210004A4F801100230B6E10F
:104D9000DFF8681401204871DFF860148860002093
:104DA00088F80000C84800F50030A8E14020608085
:104DB00002200DE0DFF8481433220968002908BFFB
:104DC0001322027001E020210170012000E0002088
:104DD00088F8000000F1021093E105F1020B0020B9
:104DE00085E1002018E1F00771D1CDF8188000208E
:104DF000D6E00220C846DDF81090079A0CE14FF08B
:104E0000000A022000218B450DD098F8002093075E
:104E100001D4052204E0D2064FF0050258BF01225A
:104E200090440131EFE7012840F00C81BAF1000F06
:104E300018D0B9F8146008AD0E20294601F070F8BA
:104E400036B3022824D199F80000013E0028F3D09F
:104E50001CE04FF0000B0020E07084F801B04FEA36
:104E60001B20DCE00498002800F0EB80B9F8140067
:104E7000451C0E20002101F053F8022840F0E2808A
:104E8000013D03D099F800000028F2D00220D9E0BB
:104E9000079901283AD10898059A1080BDF8220098
:104EA00090709DF82300D07004320120CCE0BAF855
:104EB00014703046002100F0DBFB4FB3022827D1ED
:104EC0009AF80000013F0028F3D0022060E0BAF811
:104ED00014703046002101F023F8002F5BD0022827
:104EE00059D19AF80000013F0028F2D0022092E048
:104EF0000220DDF81CB0DDF81880DDF80C90ABE77F
:104F00004FF00A0A0220079E039DA9E0059A9BE044
:104F100001283DD1CDF8188004980DF1200880F0CB
:104F2000010100205A460491002A00F04581013A0F
:104F3000079010460CBF0E2601200843059203D1AE
:104F40000A2000F0E1F90E26BAF814703046414606
:104F500000F08EFB3FB1022805D19AF80000013F16
:104F60000028F3D0E6E0012840F0E5800898BDF87D
:104F7000221089F80210A9F800009DF8230089F892
:104F800003000798DDE90412013009F10409CBE7B9
:104F90004FF0000B60E701283DD10120CDF81880CB
:104FA00000210DF120080791CDF80CB0BBF1000FE6
:104FB00000F0D780F007ABF1010B304618BF0E2090
:104FC000BBF1000F08BF0646BAF8147030464146E0
:104FD00000F0A6FF3FB1022805D19AF80000013F7A
:104FE0000028F3D013E0012812D10898BDF8221050
:104FF00089F80210A9F800009DF8230089F8030041
:10500000079809F10409013007900120CEE702203A
:10501000DDE9068200E00022E070100A6270A070F4
:10502000A9EB08002979890708D4EA78A9789206BB
:1050300042EA814101F58021084360E040F480208C
:105040005DE00120059A0799A07061700699A8EBB0
:105050000700511A51E04FF00A0A00250220079E6E
:10506000002188450DD09BF80020930701D405222C
:1050700004E0D2064FF0050258BF012293440131EB
:10508000EFE701281DD10796DDF81880BAF10A0F65
:1050900002D00A2000F038F9DFF86091B9F8146006
:1050A000A5B1DDF814A008AD0E20294600F0E0FA05
:1050B00056B3022828D199F80000013E0028F3D009
:1050C00013E0DDE905A812E001000200DDF814A0FC
:1050D000751C0E20002100F0CBFA022806D1013DFC
:1050E00003D099F800000028F3D00220079EA0709A
:1050F000ABEB0700AAEB0801667041EA004000F143
:10510000011009B0BDE8F08F079E0128EFD1089883
:10511000AAF80000BDF822008AF802009DF82300DA
:105120008AF803000AF1040A0120E0E70299904698
:10513000079167E60220DDE9068B8DE6019E8FE789
:10514000BAF81400461C0E20002100F0E9FE0228E7
:1051500023D1013E20D09AF8001002200029F2D07D
:105160001BE0039ADDF8188056E7049810B10A2076
:1051700000F0CAF8BAF81400461C0E20002100F016
:1051800077FA02287FF4B7AE013E11D09AF80010EA
:1051900002200029F1D0AEE60220039AC846DDF8CD
:1051A000109039E74FF0000A2CE64FF00A0AAAE601
:1051B0000220A0E6002552E7DDF8188001204BE62A
:1051C000007808704FF001107047FF2008704FF012
:1051D0000110704709480021012281808177828374
:1051E0006422C0E9052101740549064A0968B1FB3A
:1051F000F2F10239816000F0CDBD00BFE400002073
:105200000800002080841E0070470000F8B50C469E
:10521000017801F0F802D02A13D1254605F8011BC8
:105220000178D03907290AD8DFE801F004151810F1
:10523000491B3B6501F0FAFAC4F801000534FF216F
:105240003FE02146BDE8F840FEF7F0BFD0F801008E
:1052500001F05AFB33E001F097FB30E001F04EFB28
:105260002DE0B0F80560382E29D8D0F80140C71DD0
:10527000300424D0394611F8010BB2B2012A02D110
:1052800000260F4604E07978023E40EA012002370A
:1052900081B2204601F01AFB0234FF210028E7D03A
:1052A0000EE01649D0F801203C318A4204BF4FF28B
:1052B000AC72C1F6FF72B0F805003E2803D9FF2199
:1052C0002C462170F8BD002161700D498A420DD035
:1052D0000234FF210304F4D00138030401D1117812
:1052E000F8E712F8013B04F8013BF3E73F20C4F86C
:1052F00002000634A3E701F07FF900BFACF7FF1FFF
:105300001C900008FEE70000F0B569491024202336
:10531000DFF8082C0C600B615578E5B30B600B616E
:105320000B600C6180240B610B600B610B600C60E7
:10533000D57E02EB4504E68B1EB10B610B60013E8E
:10534000FAE72A44127F8025531E01F1100220261D
:105350004BB1C7070F4608BF17463D600E610E6090
:10536000013B4008F4E7238C002B00F08080C0074D
:10537000084608BF10468022026020200C460861C3
:1053800020600C4644F8102B013B4FF02002F7D16F
:105390001020086076E055686D1EFDD10B605568E1
:1053A0006D1EFDD10B6155686D1EFDD10B605568FA
:1053B0006D1EFDD10C610B615468641EFDD10B6044
:1053C0005468641EFDD10B615468641EFDD10B60EE
:1053D0005468641EFDD180240C60D47E02EB44042A
:1053E000E48B4CB10B6155686D1EFDD10B605568A7
:1053F0006D1EFDD1013CF4E7D37E802513441B7F55
:1054000020265C1E01F110037CB1C7070F4608BFC0
:105410001F463D600E6157687F1EFDD10E605768C4
:105420007F1EFDD1013C4008EEE7D47E02EB440430
:10543000248C002C3ED0C007084608BF18468023A5
:1054400003602020086155686D1EFDD10860556815
:105450006D1EFDD10B60631EF3B108615468641EBC
:10546000FDD108605468641EFDD1013BF4E71022B1
:105470000B46C00743F8102B08464FF0800208BFC8
:105480001846026020201022086108600861086048
:105490000A610861086034E010200860202008617B
:1054A00053685B1EFDD108605068401EFDD115E0B9
:1054B00018000048C0074FF010030C46084644F897
:1054C000103B08BF204680230360202020605368E3
:1054D0005B1EFDD108605068401EFDD12020086190
:1054E00053685B1EFDD1086053685B1EFDD110231D
:1054F0000B61086153685B1EFDD108605068401E57
:10550000FDD180200860F0BD70B5F0481023202246
:105510005649036002614C68641EFDD102604C680C
:10552000641EFDD1036102614B685B1EFDD1026008
:105530004B685B1EFDD102614B685B1EFDD10260B2
:105540004B685B1EFDD1CB7E4BB102614C68641E83
:10555000FDD102604C68641EFDD1013BF4E70022DE
:105560006FF01E03202483B104614D686D1EFDD1D0
:1055700050F8085C046005F040054E6842EA456258
:10558000761EFDD152080133EDE71023202403607D
:1055900004614D686D1EFDD150F8085C04604E68D2
:1055A000761EFDD104614E68761EFDD104604E6802
:1055B000761EFDD1036104614B685B1EFDD1046062
:1055C0004868401EFDD105F0400042EA406070BDD1
:1055D0002DE9F04F4306BD4BDFF8A4AE1C4603F1A6
:1055E000100858BF4446102500F0800C10F03F0B07
:1055F0004FF0800E4FF02009256008BF4FF0400BA0
:10560000BBF1000F08BFBDE8F08F0F780026002423
:105610001AE0FD071D4608BF4546C5F800E0C3F87F
:105620001090DAF804506D1EFDD153F8085CC3F8F1
:105630000090DAF80400401EFDD105F04000400063
:1056400040EA540401367F08B34518BF082EE0D164
:10565000ABEB060B0131BCF1000FD1D0C6F1080055
:1056600024FA00F002F8010BCAE700BFE8000020AE
:105670002DE9F047954B10252022DFF8044E1D60E0
:105680001A616678002E58D01A601D611A611A607E
:105690001A611A6094F81BE075461DB11A611A6010
:1056A000013DFAE71A4610F0020803F1100608BFA0
:1056B00032464FF08009C2F80090202247071A6155
:1056C0001F4653F808CC1A6058BF3746C7F80090F9
:1056D0001A61050753F808AC1D461A6058BF3546D5
:1056E000C5F800901A61022753F8089C1A6007EA6F
:1056F0005C17CAF380153D44042707EA191705EB28
:10570000070CBCF1010F40F0A580B8F1000F40F08C
:10571000B38009686FF01E024FF080082025002A30
:1057200000F0BA80CF071F4608BF3746C7F8008091
:105730001D611D6001324908F1E76668761EFDD1E2
:105740001A606668761EFDD11D611A6165686D1E5E
:10575000FDD11A6065686D1EFDD11A6165686D1E08
:10576000FDD11A6065686D1EFDD1E57E4DB11A61EF
:105770006668761EFDD11A606668761EFDD1013D11
:10578000F4E71A464FF080084FF0200A10F0020E9E
:1057900003F1100508BF2A46C2F80080C3F810A024
:1057A0006268521EFDD153F808CCC3F800A06268AD
:1057B000521EFDD142071A4658BF2A46C2F8008041
:1057C000C3F810A06268521EFDD153F8089CC3F8BC
:1057D00000A06668761EFDD106071E4658BF2E46FD
:1057E000C6F80080C3F810A06668761EFDD153F895
:1057F000086CC3F800A06268521EFDD1022202EAC2
:105800005C12C9F380173A44042707EA161602EB24
:10581000060CBCF1010F22D1BEF1000F40F06F80E9
:1058200009686FF01E024FF0800E2027002A00F05A
:105830007F80CE071E4608BF2E46C6F800E01F61D7
:105840006668761EFDD11F606668761EFDD1013246
:105850004908EBE7102119601A611A60C8E01021AD
:105860001960C3F810A06168491EFDD1C3F800A0FB
:105870006168491EFDD111E100266FF01E0220254E
:1058800032B31D6153F8087C1D6007F0400746EAFB
:10589000476676080132F3E7A27E6FEA0E05AD187F
:1058A00000F08980C907194608BF314680250D6080
:1058B000AEEB02010131202201311A611A60FBD3E3
:1058C000102119602021196182E000BF18000048F2
:1058D000A27E6FEA0E05AD1800F07C8020251D61C8
:1058E000AEEB0202971C53F8082C1D6017B11D6126
:1058F0000137FAE710251D6020251D6170E04FF08B
:1059000000086FF01E022026002A35D01E6167684D
:105910007F1EFDD153F8087C1E6065686D1EFDD1A9
:1059200007F0400548EA45654FEA55080132EBE7C4
:10593000E67EA27EF743BF1800F08880C9071946AB
:1059400008BF294680250D602021196165686D1EFC
:10595000FDD11960B21A656802326D1EFDD1002AB0
:1059600000F05C80196165686D1EFDD11960656885
:105970006D1EFDD10132F2E7E67EA77EF243D21919
:1059800000F0798020221A6165686D1EFDD153F800
:1059900008EC1A6065686D1EFDD1F51BAF1C002F69
:1059A00048D01A6165686D1EFDD11A6065686D1E6C
:1059B000FDD10137F3E7C9074FF010021D46194624
:1059C00045F8102B08BF294680220A602021296053
:1059D00019600DE010221A6020221A6153F8082C79
:1059E00020251D6021B102F0400246EA42620A60B1
:1059F00020211022196119601A61802200061961A4
:105A000019601A6002D53A480068A060207B00281F
:105A100000F06A80196119600138F8E710211960F7
:105A2000202119616268521EFDD119606168491E0A
:105A3000FDD133E010221A6020221A6165686D1EC4
:105A4000FDD11A606268521EFDD121E0C9074FF0F6
:105A500010021D46194645F8102B08BF2946802222
:105A60000A60202129606268521EFDD119606168B8
:105A7000491EFDD112E010221A6020221A616568C9
:105A80006D1EFDD153F808EC1A606268521EFDD1FC
:105A900021B10EF0400248EA42620A6020211961F9
:105AA0006268521EFDD119606268521EFDD110223B
:105AB0001A6119616268521EFDD119606268521E36
:105AC000FDD1802200061A6002D509480068A06056
:105AD000207B48B119616268521EFDD1196062686D
:105AE000521EFDD10138F4E76046BDE8F08700BFE3
:105AF000041000E0F0B5D74B1022202458491A605A
:105B00001C614D686D1EFDD11C604D686D1EFDD180
:105B10001A611C614A68521EFDD11C604A68521EFF
:105B2000FDD11C614A68521EFDD11C604A68521E9C
:105B3000FDD1CD7E1A464DB114614E68761EFDD161
:105B400014604E68761EFDD1013DF4E74FF0800CE5
:105B50002025C2F810C015614E68761EFDD1156073
:105B60004E68761EFDD115614E68761EFDD115601A
:105B70004E68761EFDD115614E68761EFDD115600A
:105B80004E68761EFDD16FF01E0703F1100687B137
:105B9000C4071C4608BF3446C4F800C015614C68F1
:105BA000641EFDD115604C68641EFDD101374008AC
:105BB000EDE7CD7E8C7EEF433F1927D0C0074FF035
:105BC000800008BF33461860202010614B685B1EC0
:105BD000FDD110604B685B1EFDD12B1B02334BB116
:105BE00010614C68641EFDD110604C68641EFDD1CC
:105BF0000133F4E710201060202010614B685B1E19
:105C0000FDD110604868401EFDD113E0C0074FF081
:105C1000100415464FF0800045F8104B08BF2B4686
:105C20001860202028604B685B1EFDD1106048681A
:105C3000401EFDD1202010614B685B1EFDD110601D
:105C40004B685B1EFDD11023136110614B685B1E16
:105C5000FDD110604868401EFDD180201060F0BD6D
:105C6000E800002010B5844C0121204600220123C9
:105C700000F0DBFE204600210322012300F0FCFEA1
:105C8000204601210022022300F0CFFE2046002101
:105C900003220223BDE8104000F0EEBEFEE770478D
:105CA0001748102141614FF090410A6822F4407278
:105CB0000A600168012241F010010160416841F46D
:105CC00040714160816862F309218160704700BFC3
:105CD0000B48102141624FF090410A68012363F3A1
:105CE00009220A60016821F010010160416841F455
:105CF00040714160816821F440718160704700BF4C
:105D0000040000482DE9F041514D4FF09040012131
:105D1000002220234FF02008A8471D4F4FF090404D
:105D2000002103222023B8474FF090400121002298
:105D300010231026A8474FF0904000210322102383
:105D4000B8474FF09040002101224023A8474FF070
:105D500090400121002280238024A8474FF09040EA
:105D6000002103228023B8474FF0904000210122F8
:105D700008230827A847ED4D0120C5F800802E60B4
:105D80002C602F6100F058FD2F60BDE8F08100BF4E
:105D9000796A000810B52E4C4FF090400021012286
:105DA0002023A0474FF09040002101221023A0475C
:105DB0004FF09040002101224023A0474FF0904037
:105DC000002101228023A0474FF0904000210122B2
:105DD0000823A446BDE81040604700BFF8B51C4D3D
:105DE0004FF090400121002220232024A8474FF0AB
:105DF000904000210322202300F03EFE4FF090400F
:105E00000121002210231026A8474FF090400021C6
:105E10000322102300F030FE4FF0904000210122B9
:105E20004023A8474FF09040002101228023A8473B
:105E30004FF090400021012208230827A847BB4DBE
:105E400001202C602E602F6100F0F6FC2F60F8BD61
:105E50002B6A00081800004810B5074C01212046A5
:105E60000022802300F0E1FD204600210322802350
:105E7000BDE8104000F000BE0004004870477047C5
:105E8000F0B510F03F0308BF40230006A7481FD419
:105E9000224D4FF0100C2024002B3ED00F7800260E
:105EA0000FE0FA07024608BF1032C2F800C00461D2
:105EB0006A68521EFDD104606A68521EFDD1013627
:105EC0007F08B34218BF082EEBD19B1B0131E3E7DB
:105ED000124C4FF0200C03B30025002611E0C0F84F
:105EE00010C067687F1EFDD150F8087CC0F800C064
:105EF0006168491EFDD107F01001C90041EA56064C
:105F00000135AB4218BF082DE9D1C5F1080126FAC9
:105F100001F15B1B02F8011BDDE7F0BDE80000208A
:105F20002DE9F047814F824610202025DFF850658B
:105F300038603D6188467178002900F083805FEA0F
:105F4000CA7239463A4641F8105B08BF0A461060EB
:105F50003A460D603D601AF0020908BF0A4610601B
:105F60005FEA4A723A460D603D6058BF0A461060CB
:105F70005FEA0A723A460D603D6058BF0A461060FB
:105F80000AEB5A0202EB9A0202EBDA02D2073A4615
:105F90000D603D6008BF0A4610600D603D600860FE
:105FA0000D603D6038600D603D60FFF779FE307E2A
:105FB00001463D6111B13D600139FAE7202257F8F1
:105FC000081C3A603A6157F8083C3A603A6157F861
:105FD000084C3A60022202EAD302C1F300111144D4
:105FE000042202EA94028D18042D18BF022D40F0FD
:105FF0000581B9F1000F0DD0717E59B16FF020010C
:10600000202239B13A613A600131FAE72021396141
:10601000396001380028F9D1FFF75AFEB9F1000FB5
:1060200040F00482707E002800F000821020386169
:106030006FF020002021002800F0F88139613960DC
:106040000130F8E77168491EFDD1394641F8105B0F
:106050007268521EFDD15FEACA723A4608BF0A460C
:1060600010600D607268521EFDD13D607268521E54
:10607000FDD13A461AF0020908BF0A4610600D60C9
:106080007268521EFDD13D607268521EFDD15FEAFA
:106090004A723A4658BF0A4610600D607268521E36
:1060A000FDD13D607268521EFDD15FEA0A723A4628
:1060B00058BF0A4610600D607268521EFDD13D60E7
:1060C0007268521EFDD10AEB5A0202EB9A0202EBF1
:1060D000DA02D2073A4608BF0A4610600D607268BD
:1060E000521EFDD13D607268521EFDD108600D60E8
:1060F0007268521EFDD13D607268521EFDD138603B
:106100000D607068401EFDD13D607068401EFDD17D
:10611000FFF7C6FD307E3D617168491EFDD138B183
:106120003D607168491EFDD10138F4E71800004850
:10613000202157F8080C39607268521EFDD1396170
:106140007268521EFDD157F8082C396073685B1EC7
:10615000FDD1396173685B1EFDD157F8083C396089
:106160007168491EFDD1022101EAD201C0F300107D
:106170000844042101EA93014518042D18BF022D9B
:1061800040F04880B9F1000F0FD0707E68B16FF019
:106190002000202148B139617268521EFDD139605A
:1061A0007268521EFDD10130F4E7307E202148B1E3
:1061B00039617268521EFDD139607268521EFDD17C
:1061C0000138F4E7FFF784FDB9F1000F40F02E81AC
:1061D000707E002800F02A81102038616FF02000C6
:1061E0002021002800F0228139617268521EFDD101
:1061F00039607268521EFDD10130F2E7012D1ED1C7
:10620000B9F1000F33D12021002847D0396139601E
:106210000138F9E7012D19D1B9F1000F40F08A805A
:10622000307E2021002800F09E8039617268521E65
:10623000FDD139607268521EFDD10138F2E721307C
:10624000202188B1396139600138FAE7307E202198
:10625000213048B139617268521EFDD139607268CF
:10626000521EFDD10138F4E7FFF732FDDEE00021D8
:106270006FF01F024FF0200C0024C7F810C057F831
:10628000085C4FEA1515C7F800C002B3EB0743EAF4
:10629000510105F001031C440132EEE7FFF718FD40
:1062A000D8F8001000206FF01F0307F110024FF024
:1062B000100C2024EBB1CD073D4608BF1546C5F8AC
:1062C00000C03C613C60084401334908F2E785EABC
:1062D0000402D2074FF0080508BF0125B8F1000FEE
:1062E00018BFC8F80010202170B139613960013839
:1062F000FAE7C007384608BF104610210160202089
:1063000001253861386001E0FFF7E2FC5FEA0A60CE
:1063100002D549480068B060307B002800F08680D4
:10632000102139612021002800F080803961396016
:106330000138F8E700206FF01F01202200233A61A6
:106340007468641EFDD157F8084C3A6075686D1E7C
:10635000FDD1240939B3E50704F0010445EA5000F2
:1063600023440131EBE7FFF7B3FCD8F8001000201D
:106370006FF01F0307F110024FF0100C2025002BC7
:106380002BD0CC073C4608BF1446C4F800C03D6182
:106390007468641EFDD13D607468641EFDD10844BC
:1063A00001334908EBE784EA0301C9074FF0080508
:1063B00008BF0125B8F1000F18BFC8F80000307EF3
:1063C000202100281AD039617268521EFDD139602F
:1063D0007268521EFDD10138F3E7C007384608BF86
:1063E000104610210160202038617168491EFDD1DE
:1063F000386070680125401EFDD101E0FFF768FCA0
:106400005FEA0A6002D50C480068B060307B68B172
:1064100010213961202148B139617268521EFDD1C5
:1064200039607268521EFDD10138F4E710203860DF
:106430002846BDE8F08700BF041000E0F0B50F4A21
:106440000F4E00234FF0100C20250027A8B1013873
:1064500017B911F8013B0827DC07144608BF1034B0
:10646000C4F800C015617468641EFDD115607468BD
:10647000641EFDD1013F5B08E8E7F0BD180000484D
:10648000E800002000F0DEB910B52D48016841F0A9
:106490000101016001688907FCD54168294A2B4B3D
:1064A00011404160426828490A404260426822F433
:1064B0004002426002681A400260C26A40F243131E
:1064C00022F00F02C262026B9A430263426B22F017
:1064D0000102426300228260026842F4803202605C
:1064E00040F2FF72531E0468934203D214F4003248
:1064F0001A46F7D0026892031ED54268426042688D
:10650000426042684260426811404160416841F423
:10651000E8114160016841F0807101600168890102
:10652000FCD5416821F003014160416841F002015E
:10653000416041680907FCD505480649016010BD66
:10654000001002400C00FF08FFFFC277FFFFF2FEC1
:1065500008ED00E0004000082DE9F041214A85687F
:106560004FF0160C4FF0000E90465FEA0C6608BF25
:10657000BDE8F081C644ACF1010CCEF381060027E2
:106580004246022F19D000EB870487EA06036468AD
:1065900051F8233084EA0E026B401A44E308A40049
:1065A00083EA051384EA551423445A4050F82730EF
:1065B000D51840F827500137E3E786F00206026855
:1065C00051F8266082EA0E046E403444D6089200E8
:1065D00086EA051682EA5512836832446240D5186D
:1065E0008560C2E7B979379E4FF4802000F068B922
:1065F00001F088B8FEE700000648BFF34F8F064A57
:10660000016801F4E06111430160BFF34F8F00BFE7
:10661000FDE700BF0CED00E00400FA05F8B57F4F80
:106620000446F869012900F10100F86108BF012A58
:1066300016D099BB022A31D1374E0120009002209A
:10664000002132464023002500F0BAFF20460221F7
:106650003246402300F0DEFDF86A0130F86234E093
:1066600078883988884208D36F4A012000210123A5
:10667000002500F001FF38807D803888402808D14F
:10668000694A20468121402300F008FE7888403086
:106690007880B86A00250130B86216E0012908BF89
:1066A000002A09D052EA01000BD0386B02250130D4
:1066B00038637963BA6308E0386A002501303862CC
:1066C00003E0786A0025013078622846F8BD00BFF3
:1066D00010B58121044600F0C5FC2046022100F0DF
:1066E000C1FC002010BD0000B0B54D4D002105F1EA
:1066F0001B02044600F0DCFC05F1220220460021CA
:1067000000F0D6FC044A20460221402300F082FD1E
:1067100000F00CFF0020B0BDF5010020B0B504462C
:1067200008784A8810F060034FEA122015D0202B19
:106730005DD14B78013B0A2B37D8DFE803F0062EFA
:106740002736363636363B402A00032852D00128F9
:106750005ED1354DD1B2012050E04B780B2B0DD0DE
:106760000A2B0FD0062B42D1212832D0222838D133
:10677000CB882C4A212B28BF212334E02749D0B2D3
:10678000886134E0254800F118020AE0234A506984
:1067900005E02249D0B2486113E0204A106902F8AE
:1067A0003C0F2046802101231FE0204600F003FC1F
:1067B00002251DE01948C1680131C16017E0174981
:1067C00008612046802100220023002500F066FD9C
:1067D0000EE01348CB8800F11202092B28BF0923D1
:1067E00001E0002300222046802100F057FD002513
:1067F0002846B0BD0948D1B2051D03202A46002312
:1068000000F03AFE204681212A46402300F046FD52
:106810000248816801318160E9E700BF140100206E
:106820000C000020107D0008B40100200148006821
:10683000704700BF002004E006490860086800288F
:10684000FCD170470348016811B10168013901604A
:10685000704700BF3812002010B5184B01291C6882
:1068600024EA00041C605C6824EA00045C609C6804
:1068700024EA00049C60DC6824EA0004DC6004D0A4
:1068800031B919680143196002E059680143596040
:10689000022A09D0C143012A09D072B99A6810436B
:1068A0009860D868084007E09968014301E09A6859
:1068B00011409960D9680843D86010BD00040140B8
:1068C00001490860704700BF1404014070B50546D7
:1068D0004FF470200C4600F035F800B170BD184E32
:1068E000306840F0010030604FF470202C8000F0E0
:1068F00029F8316821F00101316070BD104801684C
:1069000041F0800101607047B0B504464FF470203B
:1069100000F018F800B1B0BD094D286840F0020041
:1069200028606C60286840F0400028604FF47020B8
:1069300000F008F8296821F002012960B0BD00BF0D
:106940001020024070B5441E0025013C45F10006B0
:1069500000F008F8012801D1002EF6D1012808BF67
:10696000042070BD07480168C9071CBF012070479B
:106970000168C9064FBF03200068022101EA5000E8
:10698000704700BF0C2002400448C168090603D5C7
:106990000349016003490160704700BF04200240C1
:1069A00023016745AB89EFCDB0B5144A45F2555385
:1069B00013600E4B1C46D56805F0010514B1013477
:1069C000002DF8D145B95160D16801F0020113B131
:1069D00001330029F8D109B10020B0BD6FF31F3099
:1069E00090604AF6AA2010600120B0BD0200F0FFBE
:1069F00002484AF6AA210160704700BF00300040FB
:106A00008161704780B5FFF727FAFFF72BF9FFF791
:106A1000E5F94FF48020FFF753FF4FF48020002169
:106A20000022BDE88040FFF717BF2DE9F043D0F802
:106A300000E0D0F80C8000264FF0030C0027102F48
:106A400014D023FA07F4E4070DD00CFA06F502FA85
:106A500006F928EA050444EA090801FA06F42EEAD0
:106A6000050545EA040E02360137E8E7C0F800E004
:106A7000C0F80C80BDE8F083F0B50129416814BF6F
:106A8000994319434160816800244FF0030C0026AC
:106A9000102E0CD023FA06F7FF0705D00CFA04F5E8
:106AA00002FA04F7A943394302340136F0E7816062
:106AB000F0BD000000F040F900F08EF800F0C0F9E1
:106AC000FFF7A0FF3D4C01272760FEF783FBA046A0
:106AD00027613B4D3B4C3C49AE682046FDF785FBAA
:106AE000864206D038492D682046FDF77EFB854258
:106AF0004DD10A20FFF7A0FE344C204600F01CFACE
:106B000000F014FDA8F1180080214546FFF778FF3A
:106B10002F4E4FF000080520C6F8008060706078A6
:106B2000032811D03068411C3128316006D0042878
:106B300002D028B92F6003E02F6101E0C6F8008081
:106B40000A20FFF779FEEAE7012464202C61FFF7B1
:106B500073FE204F0020C6E900074FF47A7005212C
:106B6000FFF722FFFFF744FF00F0ECFC0028384657
:106B70000BD1706828B1B0F57A7F05D12C607068B0
:106B800002E038462C61776001387060EAE7002443
:106B9000474608F110064FF00108022514F00100E5
:106BA000384608BF3046C0F80080304608BF384637
:106BB00005603220FFF740FE0134EFE7180400487B
:106BC000F4000008ACF7FF1F447D000838000020E7
:106BD0000C010020400D030080B54FF4A06000F0D0
:106BE00053F825200221002200F008F82A20002175
:106BF0000022BDE8804000F001B8000010B5264B2F
:106C00001C6804F4E064B4F5E06F02D100230424AE
:106C100023E01C6804F4E064B4F5C06F02D10123E2
:106C200003241AE01C6804F4E064B4F5A06F02D1F8
:106C30000224022311E01C6804F4E064B4F5806FC0
:106C400002D10323012408E01B6803F4E063B3F5D9
:106C5000407318BF01239C000423A1400F2424FA91
:106C600003F31A401143304A090140EA020383F852
:106C700000131C2101EAD00100F01F00012303FAD8
:106C800000F0885010BD00BF024908430249086067
:106C9000704700BF0000FA050CED00E010B5214A76
:106CA000234C1368002923F003031360136840EAA0
:106CB000030010601C48D0F8102C42F00402C0F809
:106CC000102C50F8F03C194A136003685360436875
:106CD00093608368D36050F8F03C03EA040340F803
:106CE000F03C144BC0F880306FF48063C0F88430FF
:106CF0004FF0FF33C0F888300FBF30BF40BF20BF18
:106D000020BF116840F8F01C516801609168416033
:106D1000D1688160D0F8101C21F00401C0F8101C6B
:106D200010BD00BF0070004000E100E0A4010020A1
:106D30000400010019EFFFB710B5094C40F21150E3
:106D4000A04740F21250A04740F21C70A04740F20A
:106D50001770A0470020BDE8104000F035B800BF14
:106D6000916D0008104A8109895800F01F0021FA2E
:106D700000F000F00100704700F01F01012202FA4C
:106D800001F1094A8009835819438150704700BFB7
:106D900000F01F01012202FA01F1034A8009835821
:106DA00019438150704700BF001002400B490A6828
:106DB00022F0030210430860704700BF07480068D4
:106DC00000F00C00704700BF04490A6822F440023A
:106DD0000A600A6810430860704700BF0410024050
:106DE00010B55D4C4FF6FB71206808402060102004
:106DF000FFF7C2FF1120FFF7B5FF0028FAD01820D7
:106E0000FFF7BAFF1920FFF7ADFF0028FAD00220E4
:106E1000FFF7CCFFFFF7D2FF0828FBD1042000F0DA
:106E200007F820684FF6F7710840206010BD00BFDA
:106E300002490A6822EA00000860704710ED00E08D
:106E40000A484FF47A710068B0FBF1F00138B0F1F4
:106E5000807F00D3FEE70649F022486005480270B3
:106E60000020886007200860704700BF08000020ED
:106E700010E000E023ED00E070B5044608780D4610
:106E800000F01F00022818D0012822D0002847D186
:106E9000607800F0FE0002281AD1688802283FD0EE
:106EA000012815D10026E670D4F89C2020462946FA
:106EB00090473D480068868025E06178A8880329CE
:106EC0000DD0022904D140F08000C0B2802827D123
:106ED00070BD607803281FD0022821D0F8E76988A8
:106EE00041B940F08001C9B2802903D0C1B2204627
:106EF00000F064F8D4F89C202046294690472A48A0
:106F0000002100688180E44848F6BF7201681140A2
:106F100081F03001016070BDA88810F0FE0FD7D05D
:106F200020460021BDE8704000F088B9D0F88C0000
:106F3000817811807047000010B507490122074B86
:106F40000A6000224FF41F440A604A600A611C6014
:106F5000C2700C6010BD00BF405C004040120020B9
:106F600010B50C464178032903D1A18811F0FE0F1A
:106F700004D0002100F062F9002010BDD0F89C2060
:106F8000214690470028F7D1E0880028F4D1064830
:106F90000021006848F6BF728180D748016811401F
:106FA00081F030010160E7E704000020D0F888009C
:106FB000017811807047002100F040B910B501F050
:106FC0007F0249B2CC4BB1F1FF3F16DD43EA8201AB
:106FD00002EB820453F8222000EB84004C30520470
:106FE00006D50A6848F68F731A4002F580420A6097
:106FF0004FF440524BF68F7313E043EA820102EBE9
:10700000820453F8222000EB84001030520605D58C
:107010000A6848F68F731A4040320A60302248F6F8
:10702000BF7300240470086818405040086010BD09
:107030000B4B013203EB4101520822B108C9013A5E
:1070400020F8023BF9E77047054B013203EB4101A1
:10705000520822B130F8023B013A08C1F9E7704703
:1070600000600040A44B01F07F0053F8202049B29B
:1070700043EA8000B1F1FF3F0BDD510406D5016802
:1070800048F68F72114001F5804101604BF68F7117
:1070900009E0510605D5016848F68F72114040316C
:1070A000016048F6BF71026811400160704700BF7F
:1070B000F0B5D37850A403F0030392F9025054F8CA
:1070C000233005F00F048C4E234346F82430928879
:1070D00046EA8403B5F1FF3F27DD04EB840500EBAE
:1070E0008500012902654BD1186848F68F65284054
:1070F00000F580701860186848F68F752840403099
:10710000DFF8F0C11860DCE90056200135523E4836
:107110003F2A3CD302F11F0707404FF0FF3000EB3E
:10712000471E3A4840EA0E0035E004EB840500EBC8
:107130008500704D4261D5E9007026018753324EBB
:1071400001321E363240BE182E601E6801291AD147
:1071500048F68F61314001F580711960296800EBB4
:1071600004100A442A601A6848F6BF752A4082F063
:1071700030021A60018118684BF68F71084038E0C0
:107180005C4805680DE048F6BF7030402CE01E30CA
:10719000571C0740780206EB04163D44B080CCF83B
:1071A000005054483F2A406800EB0410058109D381
:1071B0004FF4787404EB421202F4F842134C013A93
:1071C000224305E04FF4007404EB4222104C2240AD
:1071D000828118684BF68F721040012907D1186020
:1071E000186848F6BF71084080F0200001E080F484
:1071F00000501860F0BD00BF000200000004000055
:107200000000000000060000E0FF01000080FFFF1A
:1072100000FCFF03B0B501F07F0101EB810400EB3E
:1072200084008365344B4BF68F7553F821402C4016
:1072300084F4405443F821404265B0BDB0B54AB231
:1072400001F07F042C494BF68F73002A48BF48F6A3
:10725000BF7351F82450002A03EA05034FF4805508
:1072600048BF10256B4041F8243004EB840300EB49
:10727000830000F14C03002A48BF00F110030120F5
:10728000187004B1B0BD08684BF6BF72104041F2EF
:10729000100250400860B0BD005C00407CB501F0B9
:1072A0007F0505EB850100EB81000021C0E9062385
:1072B0000162019140690F4E98422CBF01930190E9
:1072C00071682801095A0198144682B22046FFF7D6
:1072D000BBFE0949019851F8252048F6BF731A40B2
:1072E00082F0300241F82520716801EB0511888099
:1072F0007CBD00BF00000020005C0040E0B5002223
:107300000192C988012907D14178032908D00229AF
:1073100002D101AA802105E00021FFF78FFF8CBD7B
:10732000802102460123FFF7B9FF8CBDBCB504469E
:1073300008780D4600F01F00012826D070BB688831
:107340000021B1EB902FADF8061028D100F0FE011E
:10735000052924D8010A14A202EB810151F8043C4A
:10736000C1B20DF10602204698470246BDF806005C
:10737000A0B1EB8893B1984238BF034620468021E4
:10738000ADF80630FFF78AFFBCBDD4F89C202AB1C7
:107390002046294602B0BDE8B0401047BCBD20469B
:1073A0000021FFF74BFFBCBDAD6F00082D6F00083B
:1073B000357C00084278032A02D0022A04D07047A4
:1073C0008A8812F0FE0F02D00021FFF737BFD0F8F5
:1073D0009C20002AF3D01047E0B50022ADF806202B
:1073E000ADF804200A7802F01F02022A0DD0012A0B
:1073F00016D0FAB9417801F0FE0102290FD1C17807
:10740000E1B10221ADF8061018E042780979032AAB
:1074100017D0022A03D141F0800180290AD18CBD06
:107420004278032A02D0022A04D0F8E7898811F0B2
:10743000FE0F03D00021FFF701FF8CBD0DF1060206
:1074400014E00A0606D401EB810100EB810191F8FA
:107450004C1006E001F07F0101EB810100EB81019E
:10746000097C11B10121ADF8041001AA8021022389
:10747000FFF714FF8CBD000010B501460020012964
:1074800008BF012B00D010BD624C2069E168884222
:1074900001D1A078B8B12069484901EB80111046AC
:1074A0004022FCF77DFE2069013020612069202800
:1074B00004BF002020612069E168884204BF0020E9
:1074C000A070402010BD01206070002010BD00BFE2
:1074D00070B5402A0EDC124814464278032A09D1BE
:1074E000104E328842B14278032AFAD000207080D0
:1074F000308070BD002070BD0B4D22462846FCF741
:107500004FFE002070800648A3B281212A463480B5
:10751000FFF7C4FE708820447080012070BD00BF5A
:107520003800002014010020B40100203948002157
:10753000012201704160816042708170C16001610F
:10754000704700BFB0B5334CA0686168884201D174
:10755000207888B3A0683049184D01EB8010E168AD
:1075600005EB8111FDF752FEA0680130B0F120015A
:1075700018BF0146A160A0686168884204BF00206E
:107580002070607850B100206070E068402205EB08
:1075900080110020FFF79CFF0120B0BDE0680130A2
:1075A000B0F1200118BF0146E160E16822690120C5
:1075B000914208BFA070B0BD0020B0BD360A0020C7
:1075C00010B5022824D11BB31078072803D1134823
:1075D0000121017010BD0F4C207818B16068A168BE
:1075E000884215D060680C4901EB801011461A469C
:1075F000FCF7D6FD6068013060606068202804BF39
:10760000002060606068A168884204BF012020708B
:1076100010BD00BF9001002036020020E4000020D1
:10762000B0B50D46044679B105EB850004EB80004A
:10763000D0E90712891AC1611CD082698BB2204639
:107640002946FFF72BFE5AE0E168E9B105EB85001A
:1076500004EB8005284650F81C2F50F8083C9A424D
:107660001CD9D11A0160AA698BB220468021FFF78C
:1076700015FE22E06078032841D1D4F8A0302046DE
:1076800001212A4698473AE0EE480178B9B3002232
:10769000027041F08000EC49C86430E08A4213D2A5
:1076A000B2FBF3F101FB132171B9204680210022C6
:1076B00000230025FFF7F2FDE560204600210022AF
:1076C0000023FFF7A7FD1AE0002505606078032876
:1076D00005D1D4F8A0302046012100229847DA488D
:1076E00048F68F620168114001F580710160016800
:1076F0004BF68F72114081F440510160E56000202B
:10770000B0BD00BF2DE9FE4F4FF00009CE4FADF8E0
:107710000690ADF80490786C8E4DADF806002868A0
:10772000BDF806100140090440F182808A4CDFF860
:107730009CB440F68F78ADF80A90ADF80890786C5C
:10774000ADF80A00000471D5BDF80A0000F00F057D
:1077500047EA85000168ADF80810BDF80A10C906AF
:10776000BDF808101AD40906E9D5016848F60F7269
:1077700011400160DBF8001005EB850001EB0511FD
:10778000898804EB80006FF39F21016282691144B4
:10779000816120462946FFF743FFD0E709B2B1F1E6
:1077A000FF3FCCDC016801EA08010160DBF8000062
:1077B00000EB05118E896FF39F2666B1BDF8082096
:1077C00012052BD405EB850004EB80000989406D80
:1077D0003246FFF72DFC05EB850004EB8000824666
:1077E0005AF85C1F3144CAF800105AE902138A198A
:1077F000991B4AF8082C4AF8041C02D0006DB042CC
:1078000006D92046294600F0B3F8CAF8009096E75A
:107810008BB220462946FFF7FDFC90E70189201D29
:107820003246FFF705FC204600F0E0F9494D286894
:10783000BDF806100840C0040AD54EF6FF70786403
:107840004548817841704548007808B9FFF7C8FA83
:107850002868BDF806100140090514D5396CC90621
:1078600011D43D4804224178427081703C48007830
:1078700010B100F0E7F902E03A48032101704FF23D
:10788000FF7078642868BDF806100840800508D5A8
:107890004FF6FF5078643448006810B101682E48F4
:1078A00088472868BDF806100840C0051DD54FF66A
:1078B000FF6078642B480178B9B101780139017013
:1078C000017891B925494FF6EF740B783A6C012B8A
:1078D00002EA040202D13A64002005E042F01002FC
:1078E0003A6403220270012008702868BDF806106F
:1078F000084040052BD54FF6FF307864B34870211F
:107900000068B022018130210180184900230A60FB
:1079100048F2FF71818110484021016541610021D9
:1079200048F68F72032B08D041EA0704256804311A
:1079300015401D4325600133F4E78021F96439685F
:1079400089B2396043F22021396001214170BDE8DC
:10795000FE8F00BF4012002038000020E100002010
:1079600035000020E000002044120020000000202C
:1079700010B50A46044641B16078032838D1D4F8DE
:10798000A03020460021984732E0E06898B102EB31
:10799000820004EB8000014651F8582F51F8083C52
:1079A0009A420FD9D31A0B60426D9BB22046002138
:1079B000FFF730FC1CE0864848F68F6201681140F2
:1079C000016015E06078032805D1D4F8A030204686
:1079D0000021002298477E4848F6BF720168114096
:1079E00081F0300101607948002100688180E16008
:1079F000002010BD7047000010B58A884AB9CA88B7
:107A00003AB989780F4A01F07F0111704278032A50
:107A100004D10021BDE81040FFF710BC6B4A0023E1
:107A2000126848F6BF749380694A0029136803EA14
:107A3000040383F0300313600CBF01210221417065
:107A400010BD00BF3C120020005C004070B5044631
:107A50004888284E10F0FE0F307005D020460021D7
:107A6000BDE87040FFF7EABB6178032910D0022916
:107A70002AD1010607D0032161702070D4F8942028
:107A8000C1B220469047514800210068818028E01B
:107A900001061AD02178C0B24D4D814209D0D4F8E8
:107AA000982020469047317820462170D4F89420C1
:107AB00090474648002100688180286848F6BF71D9
:107AC000084080F03000286070BD0025022025703D
:107AD0006070D4F898202046002190473B48006809
:107AE00085803B4848F6BF720168114081F0300143
:107AF000016070BD481200207047000080B50A7810
:107B000002F01F02022A0DD0012A17D0BABB427818
:107B100002F0FE02022A10D1498801290DD101216B
:107B2000C1701BE043788A88032B0DD0022B04D14F
:107B300042F08001C9B2802921D180BD4278032A58
:107B400019D0022A1BD0F8E7498839B942F08001E0
:107B5000C9B2802902D0D1B2FFF770FB1B480021C7
:107B6000006848F6BF72818019480168114081F0B1
:107B70003001016080BD898811F0FE0FDDD0002149
:107B8000BDE88040FFF75ABB80B54278032A02D097
:107B9000022A04D080BD8A8812F0FE0F04D0002192
:107BA000BDE88040FFF74ABBD0F89C2002B1904767
:107BB00006480021006848F6BF72818004480168C9
:107BC000114081F03001016080BD00BF0400002041
:107BD000005C004002790A7042794A70C2884A808B
:107BE00002898A804289C260CA8070471CB5694692
:107BF0000446FFF7EFFF9DF8000000F0600040280A
:107C000014D0202809D068B99DF80100084951F81E
:107C1000202069462046904708E069462046FFF745
:107C20009FF903E020460021FFF708FB00201CBD60
:107C3000547D0008D0F8900050F8210001781180A0
:107C4000704700000A48016841F00C0189B20160E8
:107C50004168C90403D401200021FFF71FB84EF684
:107C6000FF71416001684FF6F77211400160704783
:107C7000405C0040704702E008C8121F08C1002A9B
:107C8000FAD170477047002001E001C1121F002A9D
:107C9000FBD170471203470044003300320020003C
:107CA000410052004D000000140343004D005300FA
:107CB000490053002D0044004100500000001A0309
:107CC0003000300030003100410030003000300022
:107CD0003000300030003000000014034700440042
:107CE0004C0069006E006B002D004F004200000048
:107CF0001E0343004D005300490053002D00440073
:107D000041005000200047004400330032000000D2
:107D10000600FF0901A101150026FF007508954026
:107D20000901810295400901910295010901B10201
:107D3000C0001201100100000040E9288F06000178
:107D400001020301E48D70097BDD41DA886E0E9536
:107D5000C161B92DD9730008796E0008F579000862
:107D6000FD7A0008F5790008F97900082D730008FC
:107D7000F97A0008FD7200084D7A0008B573000812
:107D8000897B0008757C000804030904887D0008CD
:107D9000947C0008A87C0008BE7C0008DA7C0008FF
:107DA000F07C0008C87D000800000020E000000012
:107DB000767C0008A87E0008E00000207015000016
:107DC000867C0008000000003000000000600040D9
:107DD00000A24A04090229000101048032090400BA
:107DE0000002030000050921000100012221000713
:107DF0000581034000010705020340000101000066
:107E00000000000000000000000000000000000072
:107E10000000000000000000000000000000000062
:107E20000000000000000000000000000000000052
:107E30000000000000000000000000000000000042
:107E40000000000000000000000000000000000032
:107E50000000000000000000000000000000000022
:107E60000000000000000000000000000000000012
:107E70000000000000000000000000000000000002
:107E80000000000000000000327D00080C0000200F
:107E90008C7D0008E9660008D16600081D670008AF
:087EA0001D660008000000004F
:040000050800416945
:00000001FF
