:020000040800F2
:10400000581600207D4100089F5D00081D540008DF
:104010009D5D0008E941000851680008E1BC8F81FE
:10402000538017B1691C7FD509000000C3600008E8
:104030003D520008A55AA55AC16000088D660008C7
:1040400097410008974100089741000897410008F0
:1040500097410008974100089741000897410008E0
:1040600097410008974100089741000897410008D0
:1040700097410008974100089741000897410008C0
:104080009741000897410008000000009741000890
:1040900097410008974100089741000897410008A0
:1040A0009741000897410008974100089741000890
:1040B0009741000800000000974100080000000040
:1040C0009741000800000000974100089741000850
:1040D0009741000849680008974100080000000067
:1040E000000000000000000097410008FFFFFFFFF4
:1040F00011122020FFFFFFFFFFFFFFFFFFFFFFFF69
:1041000097410008000000000000000097410008EF
:10411000000000000000000000000000000000009F
:10412000000000000000000000000000000000008F
:10413000000000000000000000000000000000007F
:10414000000000000000000000000000000000006F
:10415000000000000000000097410008974100089F
:104160009741000897410008DFF80CD000F02AF8CA
:1041700000480047B16C00085816002006488047E8
:1041800006480047FEE7FEE7FEE7FEE7FEE7FEE73C
:10419000FEE7FEE7FEE7FEE79166000869410008DA
:1041A00040EA01039B0703D009E008C9121F08C0B9
:1041B000042AFAD203E011F8013B00F8013B521E39
:1041C000F9D27047064C074D06E0E06840F0010365
:1041D00094E8070098471034AC42F6D3FFF7C8FFC5
:1041E000EC7D00080C7E0008FEE7000010B5094CCD
:1041F00040F21150A04740F21250A04740F21C700C
:10420000A04740F21770A0470020BDE8104002F020
:104210005DBE00BFB96E0008F8B5362243688DF860
:104220000020AA228DF805202522CDF806308DF831
:104230000A209B228DF80F2002688068CDF80120AB
:10424000CDF80B0068460C2202F08AFA9DE80F00B8
:1042500048405040584004B080BD00002DE9F04176
:1042600014481549FFF7D8FF044614488168A14255
:1042700007D00068A04204D0392001F02FF8A042F6
:1042800001D1BDE8F0810E4D00244FF00108022756
:1042900005F1100614F00100284608BF3046C0F8AA
:1042A0000080304608BF28460760322000F0C8FF73
:1042B0000134EFE7ACF7FF1F897D0008F400000828
:1042C000180400482DE9F04F89B00C4690F9001011
:1042D0000546C8B2B1F1FF3F08DC9F2806D8284642
:1042E000214609B0BDE8F04F00F086BFA02801D3F9
:1042F000FF283ED1A2462E460AF8010B16F8010B04
:104300001D2800F2E481DFE810F01E003B004900A8
:104310005A0064006E009F01E201EF0103021302E4
:10432000E201E201E201E201E2011902A202BE029F
:10433000D402E00205031703E201E201E201E20117
:10434000E201E20132033178FF2900F07985A01CF7
:10435000F02900F07985FE2900F07F85042911BF3E
:10436000002030218180DD4904BF0160062000F07B
:1043700077BD2846214609B0BDE8F04F00F041BFA7
:104380003078012800F04983002840F04F83A87856
:10439000C00740F06A85D248012144E33078002804
:1043A00008BF0120022800F04383012811BF002428
:1043B000CC480124047108BF01F042FE3EE3C94825
:1043C0000024047101F018FE01208AF8004000F07A
:1043D00002BF6878C349087468888882A888C88240
:1043E000002000F012BDDFF8FC8298F804000228DB
:1043F00000F03483012840F0A0840020002105F162
:1044000003090027079088F80010E01C002195F8A8
:1044100002B006900020CDF80CB00491BBF1000F63
:1044200000F00786CDF8149019F8015BA90711D4A4
:104430006FB3B8F81400471C0E2008A901F092FED3
:1044400002281FD1013F00F0228501F01FFDF3D0AB
:1044500000F01DBDA7B105F01101B8F81400012945
:104460002ED1471C284608A901F07CFE022845D120
:10447000013F00F00C8501F009FDF3D000F007BD0D
:1044800000274BE0012840F03A8501F0AEFC059989
:10449000D1F8010001F10509A906089022D4B8F865
:1044A0001400471C284608A901F05CFE02281DD113
:1044B000013F00F0268501F0E9FCF3D000F021BDBA
:1044C000474600F101080E2008A901F04BFE022822
:1044D00016D1B8F1010800F00E8538780028F2D026
:1044E00000F009BD0027C8F818008AE0012840F054
:1044F0000485012100270120049183E0012701E0C8
:10450000B8460027012840F096850898069908705B
:104510000898000A487001F093FC0691E90613D44C
:10452000B8F81410EA072BD102974F1C284608A9A7
:1045300001F018FE022829D1013F00F0778501F033
:10454000DDFCF3D000F073BDB8F8160001900598BB
:1045500000F10509D0F801000590E80702971FD087
:10456000B8F81400471C284601F0B2FC022814D108
:10457000013F00F05B8501F0C1FCF4D000F057BDB5
:10458000002F4AD00021049101273BE0029F01281F
:1045900040F0518501F029FC31E0012840F04785C9
:1045A000B8F81400471C284608A901F0DBFD0228D2
:1045B00006D1013F16D098F800100029F3D011E081
:1045C00001280FD1D8F81810089A1140059A914285
:1045D00038D0019A52B1013A019298F80020002A8D
:1045E000DED003E0D8F81810089A1140059A9142DD
:1045F00018BF40F01000029F012840F01C850020E9
:104600000490012007990131079198F800100029C2
:1046100040F01185ABF1010B00E74F1C284601F07B
:1046200057FC022807D1013F00F06B8401F066FCC3
:10463000F4D000F062BC012840F05F8400200490B8
:104640000120A1E70599D1E7DFF8E47B387902285A
:1046500000F08283012840F0C3834FF0000B87F8FD
:1046600000B0271DB5F80280B8F1000F00F00D84EE
:1046700095F804905FEA897000F10B84079747462C
:104680004FF0000B0DF120080697002F00F0248555
:10469000301D013F059070680890DFF8940B808A08
:1046A000461C4846414601F05DFD022808D1013E06
:1046B00000F0F483DFF8780B00780028F1D0EDE308
:1046C000012840F0EC83059E0BF1010BDDE7FF2094
:1046D00020704FF0011000F080BD00BF322E302E50
:1046E000100000489C000020DFF8440B01790229EB
:1046F00000F07C83012940F08783D5F80200002474
:10470000089008A9002001F02DFD8AF800407EE302
:10471000DFF8200BCC490068B0FBF1F00321023038
:10472000B0FBF1F0B5F801104843401EFDD1A3E302
:104730000020A4F80100022000F04DBDD5F803E0F0
:104740006978AD78C14815F0010206D0CB074FF06B
:10475000080308BF18232024C45015F0020306D014
:104760008C074FF0080458BF18241027075115F084
:10477000040B06D04F074FF0080758BF18278026B4
:10478000C65115F0800C08D04EB20827B6F1FF3F95
:104790004FF00806C8BF18268751BEF1000F38D069
:1047A00005F0200501F0E006A94F4FEA91084FEA15
:1047B00051094FEAD11EB5FA85F5B6FA86F66D09AC
:1047C00076092E433D6822B10468C4F34014A14227
:1047D0001CD123B10468C4F30014A14516D1BBF168
:1047E000000F01D156B911E00468C4F3C014A8EB5E
:1047F0000404B4FA84F46409264207D0BCF1000F23
:1048000007D00468C4F3C004A64502D03C68AC429B
:10481000D9D0016802680368042404EA531302240F
:10482000C1F3401104EAD20211440268006819443D
:10483000082303EAD20200F00800114441EA001004
:104840008AF80000834800F5802000F0C4BCD5F849
:104850000100002800F0DF80DFF8D8190968B0EB0C
:10486000910F80F0DF8200EB5101DFF8C4290023B3
:104870000139B1FBF0F1537103220120022988BFF5
:10488000B1FBF2F0D2E26C78A91C002C08BF4FF407
:104890008074204601F0D6FE00208AF800004FF414
:1048A000604000EB443000F4FE0000F1011000F025
:1048B00092BC3078DFF87829C0F3800100F0030063
:1048C0000130517710770020A2E00020AE1C4FF09D
:1048D00001084FF00109607002346F78002F7ED01C
:1048E00016F8015B22462846314600F0FBFE15F023
:1048F0003F0000F107004FEAD00008BF082015F084
:1049000080011CBF8144044406444044013F00F13F
:104910000108E3E76878DFF81829AB1C00210024C0
:1049200090772032A0425DD01D5D02EB440671807D
:10493000155529440134F5E7DFF8F4080179022917
:1049400065D13178C177807F814260D20E2000F03E
:1049500067FD00F063FE0021A0706170010E6171BF
:10496000010C000AE0703C48217100F034BC0020CA
:10497000AE1C04F102094FF0010A4FF0010860700B
:104980006878C0F10104012C36D016F8015B15F0EF
:104990003F0000F107004FEAD00708BF082715F0D5
:1049A000800B02D101F0D4FA01E001F0B9FA2846F7
:1049B00031464A4601F086FB0CB901F0C9FABBF159
:1049C000000F06D10AEB07003E44013400F1010A52
:1049D000D9E7B844B94460420AF1010AD1E749EA8B
:1049E0000840F8E30023984209D0D55C02EB430469
:1049F0000133491BA180F6E748EA0A40EBE30021B6
:104A00008AF800104FF0011101EB0040E3E3FF20B2
:104A10008AF8000014E0FF200CE2A878C00740F0FC
:104A200027820A480221C0F8181425E2FF2024E258
:104A3000DFF8FC070224047101F0A4FA8AF80040B0
:104A40004FF00110C7E300BF40420F0010000048C4
:104A5000041000E00100020005000100002704F13D
:104A6000030988F80070687898F81E10884288F862
:104A70001F0080F0068295F80280CDF8149005F1B1
:104A8000030900270522002000210023CDF808801B
:104A90000793B8F1000F00F01B83CB461BF8015BB6
:104AA000284662F35F000490A807069719D40029EE
:104AB00048D007980A2801D001F0FFF9DFF8700705
:104AC000808A471C0E2008A900F05CFE02282CD129
:104AD000013F00F01982DFF8580700780028F1D074
:104AE00012E2D9B10498079905F0100201924840EA
:104AF00010430090DFF83807878A46D101372846EF
:104B000008A900F03FFE022863D1013F00F0FE81BA
:104B1000DFF81C0700780028F1D0F7E10799E806D4
:104B200040F1D4800020039070E0069F012840F0FF
:104B3000788201F0DCF99070D17004320A2005927D
:104B400005220790D9F8010009F1050BA906089084
:104B50002FD404980799DDF81490814202D004986C
:104B600000F05EFCDFF8C806808A471C284608A9CA
:104B700000F008FE022824D1013F00F04382DFF854
:104B8000B00600780028F1D03CE20A2901D001F0FB
:104B900094F901370E2008A900F0F4FD02281AD17B
:104BA000013F00F03682DFF8880600780028F1D057
:104BB0002FE2DFF87C16886100200390DDF8149066
:104BC000AAE0069F01284FF0050240F07C820020F9
:104BD0009DE0012102E00A210791002103910128B3
:104BE000069F40F09F8201F082F9D17090700432EC
:104BF0000592019848B900980522B0FA80F0400962
:104C000063D00120DFF82816D7E70799DFF82006E0
:104C1000C08A0190D9F8010007900498814202D01F
:104C2000049800F0FDFBDFF8080609F1050BDDF83C
:104C30001490808A471C284601F056F9022808D1B2
:104C4000013F00F0E181DFF8E80500780028F2D0AC
:104C5000DAE1012840F0D981DFF8D405808A471CC9
:104C6000284608A900F08EFD022807D1013F1DD07B
:104C7000DFF8BC1509780029F2D017E0012815D11A
:104C8000DFF8AC15089A89691140079A914250D013
:104C9000019A002A4ED0019A013A0192DFF890253C
:104CA0001278DDF81490002AD6D004E0DFF88015E1
:104CB000089A89691140079A914218BF40F0100084
:104CC000069F0522012823D0FFE107990498DDF80B
:104CD0001490814202D0049800F0A2FBDFF8500546
:104CE000808A471C284601F0FFF8022808D1013FBE
:104CF00000F08881DFF8380500780028F2D081E1E3
:104D0000069F01284FF0050240F0DD81012003904D
:104D10000498DFF81C150790CDF814900137087837
:104D2000002840F0FE810399A8F101080120D9462E
:104D3000AFE60799DDF81490BDE7A978E81C0029D3
:104D400069D0421D10F8013BDD0648BF10469B07A5
:104D500058BF10460139F2E74FF0000B04F1040888
:104D600087F800B03078B97F8842F87780F09B8070
:104D700068880028079000F0948095F8049009F066
:104D8000010005900A3000F04BFB5FEA897000F1EA
:104D90008C80CDF818804FF0000B0DF1200807989B
:104DA000002800F0AC8101380490301D0390706839
:104DB0000890B88A461C4846414600F0E3FC0228A9
:104DC00006D1013E00F0D48038780028F3D0CFE03F
:104DD000012840F0CE80DDE903600BF1010BDFE735
:104DE0000020E070A4F801000320FCE03178C177D6
:104DF000807F814208D2082000F012FBD5F8020023
:104E000000F0FAFEFFF7ECBAFF208AF80000CE4867
:104E100000F54030DFE1801B00210004A4F8011000
:104E20000230D8E1DFF8081401204871DFF80014DF
:104E3000886000208AF80000C34800F50030CAE10D
:104E40004020608002200BE0DFF8E813332209687D
:104E5000002908BF1322027001E020210170012007
:104E60008AF8000000F10210B7E1B848012101E022
:104E7000B6480221C0F8081400208AF80000B248A1
:104E8000A9E105F1020B00209DE10020A7E0012728
:104E900038E05FEAC9701AD1002073E00220079F52
:104EA0009DE04FF0000B002065E0B88A4FF0000B4A
:104EB000461C484601F018F8022829D1013E02D0CC
:104EC00038780028F5D002204FF0000B53E0D84886
:104ED0004FF0000B808A461C484600F0F9FF02287C
:104EE0004ED1013E03D0D24800780028F4D00220F1
:104EF0004FF0000B73E00220B84600279BE001272B
:104F000099E00027022096E00A200790012083E024
:104F1000012830D1079E4FF0000B002E00F0688171
:104F2000013E08BF4FF00E090598CDF8188020B15A
:104F30001EB900F0C2FF4FF00E09B88A00F1010857
:104F4000484608A900F01EFC022807D1B8F1010864
:104F50000ED0397802200029F2D00AE0012808D1C9
:104F60000898DDF818800BF1010B48F8040BD4E722
:104F70000220DDF8188000F0CBFFA8EB0A0032E039
:104F800001282CD14FF0000B4646CDF81880002E9A
:104F900000F0B280013E5FEAC970484618BF0E209B
:104FA000002E08BF8146A248808A00F101084846C9
:104FB00008A901F0D7F8022807D1B8F101080DD0EF
:104FC0009B4800780028F2D008E0012807D1089813
:104FD0000BF1010B47F8040B0120D8E7022000F089
:104FE00097FFA7EB0A00297989074FBF40F480207B
:104FF000A978EA7892065EBF42EA814101F58021F4
:105000000843E8E000200390022004990791069FDE
:105010008AE00A200790002003900220DDE905972E
:1050200082E00A210791012103917BE00220029F87
:1050300001E00399079100218B450BD009F105028E
:1050400019F8013BDD0648BF91469B0758BF9146C2
:105050000131F1E701282DD17FB1B8F8140008AD76
:10506000471C0E20294601F07DF8022816D1013F89
:1050700012D000F00BFFF4D00EE00498C8B1B8F8DD
:105080001400451C0E2000F023FF022812D1013D20
:1050900002D000F0FBFEF5D002200BE0079A0128B9
:1050A00005D108980699088000F0CAFE04E0069928
:1050B00002E00120DDE90612A070A9EB0600A1EBD9
:1050C0000A01627085E000210391049907912BE0A9
:1050D0000391CB46029F25E05548808A461C0E204E
:1050E00000F0F6FE02287CD1013E79D050480178CC
:1050F00002200029F3D074E0DDF818B06FE70598BE
:1051000008B100F0DAFEB88A461C0E2000F0ECFE72
:1051100002286AD1013E67D0397802200029F4D0F4
:1051200063E00120DDF814900021884510D00BF1D8
:1051300005021BF8013BDD0648BF93469B0758BF9D
:1051400093460131F1E700BF010002001000004862
:10515000012838D107980A2801D000F0AEFEDFF808
:10516000D0800399B8F8140079B10697471C08ADB0
:105170000E20294600F006FB022813D1013F02D081
:1051800000F084FEF4D0069F0AE0451C0E2000F0DB
:10519000ABFE022817D1013D02D000F077FEF5D01A
:1051A000022010E0069F01280DD10898A9F8000000
:1051B000BDF8220089F802009DF8230089F8030059
:1051C00009F104090120A070ABEB0600A9EB0A016C
:1051D000677041EA004000F1011009B0BDE8F08FAE
:1051E0000220DDF818B05AE60220DDF81CB0C0E657
:1051F000DDF81CB00120BEE6007808704FF0011009
:10520000704700F080BE000009480122002182831F
:105210006422818081770174C0E905210549064A2D
:105220000968B1FBF2F10239816000F0E5BE00BF10
:105230009C0000200000002080841E0070470000B9
:1052400004490A680B689B1A834228BF704700BF55
:10525000F8E700BF48120020F8B51F4D002180225A
:105260004FF6FF7405F17C0005F17E0308290BD091
:1052700002F4607647881E4336880FB9A64210D0E4
:10528000803280300131F1E7124E0020308001F091
:1052900087FC308805EBC01001F048FC01F040FCB1
:1052A00002E00C4A118004882046F8BD094800221B
:1052B000018801F007010180074840EAC1100A494E
:1052C0000968802A03D0835A8B520232F9E7B1F879
:1052D0007C00704740120020003C00080249C0B228
:1052E000096851F8100070470400002080B54FF4A1
:1052F000802001F001FC4FF4802000210022BDE855
:10530000804001F0C9BB80B500F0C8FE00F02AFD66
:10531000BDE8804000F094BEF8B50C46017801F07D
:10532000F802D02A13D1254605F8011B0178D0399F
:1053300007290AD8DFE801F0041013164C1B3B695B
:1053400001F0A4FBC4F801000534FF2142E021462E
:10535000BDE8F840FEF7B6BF01F022FC38E001F0EE
:10536000DFFB35E0D0F8010001F0E0FB30E0B0F801
:105370000560382E2CD8D0F80140C71D300427D046
:105380003946B2B211F8010B012A02D100260F46AC
:1053900004E07978023E023740EA012081B22046DB
:1053A00001F0B0FB0234FF210028E7D011E01849DA
:1053B000D0F801203C318A4204BF4FF2AC72C1F6F2
:1053C000FF72B0F805003E2802D812498A4203D283
:1053D000FF212C462170F8BD00210428617007D1FF
:1053E0000D498A4204D14A20C4F802000634ACE7D1
:1053F0000234FF210304EDD0013803040EBF1178FD
:1054000012F8013B04F8013BF4E701F04FFA00BF4A
:10541000ACF7FF1F004000081C900008FEE70000EA
:10542000F0B5694910242023DFF8342D0C600B619E
:105430005578E5B30B600B610B600C6180240B6148
:105440000B600B610B600C60D57E02EB4504E68BB4
:105450001EB10B610B60013EFAE72A44802520262D
:10546000127F531E01F110024BB1C7070F4608BF50
:1054700017463D600E610E60013B4008F4E7238C47
:10548000002B00F08080C0070C46084608BF10467D
:10549000802202602020086120600C46013B44F815
:1054A000102B4FF02002F7D11020086075E05568EE
:1054B0006D1EFDD10B6055686D1EFDD10B615568E9
:1054C0006D1EFDD10B6055686D1EFDD10C610B6129
:1054D0005468641EFDD10B605468641EFDD10B61DD
:1054E0005468641EFDD10B605468641EFDD1802495
:1054F0000C60D47E02EB4404E48B4CB10B61013CA4
:1055000055686D1EFDD10B6055686D1EFDD1F4E729
:10551000D37E8025202613441B7F5C1E01F11003DF
:105520007CB1C7070F4608BF1F463D600E61013CB6
:10553000400857687F1EFDD10E6057687F1EFDD161
:10554000EEE7D47E02EB4404248C002C3ED0C0074E
:10555000084608BF1846802303602020086155686C
:105560006D1EFDD1086055686D1EFDD10B60631E78
:10557000EBB10861013B5468641EFDD108605468BA
:10558000641EFDD1F4E710220B46C00743F8102B30
:10559000084608BF184680220260202010220861B9
:1055A0000860086108600A610861086032E0102044
:1055B00008602020086153685B1EFDD108605068B8
:1055C000401EFDD113E000BF180000481024C007A2
:1055D0000C60084608BF184680230360202008613D
:1055E00053685B1EFDD108605068401EFDD120202D
:1055F000086153685B1EFDD1086053685B1EFDD1D6
:1056000010230B61086153685B1EFDD10860506870
:10561000401EFDD180200860F0BD00BF70B5EF488E
:10562000102320225649036002614C68641EFDD19C
:1056300002604C68641EFDD1036102614B685B1E11
:10564000FDD102604B685B1EFDD102614B685B1EA1
:10565000FDD102604B685B1EFDD1CB7E4BB1026178
:10566000013B4C68641EFDD102604C68641EFDD194
:10567000F4E700226FF01E03202483B1046101339C
:105680004D686D1EFDD150F8085C04604E6805F051
:105690004005761EFDD142EA45625208EDE710232F
:1056A0002024036004614D686D1EFDD150F8085C34
:1056B00004604E68761EFDD104614E68761EFDD1F1
:1056C00004604E68761EFDD1036104614B685B1E69
:1056D000FDD104604868401EFDD105F0400042EA5B
:1056E000406070BD2DE9F04F4306DFF89CAF00F03D
:1056F000800C4FF0800E4FF02009B84B1C4603F190
:10570000100858BF4446102510F03F0B256008BF15
:105710004FF0400BBBF1000F08BFBDE8F08F0F78D2
:10572000002600241AE0FD071D4608BF4546C5F8BF
:1057300000E0C3F8109001367F08DAF804506D1EBF
:10574000FDD153F8085CC3F80090DAF80400401E5D
:10575000FDD105F04000400040EA5404B34518BFB5
:10576000082EE0D10131ABEB060BBCF1000FD1D01C
:10577000C6F1080024FA00F002F8010BCAE700BFE6
:10578000A00000202DE9F047944B10252022DFF8DF
:10579000F84E1D601A616678002E58D01A601D619F
:1057A0001A611A601A611A6094F81BE075461DB1FF
:1057B0001A611A60013DFAE71A4610F0020803F177
:1057C00010064FF0800908BF3246C2F80090202230
:1057D00047071A611F4653F808CC1A6058BF37466E
:1057E000C7F800901A61050753F808AC1D461A6007
:1057F00058BF3546C5F8009002271A6153F8089C37
:1058000007EA5C17CAF380151A603D44042707EACB
:10581000191705EB070CBCF1010F40F0A580B8F19A
:10582000000F40F0B38009686FF01E024FF080084F
:105830002025002A00F0BA80CF071F4608BF374650
:10584000C7F800801D611D6001324908F1E76668F4
:10585000761EFDD11A606668761EFDD11D611A6143
:1058600065686D1EFDD11A6065686D1EFDD11A61F7
:1058700065686D1EFDD11A6065686D1EFDD1E57EFF
:105880004DB11A61013D6668761EFDD11A606668E9
:10589000761EFDD1F4E71A464FF080084FF0200A3B
:1058A00010F0020E03F1100508BF2A46C2F800806E
:1058B000C3F810A06268521EFDD153F808CCC3F89B
:1058C00000A06268521EFDD142071A4658BF2A4600
:1058D000C2F80080C3F810A06268521EFDD153F8D0
:1058E000089CC3F800A06668761EFDD1C9F3801736
:1058F00006071E4658BF2E46C6F80080C3F810A003
:105900006668761EFDD153F8086CC3F800A0626883
:10591000521EFDD1022202EA5C123A44042707EA31
:10592000161602EB060CBCF1010F22D1BEF1000FDE
:1059300040F06D8009686FF01E024FF0800E202746
:10594000002A00F07D80CE071E4608BF2E46C6F80E
:1059500000E01F61013249086668761EFDD11F60B4
:105960006668761EFDD1EBE7102119601A611A6096
:10597000C3E010211960C3F810A06168491EFDD171
:10598000C3F800A06168491EFDD109E100266FF04F
:105990001E02202522B31D61013253F8087C1D60D0
:1059A00007F0400746EA47667608F3E7A27E6FEA0B
:1059B0000E05AD1800F08780C907194608BF3146AB
:1059C00080250D60AEEB02012022013101311A6108
:1059D0001A60FBD3102119607DE000BF1800004859
:1059E000A27E6FEA0E05AD1800F079802025AEEB9F
:1059F00002021D61971C53F8082C1D6017B11D6130
:105A00000137FAE710251D6020251D616DE04FF07C
:105A100000086FF01E022026002A35D01E610132D8
:105A200067687F1EFDD153F8087C1E6065686D1E97
:105A3000FDD107F0400548EA45654FEA5508EBE718
:105A4000E67EA27EF743BF1800F08580C90719469D
:105A500008BF29468025B21A0D6020210232196143
:105A600065686D1EFDD1196065686D1EFDD1002A47
:105A700000F059801961013265686D1EFDD1196011
:105A800065686D1EFDD1F2E7E67EA77EF243D2196E
:105A900000F0738020221A6165686D1EFDD153F8F5
:105AA00008EC1A6065686D1EFDD1F51BAF1C002F58
:105AB00045D01A61013765686D1EFDD11A606568B1
:105AC0006D1EFDD1F3E71022C9071A60194608BF01
:105AD000314680220A602021196119600DE01022F0
:105AE0001A6020221A6153F8082C20251D6021B16C
:105AF00002F0400246EA42620A6020211022196147
:105B000019601A6180221961196000061A6002D5B5
:105B100038480068A060207B002800F06780196189
:105B200019600138F8E710211960202119616268B5
:105B3000521EFDD119606168491EFDD130E010226E
:105B40001A6020221A6165686D1EFDD11A606268B4
:105B5000521EFDD11EE01022C9071A60194608BF67
:105B6000294680220A60202119616268521EFDD1F7
:105B700019606168491EFDD112E010221A602022CE
:105B80001A6165686D1EFDD153F808EC1A606268F1
:105B9000521EFDD121B10EF0400248EA42620A6075
:105BA000202119616268521EFDD119606268521E7F
:105BB000FDD110221A6119616268521EFDD119606F
:105BC0006268521EFDD1802200061A6002D5094883
:105BD0000068A060207B48B1196101386268521EDC
:105BE000FDD119606268521EFDD1F4E76046BDE840
:105BF000F08700BF041000E0F0B5584B10222024BD
:105C000057491A601C614D686D1EFDD11C604D68BE
:105C10006D1EFDD11A611C614A68521EFDD11C60C7
:105C20004A68521EFDD11C614A68521EFDD11C609B
:105C30004A68521EFDD1CD7E1A464DB11461013D18
:105C40004E68761EFDD114604E68761EFDD1F4E7D5
:105C50004FF0800C20256FF01E07C2F810C01561B0
:105C60004E68761EFDD115604E68761EFDD1156119
:105C70004E68761EFDD115604E68761EFDD1156109
:105C80004E68761EFDD115604E68761EFDD103F17B
:105C9000100687B1C4071C4608BF3446C4F800C0CC
:105CA0001561013740084C68641EFDD115604C68D1
:105CB000641EFDD1EDE7CD7E8C7EEF433F1926D0EB
:105CC000C00708BF334680201860202010614B6851
:105CD0005B1EFDD110604B685B1EFDD12B1B023398
:105CE0004BB1106101334C68641EFDD110604C68EB
:105CF000641EFDD1F4E710201060202010614B6875
:105D00005B1EFDD110604868401EFDD10FE01024DD
:105D1000C007146008BF334680201860202010613F
:105D20004B685B1EFDD110604868401EFDD12020ED
:105D300010614B685B1EFDD110604B685B1EFDD18E
:105D40001023136110614B685B1EFDD11060486821
:105D5000401EFDD180201060F0BD00BF180000483B
:105D6000A000002010B5D54C0121002201232046BF
:105D700000F050FF204600210022012300F071FFB7
:105D8000204601210022022300F044FF204600218A
:105D900000220223BDE8104000F063BFFEE7704719
:105DA00080B54FF4A06001F02FF8252002210022D9
:105DB000BDE8804000F0E0BF4FF4702000F0CEBEA0
:105DC0000A600A6810430860704705EB8500324698
:105DD00004EB8000006C01F063B948F6BF72016803
:105DE000114081F03001016070BD0898069908707B
:105DF0000898000A4870BDF8220088709DF82300BA
:105E0000C8700431069170470BEB5B0101EB9B01FD
:105E100001EBDB01C907394670474FF09040002184
:105E2000012208230827284705464FF470200C4616
:105E300000F094BE002148F6BF7200688180704770
:105E4000BDF8220088709DF82300C870043101203D
:105E50007047D8F8001000206FF01F024FF0100CB0
:105E6000202470474FF0904001210022102310267B
:105E7000284700F01F010122800902FA01F1704752
:105E80000168114081F03001016080BD98F8000088
:105E900000287047396101386A6870474FF09040B8
:105EA000002101224023284730604FF470202C80CD
:105EB00000F054BE002101F037BA0A20FFF7B0BA53
:105EC00008603C613C6070478358194381507047BB
:105ED000002100F047B908603C616968704731688B
:105EE00021F00101316070BD0021FFF74BBC089823
:105EF000059A10800898010E000C704798F8001061
:105F0000022000297047FF2008704FF001107047F1
:105F1000E0704FEA1B2084F801B0A07070470000C9
:105F20001748102141614FF090410A6822F44072F5
:105F30000A600122016841F010010160416821F40A
:105F400040714160816862F309218160704700BF40
:105F50000B481021012341624FF090410A6863F31E
:105F600009220A60016821F010010160416821F4F2
:105F700040714160816821F440718160704700BFC9
:105F8000040000482DE9F041434D4FF090400121BD
:105F9000002220234FF02008A847164F4FF09040D2
:105FA000002100222023B847FFF75CFF4FF090400C
:105FB000002100221023B847FFF770FF4FF09040F8
:105FC0000121002280238024A8474FF09040002127
:105FD00000228023B847FFF720FFDB4D0120C5F8E2
:105FE00000802E602C602F61FFF72AF92F60BDE83A
:105FF000F08100BF636C000810B5274C4FF0904053
:10600000002101222023A0474FF0904000210122CF
:106010001023A0474FF09040002101224023A047C9
:106020004FF09040002101228023A0474FF0904084
:10603000002101220823A446BDE81040604700BFAC
:10604000F8B5154D4FF09040012100222023202467
:10605000A8474FF0904000210022202300F001FECD
:10606000FFF700FF4FF0904000210022102300F0C6
:10607000F8FDFFF713FF4FF090400021012280232D
:10608000A847FFF7CAFEB04D01202C602E602F619B
:10609000FFF7D6F82F60F8BD156C000810B5074C57
:1060A000012100228023204600F0B4FD204600217B
:1060B00000228023BDE8104000F0D3BD000400485A
:1060C00070477047F0B510F03F0308BF402300064B
:1060D0009D481FD4224D4FF0100C2024002B3ED0A1
:1060E0000F7800260FE0FA07024608BF1032C2F808
:1060F00000C0046101367F086A68521EFDD1046049
:106100006A68521EFDD1B34218BF082EEBD19B1B0B
:106110000131E3E7124C4FF0200C03B300250026B9
:1061200011E0C0F810C0013567687F1EFDD150F83E
:10613000087CC0F800C06168491EFDD107F010015D
:10614000C90041EA5606AB4218BF082DE9D1C5F196
:1061500008015B1B26FA01F102F8011BDDE7F0BD27
:10616000A00000202DE9F84F774F8346102020240F
:10617000DFF81455884638603C61697800297AD088
:106180005FEACB713C6007F11006394608BF314623
:10619000FFF796FE1BF0020A394608BF3146FFF7AB
:1061A0008FFE5FEA4B71394658BF3146FFF788FED4
:1061B0005FEA0B71394658BF3146FFF781FEFFF7A2
:1061C00023FE08BF3146FFF77BFE38613C613C602F
:1061D00038603C613C60FFF7A3FE287E01463C61CD
:1061E00011B13C600139FAE7202257F8081C3A60E7
:1061F0003A6157F8083C3A603A61C1F3001157F828
:10620000084C3A60022202EAD3021144042202EA54
:10621000940201EB0209B9F1040F18BFB9F1020FA2
:1062200040F0FB80BAF1000F0DD0697E59B16FF0DC
:106230002001202239B13A613A600131FAE7202188
:106240000138396139600028F9D1FFF781FEBAF1D0
:10625000000F40F01A81687E002800F0168110209F
:10626000202138616FF02000002800F00E81396194
:1062700039600130F8E7696807F11006491EFDD161
:106280003C606968491EFDD15FEACB71394608BFA1
:106290003146FFF720FE491EFDD13C606968491E6A
:1062A000FDD139461BF0020A08BF3146FFF713FE45
:1062B000491EFDD13C606968491EFDD15FEA4B7102
:1062C000394658BF3146FFF706FE491EFDD13C60F6
:1062D0006968491EFDD15FEA0B71394658BF3146E6
:1062E000FFF7F9FD491EFDD13C606968491EFDD1EB
:1062F000FFF78AFD08BF3146FFF7EDFD491EFDD1CE
:106300003C606968491EFDD138613C616968491E7D
:10631000FDD13C606968491EFDD138603C61686808
:10632000401EFDD13C606868401EFDD1FFF7F8FDBE
:10633000287E3C616968491EFDD138B13C60013856
:106340006968491EFDD1F4E718000048202157F87C
:10635000080C39606A68C0F30010521EFDD1396123
:106360006A68521EFDD157F8082C39606B685B1EB5
:10637000FDD139616B685B1EFDD157F8083C39606F
:106380006968491EFDD1022101EAD20108440421B5
:1063900001EA930100EB0109B9F1040F18BFB9F14B
:1063A000020F40F04780BAF1000F0FD0687E68B14D
:1063B0006FF02000202148B1396101306A68521E17
:1063C000FDD139606A68521EFDD1F4E7287E202194
:1063D00040B1FFF75FFD521EFDD139606A68521E61
:1063E000FDD1F5E7FFF7B4FDBAF1000F40F04D80A5
:1063F000687E002800F049801020202138616FF06D
:106400002000002841D0396101306A68521EFDD158
:1064100039606A68521EFDD1F3E7B9F1010F1ED150
:10642000BAF1000F36D12021002849D039613960F6
:106430000138F9E7B9F1010F18D1BAF1000F40F0B6
:106440008380287E2021002800F09880FFF722FD1D
:10645000521EFDD139606A68521EFDD1F3E721302A
:10646000202180B1396139600138FAE7287E202186
:10647000213040B1FFF70EFD521EFDD139606A6830
:10648000521EFDD1F5E7FFF763FD10203860484646
:10649000BDE8F88F00216FF01F024FF0200C0023A1
:1064A000C7F810C057F8086C3609D2B1F407C7F81E
:1064B00000C0013244EA510106F001042344EFE731
:1064C000FFF746FDFFF7C5FCF2B1CB0708443B469A
:1064D00008BF3346C3F800C03C613C600132490844
:1064E000F2E7202273404FF00809DB073A6008BF4B
:1064F0004FF00109B8F1000F18BFC8F8001078B1CB
:106500003A613A600138FAE7C0074FF001093846AE
:1065100008BF30461021016020203861386001E05A
:10652000FFF716FD5FEA0B6002D545480068A860DA
:10653000287B0028A9D01021396120210028A4D06F
:10654000396139600138F9E700206FF01F0120231D
:1065500000223B616C68641EFDD157F8084C240989
:10656000002923D03B6001316E68761EFDD1E6071D
:1065700004F0010446EA50002244EAE7FFF7E8FC91
:10658000FFF767FC002A2ED0CB0708443B4608BF24
:106590003346C3F800C03C61013249086B685B1E9A
:1065A000FDD13C606B685B1EFDD1EBE720216240B2
:1065B0004FF0080939606B685B1EFDD1D20708BF38
:1065C0004FF00109B8F1000F18BFC8F80000287E8D
:1065D00000281AD0FFF75EFC521EFDD139606A68B0
:1065E000521EFDD1F4E7C0074FF00109384608BF3D
:1065F000304610210160202038616968491EFDD1B4
:1066000038606868401EFDD101E0FFF7A1FC5FEA39
:106610000B6002D50A480068A860287B00283FF478
:1066200034AF10213961202100283FF42EAFFFF74D
:1066300031FC521EFDD139606A68521EFDD1F3E76C
:10664000041000E0F0B50F4A0F4E00234FF0100C7D
:1066500020250027A8B117B911F8013B08270138F8
:10666000DC07144608BF1034C4F800C01561013FB0
:106670005B087468641EFDD115607468641EFDD1EA
:10668000E8E7F0BD18000048A000002000F032BC90
:1066900010B52D48016841F00101016001688907CA
:1066A000FCD54168294A2B4B11404160284942687A
:1066B0000A404260426822F44002426002681A4086
:1066C00040F243130260C26A22F00F02C262026B00
:1066D0009A430263426B22F001024263002282600D
:1066E000026842F48032026040F2FF72531E046876
:1066F000934203D214F400321A46F7D00268920390
:106700001ED5426842604268426042684260426808
:1067100011404160416841F488114160016841F0D5
:106720008071016001688901FCD5416821F0030195
:106730004160416841F00201416041680907FCD5B0
:1067400005480649016010BD001002400C00FF081A
:10675000FFFFC277FFFFF2FE08ED00E000400008F7
:106760002DE9F0474FF0FF3334244FF0000803EBDE
:10677000920E9208B4FBF2F250F82E5002F1050C82
:10678000224A92465FEA0C6208BFBDE8F087D04417
:10679000ACF1010C00265246C8F38109F2B29645CD
:1067A0001BDD02F0030700EB8203013687EA0907CD
:1067B0005B6851F8277083EA08046F403C44DF08A7
:1067C0009B0087EA051783EA55133B44634050F862
:1067D00022401D1940F82250E0E702F0030203684E
:1067E00082EA090251F82220DC089E0083EA0803AD
:1067F00084EA051486EA55166A4034441A4450F86F
:106800002E306240D51840F82E50BBE7B979379E3C
:106810000A484FF47A710068B0FBF1F00138B0F12A
:10682000807F00D3FEE70649F022486005480270E9
:106830000020886007200860704700BF000000202B
:1068400010E000E023ED00E0174800F097BF00BF24
:10685000FEE74FF47A70052100F0AEB92DE9F04162
:106860000F4C104E104F4FF000080125C4F8008067
:106870007878032808BFBDE8F0812068411C3128E2
:10688000216004D0042805D028B9356003E0C4F89D
:10689000008000E035610A20FEF7D2FCE8E700BF87
:1068A0003401002018040048100000200648BFF3FF
:1068B0004F8F064A016801F4E06111430160BFF3A4
:1068C0004F8F00BFFDE700BF0CED00E00400FA05AC
:1068D000002070470020704770B501291CBF0220BE
:1068E00070BD664D0446E888A988884208D3664A88
:1068F000012000210123002600F002FEA880EE8086
:10690000A888402808D1604A20468121402300F011
:10691000DDFCE8884030E880002070BD7CB50129AE
:1069200010D11C4E05460024022000214023009473
:10693000324600F087FE284601213246402300F00F
:10694000AFFC00E0022420467CBD00BF10B58121D1
:10695000044600F0C3FB2046012100F0BFFB0020ED
:1069600010BD0000B0B5464D0021044605F11B02E4
:1069700000F0DAFB05F122022046002100F0D4FBF2
:10698000044A20460121402300F08AFC00F010FE5A
:106990000020B0BD7D010020B0B50A784B8812F010
:1069A00060044FEA132215D0202C59D14C78013CB9
:1069B0000A2C36D8DFE804F0062E27353535353574
:1069C000393E2A00012A4ED0032A51D12B4901F128
:1069D000080249E04C780B2C0DD00A2C0FD0062C65
:1069E0003ED1212A2FD0222A35D1CB88254A212BEE
:1069F00028BF212331E02149D8B2C86230E01F49C5
:106A000001F12C020AE01D4A916A05E01B4AD9B245
:106A1000916211E0194A516A02F8301F8021012366
:106A20001CE000F0FFFA02241BE014480169013168
:106A3000016115E011494A628021002200230024EF
:106A400000F044FC0DE0CB880D4901F11202092B46
:106A500028BF092301E000230022802100F036FC3A
:106A600000242046B0BD084A8121402300F02EFCBE
:106A70000248C1680131C160F2E700BFC4000020D4
:106A80002D7D0008567D00083C010020014800686B
:106A9000704700BF002004E010B5164B1C6884430B
:106AA0001C605C6884435C609C6884439C60DC6818
:106AB00084430129DC6004D031B9196801431960AD
:106AC00002E0596801435960022A09D0C143012AF2
:106AD00009D072B99A6810439860D868084007E0F6
:106AE0009968014301E09A6811409960D9680843A8
:106AF000D86010BD0004014001490860704700BF24
:106B00001404014070B5FFF78FF900B170BDE04E7D
:106B1000306840F00100FFF7C7F9FFF7E0B900BFA8
:106B2000DB48016841F0800101607047B0B5044660
:106B3000FFF742F900B1B0BDD54D286840F0020022
:106B400028606C60286840F040002860FFF734F946
:106B5000296821F002012960B0BD00BF70B5441E54
:106B60000025013C45F1000600F008F8012801D19C
:106B7000002EF6D1012808BF042070BD0748016827
:106B8000C9071CBF012070470168C9064FBF032019
:106B90000068022101EA5000704700BF0C2002404B
:106BA0000448C168090603D5C1490160C1490160B3
:106BB000704700BF04200240B0B5144A45F2555357
:106BC00013600E4B1C46D56805F0010514B1013465
:106BD000002DF8D145B95160D16801F0020113B11F
:106BE00001330029F8D109B10020B0BD6FF31F3087
:106BF00090604AF6AA2010600120B0BD0200F0FFAC
:106C000002484AF6AA210160704700BF00300040E8
:106C1000816170472DE9F043D0F800E0D0F80C8096
:106C200000264FF0030C0027102F14D023FA07F48E
:106C3000E4070DD00CFA06F502FA06F928EA050475
:106C40002EEA050544EA090801FA06F445EA040EAD
:106C500002360137E8E7C0F800E0C0F80C80BDE874
:106C6000F083F0B5012941684FF0030C14BF99433C
:106C700019434160002400268168102E04BF816002
:106C8000F0BD23FA06F7FF0705D00CFA04F502FA67
:106C900004F7A943394302340136EEE7034800689C
:106CA00010F0060018BF4FF0FF3070471C20024064
:106CB000FDF79CFAFEF7D0FAFEF7F8FAFFF770F846
:106CC000FFF7A6FDFEF71FFBFEF710FBFFF7E6FF41
:106CD00050B9FFF765FF00F0DFF8BB2000F0A4F823
:106CE00000F09CF8FFF71CFF1E4C4FF00108C4F8A1
:106CF0001880FEF789FAC4F82880FDF7AFFA0A2059
:106D0000FEF79EFA184D284600F052F900F050FCAC
:106D100020468021FFF77CFF05206870FFF79EFD6D
:106D20006420C4F82880FEF78BFA104D104F002025
:106D3000C5E90007FFF78DFD0E4EFFF761FF00F07C
:106D400043FC002838460BD1686828B1B04206D110
:106D5000C4F81880686802E03846C4F82880013812
:106D60006860EAE7000400481000002034010020B9
:106D7000400D0300A086010010B5274B1C6804F4E9
:106D8000E064B4F5E06F02D10023042423E01C6822
:106D900004F4E064B4F5C06F02D1012303241AE0C7
:106DA0001C6804F4E064B4F5A06F02D1022402234D
:106DB00011E01C6804F4E064B4F5806F02D1032391
:106DC000012408E01B6803F4E063B3F5407318BFC7
:106DD00001239C000423A1400F2424FA03F31A404A
:106DE0001143084A090140EA020383F800131C21F9
:106DF000012301EAD00100F01F0003FA00F08850DF
:106E000010BD00BF00E100E00249084302490860EC
:106E1000704700BF0000FA050CED00E01C48016857
:106E200021F4007101607047B0B50446FEF7C4FF5D
:106E3000174DE96801F00601062908BF052000B1D9
:106E4000B0BD286840F020002860286840F040006D
:106E50002860FEF7B1FF0428F2D098B9286820F026
:106E600020002860286840F010002860094804804D
:106E7000FEF7A2FF042804BF0420B0BD296821F05A
:106E8000100102E0296821F020012960B0BD00BF97
:106E90001020024000F8FF1F04488168890503D4D0
:106EA0000349016003490160704700BF08200240A8
:106EB00023016745AB89EFCD7346FEF7DAFF9E46A7
:106EC000014AFFF701B800BF0010024002490A68FA
:106ED00022F44002FEF774BF041002403C484FF613
:106EE000FB72016811404FF6F772016001681140B2
:106EF000016070470248016801310160704700BFBE
:106F00004812002070B5044608780D4600F00300D2
:106F1000022817D0012821D000283FD1607800F046
:106F2000FE00022819D16888022837D0012814D120
:106F3000626F002620462946E67090473648006872
:106F4000868024E06178A88803290DD0022904D125
:106F500040F08000C0B2802820D170BD6078032846
:106F600018D002281AD0F8E7698841B940F08001AA
:106F7000C9B2802903D0C1B2204600F057F8626F31
:106F80002046294690472448002100688180CE4849
:106F9000FEF723BFA88810F0FE0FDED020460021A8
:106FA000BDE8704000F0C0B9406E81781180704734
:106FB00010B507490122074B4FF41F440A60002215
:106FC0000A604A600A611C60C2700C6010BD00BF9C
:106FD000405C00404412002010B50C464178032963
:106FE00003D1A18811F0FE0F03D0FEF763FF00204C
:106FF00010BD426F214690470028F8D1E088002854
:10700000F5D10548FEF716FFDF480168114081F011
:1070100030010160EBE700BF9C7D0008006E017845
:1070200011807047002100F07FB9000010B501F019
:107030007F0249B2D44BB1F1FF3F16DD02EB820172
:1070400000EB810000F1380143EA8200026852043B
:1070500006D5026848F68F731A4002F58042026036
:107060004FF440524BF68F7313E002EB820100EBBA
:10707000810000F1100143EA82000268520605D542
:10708000026848F68F731A4040320260302248F698
:10709000BF7300240C70016819405140016010BD9D
:1070A0009F4B01320130520803EB410142B10B68A2
:1070B000013A1B0A00F8023B08C900F8033CF5E757
:1070C000704700BF964B0132520803EB410122B1D9
:1070D00030F8023B013A08C1F9E77047AA4B01F0CA
:1070E0007F0049B2B1F1FF3F53F8202043EA80000E
:1070F0000BDD510406D5016848F68F72114001F589
:10710000804101604BF68F7109E0510605D5016899
:1071100048F68F7211404031016048F6BF71026835
:1071200011400160704700BFF0B5D77892F9026056
:1071300054A58E46524907F0030706F00F0455F890
:107140002750784F41EA84032543DD51A3F580633E
:10715000B6F1FF3F92882BDD8C4604EB84054E4947
:10716000BEF1010F00EB8500C2634DD1186848F6EF
:107170008F65284048F68F7500F580701860186894
:107180002840444D4030186020012E680D4661466D
:107190003F2A29462CF800603DD302F11F003F4DE5
:1071A00000EA01074FF0FF3000EB4710284338E0BA
:1071B00004EB840500EB850025014261354801326E
:1071C00006684E53344D1E352A40B5180560BEF191
:1071D000010F1E681BD10D4648F68F61314001F545
:1071E0008071196001680A44026048F6BF7218682D
:1071F000104080F03000186005EB041001814BF660
:107200008F711868084039E0224806680DE048F69A
:10721000BF7030402DE001F11E00551C05EA00074B
:1072200078020CEB04153E44A8800CEB04143F2AB2
:10723000268109D302F11F004FF0FF32174D08409D
:1072400002EB40122A4304E001F11E00013210401B
:107250004202A2810F4A304410604BF68F721868C8
:107260001040BEF1010F07D1186048F6BF711868D1
:10727000084080F0200001E080F400501860F0BD6C
:107280000060004000020000000400000000000058
:107290000006000008000020E0FF01000080FFFF62
:1072A000B0B501F07F014BF68F7501EB810400EB67
:1072B00084004364344B53F821402C4084F4405400
:1072C00043F821400264B0BD005C00407CB501F091
:1072D0007F05134E144605EB850100EB810000216C
:1072E000C0E9062301620191406998422CBF0193D5
:1072F00001902801315A019882B22046FFF7E2FE40
:10730000084A46EA8500019948F6BF74835823402D
:1073100083F03003835046EA051081807CBD00BFB6
:107320000060004000FCFFFFB0B54AB201F07F04EE
:10733000154948F6BF73B2F1FF3FC8BF4BF68F73D4
:1073400051F824502B401025B2F1FF3FC8BF4FF435
:1073500080556B4041F8243004EB8403B2F1FF3FC9
:1073600000EB830000F11003C8BF00F138030120D7
:10737000187004B1B0BD08684BF6BF72104041F2FE
:10738000100250400860B0BD005C0040E0B5C98804
:1073900000220192012907D14178032907D002294F
:1073A00002D101AA802104E0FEF784FD8CBD80217A
:1073B00002460123FFF78AFF8CBD0000BCB50446DE
:1073C00008780D4600F00300012826D068BB6888C5
:1073D0000021ADF80610B1EB902F27D100F0FE018F
:1073E000052923D8010A13A202EB81010DF106023F
:1073F00051F8043CC1B2204698470246BDF8060049
:1074000098B1EB888BB1984238BF03462046ADF85F
:1074100006308021FFF75AFFBCBD626F2AB12046BB
:10742000294602B0BDE8B0401047BCBD2046FEF77B
:1074300041FDBCBD1D700008A96F0008617C0008FB
:107440004278032A02D0022A04D070478A8812F0B8
:10745000FE0F02D00021FFF767BF426F002AF4D071
:107460001047E0B50022ADF80620ADF804200A78F8
:1074700002F00302022A0DD0012A16D0FAB941788F
:1074800001F0FE01022915D1C178D9B10221ADF870
:10749000061017E042780979032A16D0022A09D18A
:1074A00041F08001802905D009E04278032A02D00A
:1074B000022A04D08CBD898811F0FE0F02D0FEF79D
:1074C000F9FC8CBD0DF1060214E00A0606D401EBAE
:1074D000810100EB810191F8381006E001F07F0195
:1074E00001EB810100EB8101097C11B10121ADF8B3
:1074F000041001AA80210223FFF7E8FE8CBD0000E2
:1075000010B501460020012908BF012B00D010BD95
:10751000614C206AE169884201D1A078B8B1206A43
:10752000474901EB801110464022FCF739FE206AE2
:1075300001302062206A202804BF00202062206AD7
:10754000E169884204BF0020A070402010BD0120E6
:107550006070002010BD00BF70B5402A0EDC1248DC
:1075600014464278032A09D14B4EB28842B1427880
:10757000032AFAD00020F080B08070BD002070BDDA
:107580000A4D22462846FCF70BFE0020A3B28121BB
:107590002A46F0800448B480FFF798FEF088204423
:1075A000F080012070BD00BF100000203C010020D1
:1075B000394800210122017041618161427081706E
:1075C000C1610162704700BFB0B5334CA069616909
:1075D000884201D1207888B3A0693049184D01EB69
:1075E0008010E16905EB8111FDF796FEA06901307D
:1075F000B0F1200118BF0146A161A069616988420C
:1076000004BF00202070607850B1002040226070DC
:10761000E06905EB80110020FFF79EFF0120B0BD5F
:10762000E0690130B0F1200118BF0146E16101209D
:10763000E169226A914208BFA070B0BD0020B0BDD0
:10764000BE09002010B5022824D11BB310780728EA
:1076500003D113480121017010BD0F4C207818B1DF
:107660006069A169884215D060690C4901EB8010FE
:1076700011461A46FCF794FD60690130606160694B
:10768000202804BF002060616069A169884204BFAE
:107690000120207010BD00BFC4000020BE010020EA
:1076A0009C000020B0B5044671B101EB810004EBF1
:1076B0008000D0E90723D31AC3611BD082699BB233
:1076C0002046FFF703FE57E0E268E2B101EB8100DC
:1076D00004EB8005284650F81C1F50F8083C9942DE
:1076E0001BD9C91AAA6901608BB220468021FFF715
:1076F000EDFD21E0607803283ED1D4F88020DAB394
:107700002046904738E0E4480178A9B3002202708F
:1077100041F08000E149C8642EE0914213D2B1FBF0
:10772000F3F202FB131171B92046802100220023DD
:107730000025FFF7CBFDE560204600210022002355
:10774000FFF7AEFD18E0002505606078032803D13F
:10775000A16F09B120468847F74848F68F62016853
:1077600011404BF68F7201F5807101600168114084
:1077700081F440510160E5600020B0BD2DE9FE4F6D
:107780004FF0000AEC4F04468A4E48F2FF79ADF8FC
:1077900006A0786CADF806003068BDF80610014010
:1077A00009047ED5E54840F68F78ADF80AA0ADF81B
:1077B00008A0D0F800B0786CADF80A0000046ED5CF
:1077C000BDF80A0000F00F0547EA85000168ADF832
:1077D0000810BDF80A10C906BDF8081018D409062B
:1077E000E9D5016848F60F721140016005EB85008C
:1077F0000BEB0511898804EB800082696FF39F21F0
:1078000001621144816120462946FFF74BFFD2E710
:1078100009F5F04209B212B29142CCDC016801EAEA
:10782000080101600BEB051086896FF39F2636B1C6
:10783000BDF80810090529D40189FEF7C6FA05EB41
:10784000850004EB8000814659F8481F3144C9F88F
:10785000001059E902138A19991B49F8082C49F8B4
:10786000041C02D0C06BB04208D92046294600F063
:10787000ADF8C9F800A048F2FF799CE78BB220462A
:107880002946FFF70DFD48F2FF7994E7BBF8081091
:10789000201D3246FFF704FC204600F0BDF9454E9E
:1078A0003068BDF806100840C00409D54EF6FF70D8
:1078B0007864A07860704048007808B9FFF70EFB44
:1078C0003068BDF806100140090513D5396CC906AA
:1078D00010D4607804216170A0703848007810B12D
:1078E00000F0C4F902E03648032101704FF2FF7046
:1078F00078643068BDF806100840800508D54FF65A
:10790000FF5078642F48006810B10168204688470E
:107910003068BDF806100840C0051CD54FF6FF6062
:10792000786427480178B1B1017801390170017894
:1079300089B921494FF6EF750B783A6C2A40012B33
:1079400002D13A64002005E042F010023A640322BA
:107950000270012008703068BDF80610084040052C
:1079600025D54FF6FF30A0217864174801604020EC
:1079700048F68F71E06360613868084048F68E71A0
:107980003860786808406021013078608020F864B1
:10799000386880B2386043F220203860964800682A
:1079A00001812021A0F80C90018001206070BDE8C9
:1079B000FE8F00BF44120020990000200C00002020
:1079C000980000204C1200200800002010B504464A
:1079D00041B16078032836D1D4F884209AB3204688
:1079E000904730E0E06898B101EB810004EB800043
:1079F000014651F8442F51F8083C9A420FD9D31A46
:107A0000026C20460B609BB20021FFF749FC1AE094
:107A10007A4848F68F6201681140016013E060788F
:107A2000032803D1E16F09B120468847734848F61F
:107A3000BF720168114081F0300101606E48002181
:107A4000E16000688180002010BD00BF7047000029
:107A500010B58A884AB9CA883AB989780E4A01F0BD
:107A60007F0111704278032A04D10021BDE8104043
:107A7000FFF75ABC604A002348F6BF74126893802F
:107A80005E4A1368234083F03003136009B102217A
:107A900000E00121417010BD42120020005C004056
:107AA00070B504464888234E10F0FE0F307005D0A4
:107AB00020460021BDE87040FFF736BC61780329FD
:107AC0000FD0022927D1010606D003216170207052
:107AD000C1B22046E26E904747480021006881808D
:107AE00025E0010618D02178C0B2444D814207D06C
:107AF000226F204690473178E26E204621709047F1
:107B00003D4800210068818048F6BF712868084020
:107B100080F03000286070BD002502200021257013
:107B200060702046226F9047334800688580334854
:107B3000FEF753B950120020005C00409C7D000805
:107B40007047000080B50A7802F00302022A0DD0C7
:107B5000012A17D082BB427802F0FE02022A10D11D
:107B6000498801290DD10121C1701BE043788A8821
:107B7000032B0DD0022B04D142F08001C9B2802921
:107B80001AD180BD4278032A12D0022A14D0F8E715
:107B9000498839B942F08001C9B2802902D0D1B2F6
:107BA000FFF7C2FB1448FEF745F91448FEF768B921
:107BB000898811F0FE0FE4D00021BDE88040FFF776
:107BC000B3BB00BF80B54278032A02D0022A04D09A
:107BD00080BD8A8812F0FE0F04D00021BDE88040ED
:107BE000FFF7A2BB426F02B190470348FEF722F9AC
:107BF0000248FEF745B900BF9C7D0008005C0040CC
:107C000002790A7042794A70C2884A8002898A8061
:107C10004289C260CA8070471CB569460446FFF7B6
:107C2000EFFF9DF8000000F06000402813D02028EE
:107C300009D068B99DF80100084951F8202069462B
:107C40002046904707E069462046FFF7C5F902E065
:107C50002046FEF72FF900201CBD00BFA07D0008C4
:107C6000806E50F821000178118070470348016848
:107C700041F00C0189B20160704700BF405C0040D8
:107C8000704702E008C8121F08C1002AFAD17047E5
:107C90007047002001E001C1121F002AFBD170478C
:107CA000040309041403470044004C0069006E00FB
:107CB0006B002D004F00421E0343004D005300494E
:107CC0000053002D004400410050002000470044B4
:107CD0000033003200140343004D005300490053A9
:107CE000002D0044004100500032033800310038BC
:107CF000004600420043004500310042003100319F
:107D000000370038003000350033004400350037BC
:107D1000004600310043003600390012034700449A
:107D200000330032002000410052004D00090229BA
:107D30000001010080320904000002030000000974
:107D400021010000012221000705810340000107F5
:107D50000501034000010600FF0901A101150026ED
:107D6000FF007508954009018102954009019102C3
:107D700095010901B102C01201100100000040E9A3
:107D8000288F06000101020301E48D70097BDD41AB
:107D9000DA886E0E95C161B92D00000000600040C8
:107DA00063740008056F00084D7A0008457B0008E1
:107DB0004D7A0008517A0008BD730008417B000825
:107DC0008D730008A17A000841740008C57B000883
:107DD000817C0008A07C00081B7D0008D57C000881
:107DE000E97C0008A47C0008B77C0008107E00082D
:107DF0000000002098000000827C0008A87E000897
:107E000098000020C0150000927C000800000000CF
:107E100000A24A04C0110020200000000100000060
:107E20000000000000000000000000000000000052
:107E30000000000000000000000000000000000042
:107E40000000000000000000000000000000000032
:107E50000000000000000000000000000000000022
:107E60000000000000000000000000000000000012
:107E70000000000000000000000000000000000002
:107E8000777D00082D7D0008D47D00086569000815
:107E90004D69000899690008D1680008D568000894
:087EA000D96800081D69000803
:040000050800416945
:00000001FF
