:020000040800F2
:104000007026002019410008BF4C0008914C0008A0
:10401000BD4C0008DB410008E956000809042020D7
:104020000000000000000000000000008F4D0008AC
:10403000894B0008000000008D4D0008A5550008C0
:104040003341000833410008334100083341000880
:104050003341000833410008334100083341000870
:104060003341000833410008334100083341000860
:104070003341000833410008334100083341000850
:104080003341000833410008334100083341000840
:10409000E556000833410008334100083341000869
:1040A0003341000833410008334100083341000820
:1040B0003341000833410008334100083341000810
:1040C0003341000833410008334100083341000800
:1040D00033410008334100083341000833410008F0
:1040E000334100083341000833410008000000005C
:1040F000090420205696869200000000000000006F
:1041000033410008DFF80CD000F02AF800480047DF
:10411000295C0008702600200648804706480047B2
:10412000FEE7FEE7FEE7FEE7FEE7FEE7FEE7FEE767
:10413000FEE7FEE7A95500080541000840EA010333
:104140009B0703D009E008C9121F08C0042AFAD24D
:1041500003E011F8013B00F8013B521EF9D2704711
:10416000064C074D06E0E06840F0010394E80700C4
:1041700098471034AC42F6D3FFF7C8FFB06E000882
:10418000D06E000870B58C1810F8015B15F00703AD
:1041900001D110F8013B2A1106D110F8012B03E0E0
:1041A00010F8016B01F8016B5B1EF9D12B0705D4E8
:1041B0000023521E0DD401F8013BFAE710F8013B31
:1041C000CB1A921C03E013F8015B01F8015B521E4D
:1041D000F9D5A142D8D3002070BDFEE70FB5362235
:1041E0008DF8002002788DF8012042788DF80220A9
:1041F00082788DF80320C2788DF80420AA228DF8E9
:10420000052002798DF8062042798DF80720827901
:104210008DF80820C2798DF8092025228DF80A2012
:10422000027A8DF80B20427A8DF80C20827A8DF874
:104230000D20C07A8DF80E009B208DF80F00684687
:1042400001F0E0F9DDE900014840DDE902125140EA
:1042500004B0484000BD000010B500240B462246C3
:10426000062828D006DC052825D2DFE800F0242423
:1042700024240F00FD281ED002DCF0281BD10CE006
:104280004021FE2815D0FF2815D10EE00624224635
:104290000A491846FFF752FF0DE00948006800B1CF
:1042A000202040F01100087004E019705A700224B8
:1042B00001E019700124204610BD0000CA6D0008FD
:1042C000540000202DE9F8430278A2F180031F2B4F
:1042D00003D800F017F9BDE8F883A2F1A0035E2B24
:1042E00002D800F015F9F6E701F8012B0C4610F89A
:1042F00001CB00270125FF217C4B7D4ADFF8F4919B
:104300004FF00116BCF11E0F6FD2DFE80CF00F1753
:104310002E3B98A1BBEBD74152EBEBEBEBEB565AA4
:104320005E6F7C9396EBEBEBEBEBEB780078611C2C
:10433000FFF792FF207000F10210CCE76E4A06787A
:10434000151D26B1012E07D021701846BBE040781C
:10435000C1074FF4005003E04078C1074FF480508C
:1043600009B1106023E0286021E007782FB1012F08
:1043700004D0002727703046A5E00127157000F013
:10438000C5FCF7E7177000F09BFC277028469AE001
:1043900001885A485A4A0068B0FBF2F00322801C98
:1043A000B0FBF2F048430090401E0090FCD1277013
:1043B000CBE767702770022085E0214600F04EFBB6
:1043C00081E0214600F020FB7DE010F8015B014612
:1043D0000DB94FF48075284601F0B6F8ED1D277031
:1043E000E808000400F101106DE07BE0007800F0C7
:1043F0000301491C1176C0F380005076BAE72146CC
:1044000000F08CF85FE0217001210C4610F8013BB0
:104410000BE000BF10F8012B12F03F0200D1402248
:10442000D21DD20811441044491C5B1EF2D244EA4A
:10443000014048E000782170D3E721709BE70178C4
:104440001173B0F801101182B0F80300508247E0F8
:1044500012782146012A12D0421C12F8013B43B1C6
:1044600012F8014BA50701D5E40600D5121D5B1E0D
:10447000F6D1101A0F7000044F70801C23E000F07A
:10448000A1F820E0054610782146012809D00F70D8
:104490004F70A7700321E878800707D541F480208A
:1044A00011E0284600F01EFA0146F4E7B5F80100D5
:1044B0004FF4802202EB8040084304E01278012A86
:1044C00004D02170484600F1011004E70179D0F8CA
:1044D000010061F31F6000906946002000F0BCFC01
:1044E0002770EFE704F8011C3046F4E601000200F3
:1044F0006C01002001000500100C01405400002058
:1045000040420F0000784FF00112087010467047CB
:10451000FF2008704FF00110704700002DE9F05F98
:10452000002201F8012B012510F8016B8A46A946EB
:104530000446DFF88CB03CE014F8017B17F03F0034
:1045400000D14020C01D4FEAD00838064FF01000BF
:104550000AD51B4910310860DBF80010584621F4D9
:10456000702141F4002109E0154914310860DBF89D
:104570000010584621F4702141F440310160524648
:104580002146384600F004FC5EB90D491020143174
:104590000860DBF8001021F4702141F44031CBF8C1
:1045A0000010380602D5C244C14401E044444544E9
:1045B0006D1C761EC0D249EA0540BDE8F09F0000A0
:1045C000000801402DE9F04F87B08B4601F1020948
:1045D00004460590C149002002900870019065785A
:1045E000A41C8046002D6FD0DFF8F4A214F8016BF4
:1045F000B1076AD5B8F1000F3BD0BAF8107006F0D9
:10460000110001280AD0DFF8D48269460E2000F09C
:1046100023FC022812D04FF0000805E0694630461E
:1046200000F01AFC022802D0012806D10FE07F1EFC
:1046300003D3AA4909780029F0D0FCE07F1E03D3F8
:1046400098F800100029E0D04FF00008F3E000993E
:1046500089F80010009A09F10101120A01F8012BF2
:10466000009A120C01F8012B009A120E01F8012B8E
:104670008946F1064DD5E17854F8040B61F31F60CB
:104680000490BAF812000390F00712D0BAF8107034
:104690000021304600F0E0FB022802D0012807D1BB
:1046A00007E07F1E791C03D08C4909780029EFD0E0
:1046B000C1E0BAF810706946304600F0CDFB022820
:1046C00004D0012819D108E0D5E060E07F1E14D3A2
:1046D000824909780029EED00FE0DAF81420009919
:1046E0000A4004998A4208D00399491E0391491C43
:1046F00003D07A4909780029DBD0DAF81420009930
:104700000A4004998A4201D040F01000012816D1D5
:104710003BE0BAF81070F10715D0B8F1000F34D1B2
:104720000021304600F098FB022802D0012806D173
:1047300006E07F1E7FD3694909780029F0D07AE02E
:104740004FF0010821E06946304600F085FB022861
:1047500002D001286FD106E07F1E6CD35F49097833
:104760000029F0D067E0009989F80010009A09F15B
:104770000101120A01F8012B009A120C01F8012B19
:10478000009A120E01F8012B8946002148E0B8F189
:10479000000F25D0BAF8107069460E2000F05CFBBF
:1047A000022802D0012846D106E07F1E43D34B49A0
:1047B00009780029F0D03EE0009889F800000099BF
:1047C00009F10100090A00F8011B00994FF00008E7
:1047D000090C00F8011B0099090E00F8011B814625
:1047E000E17854F8040B61F31F600090B10603D523
:1047F000CAF81400012014E0BAF810706946304677
:1048000000F02AFB022802D0012814D107E07F1E05
:10481000791C10D0314909780029EFD00BE0012133
:1048200001910299491C02912C49097819B96D1E10
:104830007FF4DCAE09E045B114F8011B8A0701D50D
:10484000C90600D5241D6D1EF5E7012837D1B8F142
:10485000000F24D0BAF81050204E69460E2000F008
:10486000FBFA022802D0012829D105E06D1E26D3CB
:1048700031780029F1D022E0009989F80010009ADF
:1048800009F10101120A01F8012B009A120C01F83A
:10489000012B009A120E01F8012B89460FE00199B5
:1048A00069B1BAF810500D4E00210E2000F0D4FA74
:1048B000022804D16D1E02D331780029F4D0029968
:1048C0008BF800108BF801000598A9EB0B01201A5A
:1048D00007B041EA0040BDE8F08F0000580000201A
:1048E0006C0100202DE9F84FDFF814810027044601
:1048F00038460D4601F1030A88F80070B4F80160EB
:10490000E41C002E73D014F8019BDFF8F8B05FEAC6
:1049100089715CD55FEAC9713CD0BBF810400021B9
:10492000484600F099FA022802D001285FD131E010
:10493000641E5CD398F800100029F0D057E026B927
:104940005FEAC97001D04FF00E09BBF8104069460C
:10495000484600F081FA022802D0012847D106E03B
:10496000641E44D398F800100029F0D03FE000996D
:104970008AF80010009A0AF10101120A01F8012BCD
:10498000009A120C01F8012B009A120E01F8012B6B
:104990008A467F1C761ED2D229E0E17854F8040BB7
:1049A00061F31F600090BBF810806946484600F034
:1049B00053FA022802D0012819D107E0B8F1010802
:1049C00015D30F4909780029EFD010E07F1C761E1F
:1049D000E3D2BBF810400A4E00210E2000F03CFA52
:1049E000022804D1641E02D331780029F4D02F703C
:1049F000390A6970A870AAEB0500BDE8F88F0000BD
:104A0000580000206C01002030B5C27803681048BF
:104A100062F31F634BB10F4A002415680E4AB3EBD3
:104A2000950F05D3012353700FE0FF220A7030BDAC
:104A300003EB55056D1EB5FBF3F35470022B03D940
:104A40000325B3FBF5F300E0012353600C7030BD88
:104A500001000400540000206C0100202DE9F04703
:104A60008A46057844784179D0F80200E30761F37B
:104A70001F60344901F1040206D0EE074FF0200315
:104A800001D00B6000E01360A30706D5AE074FF01E
:104A9000100301D50B6000E01360210609D5E90978
:104AA000CA074FF4007101D0274A01E0264A121DBF
:104AB0001160DFF89080DFF89090A8F10808A9F164
:104AC000080950B3012700F0F1FD0646E00705D0C4
:104AD000D8F80000C0F34010A84219D1A00706D5AD
:104AE000D8F80000C0F30010B0EB550F10D16007EC
:104AF00001D5A8080CD1A00601D5680908D1200667
:104B00000BD5D9F80000C0F34020B0EBD51F04D07E
:104B100000F0CCFD801BB842D8D3D8F80010D8F8EC
:104B20000000C1F34011C0F3001041EA4000D9F881
:104B30000010490A40EAC1108AF800000348BDE8A5
:104B4000F087000010080140100C01400100060031
:104B50000A4800210A4A017041701268094BB2FBF1
:104B6000F3F2921E426001736422028241820122AA
:104B700041610276417600F0A3B800006C0100208C
:104B80005400002080841E00704700002DE9F04191
:104B90000278FF26A2F1D003072B71D801F8012B70
:104BA0000C4610F8011BD039082964D2DFE801F067
:104BB000041215181C28455600F0A8FE04F8010B35
:104BC000010A04F8011B010C04F8021B000E04F892
:104BD000010C51E000F082FF4EE000F027FF4BE0B7
:104BE000006800F037FF47E00168808804E000BFFC
:104BF00011F8012BFF2A18D1401E80B2F8D23BE0F9
:104C00008588D0F80080382D36D8871D11E000BF88
:104C100017F8011B2DB117F8010B6D1E41EA002199
:104C2000ADB2404600F0CAFE08B1FF2624E008F10C
:104C300002086D1EADB2EBD21EE0016880883E28EE
:104C40001AD8002202E038B111F8012B04F8012B28
:104C5000401E80B2F7D20FE00E78F9E7BFF34F8F16
:104C600009480168094A01F4E06111430160BFF39A
:104C70004F8F00BFFDE7641E2670BDE8F081FFE79F
:104C8000BDE8F041FFF71EBB0CED00E00400FA05A3
:104C9000FEE7000010B5084C4FF40053032210212A
:104CA000204600F075FFA31420460322BDE8104003
:104CB000102100F06DBF0000000C0140FEE77047BE
:104CC00010B5104C202303222821204600F060FF5D
:104CD000102303224821204600F05AFF802303229C
:104CE0004821204600F054FF40230322482120465B
:104CF00000F04EFF63150322BDE810404821024832
:104D000000F046BF00080140000C014010B5184CEF
:104D1000202303221021204600F03AFF1023032213
:104D20001946204600F034FF402303224821204644
:104D300000F02EFF802303224821204600F028FFA8
:104D400064152346032248210A4800F021FF084841
:104D500020211030016010210160064814300460E9
:104D6000012000F0D9FD03481030046010BD0000A0
:104D700000080140000C014003224FF48073102111
:104D8000014800F005BF000000080140704770476F
:104D90002DE9F84310F03F0300D14023DFF8B48041
:104DA00005062B4ED8F804004FF010094FF02004F0
:104DB000A6F1040725D448E0002008251CE0346053
:104DC000D8F8041000918C46BCF1010CCDF800C05D
:104DD000FAD1DFF87CC0ACF10C0CDCF800C03C6010
:104DE000CCF3001C0091491E0091FCD140085B1ED1
:104DF00040EACC106D1E01D0002BE0D1E84002F853
:104E0000010B002BD8D1BDE8F88300BF11F8012BAE
:104E10004FF0080C16E0D5074D4601D03D6000E08C
:104E200035603460054600906D1E0095FCD13C60F5
:104E3000054600906D1E0095FCD152085B1EBCF12A
:104E4000010C02D0002BE6D1DDE7002BDED1DAE742
:104E5000140801406C010020034A52780AB100F0A6
:104E600005B800F01BB900006C0100202DE9F05FCF
:104E7000884E8E46102131602024351D2C60346010
:104E8000C20701D0316000E029602C603460430823
:104E9000DF0701D0316000E029602C6034608208B7
:104EA0000344D70701D0316000E029602C603460F2
:104EB0001344C208D70701D0316000E029602C609C
:104EC00034601A44D20701D0316000E029602C60C0
:104ED000346029602C60346031602C603460894615
:104EE0003160DFF8B0A1AAF1100ADAF8002022F44C
:104EF000702242F40022CAF80020DFF89CB19BF82F
:104F000018100A1E03D02C603460491EFBD12C609F
:104F1000604908390B683460C3F300132C600F68D4
:104F20003460C7F3001743EA47032C600F6834600E
:104F3000C7F3001743EA8707012F18D0022F6ED05E
:104F4000042F6CD0213203D02C603460521EFBD170
:104F50004846C5F80090DAF8002022F4702242F4A6
:104F60004032CAF8002030603846BDE8F09F830721
:104F70002FD54FF0000C624620232C60D1F8008022
:104F80003460C8F300184FEA5C0C42444CEAC87C19
:104F90005B1EF2D12C600968346082EA1112D107DD
:104FA00000D00827BEF1000F01D0CEF800C09BF85A
:104FB000181019B12C603460491EFBD1C5F800905F
:104FC000DAF8002022F4702242F44032CAF80020BD
:104FD00029E01AB12C603460521EFAE74B46C5F83E
:104FE0000090DAF8002022F4702242F44032CAF82D
:104FF0000020DEF8001000224FF0200C5FEAC1789C
:1050000001D0336000E02B602C6034600A44490812
:10501000BCF1010CF2D1D10702D0336001E013E002
:105020002B602C603460000603D500F04DFBCBF8FC
:1050300008009BF80C0028B1C5F800902C60346083
:10504000401EFBD148468EE79BF8193033B18107EB
:1050500004D521212C603460491EFBD11AB12C608B
:105060003460521EFAE74946C5F80090DAF800C0ED
:105070002CF4702C4CF4403CCAF800C03BB18007C3
:1050800005D4296021202C603460401EFBD13160A2
:105090006AE70000100801406C0100202DE9F84F7C
:1050A000FE4D002610228E462A6020232C1D2360F0
:1050B000FB4F796800918C46BCF1010CCDF800C023
:1050C000FAD12B608C460091BCF1010CCDF800C0E8
:1050D000FAD15FEAC07C01D02A6000E02260236040
:1050E0008C460091BCF1010CCDF800C0FAD12B60C8
:1050F0008C460091BCF1010CCDF800C0FAD106EB52
:10510000000C46085FEAC67801D02A6000E0226001
:1051100023608846CDF80010B8F10108CDF8008072
:10512000FAD12B6088460091B8F10108CDF80080D3
:10513000FAD1B44486085FEAC67801D02A6000E05C
:105140002260236088460091B8F10108CDF8008004
:10515000FAD12B6088460091B8F10108CDF80080A3
:10516000FAD1B444C6085FEAC67801D02A6000E0EC
:105170002260236088460091B8F10108CDF80080D4
:10518000FAD12B6088460091B8F10108CDF8008073
:10519000FAD16644F60701D02A6000E0226023605D
:1051A0000E460091761E0096FCD12B600E460091B3
:1051B000761E0096FCD1226023600E460091761E7A
:1051C0000096FCD12B600E460091761E0096FCD115
:1051D0002A6023600E460091761E0096FCD12B605B
:1051E0000E460091761E0096FCD192462A60DFF8AA
:1051F000ACB2ABF1100BDBF8006026F4702646F47D
:105200000026CBF800603E7E320012D023608C4630
:10521000CDF80010BCF1010CCDF800C0FAD12B6024
:105220008C460091BCF1010CCDF800C0FAD1761E7D
:10523000ECD123600E460091761E0096FCD1DFF87B
:105240005CC2ACF1080CDCF800602B60C6F3001601
:1052500088460091B8F10108CDF80080FAD12360AA
:105260000F4600917F1E0097FCD1DCF800702B6088
:10527000C7F3001788460091B8F10108CDF8008007
:10528000FAD146EA470623600F4600917F1E009739
:10529000FCD1824F083F3F689946C7F300172B6047
:1052A0000B4600915B1E0093FCD146EA8706012E57
:1052B00023D0022E7DD0042EFCD021320ED04B46BE
:1052C000236008460091401E0090FCD12B600846E8
:1052D0000091401E0090FCD1521EF1D1C4F800A0F4
:1052E000DBF8002022F4702242F44032CBF8002098
:1052F000C5F800A03046BDE8F88F83075DD54FF0B4
:10530000000C62462023C846C4F800900F46009166
:105310007F1E0097FCD1614F083F3F68C5F80080B1
:10532000C7F3001788460091B8F10108CDF8008056
:10533000FAD14FEA5C0C3A444CEAC77C5B1EE2D1DE
:105340004B46C4F80090DFF858810F4600917F1E4D
:105350000097FCD1514F083F3F682B60C7F30017FF
:105360000091491E0091FCD17A40D10700D0082657
:10537000BEF1000F01D0CEF800C098F818207AB125
:10538000D8F8041023600F4600917F1E0097FCD1CF
:105390002B600F4600917F1E0097FCD1521EF1D169
:1053A000C4F800A0DBF8002022F4702242F440325E
:1053B00000E077E0CBF8002052E072B14B4623606A
:1053C0000F4600917F1E0097FCD12B600F46009185
:1053D0007F1E0097FCD1521EF1D1C4F800A0DBF86B
:1053E000003023F4702343F44033CBF80030002323
:1053F000DEF80020202700BF5FEAC27CD44602D03E
:10540000C5F800C001E0C4F800C0CC46C4F8009064
:1054100088460091B8F10108CDF80080FAD1C5F8AE
:1054200000C08C46CDF80010BCF1010CCDF800C0D6
:10543000FAD1134452087F1EDED1DA07524601D05A
:105440002A6000E022604A46C4F800900B460091B2
:105450005B1E0093FCD12A600091491E0091FCD193
:10546000000603D500F030F90D4988600C48027B36
:105470008AB1C4F800A040684B4623600146009002
:10548000491E0091FCD12B6001460090491E0091FD
:10549000FCD1521EF1D1C5F800A02BE71008014045
:1054A0006C010020274B93F81980B8F1000F16D03B
:1054B000830714D521234F4627608C46CDF8001072
:1054C000BCF1010CCDF800C0FAD12F608C460091E0
:1054D000BCF1010CCDF800C0FAD15B1EECD172B169
:1054E0004B4623600F4600917F1E0097FCD12B6036
:1054F0000F4600917F1E0097FCD1521EF1D15246FB
:10550000C4F800A0DBF8007027F4702747F4403798
:10551000CBF80070B8F1000F12D0800710D42260D1
:1055200021234F46276008460091401E0090FCD181
:105530002F6008460091401E0090FCD15B1EF1D107
:105540002A60D7E66C010020F8B5154A0024134FF5
:1055500023464FF0100EA7F1040C2026526819E0E4
:1055600013B911F8014B0823E50702D0CCF800E08D
:1055700001E0C7F800E03E60154600926D1E009500
:10558000FCD1CCF80060154600926D1E0095FCD150
:1055900064085B1E401EE3D2F8BD00001408014001
:1055A0006C01002000F0C0B9104810B5016841F04E
:1055B0000101016041680E4A1140416002680D49D5
:1055C0000A400260026822F48022026042680A4BAC
:1055D0001A40426002680A4002604FF41F01816075
:1055E00000F03EFC06490548086010BD001002406E
:1055F0000C00FFE8FFFFF6FEFFFF00F70040000889
:1056000008ED00E02DE9F0474FF003093425B5FB24
:10561000F9F500246D1D836841E0234AA9F1010AD0
:105620001444C4F38107002200EB82064FEA531CA6
:1056300076684FEAD6088CEA860C88EA0318C444D8
:1056400084EA060802F003067E4051F826605E40B8
:1056500008EB06038CEA030C50F82230634440F850
:105660002230521CD2B25245DEDB066802F0030241
:105670004FEA531C4FEAD6087A408CEA860C51F860
:105680002220664088EA03185A40C44432448CEA17
:10569000020C00EB890252F8043D634413606D1E56
:1056A000EDB2BAD2BDE8F087B979379E0448054912
:1056B00000684968B0FBF0F0B1FBF0F07047000003
:1056C00054000020001000E00448054900684968C3
:1056D000B0FBF0F0B1FBF0F0704700005400002088
:1056E000001000E001F07CB9FEE702E008C8121FDC
:1056F00008C1002AFAD170477047002001E001C1BB
:10570000121F002AFBD17047F8B52C4C06462068C2
:10571000401C2060012901D021B325E0012A01D0DD
:10572000F2B321E0264D68882988884209D3234AAC
:10573000012360320021184600F01CFF2880002061
:1057400068802888402809D11C4A40236032812182
:10575000304600F023FE688840306880E068401CD6
:10576000E06028E0022A09D051EA020020D06069F6
:10577000401C6061A161E2610220F8BD01200F4A76
:1057800000904023A1320021022000F099FF0B4A33
:105790004023A1320221304600F0B4FD206900E030
:1057A00002E0401C206106E06068401C606002E08E
:1057B000A068401CA0600020F8BD00008801002007
:1057C0000801002010B50446812100F0B5FC02213B
:1057D000204600F0B1FC002010BD000010B50446CA
:1057E000094A002100F0D4FC074A0021D21D2046BE
:1057F00000F0CEFC4023054A0221204600F082FD45
:1058000000F012FF002010BD3F01002029020020FF
:105810002DE9F0414F8805460C780023380A14F032
:10582000600C374C1A46FEB245D0BCF1200F65D152
:105830004B78344A0C2B38D2DFE803F037062A2E97
:105840003737373737262C33012802D003280AD0C0
:1058500016E02C4A00234032314600F08BFE294AE4
:105860004023403208E0264A0023121D314600F052
:1058700081FE234A4023121D8121284600F08EFD1F
:105880006069401C606139E0A069401CA06135E09E
:10589000207C02E0206105E0207B10700123194A82
:1058A00021E0E66000231A461DE0284600F0DEFBFA
:1058B0000220BDE8F0814E78062E04D00A2E17D0C3
:1058C0000B2E1BD118E0212807D022280BD1CB8822
:1058D000212B00D921230C4A05E0CB88092B00D9C4
:1058E0000923074A2E328021284600F057FD05E0A3
:1058F000034A01230832F6E7F8B2A0600020D8E797
:1059000008010020A80100207C6E00080148006802
:1059100070470000002004E0024908600868002881
:10592000FCD170475401002003480168002902D0CF
:105930000168491E016070475401002000B503460C
:1059400000F008F85B1E012802D1002BF8D10420DA
:1059500000BD000008490020CA68D20701D001201C
:105960007047CA68D20601D503207047C968490745
:10597000FBD50220704700000020024000B503461E
:1059800000F008F85B1E012802D1002BF8D104209A
:1059900000BD000008490020CA6CD20701D00120D8
:1059A0007047CA6CD20601D503207047C96C4907FD
:1059B000FBD502207047000000200240F0B50546EC
:1059C0001748184C0E4600884FF47027B0F5007F3A
:1059D00002D21548854211D23846FFF7AFFF0028A2
:1059E0000BD1206940F0010020612E803846FFF77E
:1059F000A5FF216921F001012161F0BD3846FFF7C3
:105A0000BDFF0028F9D1206D40F0010020652E80F7
:105A10003846FFF7B3FF216D21F001012165F0BD8C
:105A2000E0F7FF1F00200240FFFF07080748016959
:105A300041F08001016106490988B1F5007F03D971
:105A4000016D41F0800101657047000000200240B7
:105A5000E0F7FF1F70B505461D481E4C4FF4702639
:105A60000088B0F5007F02D91B48854215D2304628
:105A7000FFF764FF00280FD1206940F00200206189
:105A80006561206940F0400020613046FFF756FF15
:105A9000216921F00201216170BD3046FFF76EFFE0
:105AA0000028F9D1206D40F0020020656565E069AD
:105AB000800700D56561206D40F0400020653046CC
:105AC000FFF75CFF216D21F00201216570BD000030
:105AD000E0F7FF1F00200240FFFF070809480169A7
:105AE000094A0B06094901D542604160084B1B88F1
:105AF000B3F5007F04D9036D1B0601D542644164F0
:105B0000704700000020024023016745AB89EFCDBC
:105B1000E0F7FF1F30B5124A104B45F255551C46B1
:105B20001560D568641E05F0010502D0002DF8D17E
:105B300000E04DB95160D1685B1E01F0020102D056
:105B40000029F8D102E009B1002030BDC0F30B00FC
:105B500090604AF6AA201060012030BDFFFF0F00C0
:105B60000030004002494AF6AA2008607047000051
:105B700000300040416170470161704710B5FFF788
:105B8000FBF8FFF787F8BDE81040FFF7BFB800004B
:105B90002DE9F04301F00F04CD0600D51443002594
:105BA0004FF00F095FF0010202FA05F61E4014D013
:105BB00007684FEA850C09FA0CF827EA080704FA87
:105BC0000CF848EA0708282902D0482902D002E048
:105BD000466100E00661C0F800806D1CADB2082D82
:105BE000E2D3082502FA05F61E4016D047684FEAB0
:105BF0008508A8F1200809FA08FC27EA0C0704FA2E
:105C000008FC4CEA070C282902D0482902D002E0FF
:105C1000466100E00661C0F804C06D1CADB2102DF5
:105C2000E0D3BDE8F083000000F0E2F800F086F871
:105C300000F052F9FFF7A2FFDFF8EC804FF40055B7
:105C4000C8F80050FEF784FF08F104064FF0000981
:105C5000356036493648FEF7C1FAA903D1F8F41089
:105C6000884215D000246F10E00702D0C8F8005019
:105C700000E03560E043C007384602D0C8F80000B5
:105C800000E03060641CE4B23220FFF745FEEBE731
:105C90000A20FFF741FE274800F0A6F900F0C4FCF7
:105CA000012000F095F9234F05207870A7F1080432
:105CB000C4F8009013E02068401C2060012804D044
:105CC000052805D0322805D006E0C8F8005003E0CA
:105CD000356001E0C4F800900A20FFF71DFE7878D7
:105CE0000328E8D135606420FFF716FE124F052126
:105CF000C4E900974FF47A794846FFF70BFF00BFDD
:105D0000FFF730FF00F09EFC08B16760F8E76068BD
:105D1000484502D1C8F8005002E008B93560676014
:105D20006068401E6060EBE7100C01409D6E00084B
:105D3000E8F7FF1F64000020400D030010B54FF48A
:105D4000C06000F04BF800220121BDE81040142093
:105D5000AFF3008070B505461F4800240E4600686A
:105D6000234600F4E0614FF4A06081420FD006DCCE
:105D7000B1F5407F16D0B1F5806F06D10FE0B1F5D7
:105D8000C06F09D0B1F5E06F04D000F027F802240D
:105D9000234608E0042306E00124032303E0032450
:105DA000012300E00424C4F104008640C3F104018F
:105DB0000F20C8401040304305F1E021000181F878
:105DC000000405F01F01012088406909890001F1E4
:105DD000E021C1F8000170BD0CED00E0024908436C
:105DE00002490860704700000000FA050CED00E071
:105DF00010B540F2026000F00DF840F2036000F0D0
:105E000009F840F2177000F005F8BDE810400020D6
:105E100000F00EB8054901EB90110A6800F01F036D
:105E20000120984002430A607047000000100240C1
:105E3000034A516821F4400101435160704700005A
:105E400000100240054801684FF6FB7211400160E6
:105E50000168121F1140016070470000405C004063
:105E60001C480021026842F4803202604FF6FF7342
:105E70000268491C12F4003F01D19942F8D101682F
:105E8000890300D4FEE74168416041684160416890
:105E900041F480614160416841F480314160416872
:105EA00021F470114160416841F4E01141600168E2
:105EB00041F08071016001688901FCD5416821F0E1
:105EC00003014160416841F00201416041680907F6
:105ED000FCD57047001002400B484FF47A710068FF
:105EE000B0FBF1F0401EB0F1807F0BD24FF0E0210B
:105EF0004861064AF02082F8140D002088610720CE
:105F000008617047FEE70000540000200FE000E049
:105F10002DE9F04704460878DFF8A080284E0D46AA
:105F200010F01F004FF0000748F6BF7904D0012899
:105F300012D0022826D118E06078022801D0032868
:105F400004D16888012803D002281BD0BDE8F0875F
:105F5000E770D4F89C2024E06078022812D003284F
:105F6000F4D108790128F1D90CE029796078022868
:105F700004D00328EAD1688850B10FE00029E5D0A9
:105F80008029E3D02046BDE8F047002100F0D2B9D7
:105F900021B1802902D0204600F06CF8D4F89C2072
:105FA000294620469047D8F800008780306800EAEC
:105FB000090080F030003060C8E7000008000020D1
:105FC000005C004050F88C1F897811800068704791
:105FD000C20704484FF4807101D0FFF7CDBDFFF731
:105FE000C9BD0000000801400021C170074801221E
:105FF00002600160021D1160044A10321160044AFF
:106000004FF41F411160016070470000405C004088
:106010000000002010B50C464178032916D12179E3
:10602000012913D8D0F89C2021469047E1880143EC
:106030000FD109490020096888800849086848F696
:10604000BF72104080F03000086002E0002100F0D4
:1060500071F9002010BD000008000020005C004025
:1060600050F8881F0978118000687047002100F0FF
:1060700061B9000010B5CC0901F07F0303EB830187
:1060800000EB81014FEA8300174B48F68F721844EA
:10609000D0F8003C11D010315B0606D5D0F8003C9A
:1060A000134043F04002C0F8002CD0F8002C48F612
:1060B000BF731A4082F0300210E04C315B0406D509
:1060C000D0F8003C134043F48042C0F8002CD0F8D4
:1060D000002C4BF68F731A4082F44052C0F8002C0B
:1060E0000020087010BD000000500040084B10B5A3
:1060F00003EB41030021521C05E000BF33F8044BC1
:1061000020F8024B491CB1EB520FF7D310BD000031
:1061100000600040074B10B503EB41030021521C07
:1061200004E000BF30F8024B491C10C3B1EB520F22
:10613000F8D310BD00600040CB094FEA416013491D
:1061400048F68F7201EBD050D0F8001C0DD04906F4
:1061500006D5D0F8001C114041F04001C0F8001CE9
:10616000D0F8001C48F6BF720CE0490406D5D0F800
:10617000001C114041F48041C0F8001CD0F8001C04
:106180004BF68F721140C0F8001C70470050004061
:106190002DE9F04F9378002403F00F06D37813F025
:1061A000030306D0012B0AD0022B0AD0032B08D1FF
:1061B00002E04FF4007404E04FF4C06401E04FF4D7
:1061C00080644E4B344303EB8603C3F8004C947851
:1061D00095885FEAD4184A4C48F68F7948F6BF771D
:1061E0004BF68F7C32D006EB860200EB82004561D5
:1061F000A268A08802EB06166D1C3080626825F04C
:10620000010002446260012917D1D3F8001C41F457
:10621000807101EA0901C3F8001C328161680844F9
:106220006060D3F8000C384080F03000C3F8000CF8
:10623000D3F8000C00EA0C0004E0D3F8000C38405E
:1062400080F02000C3F8000CBDE8F08F06EB860854
:1062500000EB88004FF0FF3A4FF6FF7B0565012900
:106260002AD1D3F8000C40F4807808EA0908C3F872
:10627000008CD3F8008C08EA090848F04000C3F805
:10628000000CD4F80880A08808EB06183E2DA8F86A
:10629000000007D91F3525F01F000AEB401545F413
:1062A000004504E06D1C25F001000BEA4025A8F82C
:1062B00004506568284460609088A268A58802EB55
:1062C00006123E28158107D91F3020F01F000AEB67
:1062D000401040F4004004E0401C20F001000BEAB4
:1062E00040209081D3F8000C012900EA0C0002D074
:1062F00080F40050A6E7C3F8000C9EE70050004071
:106300000000002010B501F07F0101EB810400EBDB
:106310008400C0E91523064800EB8101D1F8000C88
:106320004BF68F72104080F44050C1F8000C10BD45
:106330000050004030B501F07F04CB0901F07F022E
:1063400002EB820100EB81014FEA8200124A104405
:10635000D0F8003C08D048F6BF752B4083F01003FE
:10636000C0F8003C103107E04BF68F752B4083F4EA
:106370008053C0F8003C4C3101200870002C09D13A
:10638000D2F8000C4BF6BF71084041F210014840B2
:10639000C2F8000C30BD00000050004038B501F0DC
:1063A0007F0404EB840100EB810000251830009588
:1063B0002CC0194650F8102C1438934202D91146BB
:1063C000009200E000910D4D8AB28068A96801EB4F
:1063D00004110988FFF79EFEA968009801EB0411DB
:1063E0008880074800EB8401D1F8000C48F6BF72A2
:1063F000104080F03000C1F8000C38BD00000020D3
:106400000050004008B500220092C988012903D03D
:106410000021FFF78FFF08BD4178022907D003292B
:10642000F6D1012302468021FFF7B8FF08BD012302
:106430006A46F8E7F8B5054608780E46C1060DD05D
:1064400000F01F00012832D1D5F89C20002A2ED060
:1064500001B031462846BDE8F0401047718800245D
:10646000080AC9B2ADF8004003280BD8052909D89D
:106470000F4A02EB80006A4650F8043C28469847D1
:10648000044603E028460021FFF754FFBDF8000052
:1064900000280CD0F388002B09D0834200D9034692
:1064A000ADF80030224680212846FFF777FFF8BD7F
:1064B000480000204278022A09D0032A0AD10A792A
:1064C000012A04D8D0F89C20002A03D010470021CC
:1064D000FFF730BF70471CB50022ADF80020ADF8C3
:1064E00004200A7812F01F0204D0012A0FD0022AD9
:1064F0002CD115E04178022901D0032929D1C17896
:1065000011B10221ADF8001002236A462DE0427855
:10651000022A1BD0032A1CD109790129F4D915E0DC
:1065200009794278022A0DD0032A12D10B064FF0C6
:1065300001020FD501F07F0101EB810100EB810128
:10654000097C0DE0002904D0802902D00021FFF74A
:10655000F1FE1CBD01EB810100EB810191F84C10B3
:1065600009B1ADF80420022301AA8021FFF716FF2C
:106570001CBD000070B51546012822D10BB3012BBC
:106580001FD1114C2069E168884201D1A078B0B1D7
:106590000E482169402200EB81112846FDF7CEFD0F
:1065A0002069401C206121690020402900D1206120
:1065B0002169E268914200D1A070402070BD0120A5
:1065C0006070002070BD0000580100206A12002099
:1065D00070B51546402A09DC10484278032A07D0D6
:1065E00004E04278032A05D066802680002070BD32
:1065F0000B4C00262288002AF3D12A460948FDF7D1
:106600009DFD6680ABB22380064A81210348FFF7D7
:10661000C5FE608828446080012070BD64000020B1
:1066200008010020E80100200548002101704160B8
:106630008160012242708170C16001617047000079
:106640005801002070B51C4CA0686168884202D1D6
:10665000207800282ED0194DE068A26805EB801143
:10666000A5F5805000EB8210FEF790FAA068401C60
:10667000402800D10020A060A168626800209142FB
:1066800000D12070617841B16070E068402205EB74
:1066900080110020FFF79CFF0BE0E068401C4028C1
:1066A00000D10020E060E0682169884201D101202A
:1066B000A070012070BD0000580100206A12002067
:1066C00070B5114602281CD1002B1AD0087801257C
:1066D000072814D00F4C207818B16068A268904247
:1066E0000FD00D48626800EB82101A46FDF726FDB8
:1066F0006068401C60606068402803D004E0074880
:10670000057070BD002060606068A1688842F8D1A3
:10671000257070BD580100206A020020580000203A
:1067200070B5054601EB810005EB8004103459B1CA
:10673000D4E90302801AE06052D083B22846A268EE
:10674000FFF72CFE002070BDEA680026E2B3616806
:10675000E068884208D9401AE06083B28021284668
:10676000A268FFF71BFE0DE0B0FBF1F301FB130184
:1067700079B990420DD200231A4680212846FFF7AE
:106780000DFEEE6000231A4619462846FFF7BAFDB3
:10679000D8E7E6606878032805D10022D5F8A03054
:1067A0000121284698471348016848F68F7241F442
:1067B00080711140016001684BF68F72114081F4C5
:1067C00040510160EE60BDE7FFE70B490878002803
:1067D000B8D0084A40F080004C3210600E70B1E72B
:1067E00068780328AED10A46D5F8A03001212846A2
:1067F0009847A7E7005C0040100000200F49087888
:1068000090B10878401E0870087868B90C4A13786F
:106810000C48012B0AD003689BB243F010030360BD
:1068200003200870012010700020704701684FF6A7
:10683000EF73194001600020F5E700000C00002014
:106840000D000020405C00402DE9FC5F4FF0000A85
:106850000746ADF804A0ADF800A0DFF804B1DFF8FA
:106860000491DFF8048171E0BDF8040000F00F0529
:106870000BEB8500D0F8001CADF80010BDF804103B
:10688000C90605EB85011DD4BDF8002007EB810189
:10689000103112065AD5D0F8002C48F60F731A4062
:1068A000C0F8002CD9F8000000EB05108088C0F378
:1068B000090008618A681044886029463846FFF755
:1068C0002FFF43E007EB8104BDF800104C340904AE
:1068D0003CD5D0F8001C40F68F721140C0F8001C67
:1068E000D9F8000000EB051081898E05B60D13D094
:1068F000BDF8001009050AD5D9F800003246018913
:10690000381DFFF7F3FB384600F023FA24E0018935
:106910003246A068FFF7EAFB206930442061A06896
:106920003044A060E068801BE06002D06168B14242
:1069300006D92946384600F0CBF8C4F810A005E087
:1069400083B229463846A268FFF7DCFCD8F800007D
:10695000ADF80400000487D40020BDE8FC9F0000CF
:106960000050004008000020445C004030B5184A48
:10697000184B302111601B6848F68F75198011681B
:10698000403119814031116048F2FF7199814021F5
:1069900041610165104B002103EB8102D2F8004CEC
:1069A0002C400C43C2F8004C491CC9B20329F3D354
:1069B0000A4A8021116009494C390A6892B20A607A
:1069C00043F220220A6001214170002030BD000006
:1069D0000400002008000020005000404C5C0040F3
:1069E0007CB50020ADF80000ADF80400314D2868FA
:1069F000ADF80000304EBDF80010308808400004AB
:106A000002D52E48FFF720FF3088BDF800102B4C30
:106A10000840C00409D54EF6FF702860A078607069
:106A20002748007808B9FFF70DFA3088BDF8001044
:106A30000840000514D51F48001F0068C0060FD489
:106A40006078A070042060701E48007810B100F0DB
:106A5000B1F902E01C49032008704FF2FF70286072
:106A60003088BDF800100840800508D54FF6FF506B
:106A7000286016491148096809B1096888473088B3
:106A8000BDF800100840C00505D54FF6FF6028602E
:106A90000A48FFF7B3FE3088BDF8001008404005F3
:106AA00007D54FF6FF302860BDE87C400348FFF76C
:106AB0005DBF7CBD445C00400000002064000020FD
:106AC0000D0000200E0000200C00002050010020CE
:106AD00070B5044601EB810004EB80004C3019B125
:106AE000607803282CD031E0194DE16811B3C268F9
:106AF00041688A4208D9511AC1608BB2826800216C
:106B00002046FFF7FFFB21E06078032805D1002233
:106B1000D4F8A0301146204698470E48002100685E
:106B20008180286848F6BF72104080F030002860ED
:106B3000E1600BE0286848F68F610840286005E0B6
:106B40000A46D4F8A030002120469847002070BDA6
:106B5000005C0040080000207047000030B48A88C4
:106B6000E2B9CA88D2B9897801F07F020D490A706A
:106B70004178032912D00C4B00211B6899800B4BE4
:106B8000196848F6BF74214081F0300119600AB1DC
:106B9000022100E00121417030BC704730BC00216F
:106BA000FFF7C8BB1000002008000020005C004078
:106BB0002DE9F0470446204889784170012905D91C
:106BC0002046BDE8F0470021FFF7B4BB6378DFF84B
:106BD0006C8000261A4DD8F8002048F6BF77022BAB
:106BE00007D0032B1BD159B1237881468B4218D192
:106BF00004E019B12170032060701AE0968009E06A
:106C0000022060702170D4F8982020469047D8F870
:106C1000000086802868384080F030002860BDE899
:106C2000F087D4F8982019462046904799F801102B
:106C30002170D4F89420E8E710000020080000201C
:106C4000005C0040704700002DE9F0410A78214EB9
:106C5000214C12F01F024FF0000548F6BF7704D018
:106C6000012A0CD0022A20D112E04278022A01D057
:106C7000032A2CD14988012929D1C17020E042780A
:106C8000022A12D0032A22D1097901291FD90CE046
:106C90000A794378022B04D0032B18D1498849B1D3
:106CA0000EE0002A13D0802A11D0BDE8F041002167
:106CB000FFF740BB22B1802A02D01146FFF73AFB12
:106CC000306885802068384080F030002060BDE862
:106CD000F081000008000020005C004010B5427800
:106CE000022A15D0032A12D10A79012A10D8D0F825
:106CF0009C2002B190470949002009688880084912
:106D0000086848F6BF72104080F03000086010BD7F
:106D1000BDE810400021FFF70DBB00000800002077
:106D2000005C004010B503790B7043794B70837998
:106D3000C47903EB04234B80037A447A03EB0423E6
:106D40008B80837AC27A03EB022292B2CA80C2603D
:106D500010BD1CB504466946FFF7E4FF9DF800101E
:106D600011F0600109D020290CD0402903D0002166
:106D70002046FFF7DFFA00201CBD6946204600F0E0
:106D800007F8F8E769462046FFF744F9F3E7000003
:106D900010B54A78024B53F822209047002010BDCE
:106DA00014000020D0F8900050F8210001781180E4
:106DB000704700000348016889B241F00C0101608E
:106DC00070470000405C00407047322E302E30008B
:106DD00012034700440033003200200041005200FB
:106DE0004D000000140343004D00530049005300C0
:106DF0002D0044004100500000001A033000300014
:106E000030003100410030003000300030003000F0
:106E10003000300000001403470044004C006900BB
:106E20006E006B002D004F00420000001E03430067
:106E30004D005300490053002D0044004100500014
:106E4000200047004400330032000000120110010E
:106E500000000040E9288F0500010102030104033E
:106E6000090400005E6E0008D06D0008E46D0008A3
:106E7000FA6D0008166E00082C6E00080600FF0967
:106E800001A101150026FF00750895400901810246
:106E900095400901910295010901B102C0E48D708C
:106EA000097BDD41DA886E0E95C161B92D000000C5
:106EB000D06E0008000000206C0100008441000832
:106EC000546F00086C01002004250000FA560008E9
:106ED00041423012602240520113D7641408115FFE
:106EE0001408596B4C08496C081A5D041A35181AB5
:106EF00045101A05081AB1101AB5081ADD1013C981
:106F00006D140861601B08C5341AA50C110494A205
:106F10004A04134C6E140824011B2064081BDD571F
:106F2000B019041311581B080908011C140902297F
:106F30001F010104803209D723020314050921121D
:106F400001140122211607058103402D01070502C6
:046F500007011F0016
:0400000508004105A9
:00000001FF
