:020000040800F2
:10400000D80D0020194100085B4300081543000843
:10401000594300089D410008654600080904202016
:1040200000000000000000000000000085430008C0
:104030009F410008000000005D4300083344000871
:104040003341000833410008334100083341000880
:104050003341000833410008334100083341000870
:104060003341000833410008334100083341000860
:104070003341000833410008334100083341000850
:104080003341000833410008334100083341000840
:104090005746000833410008334100083341000807
:1040A0003341000833410008334100083341000820
:1040B0003341000833410008334100083341000810
:1040C0003341000833410008334100083341000800
:1040D000334100080F450008334100083341000810
:1040E00033410008334100085B460008000000002F
:1040F00006052020FFFFFFFF000000000000000079
:1041000033410008DFF80CD000F018F800480047F1
:10411000254A0008D80D0020064880470648004779
:10412000FEE7FEE7FEE7FEE7FEE7FEE7FEE7FEE767
:10413000FEE7FEE73944000805410008064C074D3C
:1041400006E0E06840F0010394E807009847103467
:10415000AC42F6D3FFF7DAFF205E0008405E0008AD
:1041600030B58C1810F8012B12F00F0301D110F8A4
:10417000013B120906D110F8012B03E010F8015B96
:1041800001F8015B5B1EF9D101E001F8013B521E11
:10419000FBD1A142E6D3002030BD0000FEE770470E
:1041A000B0B540F6BA11C2F200010A78012A18BF70
:1041B000B0BD40F66E1CC2F2000CBCF800208AB103
:1041C00040F67012BCF80030C2F200021588412B94
:1041D0000BD3138840331380BCF800204023A2F196
:1041E000400E0BE000200870B0BDBCF80030BCF8F9
:1041F000001014884FF0000E2144118040F26C1121
:10420000C2F200014A198121ACF800E0BDE8B040DB
:1042100001F012B9B0B50321044601F03DFC40F6AF
:104220007A15C2F20005C1B2284600F0DDF820463A
:1042300003212A464023BDE8B04001F0B5B8000094
:1042400070B540F20400C2F200004FF2E876841C20
:104250000025C1F6FF7600BF36F81500214604227E
:1042600000F05AF80135062D04F10804F4D170BDB0
:10427000B0B540F6BA1CC2F2000C9CF8001001293F
:1042800008BFB0BD40F67011C2F200010A8840F6C6
:104290006C1EB2F5006F04BF00220A80C2F2000E4D
:1042A0000B88BEF80020934203D100208CF8000058
:1042B000B0BD0A88BEF800309A4294BFBEF8002014
:1042C0004FF400620B88D31A40F66E12C2F200025D
:1042D00013801388B1F800E0412B06D30B884033DC
:1042E0000B8011884023403905E0138814880D881D
:1042F0002C440C800021118040F26C110124C2F288
:10430000000101EB0E0281218CF80040BDE8B040B5
:1043100001F092B8FEE7000070B5042A28BF04221D
:10432000C2B14FF0000C4FF0370E002384B20EEBF9
:104330001436250BB4F5204F38BF05F1300601EBDC
:10434000430401F81360013393424FEA001084F8EC
:1043500001C0EBD370BD0000FEE77047704780B529
:10436000417803290CD140F26811C2F200010A68B9
:10437000531C052A0B6003D100220A60FFF778FF67
:10438000002080BD7047B0B540F60044C4F201047F
:10439000054620464FF4805100F080FA40F2840038
:1043A000C2F20000817940F66C100829C2F20000C8
:1043B00003D0072907D105F07F05018840F26C1270
:1043C000C2F200025554018801318AB2B2F5006F81
:1043D000018024BF0021018020464FF48051BDE8B8
:1043E000B04000F059BA000070B540F60044C4F285
:1043F00001040D46064620464FF4805100F04EFA67
:1044000085B143F600010020C4F20101325C00BF17
:104410000B681B06FCD54A600A685206FCD50130C1
:10442000A842F3D120464FF48051BDE8704000F01F
:1044300033BA00F0E3BC000041F20000C4F2020015
:1044400001680C2241F0010101604168CEF6FF02D3
:104450001140416001684FF6FF72CFF6F6621140DD
:10446000016001684FF6FF7321F48021016041680B
:10447000CFF20073194041600168114001604FF4B0
:104480001F018160016841F4803101604FF6FE71C7
:1044900003684A1E8A4203D213F400311146F7D052
:1044A0000168890301D400BFFEE7416841604168AB
:1044B0004160416841F480614160416841F480316C
:1044C0004160416821F470114160416841F4E0119C
:1044D0004160016841F08071016000BF016889019D
:1044E000FCD5416821F003014160416841F00201BF
:1044F000416000BF41680907FCD54EF6085044F200
:104500000001CEF20000C0F600010160704710B556
:1045100082B043F600040020C4F20104ADF80600A6
:10452000206880060ED56068C0B2ADF80600BDF800
:104530000600FFF728FF40F20531C0F205012046D2
:1045400000F000FD2068000703D56068C0B2ADF838
:10455000060002B010BD0000B0B543F60004C4F27E
:1045600001040546204600F09FFC95F9040003284D
:104570001AD21DA151F82010204600F0FDFC95F93B
:104580000500032810D21BA151F82010204600F08E
:10459000E5FCA87907280BD0082805D16879002800
:1045A00018BF0120010304E000F02AF80020B0BD8C
:1045B0000021204600F0EEFC2968204600F03FFC78
:1045C0002046042100F0D2FC2046082100F0DCFC4B
:1045D000204640F2053100F0A9FC204600F0A1FC85
:1045E0004FF0FF30B0BD00BF000000000030000001
:1045F0000020000000000000000400000006000091
:1046000010B543F60004C4F20104204600F04CFC4F
:104610002046002100F0A2FC2046002100F0BAFC58
:104620002046002100F0A8FC20464FF4E13100F0C4
:1046300006FC2046042100F099FC2046082100F0E9
:10464000A3FC204640F2053100F070FC2046BDE896
:10465000104000F066BC01F071B84FF4802000F00B
:1046600015B90000FEE770B50129044608BF012A0C
:104670000BD052EA01000ED04FF0020549B9032ACF
:1046800007D12046FFF7C6FD02E02046FFF788FD70
:104690000025284670BD40F6BC16C2F200063078F0
:1046A00000250128F5D140F67211C2F200010A6816
:1046B00040F28400C2F2000002600A79B1F80510ED
:1046C0000271A0F80510FFF747FF40F67A12C2F218
:1046D000000220460321402300F066FE3570D8E733
:1046E00010B58121044600F05CFD2046032100F056
:1046F00058FD2046822100F054FD002010BDB0B5C9
:1047000040F23605C2F2000505F13C0200210446E4
:1047100000F070FD05F135022046002100F06AFD31
:1047200005F125022046002100F064FD0020B0BD07
:1047300080B50A7812F0600216D0202A54D14A7847
:10474000212A1FD0202A4FD140F6BC1CC2F2000CF7
:104750000122CB888CF8002040F67212C2F20002CF
:10476000002100F021FE3FE04A78062A1FD00B2AE4
:1047700030D00A2A38D140F6D012C2F2000280218D
:1047800001232FE040F2840CC2F2000CDCF8003070
:1047900040F67212C2F200021360BCF805309CF8B9
:1047A00004C0A2F80530CB8882F804C019E0CB78A9
:1047B00040F2360C4FF40452C2F2000CB2EB032F5D
:1047C0004FF03A030BD1C9880CF112023A2938BFD5
:1047D0000B4606E08A784AB100F090FC04E00CF148
:1047E0000902802100F028FE002080BD40F6D01094
:1047F000C2F2000000210160F6E740F2004CC4F272
:10480000010CDCF80030012923EA0003CCF8003069
:10481000DCF8043023EA0003CCF80430DCF808307C
:1048200023EA0003CCF80830DCF80C3023EA00035C
:10483000CCF80C3006D051B9DCF800100143CCF8AC
:10484000001004E0DCF804100143CCF80410022A44
:104850000DD0012A6FEA00010DD0B2B9DCF80820B2
:104860001043CCF80800DCF80C0008400BE0DCF842
:104870000810014302E0DCF808201140CCF80810D1
:10488000DCF80C100843CCF80C00704740F21441DF
:10489000C4F20101086070474161704701617047CF
:1048A000B0B540F60005C4F20105284600F03CF81A
:1048B00005F58064204600F037F8284610210222D2
:1048C0004FF4807300F05CF82846182101224FF461
:1048D000007300F055F82846182101224FF4806338
:1048E00000F04EF82846182103224FF4006300F030
:1048F00047F82846182103224FF4805300F040F86F
:104900002046102102224FF4805300F039F84FF472
:104910008020FFF7BBFF4FF4802000210022BDE87C
:10492000B040FFF76ABF0000A0F18040A0F58430DE
:104930004FEAB020062888BF704710B540F2023415
:10494000DFE800F01504070A0D10130040F20334ED
:104950000DE04FF441740AE040F2053407E040F204
:10496000063404E040F2073401E04FF4427420467C
:1049700000F0E5F92046BDE8104000F0D0B9000095
:104980002DE9F047CF0601F00F0C00F1100E00F1F9
:1049900014084FF000044FF0010A4FF00F094FF0D8
:1049A000000748BF4CEA020C0AFA07F21A4010D07E
:1049B000056809FA04F6B5430CFA04F6282946EA14
:1049C000050603D0482903D1754600E045462A6014
:1049D00006600137082F04F10404E5D108240025FE
:1049E0004FF0010A4FF00F090AFA04F21A4010D0F2
:1049F000466809FA05F7BE430CFA05F7282947EA85
:104A0000060703D0482903D1764600E046463260C7
:104A100047600134102C05F1040508BFBDE8F0879C
:104A2000E2E7000000F036F9FFF73AFF00F069F81E
:104A3000FFF706FCFFF7E4FD40F20000C2F20000C1
:104A4000006844F6D351C1F26201A0FB01014FF0AE
:104A5000FF3000EB9110B0F1807F00D3FEE74EF203
:104A60001001CEF2000148604EF62350CEF2000055
:104A7000F0220270002040F2900588600720C2F208
:104A8000000540F6004408602846C4F2010400F026
:104A9000F2FA05206870A4F580604FF48071FFF78A
:104AA000FDFE6878032825D040F6C816C2F200063D
:104AB00020464FF48051FFF7F1FE30683168091A43
:104AC000312904D800BF3168091A3229FAD32046A7
:104AD0004FF48051FFF7E0FE30683168091A312940
:104AE00005D800BF00BF3168091A3229FAD36878A7
:104AF0000328DDD120464FF48051FFF7CDFE00BFE3
:104B0000FEE780B54FF4A06000F044F814200221C5
:104B1000002200F00CF825200121002200F007F807
:104B20002A2000210022BDE88040AFF300804EF62D
:104B30000C5CCEF2000CDCF8003003F4E063A3F56B
:104B40004073B3F5A06F03D21B0AC3F1040C08E055
:104B500040F20053C0F2FA53CCF8003002234FF079
:104B6000020C99400F2323FA0CF31A4011434EF222
:104B70000012CEF20002090140EA020383F800139A
:104B800000F01F01012303FA01F11C2303EAD00006
:104B90008150704740F080604EF60C5140F0FD703F
:104BA000CEF200010860704747F20003C4F2000330
:104BB0001A684EF6105C22F003021A601A68CEF2F0
:104BC000000C10431860DCF80000002940F00400DD
:104BD000CCF800000FBF30BF40BF20BF20BFDCF8C3
:104BE000000020F00400CCF80000704710B541F23E
:104BF0000402C4F202021368044603F00C00082801
:104C000041F20020C0F27A0019D1136840F6001C6E
:104C1000DB03C0F23D0C03D513689B0358BF8446E9
:104C20001068C0F3834E1368102000EAD35070441C
:104C300001230F2838BF0223184400FB0CF013682F
:104C4000032CC3F303131168C1F3022C12680DD8AF
:104C50000CA1C95C45F6BE5E20FA01F3C0F6000E59
:104C6000DFE804F00F020609184610BD002010BD51
:104C70001EF80C0003E0C2F3C2201EF8000023FA65
:104C800000F010BD0000000000000000010203045D
:104C90000607080980B540F2026000F031F840F2E2
:104CA000036000F02DF840F21C7000F029F840F28B
:104CB000177000F025F840F20E6000F021F8002097
:104CC000BDE8804000F05CB841F200028109C4F206
:104CD0000202895800F01F0021FA00F000F00100E4
:104CE000704741F2000300F01F018009C4F2020383
:104CF0004FF0010CC2580CFA01F11143C15070473A
:104D000041F2000300F01F018009C4F202034FF0DA
:104D1000010CC2580CFA01F11143C150704741F225
:104D2000000300F01F018009C4F202034FF0010CE0
:104D3000C2580CFA01F122EA0101C150704741F258
:104D4000000300F01F018009C4F202034FF0010CC0
:104D5000C2580CFA01F11143C150704741F20401ED
:104D6000C4F202010A6822F003021043086070478F
:104D700041F20400C4F20200006800F00C00704729
:104D800041F20401C4F202010A6822F44002104315
:104D90000860704710B545F64044C4F2000420682E
:104DA0004FF6FB71084020601020FFF79AFF00BF0C
:104DB0001120FFF789FF0028FAD01820FFF791FF94
:104DC0001920FFF781FF0028FAD00220FFF7C6FF65
:104DD000FFF7CEFF0828FBD1042000F006F820687A
:104DE0004FF6F7710840206010BD4EF61051CEF21C
:104DF00000010A6822EA00000860704740F6C81007
:104E0000C2F20000016801310160006844F6D3512C
:104E1000C1F2620180FB0112910901EBD2714FF4E2
:104E20007A7201FB120080B2022818BF704740F668
:104E3000CC10C2F200000168013101607047B0B5CA
:104E4000044644F6FF30C4F200000D4684424FF0A1
:104E5000000013DD44F60041C4F200018C4219D079
:104E600045F20001C4F200018C4213D043F6000168
:104E7000C4F201018C4210D103200CE044F2004145
:104E8000C4F200018C4205D044F60001C4F20001D6
:104E90008C4202D10220FFF7A9FE00EB5500B0FBC7
:104EA000F5F080B2A060B0BD10B544F6FF31C4F299
:104EB0000001884215DD44F60041C4F20001884239
:104EC0001ED045F20001C4F2000188421BD043F617
:104ED0000001C4F20101884218BF10BD40F20E3437
:104EE00016E044F20041C4F2000188420ED044F6BC
:104EF0000001C4F20001884212D140F2124407E0DE
:104F000040F2134404E040F2144401E040F2114442
:104F10002046FFF714FF2046BDE81040FFF7FFBE14
:104F200010BDC16841F40051C160704701F01F021B
:104F3000C1F389114FF0010C0B580CFA02F21A431D
:104F40000A507047C1F30442890D4FF0010C0B5811
:104F50000CFA02F223EA02020A507047C26822F4F5
:104F6000C062C260C2681143C1607047C26822F06B
:104F700004021143C1607047026922F44052026189
:104F80000269114301617047C26822F008021143AF
:104F9000C1607047C26822F48052C260C268114387
:104FA000C160704770B50D460978044601F01F01D5
:104FB00002291BD0012926D0002951D1607800F0A8
:104FC000FE0002281ED16888022849D0012819D184
:104FD000D4F8C420002620462946E670904740F2C7
:104FE0008C00C2F200000068868029E0A888617801
:104FF00003290ED0022918BF70BD40F08000C0B256
:1050000080282DD170BD6078032825D0022827D0B4
:10501000F8E7698841B940F08001C9B2802903D01E
:10502000C1B2204600F06DF8D4F8C42020462946CD
:10503000904740F28C00C2F200000068002181809D
:1050400045F60040C4F20000016848F6BF72114006
:1050500081F03001016070BDA88810F0FE0FD1D042
:1050600020460021BDE8704000F0B4B9D0F8B4008B
:105070008178118070470021C17045F64040C4F22C
:1050800000000122026001604160016140F6C01130
:10509000C2F200014FF41F420A600260704710B56F
:1050A0004278032A04D10C46898811F0FE0F04D0FF
:1050B000002100F08FF9002010BDD0F8C420214657
:1050C00090470028F7D1E0880028F4D140F28C0006
:1050D000C2F2000000680021818045F60040C4F261
:1050E0000000016848F6BF72114081F03001016094
:1050F000E1E7D0F8B000017811807047002100F09E
:1051000069B94AB201F07F01B2F1FF3F01EB8102C0
:1051100000EB820045F60042C4F2000213DD52F8B3
:10512000213000F1600C5B0442EA810106D50A6877
:1051300048F68F731A4002F580420A604FF44052DD
:105140004BF68F7310E052F8213000F1100C5B0623
:1051500042EA810105D50A6848F68F731A40403249
:105160000A60302248F6BF73086818405040086053
:1051700000208CF80000704701320023B3EB520F7F
:1051800008BF704746F20003C4F20003520803EB65
:10519000410100BF51F8043B013A20F8023BF9D12C
:1051A000704745F6004301F07F02C4F2000348B2A5
:1051B00053F82210B0F1FF3F43EA82000BDD4904AF
:1051C00006D5016848F68F72114001F580410160F3
:1051D0004BF68F7109E0490605D5016848F68F72D4
:1051E00011404031016048F6BF7102681140016012
:1051F000704700002DE9F041D37892F9027003F076
:10520000030365A656F8236007F00F0345F6004533
:105210001E43C4F2000545F823609288B7F1FF3FB2
:1052200003EB830745EA830C00EB870034DD40F293
:105230008C080129C2F20008426663D1DCF80070D4
:1052400048F68F652F4007F58077CCF80070DCF8C2
:10525000007048F68F752F40403740F27C0ECCF836
:105260000070C2F2000E4FF6E076DEF80040D8F88B
:105270000050C0F201061F013F2AEC534CD302F14B
:105280001F073E404FF0FF3748F2000007EB46177C
:10529000CFF6FF70074343E0426140F27C0040F2EA
:1052A0008C06C2F20000C2F20006076836681D01D3
:1052B00077534FF6E075C0F2010501321E352A40E2
:1052C00017440760DCF80070012921D148F68F618E
:1052D000394001F58071CCF80010016806EB03132A
:1052E000198111440160DCF8000048F6BF710840E4
:1052F00080F03000CCF80000DCF800004BF68F7135
:10530000084045E040F27C07C2F200073C680DE02F
:1053100048F6BF70384036E0501C1E360640770213
:1053200005EB031034448780CEF80040D8F8000025
:105330003F2A00EB031004810CD34FF4787303EB86
:10534000421202F4F84248F20003013ACFF6FF732A
:105350001A4308E04FF4007303EB42224FF6004378
:10536000C0F2FF331A408281DCF800004BF68F72E6
:10537000012900EA020009D1CCF80000DCF80000A5
:1053800048F6BF71084080F0200001E080F4005032
:10539000CCF80000BDE8F08100020000000400002D
:1053A000000000000006000001F07F0C0CEB8C01F7
:1053B00000EB8100C0E91A2345F60040C4F200006A
:1053C00050F82C104BF68F72114081F4405140F888
:1053D0002C10704710B54FFA81FE01F07F0101EBF0
:1053E000810245F6004C00EB8204C4F2000C04F18B
:1053F00060024BF68F73BEF1000F48BF48F6BF73D3
:1054000048BF04F110025CF821404FF4805048BFBF
:105410001020234058404CF821000120107001B1A9
:1054200010BDDCF800004BF6BF71084041F21001DE
:105430004840CCF8000010BD10B581B001F07F04E9
:1054400004EB84014FF0000C00EB8101CDF800C0AB
:105450008A614869CB619842C1F820C02CBF009393
:10546000009040F28C00C2F20000D0F800E0200171
:105470003EF80000009945F6004C89B24B1C002113
:10548000B1EB530FC4F2000C0AD00CEB40005B08E8
:1054900000F5806032F8021B013B40F8041BF9D193
:1054A00000980EEB041188804CEA8400016848F6ED
:1054B000BF72114081F03001016001B010BD80B5B4
:1054C00082B0C98800220129019207D141780329BD
:1054D00008D0022902D101AA802105E00021FFF7AE
:1054E00079FF04E0802102460123FFF7A5FF02B007
:1054F00080BD0000B0B582B00D460978044601F0C9
:105500001F01012926D091BB68880021B1EB902FA3
:10551000ADF8061027D100F0FE01062923D2010ABA
:1055200014A202EB810151F8043CC1B20DF1060254
:1055300020469847BDF80610C9B1EB88BBB10246BA
:10554000994238BF0B4620468021ADF80630FFF760
:1055500073FF0CE0D4F8C4204AB12046294602B0BB
:10556000BDE8B040104720460021FFF733FF02B0EE
:10557000B0BD00BFF35000086D5000080D5D00087D
:105580004278032A03D0022A18BF704703E08A88B2
:1055900012F0FE0F02D00021FFF71CBFD0F8C4208C
:1055A00002B11047704780B582B00A78002302F03C
:1055B0001F02022AADF80630ADF804300DD0012AE2
:1055C00016D0FAB9417801F0FE0102293AD1C1782A
:1055D000E1B10221ADF8061018E009794278032AFA
:1055E00017D0022A2ED141F0800180292AD009E06B
:1055F0004278032A02D0022A04D023E0898811F0DD
:10560000FE0F03D00021FFF7E5FE1BE00DF10602BF
:1056100014E00A0606D401EB810100EB810191F848
:10562000601006E001F07F0101EB810100EB8101D8
:10563000097C11B10121ADF8041001AA80210223D7
:10564000FFF7FAFE02B080BDB0B50C46054679B151
:1056500004EB840005EB8000D0E90712891AC161D0
:105660001CD082698BB228462146FFF7E5FE63E035
:10567000E968E9B104EB840005EB8004204650F8AA
:105680001C2F50F8083C9A4222D9D11A0160A26915
:105690008BB228468021FFF7CFFE28E068780328E8
:1056A0004AD1D5F8C830284601212246984743E020
:1056B00040F6BE10C2F200000178E9B345F60042A0
:1056C00041F08001C4F20002D1640021017033E096
:1056D0008A4213D2B2FBF3F101FB132171B92846C0
:1056E0008021002200230024FFF7A6FEEC6028465C
:1056F000002100220023FFF757FE1DE00024046074
:105700006878032805D1D5F8C83028460121002241
:10571000984745F60040C4F20000016848F68F62E1
:10572000114001F58071016001684BF68F721140E4
:1057300081F440510160EC600020B0BD2DE9F04FD4
:1057400083B045F600470020C4F20007ADF806001C
:10575000ADF80400796C40F6C018ADF80610C2F23E
:105760000008D8F80010BDF806200A40120440F1E5
:105770008680ADF80A00ADF80800786C0104ADF839
:105780000A007AD540F28C0A40F2900448F60F796C
:10579000C2F2000AC2F20004BDF80A0000F00F05D0
:1057A00047EA85000168ADF80810BDF80A20BDF889
:1057B0000810D2061AD409065AD5016801EA09016F
:1057C0000160DAF8000005EB850100EB0510808828
:1057D00004EB81018A696FF39F200862104488619D
:1057E00020462946FFF730FF42E000BF09B2B1F181
:1057F000FF3F3DDC016840F68F7211400160DAF82E
:10580000000000EB05118E896FF39F266EB1BDF885
:105810000820120500F1EB8005EB850004EB800009
:10582000806E09893246FFF7A7FC05EB850004EB83
:10583000800083465BF8701F3144CBF800105BE9B1
:1058400002138A19991B4BF8082C4BF8041C02D040
:10585000406EB04207D92046294600F0D1F800201A
:10586000CBF8000004E08BB220462946FFF79CFDF0
:10587000786C0104ADF80A008ED4D8F80010BDF899
:1058800006000840C00410D54EF6FF70786440F260
:105890009000C2F200008178417040F6C410C2F25C
:1058A0000000007808B9FFF775FAD8F80000BDF8D5
:1058B0000610014009051ED5396CC9061BD440F2FB
:1058C0009000C2F20000417881700421417040F2E2
:1058D0008000C2F20000007810B100F01EFA05E06E
:1058E00040F6BD10C2F20000032101704FF2FF70BC
:1058F0007864D8F80000BDF80610084080050ED581
:105900004FF6FF50786440F26010C2F20000006869
:1059100028B1016840F29000C2F200008847D8F830
:105920000000BDF806100840C00523D54FF6FF6003
:10593000786440F6BD10C2F200000178D1B1017860
:10594000013901700178A9B940F6C411C2F2000111
:105950000A783B6C4FF6EF76012A03EA060202D181
:105960003A64002005E042F010023A64032202701B
:1059700001200870D8F80000BDF806100840400566
:1059800032D54FF6FF30786440F28C00C2F200004E
:105990000068402180220180028140F27C02C2F234
:1059A0000002C023136048F2FF72828140F290002F
:1059B000C2F2000041614166002148F68F72002367
:1059C00041EA07063568043115401D430133042BB5
:1059D0003560F5D18021F964396889B2396043F2C4
:1059E000202139600121417003B0BDE8F08F0189A9
:1059F000201D3246FFF7C0FB204600F05DF93CE772
:105A000010B50A46044641B16078032841D1D4F864
:105A1000C8302046002198473BE0E06898B102EB8F
:105A2000820004EB8000014651F86C2F51F8083CCD
:105A30009A4212D9D31A0B60826E9BB22046002183
:105A4000FFF7B2FC25E045F60040C4F20000016813
:105A500048F68F62114001601BE06078032805D191
:105A6000D4F8C830204600210022984740F28C002C
:105A7000C2F2000000680021818045F60040C4F2B7
:105A80000000026848F6BF731A4082F030020260DC
:105A9000E160002010BD704701EB810100EB810047
:105AA000B0F8700070478A8862B9CA8852B989789C
:105AB00040F6BE1201F07F01C2F20002117042787E
:105AC000032A02D10021FFF785BC40F28C02C2F20A
:105AD00000021268002345F6004C9380C4F2000CCB
:105AE000DCF8003048F6BF721A4082F0300200291C
:105AF000CCF800200CBF012102214170704770B525
:105B00000446488840F6D416C2F2000610F0FE0F94
:105B1000307005D020460021BDE87040FFF75ABC28
:105B2000617803291FD0022918BF70BD010607D074
:105B3000032120706170D4F8BC20C1B22046904788
:105B400040F28C00C2F2000000680021818045F61E
:105B50000040C4F20000016848F6BF72114081F0B5
:105B60003001016070BD010620D02178C0B245F639
:105B700000458142C4F2000509D0D4F8C020204677
:105B800090473178D4F8BC2020462170904740F2ED
:105B90008C00C2F20000006800218180286848F66D
:105BA000BF71084080F03000286070BD0220607036
:105BB000D4F8C0200025204600212570904740F2EF
:105BC0008C00C2F2000000688580C0E7704780B595
:105BD0000A7802F01F02022A0DD0012A18D0F2BB67
:105BE000427802F0FE02022A11D1498801290ED121
:105BF0000121C1701CE08A884378032B0ED0022B50
:105C000018BF80BD42F08001C9B2802927D180BD74
:105C10004278032A1FD0022A21D0F8E7498839B9EF
:105C200042F08001C9B2802902D0D1B2FFF7D2FB85
:105C300040F28C00C2F2000000680021818045F62D
:105C40000040C4F20000016848F6BF72114081F0C4
:105C50003001016080BD898811F0FE0FD7D000218E
:105C6000BDE88040FFF7B6BB80B54278032A03D079
:105C7000022A18BF80BD03E08A8812F0FE0F04D00C
:105C80000021BDE88040FFF7A5BBD0F8C42002B1D9
:105C9000904740F28C00C2F2000000680021818031
:105CA00045F60040C4F20000016848F6BF7211409A
:105CB00081F03001016080BD80B582B00279D0F8FA
:105CC000063041798DF80020CDF80230438902F08A
:105CD0006002402A8DF80110ADF80630C36012D082
:105CE000202A09D062B945F6D852C0F6000252F80F
:105CF00021206946904706E06946FFF7D0F902E0A7
:105D00000021FFF767FB002002B080BDD0F8B8008B
:105D100050F8210001781180704745F64040C4F2E8
:105D20000000016841F00C0189B201604168C904BA
:105D300003D401200021FEF737BF4EF6FF7141600A
:105D400001684FF6F772114001607047704702E03A
:105D500008C8121F08C1002AFAD1704770470020F6
:105D600001E001C1121F002AFBD170471603470052
:105D70006900670061004400650076006900630007
:105D80006500000038034700440033003200200063
:105D9000550053004200200043004400430020000F
:105DA000410043004D00200069006E0020004600C5
:105DB000530020004D006F006400650000000000EB
:105DC0000000010203041201000202000040E92861
:105DD0008A01000101020301A7550008A54F000830
:105DE000975A0008CF5B0008975A0008A75A000886
:105DF000F5540008CD5B0008BF540008FF5A0008A6
:105E000081550008695C00084D5D00080403090421
:105E10000C5E00086C5D0008845D00080400002032
:105E2000405E00080000002068010000604100089A
:105E3000C05E000868010020700C00005E5D000874
:105E40000E2A00A24A043203470044003300323CC9
:105E500009024300020100803209042E01020201FE
:105E60000005240010010524012901042402020573
:105E700024064F010705820308000A0904010002F5
:105E80000A36070503024066070581024042405278
:105E90000143C201320804B160004036C65D00080B
:105EA000362C20105E0008FF460008E1462C083121
:105EB000470008674600085F4356085C0100200061
:0400000508004105A9
:00000001FF
