:020000040800F2
:104000003826002019410008C74C00089B4C0008C6
:10401000C54C000885410008A95500080904202066
:104020000000000000000000000000008F4D0008AC
:10403000C94B0008000000008D4D000841540008E5
:104040003341000833410008334100083341000880
:104050003341000833410008334100083341000870
:104060003341000833410008334100083341000860
:104070003341000833410008334100083341000850
:104080003341000833410008334100083341000840
:104090009D550008334100083341000833410008B2
:1040A0003341000833410008334100083341000820
:1040B0003341000833410008334100083341000810
:1040C0003341000833410008334100083341000800
:1040D00033410008334100083341000833410008F0
:1040E0003341000833410008A1550008FFFFFFFFDE
:1040F00029072020FFFFFFFFFFFFFFFFFFFFFFFF5C
:1041000033410008DFF80CD000F02AF800480047DF
:10411000815B000838260020064880470648004793
:10412000FEE7FEE7FEE7FEE7FEE7FEE7FEE7FEE767
:10413000FEE7FEE7455400080541000840EA010398
:104140009B0703D009E008C9121F08C0042AFAD24D
:1041500003E011F8013B00F8013B521EF9D2704711
:10416000064C074D06E0E06840F0010394E80700C4
:1041700098471034AC42F6D3FFF7C8FFE46D00084F
:10418000046E0008FEE7F8B536228DF80020AA225A
:104190008DF8052025228DF80A209B228DF80F200E
:1041A000026843688068CDF80120CDF80630CDF86C
:1041B0000B00684601F0AAF99DE80F004840504006
:1041C000584004B080BD00002DE9F04F89B00C4686
:1041D00090F900100546C8B2B1F1FF3F08DC9F28F6
:1041E00006D82846214609B0BDE8F04F00F0CABC09
:1041F00000F16001C9B25E293CD9A14609F8010B62
:104200002F4617F8010B1D2800F2FE81DFE810F0A1
:104210001E003900480053005E006800BC01FC012C
:10422000010212022402FC01FC01FC01FC01FC0160
:1042300029024E026A027F028B02A202AB02FC013B
:10424000FC01FC01FC01FC01FC01AF023978FF29F3
:1042500000F01E83A01CF02900F01E83FE2900F050
:104260002383042940F0248330218180C4490160E4
:1042700006201EE32846214609B0BDE8F04F00F0B5
:1042800086BC3878012800F0EC82002840F0F282E9
:10429000A878C00740F07183BA484FF40051E7E2B4
:1042A0003878012800F2B182DFF810090124047186
:1042B00000F02EFDAAE2DFF804090024047100F0EA
:1042C00003FD012089F8004000F031BC6878DFF878
:1042D000EC18087468888882A888C8820020B1E237
:1042E000DFF8D8281079012840F0958200210020BD
:1042F0000590117095F802A0E01CEA1C04900020C3
:104300004FF0000B0021CDF804A00391BAF1000F8B
:1043100000F01484904618F8016BB10714D4BBF177
:10432000000F4ED0DFF894080292858A0E2008A96B
:1043300000F080FDB5B3022834D1DFF88008013DDC
:1043400000780028F2D035E3BBF1000F27D0DFF86A
:104350006C080292858A06F0110001280FD1013500
:10436000304608A900F066FD02284AD1013D00F060
:104370002183DFF8480800780028F1D01AE30E20E6
:1043800008A900F057FD4FF0000BD5B3022838D133
:10439000DFF82808013D00780028F0D008E34FF04E
:1043A000000B3EE0012840F006830898049908803D
:1043B000BDF8220088709DF82300C8700431049174
:1043C000029AD2F80100DFF8F4B702F10508B1064D
:1043D00008900FD4BBF81450304608A900F02AFD0D
:1043E000002D50D002284ED19BF80000013D00283E
:1043F000F2D0DDE2CBF818005A464FF0000B012056
:10440000AAE0012840F0D782089804990880BDF8F6
:10441000220088709DF82300C87004310491029A2C
:104420000120F10613D4DFF894178D8AF10732D1F9
:10443000304608A900F0FEFC002D44D0022842D1ED
:10444000DFF87807013D00780028F1D0B2E2DFF80C
:104450006C0702F10508C08A0290D2F801000090B2
:10446000F00742D0DFF85407858A3046002100F07B
:10447000E1FCBDB3022835D1DFF84007013D0078EB
:104480000028F2D096E2012840F06D834FF0000B37
:104490000120012103E0BBF1000F02D000210391B4
:1044A00058E03046002100F0C5FC002D5FD0022806
:1044B0005DD1DFF80807013D01784FF0000B0220C5
:1044C0000029EED077E2012840F07582089804991F
:1044D0000880BDF8220088709DF82300C870043160
:1044E000049134E0012840F06682DFF8D006858A26
:1044F000304608A900F09EFC45B1022806D1DFF83D
:10450000BC16013D09780029F2D013E0012811D131
:10451000029979B1DFF8A416089A89691140009AC6
:10452000914207D0029901390291DFF8901609787B
:104530000029DAD0DFF88416089A89691140009AB8
:10454000914218BF40F01000012840F03482002052
:1045500003900120DFF86426059901310591117857
:10456000002940F02882AAF1010A4246CEE601283D
:1045700040F0F9820020039001204FF0010BE9E7A1
:10458000322E302E140C0140DFF830A69AF80400C9
:10459000012840F0508100228AF80020A878E978AC
:1045A00004F1040840EA012BBBF1000F00F0868102
:1045B0002E79B00700F1EF81CDF8108000220DF1C7
:1045C0001C08CDF808B0BBF1000F00F0BB82381D0D
:1045D000059203907868BAF81470ABF1010B07905C
:1045E0003046414600F026FC3FB1022805D19AF83A
:1045F0000000013F0028F3D082E2059A012840F034
:10460000B782039F0132DEE7FF2020704FF00110D8
:104610008FE2DFF8A8050079012840F01281D5F873
:10462000020006A906900020002400F003FC89F88F
:10463000004009E1DFF88805DA490068AA78B0FB94
:10464000F1F003210230B0FBF1F0697841EA022178
:104650004843401EFDD199E10020A4F8010002204A
:1046600065E2D5F803606978AD78CF4815F00102AE
:1046700005D0CB074FF020030CBF4361036115F059
:10468000020305D08C074FF0100454BF446104614D
:1046900015F0800C00F018814CB2B4F1FF3F40F3EC
:1046A0000F81C24C4FF4007727600DE1D5F801006F
:1046B000002800F0D480DFF808150968B0EB910FEE
:1046C00080F0DA8000EB51010139DFF8F024B1FB12
:1046D000F0F10023012053710322022988BFB1FBAE
:1046E000F2F0CCE06C78A91C002C08BF4FF4807469
:1046F000204600F081FE002089F800004FF4604061
:1047000000EB443000F4FE0000F101100FE23878B5
:10471000DFF8A824C0F3800100F0030001305177D6
:104720001077002020E0FF2089F800006878A91C9D
:104730000122002862D00B78013813F03F0303F107
:1047400007034FEAD30308BF08231A441944013270
:104750000131EEE73878FF2189F800104FF00111A0
:1047600001EB0040E3E1FF2089F8000050E0002069
:10477000607068788C4FAE1C04F1020B01254FF07D
:10478000100801210591C0F10104012C39D016F85F
:10479000010B10F03F0101F107014FEAD10A08BFF8
:1047A0004FF0080A10F0800907BFC7F814804FF4D3
:1047B0004031C7F810804FF400213A6822F470228B
:1047C0001143396031465A4600F0E2FA34B9C7F86D
:1047D00014803868032161F313403860B9F1000F89
:1047E00005D105EB0A005644451C0134CDE7059878
:1047F000D3445044059060420135C4E710040130B1
:1048000095E1059840EA054091E1002489F80040CF
:104810004FF001108BE1A978E81CC9B10278930729
:1048200001D4052204E0D2064FF0050258BF012250
:1048300010440139F1E70020E070A4F801000320E2
:1048400067E1FF2089F80000CB4800F540306EE1B9
:10485000C01B00210004A4F80110023067E1FF2012
:1048600010E0A878C00740F08C80C4484FF4805115
:1048700001608BE0FF208AE0D04901204871CF49D8
:104880008860002089F80000BB4800F500304EE148
:104890004020608002200CE0C949312209680029CB
:1048A00008BF1122027001E040210170012000E0E8
:1048B000002089F8000000F102103AE1002022E116
:1048C0004FF40074C0F81044002E42D005F02004CC
:1048D00001F0E006B4FA84F4B6FA86F664097609C3
:1048E00005F00405344301F0FC06B5FA85F5B6FA87
:1048F00086F66D0976093543A14E05EA040E85F06A
:10490000010B356884F001084C084FEAD11A22B136
:104910008768C7F34017B94218D15BB18768C7F3FE
:104920000017E71B18BF012747EA0B0757EA0807DC
:1049300003D00BE0BEF1000F08D0BCF1000F08D08F
:10494000D0F80874C7F34027BA4502D03768AF42A1
:10495000DDD081688268D0F80804802303EA9000E3
:10496000022303EAD202C1F340111144084489F83A
:104970000000814800F58020D9E0E4484FF4005160
:1049800002E0FB484FF48051C0F81014002089F871
:1049900000007948CBE0F00769D1CDF81080002005
:1049A0007AE000BF40420F0000080140140C0140B3
:1049B0004FF0000B022000218A450DD098F800200E
:1049C000930701D4052204E0D2064FF0050258BF38
:1049D000012290440131EFE7012816D1DDF810A043
:1049E000BBF1000F14D07548DDF814B0868A08AD0D
:1049F0000E20294600F01EFAFEB102281DD16F4894
:104A0000013E00780028F3D015E0DDE904AB24E096
:104A10000398DDF814B0F8B16848808A451C0E2070
:104A2000002100F007FA022817D1013D03D06348A6
:104A300000780028F3D002200FE001280DD108985B
:104A4000AAF80000BDF822008AF802009DF82300B1
:104A50008AF803000AF1040A0120A070A8EB0700FD
:104A6000AAEB090184F801B041EA00405FE0BAF81E
:104A700014703046002100F0DDF947B1022806D15C
:104A80009AF80000013F0028F3D0022054E00128EA
:104A900052D10120CDF8108000210DF11C080591A4
:104AA000CDF808B0BBF1000F61D0F007ABF1010BFE
:104AB000304618BF0E20BBF1000F08BF0646BAF8FB
:104AC00014703046414600F0B5F93FB1022805D1D7
:104AD0009AF80000013F0028F3D011E0012810D11E
:104AE0000798BDF81E10049A917010809DF81F0061
:104AF000D070059804320130059004920120D1E76E
:104B00000220DDE90482E070100A6270A070A8EB58
:104B100009002979890708D4EA78A978920642EA37
:104B2000814101F58021084301E040F4802000F13B
:104B3000011009B0BDE8F08F0022E4E7019990462A
:104B4000059138E7BAF81400461C0E20002100F049
:104B500071F902280BD1013E08D09AF8001002200A
:104B60000029F2D003E04FF0000B24E70220029A64
:104B7000DDF81080C7E700BF01000200140C0140FF
:104B8000041000E0007808704FF001107047FF201B
:104B900008704FF001107047084800210122818001
:104BA00082836422C0E9052101740549054A096828
:104BB000B1FBF2F10239816000F086B8E400002018
:104BC0000800002080841E0070470000F8B50C46E5
:104BD000017801F0F802D02A13D1254605F8011B0F
:104BE0000178D03907290AD8DFE801F00415181038
:104BF0003F1B3B5500F0F4FDC4F801000534FF21D4
:104C000035E02146BDE8F840FFF7DEBAD0F80100F4
:104C100000F0C0FE29E000F001FF26E000F0AAFE4F
:104C200023E0B0F80560382E1FD8D0F80140C71D2A
:104C300030041AD0394611F8010BB2B2012A02D160
:104C400000260F4604E07978023E40EA0120023750
:104C500081B2204600F058FE0234FF210028E7D040
:104C600004E0B0F805203E2A03D9FF212C4621702C
:104C7000F8BDD0F80100002161700234FF21130457
:104C8000F5D0013A130401D10178F8E710F8013B9F
:104C900004F8013BF3E700F089FCFEE710B5084C8F
:104CA0001021204603224FF4005300F016FF204647
:104CB000102103224FF48053BDE8104000F00DBFD7
:104CC000000C0140FEE77047B0B5F34C294D20467B
:104CD000282103222023A84720464821032210230D
:104CE000A8472046482103228023A8472046482180
:104CF00003224023A84704F58060482103224FF493
:104D00000073AC46BDE8B040604700BF00080140FA
:104D10002DE9F041E04C174F2046102103222023BB
:104D20004FF010082026B8472046102103221023F8
:104D3000B8472046482103224023B847204648214F
:104D400003228023B84704F58060482103224FF4F2
:104D500000734FF40075B84707482661C4F8108007
:104D60000560012000F042FDC4F81054BDE8F08158
:104D700000080140DB5A0008140C0140C64810210D
:104D800003224FF4807300F0A8BE00BF7047704745
:104D9000F0B510F03F0308BF4023000623481FD49E
:104DA000234D4FF0100C2024002B3ED00F7800260E
:104DB0000FE0FA070CBFC0F804C0C0F800C04460A0
:104DC0006A68521EFDD104606A68521EFDD1013628
:104DD0007F08B34218BF082EEBD19B1B0131E3E7DC
:104DE000134C4FF0200C03B30025002611E0C0F84F
:104DF00004C067687F1EFDD150F8087CC0F800C071
:104E00006168491EFDD107F01001C90041EA56064C
:104E10000135AB4218BF082DE9D1C5F1080126FACA
:104E200001F15B1B02F8011BDDE7F0BD100801403A
:104E3000E80000202DE9F041974B10221A61202252
:104E4000DFF8F8C55A619CF80140002C00F094800E
:104E50001A61C2074FF010020CBF5A611A6120227A
:104E600010F0020E4FF010045A611A614FEA50021E
:104E70000CBF5C611C61202446075C611C6102441C
:104E80004FEA90044FF0100654BF5E611E61202669
:104E90002244C4085E611E61060722444FF01006DA
:104EA00054BF5E611E61D2074FF020064FF0100222
:104EB0005E611E610CBF5A611A61202210245A6182
:104EC0001A615C615A611A611C615A611A611C6144
:104ED0001C68082666F313441C609CF8186034466E
:104EE0005A6114B11A61013CFAE720249A681C61E6
:104EF0005C619F681C615C619D681C61022404EA1E
:104F0000D704C2F300122244042404EA9504224484
:104F1000042A18BF022A40F034819CF81900BEF11F
:104F2000000F18BF002807D06FF02001202419B10E
:104F30005C611C610131FAE726B1202159611961D8
:104F4000013EF9E7102159611968032464F3134104
:104F5000BEF1000F196040F04782002800F0448243
:104F6000102058616FF020002021002800F03C82C2
:104F7000596119610130F8E7DCF80440641EFDD185
:104F80001A61DCF80420521EFDD1C2074FF0100256
:104F90000CBF5A611A6120225A61DCF80440641E79
:104FA000FDD11A61DCF80420521EFDD1102410F04E
:104FB00002050CBF5C611C6120245C61DCF80460AC
:104FC000761EFDD11C61DCF80440641EFDD146074D
:104FD0004FF0100654BF5E611E6120265E61DCF852
:104FE00004707F1EFDD11E61DCF80460761EFDD1C9
:104FF00006074FF0100654BF5E611E6120265E61F9
:105000004208DCF80470024484087F1EFDD11E6152
:105010002244C408DCF80460761EFDD12244D20785
:105020004FF010020CBF5A611A6120225A61DCF85D
:105030000440641EFDD11A61DCF80440641EFDD1F9
:1050400010245C615A61DCF80460761EFDD11A619F
:10505000DCF80460761EFDD11C615A61DCF8046046
:10506000761EFDD11A61DCF80460761EFDD11C614C
:105070001C68082666F313441C609CF818405A61AB
:10508000DCF80460761EFDD144B11A61DCF80460DE
:10509000761EFDD1013CF2E70008014020249A6809
:1050A0001C61DCF80460761EFDD15C61DCF80460F4
:1050B000761EFDD19E681C61DCF804707F1EFDD158
:1050C0005C61DCF804707F1EFDD19F681C61DCF818
:1050D0000440641EFDD1022404EAD604C2F3001287
:1050E0002244042404EA97042244042A18BF022A12
:1050F00040F0538095B19CF8190078B16FF0200012
:10510000202158B15961DCF80440641EFDD11961B9
:10511000DCF80440641EFDD10130F2E79CF8180071
:10512000202158B15961DCF80440641EFDD1196199
:10513000DCF80440641EFDD10138F2E7102058610C
:105140001868032161F31340002D186040F04C8172
:105150009CF81900002800F04781102058616FF07A
:1051600020002021002800F03F815961DCF8044034
:10517000641EFDD11961DCF80440641EFDD10130CC
:10518000F0E7012A20D1BEF1000F3ED12022002EEF
:1051900052D05A611A61013EF9E7012A1CD1002D53
:1051A00040F098809CF818202024002A00F0AF805E
:1051B0005C61DCF804506D1EFDD11C61DCF804500C
:1051C0006D1EFDD1013AF0E706F121002021A0B1CA
:1051D000596119610138FAE79CF818002021213043
:1051E00058B15961DCF80440641EFDD11961DCF846
:1051F0000440641EFDD10138F2E7102058611868A0
:10520000032161F313401860EEE04FF000086FF0E7
:105210001F024FF0200E0024C3F814E09F684FEAED
:105220001717C3F810E0F2B1FD0745EA580807F078
:1052300001052C440132EFE710225A611C68032556
:1052400065F313441C600D6800216FF01F062027D2
:10525000CEB1EC070CBF5A611A615F611F6129442E
:1052600001366D08F4E787EA0402D2074FF008021E
:1052700008BF012209B1C1F80080202176B159612F
:105280001961013EFAE7C9074FF010010CBF5961DF
:105290001961202101225961196106E0102159612B
:1052A0001968032464F313411960000603D55148BB
:1052B0000068CCF808009CF80C00002800F09480EE
:1052C000102159612021002800F08E805961196158
:1052D0000138F8E700256FF01F024FF0200E00277D
:1052E000C3F814E0DCF80440641EFDD19C68C3F8E8
:1052F00010E0DCF80460761EFDD124093AB3E6071D
:1053000004F0010446EA550527440132E8E710227B
:105310005A611C68032565F313441C600D68002165
:105320006FF01F062027002E2BD0EC070CBF5A6110
:105330001A615F61DCF80440641EFDD11F61DCF876
:105340000440641EFDD1294401366D08EBE784EA70
:105350000702D2074FF0080208BF012201B10D6019
:105360009CF81810202400291ED05C61DCF8045041
:105370006D1EFDD11C61DCF804506D1EFDD101399C
:10538000F1E7C9074FF010010CBF596119612021E5
:105390005961DCF80420521EFDD11961DCF80410BB
:1053A0000122491EFDD106E010215961196803242C
:1053B00064F313411960000603D50E480068CCF869
:1053C00008009CF80C0078B110215961202158B1D7
:1053D0005961DCF80440641EFDD11961DCF8044019
:1053E000641EFDD10138F2E7102018611046BDE8B7
:1053F000F08100BF041000E0F0B50F4A0F4E00230B
:105400004FF0100C20250027A8B117B911F8013B67
:105410000827DC070CBFC2F804C0C2F800C0556002
:105420007468641EFDD1156074680138641EFDD176
:10543000013F5B08E8E7F0BD10080140E8000020EC
:1054400000F0DAB92B482C4A01682D4B41F00101DC
:1054500001604168114041600168284A11400160C3
:10546000016821F4802101604168194041600168B0
:10547000114001604FF41F018160016841F48031E7
:1054800001604FF6FE714A1E03688A4203D213F48C
:1054900000311146F7D00168890300D4FEE7416866
:1054A000416041684160416841F480614160416808
:1054B00041F480314160416821F4701141604168DC
:1054C00041F4E0114160016841F0807101600168C0
:1054D0008901FCD5416821F003014160416841F038
:1054E0000201416041680907FCD506480649016090
:1054F000704700BF001002400C00FFE8FFFFF6FEFF
:10550000FFFF00F708ED00E0004000082DE9F04142
:10551000214A85684FF0160C4FF0000E90465FEA66
:105520000C6608BFBDE8F081C644ACF1010CCEF3B7
:10553000810600274246022F19D000EB870487EA34
:105540000603646851F8233084EA0E026B401A4463
:10555000E308A40083EA051384EA551423445A405F
:1055600050F82730D51840F827500137E3E786F088
:105570000206026851F8266082EA0E046E40344446
:10558000D608920086EA051682EA551283683244EC
:105590006240D5188560C2E7B979379E01F0D2B86C
:1055A0004FF4802000F066B9FEE700000648BFF324
:1055B0004F8F064A016801F4E06111430160BFF3B7
:1055C0004F8F00BFFDE700BF0CED00E00400FA05BF
:1055D000F8B57F4F0446F869012900F10100F86130
:1055E00008BF012A16D099BB022A31D1374E0120BB
:1055F00000900220002132464023002501F000F8EF
:10560000204602213246402300F024FEF86A013091
:10561000F86234E078883988884208D36F4A0120DC
:1056200000210123002500F047FF38807D80388865
:10563000402808D1694A20468121402300F04EFECF
:10564000788840307880B86A00250130B86216E06A
:10565000012908BF002A09D052EA01000BD0386B9B
:105660000225013038637963BA6308E0386A00259F
:105670000130386203E0786A0025013078622846FC
:10568000F8BD00BF10B58121044600F00BFD204697
:10569000022100F007FD002010BD0000B0B54D4D07
:1056A000002105F11B02044600F022FD05F1220253
:1056B0002046002100F01CFD044A20460221402320
:1056C00000F0C8FD00F052FF0020B0BDDD01002059
:1056D000B0B5044608784A8810F060034FEA1220FB
:1056E00015D0202B5DD14B78013B0A2B37D8DFE852
:1056F00003F0062E2736363636363B402A0003287E
:1057000052D001285ED1354DD1B2012050E04B7806
:105710000B2B0DD00A2B0FD0062B42D1212832D0D3
:10572000222838D1CB882C4A212B28BF212334E0D2
:105730002749D0B2886134E0254800F118020AE018
:10574000234A506905E02249D0B2486113E0204A5B
:10575000106902F83C0F2046802101231FE02046FB
:1057600000F049FC02251DE01948C1680131C16003
:1057700017E01749086120468021002200230025F8
:1057800000F0ACFD0EE01348CB8800F11202092BAB
:1057900028BF092301E0002300222046802100F0D9
:1057A0009DFD00252846B0BD0948D1B2051D032046
:1057B0002A46002300F080FE204681212A4640230D
:1057C00000F08CFD0248816801318160E9E700BF8B
:1057D0000C0100200C000020506D00089C010020EE
:1057E00001480068704700BF002004E006490860D7
:1057F00008680028FCD170470348016811B10168AE
:1058000001390160704700BF2022002010B5184BFD
:1058100001291C6824EA00041C605C6824EA000476
:105820005C609C6824EA00049C60DC6824EA000454
:10583000DC6004D031B919680143196002E059688D
:1058400001435960022A09D0C143012A09D072B923
:105850009A6810439860D868084007E09968014347
:1058600001E09A6811409960D9680843D86010BD7A
:105870000004014001490860704700BF1404014062
:1058800070B5441E0025013C45F1000600F008F803
:10589000012801D1002EF6D1012808BF042070BDD7
:1058A00007480168C9071CBF012070470168C90685
:1058B0004FBF03200068022101EA5000704700BF7B
:1058C0000C20024070B5441E0025013C45F1000645
:1058D00000F008F8012801D1002EF6D1012808BFF8
:1058E000042070BD07480168C9071CBF012070472C
:1058F0000168C9064FBF03200068022101EA500079
:10590000704700BF4C20024070B5054651480C4618
:1059100000880021B1EB502F02D13F48854213D8B7
:105920004FF47020FFF7ACFF98B93A4E306840F062
:10593000010030604FF470202C80FFF7A1FF316828
:1059400021F00101316070BD4FF47020FFF7BAFF04
:1059500000B170BD2F4E306C40F0010030644FF448
:1059600070202C80FFF7AEFF316C21F00101316413
:1059700070BD00BF2748016841F0800101603549D2
:105980000988B1F5007F03D9016C41F08001016401
:10599000704700BFB0B504462E480088B0F5007FC0
:1059A00002D91D48844217D84FF47020FFF768FFD2
:1059B000B8B9184D286840F0020028606C6028686B
:1059C00040F0400028604FF47020FFF759FF29682D
:1059D00021F002012960B0BD4FF47020FFF772FF83
:1059E00000B1B0BD0B4D286C40F0020028646C641F
:1059F000E868800748BF6C60286C40F0400028646D
:105A00004FF47020FFF75EFF296C21F0020129643A
:105A1000B0BD00BF10200240FEFF07080A48C16861
:105A2000090603D509490160094901600949098846
:105A3000B1F5007F06D9C16C090603D5034901649D
:105A400003490164704700BF0420024023016745F9
:105A5000AB89EFCDE0F7FF1FB0B5144A45F25553BF
:105A600013600E4B1C46D56805F0010514B10134D6
:105A7000002DF8D145B95160D16801F0020113B190
:105A800001330029F8D109B10020B0BD6FF31F30F8
:105A900090604AF6AA2010600120B0BD0200F0FF1D
:105AA00002484AF6AA210160704700BF003000405A
:105AB0000161704780B5FFF761F9FFF7EFF8FFF775
:105AC00027F94FF48020FFF7D5FE4FF48020002106
:105AD0000022BDE88040FFF799BE2DE9F04F01F0AC
:105AE0000F0A00F1140C00F1100E00264FF001090E
:105AF0004FF00F080027CC0648BF4AEA020A082FD9
:105B000019D009FA07F212EA030B11D0056808FA56
:105B100006F40AFA06F225EA04042243282903D0EF
:105B2000482904D1744600E06446C4F800B002601D
:105B300004360137E3E7082600274FF001094FF04C
:105B40000F08102E08BFBDE8F08F09FA06F212EA1E
:105B5000030B11D0456808FA07F40AFA07F225EAA0
:105B600004042243282903D0482904D1744600E0C4
:105B70006446C4F800B0426004370136E1E7000033
:105B800000F0FCF800F096F800F07AF9FFF792FFC9
:105B900040484FF400588146C0F80080FEF7FCFFF3
:105BA0003D4E3E4D3E4CC6F800803E49AF68204613
:105BB000FEF7E9FA874206D03A492D682046FEF7FB
:105BC000E2FA854250D10A20FFF710FE364C2046FB
:105BD00000F0D2F900F0CAFCA9F582604FF48071A0
:105BE000FFF766FF314F002505203D60607060784B
:105BF000032813D03868411C3128396009D00428A3
:105C000004D038B94846C9F8008003E0C6F80080DF
:105C100000E03D600A20FFF7E9FDE8E74FF400549B
:105C200064203460FFF7E2FD214D0020C7E9000544
:105C30004FF47A700521FFF70FFFFFF731FF00F0F7
:105C4000A1FC002828460DD1786838B1B0F57A7FDC
:105C500007D14846C9F80040786802E02846346019
:105C60007D6001387860E8E700244FF400554FF478
:105C70008057E00704D135604846C9F8007003E05A
:105C80004846C9F8005037603220FFF7AFFD0134B5
:105C9000EFE700BF100C0140140C0140F4000008B5
:105CA000E8F7FF1F846D0008380000200401002081
:105CB000400D030080B54FF4A06000F039F81420C7
:105CC0000221002200F008F82A2000210022BDE86D
:105CD000804000F001B8000010B5194B1C6804F4B6
:105CE000E064A4F54074B4F5A06F03D2230AC3F1B5
:105CF000040403E00C4C1C600223022499400F238F
:105D0000E3401A401143094A090140EA020383F8BB
:105D100000131C2101EAD00100F01F00012303FA47
:105D200000F0885010BD00BF0005FA0500E100E05A
:105D30000249084302490860704700BF0000FA05A5
:105D40000CED00E00C4A0029136823F003031360F4
:105D5000136840EA030010604848026842F00402F9
:105D600002600FBF30BF40BF20BF20BF016821F0DD
:105D700004010160704700BF0070004010B5094C7D
:105D800040F20260A04740F20360A04740F21C705E
:105D9000A04740F21770A0470020BDE8104000F077
:105DA00035B800BFD55D0008104A8109895800F058
:105DB0001F0021FA00F000F00100704700F01F0101
:105DC000012202FA01F1094A8009835819438150DE
:105DD000704700BF00F01F01012202FA01F1034ADF
:105DE0008009835819438150704700BF001002405A
:105DF0000A490A6822F0030210430860704700BF96
:105E00000648006800F00C00704700BF03490A68AC
:105E100022F4400210430860704700BF04100240A3
:105E200010B55D4C4FF6FB712068084020601020D3
:105E3000FFF7C4FF1120FFF7B7FF0028FAD01820A2
:105E4000FFF7BCFF1920FFF7AFFF0028FAD00220B0
:105E5000FFF7CEFFFFF7D4FF0828FBD1042000F0A6
:105E600007F820684FF6F7710840206010BD00BFAA
:105E700002490A6822EA00000860704710ED00E05D
:105E80000A484FF47A710068B0FBF1F00138B0F1C4
:105E9000807F00D3FEE70649F02248600548027083
:105EA0000020886007200860704700BF08000020BD
:105EB00010E000E023ED00E070B5044608780D46E0
:105EC00000F01F00022818D0012822D0002847D156
:105ED000607800F0FE0002281AD1688802283FD0BE
:105EE000012815D10026E670D4F89C2020462946CA
:105EF00090473D480068868025E06178A88803299E
:105F00000DD0022904D140F08000C0B2802827D1F2
:105F100070BD607803281FD0022821D0F8E7698877
:105F200041B940F08001C9B2802903D0C1B22046F6
:105F300000F064F8D4F89C202046294690472A486F
:105F4000002100688180E44848F6BF720168114072
:105F500081F03001016070BDA88810F0FE0FD7D02D
:105F600020460021BDE8704000F088B9D0F88C00D0
:105F7000817811807047000010B507490122074B56
:105F80000A6000224FF41F440A604A600A611C60E4
:105F9000C2700C6010BD00BF405C00402822002091
:105FA00010B50C464178032903D1A18811F0FE0FEA
:105FB00004D0002100F062F9002010BDD0F89C2030
:105FC000214690470028F7D1E0880028F4D1064800
:105FD0000021006848F6BF728180D74801681140EF
:105FE00081F030010160E7E704000020D0F888006C
:105FF000017811807047002100F040B910B501F020
:106000007F0249B2CC4BB1F1FF3F16DD43EA82017A
:1060100002EB820453F8222000EB84004C3052043F
:1060200006D50A6848F68F731A4002F580420A6066
:106030004FF440524BF68F7313E043EA820102EBB8
:10604000820453F8222000EB84001030520605D55C
:106050000A6848F68F731A4040320A60302248F6C8
:10606000BF7300240470086818405040086010BDD9
:106070000B4B013203EB4101520822B108C9013A2E
:1060800020F8023BF9E77047054B013203EB410171
:10609000520822B130F8023B013A08C1F9E77047D3
:1060A00000600040A44B01F07F0053F8202049B26B
:1060B00043EA8000B1F1FF3F0BDD510406D50168D2
:1060C00048F68F72114001F5804101604BF68F71E7
:1060D00009E0510605D5016848F68F72114040313C
:1060E000016048F6BF71026811400160704700BF4F
:1060F000F0B5D37850A403F0030392F9025054F89A
:10610000233005F00F048C4E234346F82430928848
:1061100046EA8403B5F1FF3F27DD04EB840500EB7D
:106120008500012902654BD1186848F68F65284023
:1061300000F580701860186848F68F752840403068
:10614000DFF8F0C11860DCE90056200135523E4806
:106150003F2A3CD302F11F0707404FF0FF3000EB0E
:10616000471E3A4840EA0E0035E004EB840500EB98
:106170008500704D4261D5E9007026018753324E8B
:1061800001321E363240BE182E601E6801291AD117
:1061900048F68F61314001F580711960296800EB84
:1061A00004100A442A601A6848F6BF752A4082F033
:1061B00030021A60018118684BF68F71084038E090
:1061C0005C4805680DE048F6BF7030402CE01E309A
:1061D000571C0740780206EB04163D44B080CCF80B
:1061E000005054483F2A406800EB0410058109D351
:1061F0004FF4787404EB421202F4F842134C013A63
:10620000224305E04FF4007404EB4222104C22407C
:10621000828118684BF68F721040012907D11860EF
:10622000186848F6BF71084080F0200001E080F453
:1062300000501860F0BD00BF000200000004000024
:106240000000000000060000E0FF01000080FFFFEA
:1062500000FCFF03B0B501F07F0101EB810400EB0E
:1062600084008365344B4BF68F7553F821402C40E6
:1062700084F4405443F821404265B0BDB0B54AB201
:1062800001F07F042C494BF68F73002A48BF48F673
:10629000BF7351F82450002A03EA05034FF48055D8
:1062A00048BF10256B4041F8243004EB840300EB19
:1062B000830000F14C03002A48BF00F110030120C5
:1062C000187004B1B0BD08684BF6BF72104041F2BF
:1062D000100250400860B0BD005C00407CB501F089
:1062E0007F0505EB850100EB81000021C0E9062355
:1062F0000162019140690F4E98422CBF01930190B9
:1063000071682801095A0198144682B22046FFF7A5
:10631000BBFE0949019851F8252048F6BF731A4081
:1063200082F0300241F82520716801EB0511888068
:106330007CBD00BF00000020005C0040E0B50022F2
:106340000192C988012907D14178032908D002297F
:1063500002D101AA802105E00021FFF78FFF8CBD4B
:10636000802102460123FFF7B9FF8CBDBCB504466E
:1063700008780D4600F01F00012826D090BB6888E1
:106380000021B1EB902FADF8061027D100F0FE01EF
:10639000062923D2010A14A202EB810151F8043C20
:1063A000C1B20DF10602204698470246BDF806002C
:1063B000C0B1EB88B3B1984238BF03462046802174
:1063C000ADF80630FFF78AFFBCBDD4F89C204AB177
:1063D0002046294602B0BDE8B040104720460021C3
:1063E000FFF74CFFBCBD00BFED5F00086D5F00080C
:1063F000756C00084278032A02D0022A04D0704744
:106400008A8812F0FE0F02D00021FFF737BFD0F8C4
:106410009C20002AF3D01047E0B50022ADF80620FA
:10642000ADF804200A7802F01F02022A0DD0012ADA
:1064300016D0FAB9417801F0FE0102290FD1C178D6
:10644000E1B10221ADF8061018E042780979032A7B
:1064500017D0022A03D141F0800180290AD18CBDD6
:106460004278032A02D0022A04D0F8E7898811F082
:10647000FE0F03D00021FFF701FF8CBD0DF10602D6
:1064800014E00A0606D401EB810100EB810191F8CA
:106490004C1006E001F07F0101EB810100EB81016E
:1064A000097C11B10121ADF8041001AA8021022359
:1064B000FFF714FF8CBD000010B501460020012934
:1064C00008BF012B00D010BD624C2069E1688842F2
:1064D00001D1A078B8B12069484901EB801110467C
:1064E0004022FDF72BFE2069013020612069402801
:1064F00004BF002020612069E168884204BF0020B9
:10650000A070402010BD01206070002010BD00BFB1
:1065100070B5402A0EDC124814464278032A09D18D
:10652000104E328842B14278032AFAD0002070809F
:10653000308070BD002070BD0B4D22462846FDF70F
:10654000FDFD002070800648A3B281212A463480D8
:10655000FFF7C4FE708820447080012070BD00BF2A
:10656000380000200C0100209C0100203948002147
:10657000012201704160816042708170C1600161DF
:10658000704700BFB0B5334CA0686168884201D144
:10659000207888B3A0683049184D01EB8010E1687D
:1065A00005EB8111FEF712FBA0680130B0F140014C
:1065B00018BF0146A160A0686168884204BF00203E
:1065C0002070607850B100206070E068402205EBD8
:1065D00080110020FFF79CFF0120B0BDE068013072
:1065E000B0F1400118BF0146E160E1682269012075
:1065F000914208BFA070B0BD0020B0BD1E120020A7
:1066000010B5022824D11BB31078072803D11348F2
:106610000121017010BD0F4C207818B16068A1688D
:10662000884215D060680C4901EB801011461A466B
:10663000FDF784FD6068013060606068402804BF39
:10664000002060606068A168884204BF012020705B
:1066500010BD00BF880100201E020020E4000020C1
:10666000B0B50D46044679B105EB850004EB80001A
:10667000D0E90712891AC1611CD082698BB2204609
:106680002946FFF72BFE5AE0E168E9B105EB8500EA
:1066900004EB8005284650F81C2F50F8083C9A421D
:1066A0001CD9D11A0160AA698BB220468021FFF75C
:1066B00015FE22E06078032841D1D4F8A0302046AE
:1066C00001212A4698473AE0EE480178B9B3002202
:1066D000027041F08000EC49C86430E08A4213D275
:1066E000B2FBF3F101FB132171B920468021002296
:1066F00000230025FFF7F2FDE5602046002100227F
:106700000023FFF7A7FD1AE0002505606078032845
:1067100005D1D4F8A0302046012100229847DA485C
:1067200048F68F620168114001F5807101600168CF
:106730004BF68F72114081F440510160E5600020FA
:10674000B0BD00BF2DE9FE4F4FF00009CE4FADF8B0
:106750000690ADF80490786C8E4DADF80600286870
:10676000BDF806100140090440F182808A4CDFF830
:106770009CB440F68F78ADF80A90ADF80890786C2C
:10678000ADF80A00000471D5BDF80A0000F00F054D
:1067900047EA85000168ADF80810BDF80A10C9067F
:1067A000BDF808101AD40906E9D5016848F60F7239
:1067B00011400160DBF8001005EB850001EB0511CD
:1067C000898804EB80006FF39F2101628269114484
:1067D000816120462946FFF743FFD0E709B2B1F1B6
:1067E000FF3FCCDC016801EA08010160DBF8000032
:1067F00000EB05118E896FF39F2666B1BDF8082066
:1068000012052BD405EB850004EB80000989406D4F
:106810003246FFF72DFC05EB850004EB8000824635
:106820005AF85C1F3144CAF800105AE902138A1959
:10683000991B4AF8082C4AF8041C02D0006DB0429B
:1068400006D92046294600F0B3F8CAF8009096E72A
:106850008BB220462946FFF7FDFC90E70189201DF9
:106860003246FFF705FC204600F0E0F9494D286864
:10687000BDF806100840C0040AD54EF6FF707864D3
:106880004548817841704548007808B9FFF7C8FA53
:106890002868BDF806100140090514D5396CC906F1
:1068A00011D43D4804224178427081703C48007800
:1068B00010B100F0E7F902E03A48032101704FF20D
:1068C000FF7078642868BDF806100840800508D578
:1068D0004FF6FF5078643448006810B101682E48C4
:1068E00088472868BDF806100840C0051DD54FF63A
:1068F000FF6078642B480178B9B1017801390170E3
:10690000017891B925494FF6EF740B783A6C012B59
:1069100002EA040202D13A64002005E042F01002CB
:106920003A6403220270012008702868BDF806103E
:10693000084040052BD54FF6FF307864B3487021EE
:106940000068B022018130210180184900230A60CB
:1069500048F2FF71818110484021016541610021A9
:1069600048F68F72032B08D041EA070425680431EA
:1069700015401D4325600133F4E78021F96439682F
:1069800089B2396043F22021396001214170BDE8AC
:10699000FE8F00BF2822002038000020E1000020E8
:1069A00035000020E00000202C2200200000002004
:1069B00010B50A46044641B16078032838D1D4F8AE
:1069C000A03020460021984732E0E06898B102EB01
:1069D000820004EB8000014651F8582F51F8083C22
:1069E0009A420FD9D31A0B60426D9BB22046002108
:1069F000FFF730FC1CE0864848F68F6201681140C2
:106A0000016015E06078032805D1D4F8A030204655
:106A10000021002298477E4848F6BF720168114065
:106A200081F0300101607948002100688180E160D7
:106A3000002010BD7047000010B58A884AB9CA8886
:106A40003AB989780F4A01F07F0111704278032A20
:106A500004D10021BDE81040FFF710BC6B4A0023B1
:106A6000126848F6BF749380694A0029136803EAE4
:106A7000040383F0300313600CBF01210221417035
:106A800010BD00BF24220020005C004070B5044609
:106A90004888284E10F0FE0F307005D020460021A7
:106AA000BDE87040FFF7EABB6178032910D00229E6
:106AB0002AD1010607D0032161702070D4F89420F8
:106AC000C1B220469047514800210068818028E0EB
:106AD00001061AD02178C0B24D4D814209D0D4F8B8
:106AE000982020469047317820462170D4F8942091
:106AF00090474648002100688180286848F6BF71A9
:106B0000084080F03000286070BD0025022025700C
:106B10006070D4F898202046002190473B480068D8
:106B200085803B4848F6BF720168114081F0300112
:106B3000016070BD302200207047000080B50A78E7
:106B400002F01F02022A0DD0012A17D0BABB4278E8
:106B500002F0FE02022A10D1498801290DD101213B
:106B6000C1701BE043788A88032B0DD0022B04D11F
:106B700042F08001C9B2802921D180BD4278032A28
:106B800019D0022A1BD0F8E7498839B942F08001B0
:106B9000C9B2802902D0D1B2FFF770FB1B48002197
:106BA000006848F6BF72818019480168114081F081
:106BB0003001016080BD898811F0FE0FDDD0002119
:106BC000BDE88040FFF75ABB80B54278032A02D067
:106BD000022A04D080BD8A8812F0FE0F04D0002162
:106BE000BDE88040FFF74ABBD0F89C2002B1904737
:106BF00006480021006848F6BF7281800448016899
:106C0000114081F03001016080BD00BF0400002010
:106C1000005C004002790A7042794A70C2884A805A
:106C200002898A804289C260CA8070471CB5694661
:106C30000446FFF7EFFF9DF8000000F060004028D9
:106C400014D0202809D068B99DF80100084951F8EE
:106C5000202069462046904708E069462046FFF715
:106C60009FF903E020460021FFF708FB00201CBD30
:106C7000946D0008D0F8900050F821000178118040
:106C8000704700000A48016841F00C0189B20160B8
:106C90004168C90403D401200021FFF753B84EF620
:106CA000FF71416001684FF6F77211400160704753
:106CB000405C0040704702E008C8121F08C1002A6B
:106CC000FAD170477047002001E001C1121F002A6D
:106CD000FBD170471203470044003300320020000C
:106CE000410052004D000000140343004D005300CA
:106CF000490053002D0044004100500000001A03D9
:106D000030003000300031004100300030003000F1
:106D10003000300030003000000014034700440011
:106D20004C0069006E006B002D004F004200000017
:106D30001E0343004D005300490053002D00440042
:106D400041005000200047004400330032000000A2
:106D50000600FF0901A101150026FF0075089540F6
:106D60000901810295400901910295010901B102D1
:106D7000C0001201100100000040E9288F05000149
:106D800001020301E48D70097BDD41DA886E0E9506
:106D9000C161B92D19640008B95E0008356A0008A0
:106DA0003D6B0008356A0008396A00086D63000809
:106DB000396B00083D6300088D6A0008F563000820
:106DC000C96B0008B56C000804030904C86D00080D
:106DD000D46C0008E86C0008FE6C00081A6D00080E
:106DE000306D0008086E000800000020E000000080
:106DF000B66C0008E86E0008E0000020582500008E
:106E0000C66C000800000000300000000060004078
:106E100000A24A0409022900010104803209040089
:106E200000020300000509210001000122210007E2
:106E30000581034000010705020340000101000035
:106E40000000000000000000000000000000000042
:106E50000000000000000000000000000000000032
:106E60000000000000000000000000000000000022
:106E70000000000000000000000000000000000012
:106E80000000000000000000000000000000000002
:106E900000000000000000000000000000000000F2
:106EA00000000000000000000000000000000000E2
:106EB00000000000000000000000000000000000D2
:106EC0000000000000000000726D00080C000020AF
:106ED000CC6D00089D56000885560008D156000864
:086EE000D1550008000000007C
:0400000508004105A9
:00000001FF
