:020000040800F2
:10400000D00900201941000823420008E5410008BA
:10401000214200089B410008394300080904202080
:10402000000000000000000000000000274200081F
:104030009D410008000000002542000829420008B8
:104040003341000833410008334100083341000880
:104050003341000833410008334100083341000870
:104060003341000833410008334100083341000860
:104070003341000833410008334100083341000850
:104080003341000833410008334100083341000840
:104090002D43000833410008334100083341000834
:1040A0003341000833410008334100083341000820
:1040B0003341000833410008334100083341000810
:1040C0003341000833410008334100083341000800
:1040D00033410008F542000833410008334100082D
:1040E000334100083341000831430008000000005C
:1040F00006052020FFFFFFFF000000000000000079
:1041000033410008DFF80CD000F018F800480047F1
:10411000F5470008D00900200648804706480047B8
:10412000FEE7FEE7FEE7FEE7FEE7FEE7FEE7FEE767
:10413000FEE7FEE72D42000805410008064C074D4A
:1041400006E0E06840F0010394E807009847103467
:10415000AC42F6D3FFF7DAFFA45B0008C45B0008AB
:1041600030B58C1810F8012B12F00F0301D110F8A4
:10417000013B120906D110F8012B03E010F8015B96
:1041800001F8015B5B1EF9D101E001F8013B521E11
:10419000FBD1A142E6D3002030BDFEE7704700000E
:1041A00004494A684B689B1A834228BF704700BF86
:1041B000F8E700BF5C01002070B50848084E841C79
:1041C0000025062D08BF70BD36F8150021460422D3
:1041D00000F009F808340135F3E700BF6000002063
:1041E000E8F7FF1FFEE7F0B54FF0000C372400257D
:1041F000042A28BF0422954228BFF0BD86B204EBF2
:104200001637330BB6F5204F38BF03F1300701EBFB
:10421000450301F8157083F801C001350001EAE794
:10422000FEE770477047704700F00EBE2B482C4ADF
:1042300001682D4B41F0010101604168114041606E
:104240000168284A11400160016821F48021016061
:104250004168194041600168114001604FF41F013D
:104260008160016841F4803101604FF6FE714A1EA1
:1042700003688A4203D213F400311146F7D0016873
:10428000890300D4FEE741684160416841604168AC
:1042900041F480614160416841F48031416041688E
:1042A00021F470114160416841F4E01141600168FE
:1042B00041F08071016001688901FCD5416821F0FD
:1042C00003014160416841F0020141604168090712
:1042D000FCD5064806490160704700BF0010024047
:1042E0000C00FFE8FFFFF6FEFFFF00F708ED00E01F
:1042F000004000081CB500200A4CADF806002068FC
:10430000800607D560680849C0B2ADF806002046AF
:1043100000F0AEFD2068000703D56068C0B2ADF8BC
:1043200006001CBD003801400503050001F020B95E
:104330004FF4802000F072B8FEE70000B0B51446DC
:104340001A4A0D46517803290ED0012915D061BBB8
:1043500001215170116CA14288BF2146C2E902516E
:104360008BB281212A461CE0002151703832022193
:104370001F23BDE8B04000F055BF0D490D2542F8A0
:10438000281F00211173032102F8271CD2E905130D
:1043900052F81C4C1B1BC2E9011342E9082581217C
:1043A0000D23BDE8B04000F081BFB0BD6801002022
:1043B0005553425310B5184B01291C6824EA0004D8
:1043C0001C605C6824EA00045C609C6824EA0004C9
:1043D0009C60DC6824EA0004DC6004D031B9196810
:1043E0000143196002E0596801435960022A09D06B
:1043F000C143012A09D072B99A6810439860D868FD
:10440000084007E09968014301E09A68114099600B
:10441000D9680843D86010BD000401400149086014
:10442000704700BF1404014080B500F0D7F80020A9
:1044300080BD00002DE9F041074624480E464FF4A8
:1044400080511C461546804600F020F92048304433
:104450004CB1013C29460029FAD010F8012B013952
:1044600007F8012BF7E740464FF4805100F00CF9B4
:104470000020BDE8F08100BF2DE9F0410646134859
:104480000F464FF480511C46804600F0FFF810485C
:1044900040F2FF31384420EA01077CB1384600F091
:1044A0005DF800257159781900F0B4F80435B5F5B8
:1044B000806FF7D12E442F44013CEEE740464FF485
:1044C000805100F0E1F80020BDE8F081000C0140CF
:1044D0000060000870B5441E0025013C45F100064F
:1044E00000F008F8012801D1002EF6D1012808BFFC
:1044F000042070BD07480168C9071CBF0120704730
:104500000168C9064FBF03200068022101EA50007C
:10451000704700BF0C20024070B5441E0025013CCE
:1045200045F1000600F008F8012801D1002EF6D16F
:10453000012808BF042070BD07480168C9071CBFD7
:10454000012070470168C9064FBF0320006802219F
:1045500001EA5000704700BF4C200240B0B504464D
:1045600046480088B0F5007F02D94648844217D8F3
:104570004FF47020FFF7AEFFB8B9414D286840F006
:10458000020028606C60286840F0400028604FF40A
:104590007020FFF79FFF296821F002012960B0BD5C
:1045A0004FF47020FFF7B8FF00B1B0BD344D286C58
:1045B00040F0020028646C64E868800748BF6C60C3
:1045C000286C40F0400028644FF47020FFF7A4FFEF
:1045D000296C21F002012964B0BD00BF0A48C168FE
:1045E000090603D509490160094901602349098881
:1045F000B1F5007F06D9C16C090603D503490164F2
:1046000003490164704700BF04200240230167454D
:10461000AB89EFCD70B5054618480C460088B0F55B
:10462000007F02D91748854213D84FF47020FFF756
:1046300051FF98B9124E306840F0010030604FF4DD
:1046400070202C60FFF746FF316821F001013160D6
:1046500070BD4FF47020FFF75FFF00B170BD084ED2
:10466000306C40F0010030644FF470202C60FFF794
:1046700053FF316C21F00101316470BDE0F7FF1F81
:1046800010200240FEFF070841617047016170473A
:1046900070B5174D284600F02FF805F580642046C8
:1046A00000F02AF8134E2846102102224FF480739E
:1046B000B0472846182103224FF40063B04728462C
:1046C000182103224FF48053B047204610210222C4
:1046D0004FF48053B0474FF48020FFF79FFE4FF414
:1046E000802000210022BDE87040FFF763BE00BFBC
:1046F000000801405147000810B5144908444FEA2A
:10470000B020062888BF10BD40F20234DFE800F078
:104710001504070A0D10130040F203340DE04FF4A6
:1047200041740AE040F2053407E040F2063404E048
:1047300040F2073401E04FF44274204600F020FBC1
:104740002046BDE8104000F00FBB00BF00F8FEBFE0
:104750002DE9F04F01F00F0A00F1140C00F1100EDA
:1047600000264FF001094FF00F080027CC0648BF84
:104770004AEA020A082F19D009FA07F212EA030BD3
:1047800011D0056808FA06F40AFA06F225EA0404CC
:104790002243282903D0482904D1744600E0644606
:1047A000C4F800B0026004360137E3E708260027AA
:1047B0004FF001094FF00F08102E08BFBDE8F08F31
:1047C00009FA06F212EA030B11D0456808FA07F459
:1047D0000AFA07F225EA04042243282903D04829CB
:1047E00004D1744600E06446C4F800B04260043767
:1047F0000136E1E700F080FAFFF74AFF00F0D6F853
:10480000FFF7DAFC1D484FF47A710068B0FBF1F055
:104810000138B0F1807F00D3FEE71949F0224860EB
:104820001848194C02700020886007200860204654
:1048300000F08AFB154D05206070A5F580604FF4EF
:104840008071FFF723FF6078032810D028464FF4CB
:104850008051FFF71BFF3220FFF7A2FC28464FF4E0
:104860008051FFF711FF3220FFF79AFCEBE7284653
:104870004FF48051FFF708FFFEE700BF5C00002007
:1048800010E000E023ED00E0B4000020000C014047
:1048900010B50446012908BF012A0BD0022081B9B6
:1048A000022A0ED13F480078022806D040B900F015
:1048B000B5FA02E03B48007810B1204600F0DCF881
:1048C000002010BD10B58121044600F0D3FB204626
:1048D000022100F0CFFB33480021334A017020460B
:1048E00002211F2300F09EFC002010BD70B50D4D6D
:1048F000002105F112020446002600F0E1FB05F15B
:1049000019022046002100F0DBFBFFF78DFD254852
:10491000254A0670204602211F2300F083FC002058
:1049200070BD00BF9200002010B50A7812F060023E
:1049300010D0202A30D14A78FF2A19D0FE2A20D15F
:1049400018490024164A0C7080210123147000F0CD
:10495000ADFC22E04A78012A17D00B2A19D00A2A86
:104960001AD10F4901234A1C802100F09FFC13E05B
:104970000C4900240C4A0C7002211F2300F052FC49
:104980000BE000F020FB022407E0812100F05EFC38
:1049900002E08878024948700024204610BD00BF1C
:1049A0005C01002069010020A001002080B54FF4C7
:1049B000A06000F039F814200221002200F008F86D
:1049C0002A2000210022BDE8804000F001B800004C
:1049D00010B5194B1C6804F4E064A4F54074B4F5F8
:1049E000A06F03D2230AC3F1040403E00C4C1C6043
:1049F0000223022499400F23E3401A401143094A3D
:104A0000090140EA020383F800131C2101EAD001E6
:104A100000F01F00012303FA00F0885010BD00BF12
:104A20000005FA0500E100E0024908430249086078
:104A3000704700BF0000FA050CED00E00C4A0029A9
:104A4000136823F003031360136840EA0300106047
:104A50000848026842F0040202600FBF30BF40BF46
:104A600020BF20BF016821F004010160704700BF32
:104A70000070004010ED00E070B5EE4C0546207E61
:104A8000A0F11A0110290ED8DFE801F00924181846
:104A9000261818181834183918183D185800924854
:104AA00000F108012CE0002863D003286DD0122803
:104AB00004D18D48242200F12E016AE094F94410BB
:104AC0006078B1F1FF3F75DD002800F0A280032877
:104AD00005D09DE001206060607800285ED0002055
:104AE000607004F13802284602211F23BDE870409F
:104AF00000F098BB7C480C2200F1100149E07A4993
:104B00002846082246E060780328E8D0012800F013
:104B1000968000287CD101206070E17E227F637F37
:104B2000E67F090494F8200041EA0221B604194402
:104B300046EA80208902C4E9041083E060780328F3
:104B4000CDD0022800F09580002861D1022060704D
:104B5000E17E227F637FE67F090494F8200041EA2A
:104B60000221B604194446EA80208902C4E90410EF
:104B70008FE0607888B30020607004F13802284626
:104B800002211F2300F04EFB38E05748122200F1AB
:104B90001C012846BDE87040FFF7D0BB534844F8DD
:104BA000280F032004F8270C002020736169C4E952
:104BB000011088E0002800F08E8003288FD00128A3
:104BC00026D14A4844F8280F032004F8270C012076
:104BD0002073D4E90501013973E04448224642F8C4
:104BE000280F032002F8270C0020107351690D23B1
:104BF000C2E901102846812100F058FB60680128B5
:104C000006D13B484FF48071BDE87040FFF73CBDD2
:104C100070BD36480D2344F8280F002044F81C0CC2
:104C200001202073D4E905012246C4E90101284688
:104C3000812100F03BFB032004F8270C70BD606964
:104C400068B321692B4E4FF4806230460123FFF791
:104C5000F1FB2846812132464FF4806300F026FBA9
:104C6000D4E9040100F58060A1F58061C4E9040184
:104C700070BD21691F484FF480620123FFF7FCFBE0
:104C8000D4E9040100F58060B1F58061C4E9040154
:104C900005D0184A284602214FF4806326E71348BE
:104CA00044F8280F032004F8270C0020207314F880
:104CB000092C14F8083CD4E90501920442EA832245
:104CC000891AC4E901012846812122460D23BDE845
:104CD000704000F0EBBA0120E0606070284681214E
:104CE00022460123F3E700BF08000020555342533A
:104CF00000080140C001002010B5094C40F20260DC
:104D0000A04740F20360A04740F21C70A04740F269
:104D10001770A0470020BDE8104000F04DB800BF5C
:104D2000514D00081C4A8109895800F01F0021FAE2
:104D300000F000F00100704700F01F01012202FAAC
:104D400001F1154A8009835819438150704700BF0B
:104D500000F01F01012202FA01F10F4A8009835875
:104D600019438150704700BF00F01F01012202FA71
:104D700001F1094A8009835823EA010181507047F3
:104D800000F01F01012202FA01F1034A8009835851
:104D900019438150704700BF001002400A490A6859
:104DA00022F0030210430860704700BF0648006805
:104DB00000F00C00704700BF03490A6822F440026B
:104DC00010430860704700BF0410024010B5664CE5
:104DD0004FF6FB712068084020601020FFF7ACFF01
:104DE0001120FFF79FFF0028FAD01820FFF7A4FF3B
:104DF0001920FFF797FF0028FAD00220FFF7CEFF17
:104E0000FFF7D4FF0828FBD1042000F015F8206834
:104E10004FF6F7710840206010BD00BF0549002023
:104E2000102808BF70470A1892F8473001301376EF
:104E3000F6E700BF6801002002490A6822EA000084
:104E40000860704710ED00E008484FF47A7241683E
:104E500001314160416891FBF2F303FB121189B209
:104E6000022902D181680131816070475C01002014
:104E7000C1F304420123890D03FA02F20B5823EA1D
:104E800002020A507047000070B5044608780D46CB
:104E900000F01F00022818D0012822D0002847D196
:104EA000607800F0FE0002281AD1688802283FD0FE
:104EB000012815D10026E670D4F89C20204629460A
:104EC00090473D480068868025E06178A8880329DE
:104ED0000DD0022904D140F08000C0B2802827D133
:104EE00070BD607803281FD0022821D0F8E76988B8
:104EF00041B940F08001C9B2802903D0C1B2204637
:104F000000F064F8D4F89C202046294690472A48AF
:104F1000002100688180E44848F6BF7201681140B2
:104F200081F03001016070BDA88810F0FE0FD7D06D
:104F300020460021BDE8704000F088B9D0F88C0010
:104F4000817811807047000010B507490122074B96
:104F50000A6000224FF41F440A604A600A611C6024
:104F6000C2700C6010BD00BF405C0040C405002052
:104F700010B50C464178032903D1A18811F0FE0F2A
:104F800004D0002100F062F9002010BDD0F89C2070
:104F9000214690470028F7D1E0880028F4D1064840
:104FA0000021006848F6BF728180D748016811402F
:104FB00081F030010160E7E704000020D0F88800AC
:104FC000017811807047002100F040B910B501F060
:104FD0007F0249B2CC4BB1F1FF3F16DD43EA8201BB
:104FE00002EB820453F8222000EB84004C30520480
:104FF00006D50A6848F68F731A4002F580420A60A7
:105000004FF440524BF68F7313E043EA820102EBF8
:10501000820453F8222000EB84001030520605D59C
:105020000A6848F68F731A4040320A60302248F608
:10503000BF7300240470086818405040086010BD19
:105040000B4B013203EB4101520822B108C9013A6E
:1050500020F8023BF9E77047054B013203EB4101B1
:10506000520822B130F8023B013A08C1F9E7704713
:1050700000600040A44B01F07F0053F8202049B2AB
:1050800043EA8000B1F1FF3F0BDD510406D5016812
:1050900048F68F72114001F5804101604BF68F7127
:1050A00009E0510605D5016848F68F72114040317C
:1050B000016048F6BF71026811400160704700BF8F
:1050C000F0B5D37850A403F0030392F9025054F8DA
:1050D000233005F00F048C4E234346F82430928889
:1050E00046EA8403B5F1FF3F27DD04EB840500EBBE
:1050F0008500012902654BD1186848F68F65284064
:1051000000F580701860186848F68F7528404030A8
:10511000DFF8F0C11860DCE90056200135523E4846
:105120003F2A3CD302F11F0707404FF0FF3000EB4E
:10513000471E3A4840EA0E0035E004EB840500EBD8
:105140008500704D4261D5E9007026018753324ECB
:1051500001321E363240BE182E601E6801291AD157
:1051600048F68F61314001F580711960296800EBC4
:1051700004100A442A601A6848F6BF752A4082F073
:1051800030021A60018118684BF68F71084038E0D0
:105190005C4805680DE048F6BF7030402CE01E30DA
:1051A000571C0740780206EB04163D44B080CCF84B
:1051B000005054483F2A406800EB0410058109D391
:1051C0004FF4787404EB421202F4F842134C013AA3
:1051D000224305E04FF4007404EB4222104C2240BD
:1051E000828118684BF68F721040012907D1186030
:1051F000186848F6BF71084080F0200001E080F494
:1052000000501860F0BD00BF000200000004000064
:105210000000000000060000E0FF01000080FFFF2A
:1052200000FCFF03B0B501F07F0101EB810400EB4E
:1052300084008365CD4B4BF68F7553F821402C408D
:1052400084F4405443F821404265B0BDB0B54AB241
:1052500001F07F04C5494BF68F73002A48BF48F61A
:10526000BF7351F82450002A03EA05034FF4805518
:1052700048BF10256B4041F8243004EB840300EB59
:10528000830000F14C03002A48BF00F11003012005
:10529000187004B1B0BD08684BF6BF72104041F2FF
:1052A000100250400860B0BD005C00407CB501F0C9
:1052B0007F0505EB850100EB81000021C0E9062395
:1052C0000162019140690F4E98422CBF01930190F9
:1052D00071682801095A0198144682B22046FFF7E6
:1052E000BBFEA249019851F8252048F6BF731A4029
:1052F00082F0300241F82520716801EB05118880A9
:105300007CBD00BF00000020005C0040E0B5002232
:105310000192C988012907D14178032908D00229BF
:1053200002D101AA802105E00021FFF78FFF8CBD8B
:10533000802102460123FFF7B9FF8CBDBCB50446AE
:1053400008780D4600F01F00012826D090BB688821
:105350000021B1EB902FADF8061027D100F0FE012F
:10536000062923D2010A14A202EB810151F8043C60
:10537000C1B20DF10602204698470246BDF806006C
:10538000C0B1EB88B3B1984238BF034620468021B4
:10539000ADF80630FFF78AFFBCBDD4F89C204AB1B7
:1053A0002046294602B0BDE8B04010472046002103
:1053B000FFF74CFFBCBD00BFBD4F00083D4F0008CC
:1053C000A15A00084278032A02D0022A04D070476A
:1053D0008A8812F0FE0F02D00021FFF737BFD0F805
:1053E0009C20002AF3D01047E0B50022ADF806203B
:1053F000ADF804200A7802F01F02022A0DD0012A1B
:1054000016D0FAB9417801F0FE0102290FD1C17816
:10541000E1B10221ADF8061018E042780979032ABB
:1054200017D0022A03D141F0800180290AD18CBD16
:105430004278032A02D0022A04D0F8E7898811F0C2
:10544000FE0F03D00021FFF701FF8CBD0DF1060216
:1054500014E00A0606D401EB810100EB810191F80A
:105460004C1006E001F07F0101EB810100EB8101AE
:10547000097C11B10121ADF8041001AA8021022399
:10548000FFF714FF8CBD0000B0B50D46044679B19E
:1054900005EB850004EB8000D0E90712891AC16191
:1054A0001CD082698BB220462946FFF7FFFE5AE0E6
:1054B000E168E9B105EB850004EB8005284650F86A
:1054C0001C2F50F8083C9A421CD9D11A0160AA69D5
:1054D0008BB220468021FFF7E9FE22E060780328A6
:1054E00041D1D4F8A030204601212A4698473AE01D
:1054F000EF480178B9B30022027041F08000ED4915
:10550000C86430E08A4213D2B2FBF3F101FB1321ED
:1055100071B920468021002200230025FFF7C6FE36
:10552000E5602046002100220023FFF77BFE1AE001
:10553000002505606078032805D1D4F8A030204606
:10554000012100229847DB4848F68F62016811402C
:1055500001F58071016001684BF68F72114081F492
:1055600040510160E5600020B0BD00BF005C00401C
:105570002DE9FE4F4FF00009CE4FADF80690ADF883
:105580000490786C8E4DADF806002868BDF80610C2
:105590000140090440F182808A4CDFF89CB440F657
:1055A0008F78ADF80A90ADF80890786CADF80A00E5
:1055B000000471D5BDF80A0000F00F0547EA850028
:1055C0000168ADF80810BDF80A10C906BDF808104A
:1055D0001AD40906E9D5016848F60F721140016036
:1055E000DBF8001005EB850001EB0511898804EB61
:1055F00080006FF39F21016282691144816120461E
:105600002946FFF741FFD0E709B2B1F1FF3FCCDCFB
:10561000016801EA08010160DBF8000000EB0511F8
:105620008E896FF39F2666B1BDF8082012052BD432
:1056300005EB850004EB80000989406D3246FFF7D9
:10564000FFFC05EB850004EB800082465AF85C1FE6
:105650003144CAF800105AE902138A19991B4AF812
:10566000082C4AF8041C02D0006DB04206D920462E
:10567000294600F0B3F8CAF8009096E78BB22046AE
:105680002946FFF7CFFD90E70189201D3246FFF73D
:10569000D7FC204600F0E0F9494D2868BDF8061017
:1056A0000840C0040AD54EF6FF70786445488178FA
:1056B00041704548007808B9FFF788FB2868BDF8B5
:1056C00006100140090514D5396CC90611D43D48AE
:1056D00004224178427081703C48007810B100F09B
:1056E000E7F902E03A48032101704FF2FF70786455
:1056F0002868BDF806100840800508D54FF6FF5011
:1057000078643448006810B101682E4888472868DA
:10571000BDF806100840C0051DD54FF6FF6078643F
:105720002B480178B9B1017801390170017891B93C
:1057300025494FF6EF740B783A6C012B02EA04020C
:1057400002D13A64002005E042F010023A640322DC
:105750000270012008702868BDF806100840400556
:105760002BD54FF6FF307864B34870210068B02223
:10577000018130210180184900230A6048F2FF713D
:1057800081811048402101654161002148F68F72F6
:10579000032B08D041EA07042568043115401D4356
:1057A00025600133F4E78021F964396889B23960F2
:1057B00043F22021396001214170BDE8FE8F00BF16
:1057C000C4050020B400002059010020B2000020D0
:1057D00058010020C80500200000002010B50A462E
:1057E000044641B16078032838D1D4F8A03020466F
:1057F0000021984732E0E06898B102EB820004EBA8
:105800008000014651F8582F51F8083C9A420FD9B0
:10581000D31A0B60426D9BB220460021FFF702FDB8
:105820001CE0864848F68F6201681140016015E06F
:105830006078032805D1D4F8A0302046002100224A
:1058400098477E4848F6BF720168114081F03001E8
:1058500001607948002100688180E160002010BD6E
:105860007047000010B58A884AB9CA883AB9897861
:105870000F4A01F07F0111704278032A04D1002100
:10588000BDE81040FFF7E2BC6B4A0023126848F6FF
:10589000BF749380694A0029136803EA040383F004
:1058A000300313600CBF01210221417010BD00BF05
:1058B000C0050020005C004070B504464888284EB2
:1058C00010F0FE0F307005D020460021BDE870407A
:1058D000FFF7BCBC6178032910D002292AD1010648
:1058E00007D0032161702070D4F89420C1B2204603
:1058F0009047514800210068818028E001061AD0B5
:105900002178C0B24D4D814209D0D4F8982020466C
:105910009047317820462170D4F89420904746482B
:10592000002100688180286848F6BF71084080F037
:105930003000286070BD0025022025706070D4F80A
:1059400098202046002190473B48006885803B48CE
:1059500048F6BF720168114081F03001016070BDEE
:10596000CC0500207047000080B50A7802F01F02C5
:10597000022A0DD0012A17D0BABB427802F0FE02EB
:10598000022A10D1498801290DD10121C1701BE0E3
:1059900043788A88032B0DD0022B04D142F080017A
:1059A000C9B2802921D180BD4278032A19D0022AA8
:1059B0001BD0F8E7498839B942F08001C9B2802983
:1059C00002D0D1B2FFF742FC1B480021006848F624
:1059D000BF72818019480168114081F03001016077
:1059E00080BD898811F0FE0FDDD00021BDE8804028
:1059F000FFF72CBC80B54278032A02D0022A04D0DB
:105A000080BD8A8812F0FE0F04D00021BDE88040DE
:105A1000FFF71CBCD0F89C2002B19047064800213B
:105A2000006848F6BF72818004480168114081F027
:105A30003001016080BD00BF04000020005C004018
:105A400002790A7042794A70C2884A8002898A8043
:105A50004289C260CA8070471CB569460446FFF798
:105A6000EFFF9DF8000000F06000402814D02028CF
:105A700009D068B99DF80100084951F8202069460D
:105A80002046904708E069462046FFF771FA03E098
:105A900020460021FFF7DAFB00201CBD5C5B0008FC
:105AA000D0F8900050F82100017811807047000074
:105AB0000A48016841F00C0189B201604168C904DB
:105AC00003D401200021FEF7B9BF4EF6FF714160FB
:105AD00001684FF6F772114001607047405C00406A
:105AE000704702E008C8121F08C1002AFAD17047A7
:105AF0007047002001E001C1121F002AFBD170474E
:105B000016034700690067006100440065007600E5
:105B10006900630065000000300347004400330063
:105B20003200200055005300420020004D00530079
:105B30004300200069006E00200046005300200052
:105B40004D006F00640065000000120100020000BB
:105B50000040E9288502000101020301E953000821
:105B6000894E00086158000869590008615800080A
:105B7000655800083D530008655900080D5300089A
:105B8000B9580008C5530008F5590008E15A000843
:105B900004030904905B0008005B0008185B000820
:105BA00060000020C85B00080000002058010000D1
:105BB00060410008505C000858010020780800008F
:105BC000F25A0008000000005230446000403227C2
:105BD000B404000342085927020004007000055273
:105BE0000A7220458000011F401D474433322020A7
:105BF0002020496E7465726E616C2D464C4153488D
:105C00002020312E30300D2AA24A043203470044AE
:105C1000003300323C0902200001010480320904F3
:105C20003B020806500007058102403607050202C4
:105C300040028A01364A5B0008922C20945B0008DF
:105C4000ED480008C5481A0829490008914800088D
:0400000508004105A9
:00000001FF
