:020000040800F2
:100000007825002001010008F90D0008F90D00080D
:10001000F90D0008F90D0008F90D000800000000B6
:10002000000000000000000000000000F90D0008C2
:10003000F90D000800000000F90D00081901000882
:100040001B0100081B0100081B0100081B01000820
:100050001B0100081B0100081B0100081B01000810
:100060001B0100081B0100081B0100081B01000800
:100070001B0100081B0100081B0100081B010008F0
:100080001B0100081B0100081B0100081B010008E0
:100090009D2700081B0100081B0100081B01000828
:1000A0001B0100081B0100081B0100081B010008C0
:1000B0001B0100081B0100081B0100081B010008B0
:1000C0001B0100081B0100081B0100081B010008A0
:1000D0001B0100081B0100081B0100081B01000890
:1000E0001B0100081B0100081B010008DFF80CD0F1
:1000F00000F02AF800480047E5280008782500208D
:100100000648804706480047FEE7FEE7FEE7FEE7B1
:10011000FEE7FEE7FEE7FEE7FEE7FEE7A1170008C1
:10012000ED00000840EA01039B0703D009E008C97D
:10013000121F08C0042AFAD203E011F8013B00F8AC
:10014000013B521EF9D27047064C074D06E0E068AD
:1001500040F0010394E8070098471034AC42F6D30E
:10016000FFF7C8FF9C2D0008BC2D00080EB50F48F6
:10017000416B0091816B0191C06B02900C488169C9
:1001800041F01D01816101210A4800F06DFD6946C1
:10019000094800F017FD01A9084800F013FD02A965
:1001A000074800F00FFD00F05BFE0EBD142C0008A8
:1001B000001002400002300000080140000C014025
:1001C000001001402DE9F8430278A2F180031F2BB3
:1001D00003D800F02BF9BDE8F88301F8012B0C4699
:1001E00010F8013B0027FF21894D8A4ADFF8289249
:1001F0004FF001084FF00116172B6FD2DFE803F024
:100200000C374C5AB1BAD46EF0606F6E6E6E6E6E73
:1002100073777C8C96ACAF000278611C0020062AB4
:1002200021D006DC052A1ED2DFE802F01D1D1D1DAF
:100230000D00F02A0ED0FD2A15D04023FE2A10D042
:10024000FF2A10D109E0754802680A600079087138
:10025000052008E01120087004E00B704F700220A8
:1002600001E00B700120207000F10210B3E7037869
:100270006B4A1BB1012B07D02170B6E011684078A2
:1002800000F00100096804E011684078496800F056
:10029000010088472770A8E005782DB1012D04D012
:1002A000002525703546A0E0012582F8008000F089
:1002B00097FEF6E7177000F06BFE2770454694E056
:1002C00001885848584A0068B0FBF2F00322801CAD
:1002D000B0FBF2F04843401EFDD1DBE794E06770CD
:1002E0002770022581E0214600F0F2FA02E0214663
:1002F00000F0C4FA054678E010F8015B01460DB93C
:100300004FF48075284601F09BF9ED1D2770E80831
:10031000050405F1011568E0007800F00301491CAF
:100320001175C0F3800050752770BBE72170012163
:100330000D4610F8013B0AE010F8012B12F03F02C5
:1003400000D14022D21DD20811441044491C5B1E2A
:10035000F2D261F31F4548E000782170D8E72170A0
:10036000A0E701781172B0F801105181B0F80300D4
:10037000908147E012782146012A12D0421C12F8DF
:10038000013B43B112F8014BA50701D5E40600D5A6
:10039000121D5B1EF6D1101A0F7000044F70801CE6
:1003A000A8E700F049F8A5E705461078214601289E
:1003B00009D00F704F70A7700320E978890706D520
:1003C00040F4802511E0284600F0C6F9F5E7B5F8BD
:1003D00001104FF4802202EB8145054305E0FFE761
:1003E0001278012A04D021704D4605F10110F2E681
:1003F0000179D0F8010061F31F6000906946002088
:1004000000F04EFE2770EFE704F8011C3046E2E6EC
:100410000100020098000020010005000C2C0008DB
:10042000940000204C00002040420F0000784FF064
:1004300001120870104670472DE9F04F87B08B46C7
:1004400001F1020904460590C1490020029008709C
:1004500001906578A41C8046002D6FD0DFF8F4A2CF
:1004600014F8016BB1076AD5B8F1000F3BD0BAF8A8
:100470000A7006F0110001280AD0DFF8D48269461C
:100480000E2000F00DFE022812D04FF0000805E00B
:100490006946304600F004FE022802D0012806D149
:1004A0000FE07F1E03D3AA4909780029F0D0FCE0B1
:1004B0007F1E03D398F800100029E0D04FF0000809
:1004C000F3E0009989F80010009A09F10101120A7D
:1004D00001F8012B009A120C01F8012B009A120E60
:1004E00001F8012B8946F1064DD5E17854F8040B4B
:1004F00061F31F600490BAF80C000390F00712D06B
:10050000BAF80A700021304600F0CAFD022802D075
:10051000012807D107E07F1E791C03D08C49097898
:100520000029EFD0C1E0BAF80A706946304600F001
:10053000B7FD022804D0012819D108E0D5E060E019
:100540007F1E14D3824909780029EED00FE0DAF833
:10055000102000990A4004998A4208D00399491E44
:100560000391491C03D07A4909780029DBD0DAF8D5
:10057000102000990A4004998A4201D040F01000EE
:10058000012816D13BE0BAF80A70F10715D0B8F18E
:10059000000F34D10021304600F082FD022802D045
:1005A000012806D106E07F1E7FD36949097800291A
:1005B000F0D07AE04FF0010821E06946304600F0C3
:1005C0006FFD022802D001286FD106E07F1E6CD398
:1005D0005F4909780029F0D067E0009989F8001098
:1005E000009A09F10101120A01F8012B009A120C7C
:1005F00001F8012B009A120E01F8012B8946002107
:1006000048E0B8F1000F25D0BAF80A7069460E200C
:1006100000F046FD022802D0012846D106E07F1EE8
:1006200043D34B4909780029F0D03EE0009889F87F
:100630000000009909F10100090A00F8011B009966
:100640004FF00008090C00F8011B0099090E00F892
:10065000011B8146E17854F8040B61F31F600090A0
:10066000B10603D5CAF81000012014E0BAF80A70E8
:100670006946304600F014FD022802D0012814D14A
:1006800007E07F1E791C10D0314909780029EFD08E
:100690000BE0012101910299491C02912C49097832
:1006A00019B96D1E7FF4DCAE09E045B114F8011BE9
:1006B0008A0701D5C90600D5241D6D1EF5E701285E
:1006C00037D1B8F1000F24D0BAF80A50204E69464D
:1006D0000E2000F0E5FC022802D0012829D105E017
:1006E0006D1E26D331780029F1D022E0009989F8D7
:1006F0000010009A09F10101120A01F8012B009A79
:10070000120C01F8012B009A120E01F8012B8946F8
:100710000FE0019969B1BAF80A500D4E00210E2080
:1007200000F0BEFC022804D16D1E02D331780029EE
:10073000F4D002998BF800108BF801000598A9EB12
:100740000B01201A07B041EA0040BDE8F08F00001D
:1007500048000020980000202DE9F84FDFF81481B0
:100760000027044638460D4601F1030A88F8007058
:10077000B4F80160E41C002E73D014F8019BDFF87C
:10078000F8B05FEA89715CD55FEAC9713CD0BBF80B
:100790000A400021484600F083FC022802D00128CC
:1007A0005FD131E0641E5CD398F800100029F0D0CE
:1007B00057E026B95FEAC97001D04FF00E09BBF8C7
:1007C0000A406946484600F06BFC022802D0012826
:1007D00047D106E0641E44D398F800100029F0D0F9
:1007E0003FE000998AF80010009A0AF10101120A0C
:1007F00001F8012B009A120C01F8012B009A120E3D
:1008000001F8012B8A467F1C761ED2D229E0E178BE
:1008100054F8040B61F31F600090BBF80A8069462E
:10082000484600F03DFC022802D0012819D107E01B
:10083000B8F1010815D30F4909780029EFD010E06D
:100840007F1C761EE3D2BBF80A400A4E00210E2020
:1008500000F026FC022804D1641E02D3317800295E
:10086000F4D02F70390A6970A870AAEB0500BDE8B2
:10087000F88F0000480000209800002030B5C278B2
:100880000368104862F31F634BB10F4A00241568D8
:100890000E4AB3EB950F05D3012353700FE0FF22EF
:1008A0000A7030BD03EB55056D1EB5FBF3F35470B4
:1008B000022B03D90325B3FBF5F300E001235360BA
:1008C0000C7030BD010004004C0000209800002096
:1008D0002DE9F05F8B46447805784179D0F80260C5
:1008E000454861F31F66E20700F1040106D0EB07FB
:1008F0004FF4007201D0026000E00A60A20706D542
:10090000AB074FF4807201D5026000E00A60620715
:1009100007D5AA08D3074FF0200201D0026000E0FB
:100920000A60200602D5E80900F018FB324F083FA4
:1009300007F104090021EEB33048864200D906468B
:100940004FF0E0288A46C8F818102D482D49006855
:10095000B0FBF1F07043C8F814000520C8F810008F
:10096000E00705D0D9F80000C0F34020A8421BD111
:10097000A00705D53868C0F30020B0EB550F13D1A0
:10098000600706D5D9F80000C0F34010B0EB950F12
:100990000AD1A00601D5680906D120060CD500F0C1
:1009A000D3FAB0EBD51F07D0D8F81000C0F3004041
:1009B000002800E002E0D3D0C8F810A0D9F8001059
:1009C0003A68C1F34021C2F30022D9F8000041EA9D
:1009D0004201C0F3401041EA80013868C0F3801042
:1009E00041EAC00400F0B0FA44EAC0108BF80000FD
:1009F0000548BDE8F09F0000100C0140C0C62D0066
:100A00004C00002040420F00010006000A4800216F
:100A10000A4A017041701268094BB2FBF3F2921E50
:100A2000426001726422428181810122016102756A
:100A3000417500F0ADBA0000980000204C00002085
:100A400080841E0006494FF47A720968B1FBF2F106
:100A50000622891CB1FBF2F14143491EFDD17047CA
:100A60004C00002006494FF47A720968B1FBF2F19C
:100A70000322891CB1FBF2F14143491EFDD17047AD
:100A80004C00002001078A0E07490A44D2F8001CD6
:100A9000000602D548F6CF7001E04CF68F70014099
:100AA000C2F8001C70470000005000400207930E7F
:100AB0000A4A1344D3F8002C000605D501F0300093
:100AC000504048F6BF7104E001F4405050404BF6EE
:100AD0008F710840C3F8000C7047000000500040C0
:100AE00070B505464FF43026304600F059F804281A
:100AF00011D1094C206940F0020020616561206934
:100B000040F040002061304600F04AF8216941F68B
:100B1000FD721140216170BD00200240084904208F
:100B2000CA68D20701D001207047CA68520701D5B0
:100B300002207047C968C906FBD503207047000032
:100B4000002002400248016941F0800101617047C4
:100B500000200240F0B506464FF400570D463846D7
:100B600000F01EF804280CD1064C206940F001006A
:100B700020613580384600F013F82169BA1E114013
:100B80002161F0BD00200240034802494160034951
:100B9000416070472301674500200240AB89EFCDDB
:100BA00000B50346FFF7BAFF03E000BFFFF7B6FF4B
:100BB0005B1E012803D0002B00D1052000BD002BB7
:100BC000F4D1FAE7F0B5CA78002502F00F03D20697
:100BD00001D58A7813430A784FF00F0E12F0FF0FF9
:100BE0004FF001021CD004680F8802FA05F6374066
:100BF000B74211D14FEA850C0EFA0CF724EA070729
:100C000003FA0CF43C43CF78282F02D0482F02D0AF
:100C100002E0466100E006616D1C082DE4D304602B
:100C20000C88FF2C1ED944685FF0000606F1080707
:100C300002FA07F50F882F40AF420FD14FEA860C1A
:100C40000EFA0CF7BC4303FA0CF73C43CF78282F7D
:100C500000D14561CF78482F00D10561761C082E60
:100C6000E4D34460F0BD0000F0B5144C002801DA74
:100C7000E36900E06368420D120185B2C0F30157D9
:100C80009540C0F30346032F05D0C2020AD50322C4
:100C9000B240934307E023F07062636823F070630F
:100CA000636002E0AB4343F0706201B12A43002865
:100CB00001DAE261F0BD6260F0BD000000000140B9
:100CC0002DE9F0410278FF26A2F1D003072B72D85C
:100CD00001F8012B0C4610F8011BD039082965D208
:100CE000DFE801F0041215181C2846573B4800683D
:100CF00004F8010B010A04F8011B010C04F8021BA3
:100D0000000E04F8010C52E0FFF73EFF4FE0FFF742
:100D100019FF4CE00068FFF7E3FE48E001688088B7
:100D200004E000BF11F8012BFF2A19D1401E80B248
:100D3000F8D23CE08588D0F80080382D37D8871D60
:100D400012E000BF17F8011B2DB117F8010B6D1E43
:100D500041EA0021ADB24046FFF7FCFE042801D075
:100D6000FF2624E008F102086D1EADB2EAD21EE0B3
:100D7000016880883E281AD8002202E038B111F8B4
:100D8000012B04F8012B401E80B2F7D20FE00E7841
:100D9000F9E7BFF34F8F12480168124A01F4E0618E
:100DA00011430160BFF34F8F00BFFDE7641E267043
:100DB000BDE8F081FFE70C48026862B10C480B49BE
:100DC000C368806801EB83110A4B5268BDE8F041AB
:100DD00003EB80101047FF200870E9E7002004E0D3
:100DE0000CED00E00400FA05600000207211002004
:100DF000800000207201002072B61548006880F360
:100E0000088800F02DF8134B00244FF400569D1471
:100E10004FF47A771E61FA20FFF714FE5E611D61C0
:100E2000FA20FFF70FFE5D613846FFF70BFE641CEA
:100E3000052CEFDBBFF34F8F07480168074A01F429
:100E4000E06111430160BFF34F8F00BFFDE7000079
:100E500000000008001001400CED00E00400FA055D
:100E60001CB50C4801680091406801900A488169EE
:100E700041F010018161094C69462046FFF7A2FE4E
:100E8000A014606101A92046FFF79CFE6014606118
:100E90001CBD0000142C000800100240001001408E
:100EA000C20704494FF4805001D00861704748617F
:100EB00070470000001001400248C16881F4805171
:100EC000C160704700100140C20704494FF4005050
:100ED00001D0086170474861704700000010014070
:100EE00003480068C00501D5012070470020704705
:100EF000080C0140C1074FF4807001D0024901E0A5
:100F00000149091D08607047100C014006494FF463
:100F10008070086004480C38016821F00F0141F02E
:100F20000801016070470000100C014005494FF4B2
:100F30008070086003481038016821F00F01C91C57
:100F400001607047140C014003480068000601D599
:100F50000120704700207047080C0140C2070B4871
:100F60004FF0800108D0094A10321160016821F069
:100F7000704141F0804107E0044A14321160016879
:100F800021F0704141F0E04101607047000C0140E8
:100F900010B5114886B0114C016A0091416A019167
:100FA000816A0291C16A0391006B049069462046F0
:100FB000FFF708FE01A92046FFF704FE03A920461B
:100FC000FFF700FE02A92046FFF7FCFD04A920461A
:100FD000FFF7F8FD06B010BD142C0008000C01400E
:100FE00070B5204886B0204DC1680091016901911B
:100FF0004169029181690391C0690490694628465C
:10100000FFF7E0FD184C68151034206001A9284650
:10101000FFF7D8FDA015206002A92846FFF7D2FDF2
:101020004020206003A92846FFF7CCFD2020206047
:1010300004A92846FFF7C6FD8026201D0660286803
:1010400020F0704040F0E04028600120FFF70AFDEA
:101050002660286820F0704040F08040286006B08C
:1010600070BD0000142C0008000C0140094808B5B0
:10107000806800900848816941F0040181616946F7
:101080000648FFF79FFD05494FF480701431086052
:1010900008BD0000142C00080010024000080140A8
:1010A000034A52780AB100F005B800F007B9000011
:1010B000980000202DE9F34F054681B00120FFF78D
:1010C00019FF7C4E4FF400743460371F3C60E8B267
:1010D000FFF710FF34603C604FEA550808F0FF004E
:1010E000FFF708FF34603C6005EB08094FEA9508FC
:1010F00008F0FF00FFF7FEFE34603C60C1444FEA99
:10110000D50808F0FF00FFF7F5FE34603C6009EBFE
:101110000800C0B2FFF7EEFE34603C600020FFF72D
:10112000E9FE34603C600120FFF7E4FE34603C607F
:10113000FFF7ECFEDFF880B19BF8140020B13946D0
:1011400034600C60401EFBD1A046B1463460FFF70E
:10115000C7FEBA463C6000903460FFF7C1FE01460E
:101160003C60009840EA410100913460FFF7B8FE0E
:101170003C60009941EA8004012C11D0022C6BD014
:10118000042C69D09BF81400213006D041464B4610
:10119000524619601160401EFBD1FFF7C7FE83E085
:1011A000A80729D500273D465FF02006C9F8008032
:1011B000FFF796FECAF800807908054441EAC07737
:1011C000761EF3D14646C9F80080FFF789FE5146E6
:1011D000CAF800604540E80700D00824029800B132
:1011E00007609BF8140020B14A4616600E60401E4E
:1011F000FBD1FFF79BFE21E09BF8140030B1414684
:101200004A46534611601960401EFBD1FFF78EFE1F
:101210000298002720260568E8B2FFF76BFEC9F8A0
:101220000080CAF800802F446D08761EF4D1F8B211
:10123000FFF760FEC9F80080CAF800809BF80850EC
:1012400095B30020FFF756FE4046494652460860D7
:1012500010606D1EFBD127E09BF815005E4648B17B
:10126000A80707D5212041464B4652461960116018
:10127000401EFBD1307D30B141464B46524619608D
:101280001160401EFBD1FFF751FE707D60B1A807D1
:101290000AD40020FFF72EFE212041464A4653463D
:1012A00011601960401EFBD10120FFF723FEE0B260
:1012B000BDE8FE8F140C0140980000202DE9F35F7B
:1012C000064600270120FFF715FEDB4D4FF40074A2
:1012D0002C60DA4A50680146491EFDD1DFF8588378
:1012E000A8F10408C8F800409146401EFDD1F0B2B4
:1012F000FFF700FE2C60D9F804004A460146491E5B
:10130000FDD1C146C8F800409346401EFDD107EB11
:1013100006087708F8B2FFF7EDFDAA462C60DBF867
:1013200004005A460146491EFDD1C9F80040401E3E
:10133000FDD1B5084744E8B2FFF7DCFDD046CAF856
:101340000040DBF804005A460146491EFDD1C9F8A9
:101350000040DA46401EFDD12F44F508E8B2FFF701
:10136000C9FDC8F80040DAF8040052460146491E9B
:10137000FDD1C9F80040401EFDD17819C0B2FFF779
:10138000B9FD4546C8F80040DAF804005246014667
:10139000491EFDD14F46C9F80040D046401EFDD140
:1013A000FFF7A8FD2C60D8F8040042460146491E0C
:1013B000FDD13C60401EFDD10120FFF79BFD2C605C
:1013C000D8F8040042460146491EFDD13C60401E4B
:1013D000FDD1FFF79BFD98F814205AB1D8F804000E
:1013E0002C600146491EFDD13C600146491EFDD1DD
:1013F000521EF5D12C60D8F80400401EFDD1FFF735
:101400006FFD814622463C60D8F804000146491E23
:10141000FDD114462A60401EFDD1FFF761FD024652
:10142000BB463C60D8F804000146491EFDD149EA9C
:101430004207AA462C60401EFDD1FFF751FD02462F
:101440002046A1465C46CBF80000D8F80400C3460D
:101450000146491EFDD147EA8205012D16D0022D15
:101460007CD0042D7AD09BF8141021310BD0564635
:101470004B4633600246521EFDD123600246521E87
:10148000FDD1491EF5D1FFF751FDCFE0B10742D59F
:101490004FF0000847462026CAF80090DBF8040009
:1014A000401EFDD1FFF71CFDC4F80090DBF80410CE
:1014B000491EFDD14FEA5801074441EAC078761E23
:1014C000EAD14E46CAF80090DBF80400401EFDD178
:1014D000FFF706FD2660DBF804205946521EFDD1B9
:1014E0004740F80700D00825019810B1019AC2F8CA
:1014F00000800A7D62B1DBF8040053461E6001469D
:10150000491EFDD126600146491EFDD1521EF5D16E
:10151000FFF70CFD38E09BF814205AB156464B46B5
:1015200033600146491EFDD123600146491EFDD1AD
:10153000521EF5D1FFF7FAFC01984FF00008202762
:101540000668F0B2FFF7D6FC4A46CAF80090DBF80E
:1015500004000146491EFDD1226000E029E0401E42
:10156000FBD1B04476087F1EEBD108F0FF00FFF7F7
:10157000C1FC4A46CAF80090DBF804000146491E47
:10158000FDD12260401EFDD19BF808605F46E6B3A6
:101590000020FFF7AFFC786853464A461A600146C0
:1015A000491EFDD122600146491EFDD1761EF5D1AE
:1015B0003CE09BF815105F4679B1B1070DD52122AB
:1015C000D4464B46CCF800300146491EFDD123607D
:1015D0000146491EFDD1521EF4D13A7D6AB1D4466E
:1015E0004FEA0903CCF800300146491EFDD12360C3
:1015F0000146491EFDD1521EF4D1FFF797FC787DBC
:1016000018B1B00712D4002000E00FE0FFF772FC21
:101610007868212356464A4632600146491EFDD16C
:1016200022600146491EFDD15B1EF5D10120FFF766
:1016300061FCE8B2BDE8FC9F140C0140980000205A
:10164000F0B5124F124A00252C464FF4807EA7F1C8
:10165000040C7E15526815E014B911F8015B0824DA
:10166000EB0702D0CCF800E001E0C7F800E03E60F4
:1016700013465B1EFDD1CCF8006013465B1EFDD106
:101680006D08641E401EE7D2F0BD0000140C01403E
:10169000980000200CB500212648019100910268B5
:1016A00042F4803202604FF4A063026802F4003218
:1016B0000092019A521C0192009A12B9019A9A4220
:1016C000F3D10268920333D5012100911A490A68C7
:1016D00042F010020A600A6822F003020A600A68F7
:1016E00042F001020A60416841604168416041681E
:1016F00041F480614160416821F47C11416041689E
:1017000041F4A2014160016841F08071016001680B
:101710008901FCD5416821F003014160416841F035
:10172000020141604168C1F381010229FAD10CBD77
:1017300000910CBD0010024000200240144910B579
:101740004868144A10F00C03134803D0042B01D04E
:10175000082B0AD0026049680F4AC1F30311121D19
:10176000515C0268CA40026010BD4A684B6802F4CE
:1017700070124FF0020413F4803F04EB924202D047
:101780004B689B0301D5054B00E0024B5A43E1E750
:101790000010024000127A004C00002000093D00B9
:1017A0000F4810B5016841F00101016041680D4A20
:1017B0001140416001680C4A11400160016821F448
:1017C00080210160416821F4FE0141604FF41F0156
:1017D0008160FFF75FFF05494FF00060086010BDB2
:1017E000001002400000FFF8FFFFF6FE08ED00E0E9
:1017F00000B50346FFF746F943F2300118465DF89D
:1018000004EBFFF753B90000F0B58378204A03F0EA
:101810000F041E0657688188158803F00F0307EB35
:10182000031304D5491C21F001011D6011E09D60E6
:101830003E2909D91F3121F01F014FF0FF3505EB7B
:10184000411545F4004503E0491C21F001014D021A
:10185000DD6013880B441380C07810F0030006D0BD
:10186000012807D0022808D003280AD107E04FF446
:10187000007106E04FF4806103E0002101E04FF4C5
:10188000C061044A214302EB8400C0F8001CF0BD93
:101890007800002000500040002802D10149C020FB
:1018A000088070477800002000F0A0B909498A1527
:1018B00050B101200860002008600B1D18604FF433
:1018C000E0500860044803E0032008600248001D5F
:1018D00002607047405C00401008014010B50B4C9E
:1018E0000B48A28801788A4200D9CAB21AB90749BE
:1018F0000020143908718020216800F01DFF216844
:1019000001442160A188081AA08010BD14000020A5
:10191000602C000810B5064C0020216800F098FBF0
:10192000216801442160A188081AA08010BD000030
:101930001400002070470021FFF7B8B843F22001DF
:10194000FFF7B4B82DE9F047694C074680074FF020
:101950000009A4F10805A4F11C0621D500F0C4FE7D
:101960002078C009FFF7E6FFE088A8802078C0F360
:10197000411111B1012968D159E06178DFF8748112
:101980000C2962D2DFE801F0060D611461192861AB
:101990002C32394800F060FC20E000BFFFF79EFFCA
:1019A0005FE0002005E000BF00F0A4FE404639E003
:1019B000012000F08FFC70B3F6E710F01F0F44D148
:1019C000A078012140F08000307000F07F0000F02E
:1019D0007DFE00F08FFE44E000F060FBD8B1DDE753
:1019E00010F01F0F31D142481B3812E000F0C2FC4A
:1019F00088B100F07FFE404814E000F01F0001288D
:101A000023D1707838B12079B17888421DD23B4912
:101A100008442860C2E718E000F074FDA8B100F0A7
:101A200069FE37480168E1B10846804719E010F0C7
:101A30001F000AD0012808D100F080F888B900F012
:101A4000D3F870B900F078F858B92078000603D4BC
:101A5000E08808B1002000E0802000F041FEA5F8F9
:101A60000490780721D5207800061CD4A888E0B11E
:101A7000FFF750FFA888C0B92078C0F3411161B1C9
:101A800001290AD110F01F0007D0012805D100F06C
:101A90003BF850B900F036F838B9802000F020FE4D
:101AA000A5F8049001E000F02BFE380712D520784D
:101AB000000606D5A888317908430BD0FFF70EFF42
:101AC00008E03078010605D500F07F003070002175
:101AD00000F0FCFD780602D50020FFF789FE3806ED
:101AE00004D5BDE8F0478020FFF782BEBDE8F0874F
:101AF0001C000020D02C0008C82C00086C0000201E
:101B0000CC2C00080020704710B50948094A01791B
:101B10001278914209D14078092806D100F062FA82
:101B200018B100F0E7FD012010BD002010BD00003D
:101B30001C000020612C0008002070472DE9F041B6
:101B4000224C23492079097888423DD16078214D83
:101B5000214E224F0C2837D2DFE800F03606212D27
:101B6000363636363616243200F05AF960B3E0784D
:101B7000012802D0032803D003E01948286000E0C0
:101B80002E60FFF7ABFE13E0E078022802D00328B6
:101B900003D00DE0134828600AE02E6008E000F052
:101BA00027F90AE000F0F6F90CE000BF00F0A2FD12
:101BB0000120BDE8F08100F029F928B12F60E0E7AD
:101BC00000F006FA0028F1D10020F2E71C00002006
:101BD000612C00081400002074000020B0000020D8
:101BE000F10000203201002000207047064800214B
:101BF0004170C16001614161418081808161C16149
:101C0000C180016201817047240000202DE9F04766
:101C1000474CA0886188484DDFF818816F1C00266A
:101C2000884216D3A069A0B96661A68001232978ED
:101C30006A1C184600F0CEFE6080608848B165617D
:101C400098F80000012801D8676102E06088401C14
:101C5000608060884FF00109B0BBE06808B1E660C1
:101C600032E0206980B398F8001001290DD82E7059
:101C7000A68002236A1C0021012000F0ABFE6080D8
:101C8000608800B1676126611EE02F78C846202F6A
:101C900000D3002708FA07F1014244D0781CC1B2F2
:101CA0002970A68002236A1C012000F093FE608048
:101CB000608818B165616088401C6080206908FAFE
:101CC00007F820EA080020616088A169084328D04D
:101CD0006088A188DFF86880401A85B2174F98F8AD
:101CE000000037F81000A84200D2054615482A46E1
:101CF0006169007840F0800000F01EFD60691249C3
:101D000028446061A088284480B2A0800988884265
:101D10000CD298F8000037F81000A84206D1C4F899
:101D20001890BDE8F0877F1CFFB2B0E7A661F8E726
:101D3000240000206C2C0008F0000020682C000813
:101D400003000020622C00086E2C0008F8B5194C26
:101D5000194D0026E08800B9E5611848E16900786E
:101D600000F076F90004E169000C0144E161E188CA
:101D700001448BB2E3800AD0114909888B4206D214
:101D8000114A1049127831F81210814210D90F48C7
:101D9000017801200129009003D80021064A022081
:101DA00003E029786A1C02205B1E00F0D9FEE68061
:101DB000F8BD00002400002031010020632C000841
:101DC000702C0008682C0008030000206D2C00080F
:101DD00010B50446000702D52046FFF717FF60073D
:101DE00004D52046BDE81040FFF7B0BF10BD00008D
:101DF000034804498078085C034908700120704753
:101E00001C00002072000020B000002010B500F07F
:101E1000DFFD02490870012010BD0000B000002065
:101E20000B4910B5C8780022012804D0022804D03C
:101E3000032806D103E0074A02E0002010BD064A4D
:101E4000521C8978002300F0C5FD012010BD000060
:101E50001C000020F0000020730000202DE9F05F3E
:101E60004348007800287CD0424800273D4601784E
:101E70004A1C0270404A1378042203EB430A02FA18
:101E80000AF2521E914201DB057001273B490022F4
:101E90000C88FF2C01D2641C0C80394C8E460988BA
:101EA00034F81390894500D101228346002100694E
:101EB0009BF8006043E000BF4FF0000C6FB1314B66
:101EC0005C5CFF2C01D2641C5C542F4C645C24B11C
:101ED0005B5CA34201D34FF0010C2B4B4FF0020887
:101EE00008FA0AF85B5C03FA08F44C4502DA0BB115
:101EF000012400E0002432B12CB14FF0010808FAAF
:101F000001F848EA0000DFF8848018F801804345B2
:101F10000AD01C4B5B5C434503D301238B40184321
:101F20000026194B03F80180BCF1000F05D014B94D
:101F300001238B401843134B5D54491CC9B2144B09
:101F40001B789942B8D3CBF8100059468BF8006043
:101F50000AB1AEF80050002808D04888002805D102
:101F600000E003E0BDE8F05FFFF750BEBDE8F09F82
:101F70000100002024000020030000206E0000204B
:101F8000642C000870000020710000207200002006
:101F90006C2C000810B50A4809498078C97810B13E
:101FA000084A815409E00020074B084A02E019540E
:101FB000401CC0B21478A042F9D3012010BD00002B
:101FC0001C00002071000020720000206C2C000812
:101FD000034810B5807800F0C1FD012010BD00005D
:101FE0001C0000200C4908B5C8780022012804D044
:101FF000022804D0032806D103E0002008BD074AC8
:1020000000E0074A521C00230093CB88897800F037
:10201000A7FD012008BD00001C00002031010020A8
:1020200073000020054810B5C16941F40001C16189
:1020300000F006F8BDE81040FFF718B800100240A5
:102040004FF0E0214FF48010C1F800017047704755
:1020500070B50F4B00F00F020E4C5B6803EB0212E1
:102060009368928904EB4303C2F309040022651CC0
:1020700005E000BF33F8046B21F8026B521CB2EB91
:10208000550FF7D34FF44051FEF710FD204670BDB9
:102090007800002000600040704700007CB5424896
:1020A000A0F11C050178A0F1080411F01F0102D075
:1020B000012977D15FE0C3783B483B491C383B4A54
:1020C000C0788978082B6DD2DFE803F06C041342E6
:1020D0006C6C082D3648206012204AE0117809B94E
:1020E00001285FD018B1334820600A2041E032480F
:1020F000FAE712780AB9012854D018B12F48009095
:10210000002008E02E48FAE7009A137813B15388AC
:102110001A440092401C8142F6D100980178E9B33C
:102120002060408825E012780AB901283AD018B119
:1021300024480090002008E02348FAE7009A13782A
:1021400013B153881A440092401C8142F6D1E4E74F
:102150001E480090002005E0009B1A780AB11A443E
:102160000092401C8142F7D100980178B1B1206003
:102170000078019005E001A9684600F02BF80028DE
:102180000FD0A188019881420AD9114980B2A0805C
:102190000978491E084203D1012000E002E02871BD
:1021A00001207CBD00207CBD1C0000205D2C0008AF
:1021B000FA2C00080D2D00080C2D0008382D000801
:1021C0000E2D00083A2D0008392D00083C2D00087E
:1021D000602C000830B5164A164C174BD57812798A
:1021E000212D02D0222D20D115E02478A2421CD12D
:1021F000124A1478124A12780CB9012A15D042B149
:10220000104A02601046104A1288104418600920D3
:1022100008E00E4AF5E72078824206D10C481860A3
:102220000C4800880860012030BD002030BD00004F
:102230001C000020612C0008140000205D2C000808
:1022400003000020382D0008F82C00080E2D00088F
:10225000D42C0008F62C000870B51C481B4D0078E3
:10226000A5F1080510F01F040AD01848A5F11401C3
:10227000174B4A780079012C06D0022C24D109E0B2
:102280001248163828601DE0F2B1897888421BD2C6
:10229000002015E000F08F04200605D504F00F069D
:1022A0004FF48030B04001E00120A0400AB922077D
:1022B0000AD18A68024207D0C9680142E8D00120E9
:1022C00018802B60012070BD002070BD1C00002014
:1022D000B000002070B5264A0146A2F11C04107817
:1022E00010F01F031046408804D0012B28D0022B89
:1022F00026D110E0012823D129B100F01BFAE08893
:1023000040F0020005E0002000F014FAE08820F020
:102310000200E08029E0127902F08F06320605D52E
:1023200006F00F024FF48035954001E00125B540DD
:1023300062782AB1320703D0A2682A4200D008B1DD
:10234000002070BD29B1304600F0CAF9E06828438A
:102350000AE02069284208D13046FFF749FA3046A2
:10236000FFF79AFEE068A843E060012070BD00001E
:102370001C0000202DE9F84F5C4F002000903878B9
:1023800010F01F0F6FD1B8784FF000094FF0010B1C
:102390004FF4803AA7F11C0600287AD054480178FF
:1023A0003046C07809B901285DD008B1514C6BE0C6
:1023B000514C69E06078022804D0042844D00528F4
:1023C00060D144E06179B87881423BD17070207966
:1023D000B0700020494A4A4903E000BF02F800906B
:1023E000401C0B889842F9D30125B0460BFA05F042
:1023F000D8F80810084202D02846FFF79CFAD8F80F
:1024000008100AFA05F0084203D045F08000FFF7F3
:1024100092FA6D1C102DE9D34FF00110C8E90209A2
:102420000120C8F81090FFF737FAE0794006B8F8B5
:10243000060002D540F0010001E020F00100A8F8FC
:1024400006001FE060881EE0E07800901AE0009827
:10245000C0B9A07800F08F05280605D505F00F015A
:102460000AFA01F002E03CE00BFA05F0B168014322
:102470002046B160FFF7C8F92846FFF75FFA284603
:1024800000F020F9207804442078002892D124E03C
:10249000FFE7C84686F8019001245D464FEA0A0925
:1024A000B16805FA04F0084202D02046FFF743FA6B
:1024B000B16809FA04F0084203D044F08000FFF745
:1024C0003AFA641C102CEBD34FF00110C6E9020855
:1024D0000020C6F81080FFF7DFF9B87871788842DD
:1024E00002D00020BDE8F88F0120FBE71C0000208F
:1024F0005D2C0008382D00080E2D00086C0000200F
:102500005E2C00082DE9FC5F444E00273D463078E4
:10251000BB4600F01F00B84601287DD1A6F11C0182
:102520004878002875D03E48BA4602780846C078F8
:102530000AB9012870D0894608B13A4C65E03A4C96
:1025400063E06078022804D0042809D005285AD115
:1025500017E0617999F80100814254D0608853E016
:10256000A7783079E5784FF00008B8424BD1B078C1
:10257000A84248D12D484FF0010A10F807B0C555C0
:1025800041E03079B8423ED1A07800F08F00019050
:10259000000605D5019800F00F014FF4803001E0EE
:1025A0000199012088400090B078A84217D1D9F84D
:1025B0000810009A20461143C9F80810D9F80C10E9
:1025C0009143C9F80C10FFF71FF90198FFF7B6F90E
:1025D000019800F077F8009948EA010813E05D459A
:1025E00011D1009918EA010F0DD1D9F80810009AFD
:1025F0009143C9F80810D9F80C109143C9F80C1090
:102600000198FFF798F9207804442078002898D1A1
:102610005046BDE8FC9FFFE70020FAE71C000020C1
:102620005D2C0008382D00080E2D00086C000020DD
:102630001C49002008601C49096819B14FF4005179
:102640004A0001E000210A461143184A1268002A94
:1026500002D000BF4FF4007241EA020102D04FF4F1
:10266000807201E04FF0000241EA0201104A41F499
:102670001C411160104B0F494FF040021860486830
:102680004FF0C00302604FF0800282600B8048F27E
:10269000FF71C16009494FF4485008600848026062
:1026A00070470000445C0040842C0008802C000827
:1026B000405C004078000020505C0040005C00401E
:1026C0004C5C0040FEF7DEB9FFF7C8BB002903D120
:1026D000024940F080000860704700004C5C0040F8
:1026E00041F21001FEF7E2B901490020FFF7B0BC4A
:1026F0001C00002000221146802000F01DB80000C0
:1027000001490020FFF7A4BCB00000200448016884
:1027100041F008010160016841F004010160704767
:10272000405C00400248016821F0080101607047E8
:10273000405C004070470000F0B5154F064600F0C1
:102740000F037868144600EB0310124A006802EB8E
:1027500040020020651C04E031F802CB42F804CBB3
:10276000401CB0EB550FF7D378680B4900EB031012
:10277000446001EB8300D0F8000CC0F30110012885
:1027800003D030213046FEF791F92046F0BD00001D
:102790007800002000600040005000402DE9F04724
:1027A0003A4C256868050BD5FFF742FF00F01CFA8C
:1027B0003748016809B1084680476FF4806020609F
:1027C000280509D5FFF7A2FF3248016809B108467C
:1027D00080476FF400602060E80409D5FFF7A2FF8E
:1027E0002D48016809B1084680476FF48050206089
:1027F000A80507D52948016809B1084680476FF444
:1028000000702060264E680407D5306810B131682A
:10281000022088476FF480402060DFF88890DFF85E
:102820008880A8042DD5306810B131680120884710
:102830006FF40050206024E06FF40041216000F04C
:102840000F0609EB8607D7F8005C28040DD540F683
:102850008F702840C7F8000C58F8261029B12805B9
:1028600001D5022000E004208847280609D548F653
:102870000F700540C7F8005C58F8261009B1082011
:10288000884720680104D7D4BDE8F087445C004045
:10289000742C0008782C00087C2C0008802C000880
:1028A000842C000800500040882C000801490120B9
:1028B000087070474800002001490860FEF7A6B87C
:1028C0009400002002E008C8121F08C1002AFAD1B3
:1028D00070477047002001E001C1121F002AFBD1A0
:1028E00070470000FDF742FCFEF728FF2C4E4FF426
:1028F000805535612B482C4C016811B120602B4864
:10290000884775610A20FEF79DF800F05FF9012005
:1029100000F05CF80027676011E06068401C6060B0
:10292000012804D0052804D0322804D004E0356101
:1029300002E0756100E067600A20FEF783F800F0AE
:102940003DF80028E9D075616420FEF77BF8DFF8D8
:102950006090DFF86080C4E901794FF47A7A2068EA
:1029600028B100F0BDF868B1C4F80890F7E76068D6
:10297000401C6060404502D16760FEF79DFA00F0A0
:10298000AFF8ECE7A068504501D1356103E010B91C
:102990007561C4F80890A068401EA060DFE70000E1
:1029A00000100140BC2D000860000020542C0008DD
:1029B000400D030041420F0000F084B80248407807
:1029C000002800D00120704700000020FEF76EBFF5
:1029D0000020704770B51546012822D10BB3012B9A
:1029E0001FD1114C2069E168884201D1A078B0B1B3
:1029F0000E482169402200EB81112846FDF792FB29
:102A00002069401C206121690020402900D12061FB
:102A10002169E268914200D1A070402070BD012080
:102A20006070002070BD0000800000207211002046
:102A30002DE9F04107461D4816460088824202DD16
:102A40000020BDE8F0811A4800780028F9D0194C20
:102A500001224FF00008E26000E098B16288002A8D
:102A6000FBD1154D3246681C2F70FDF75BFB65618D
:102A7000A4F8048066801148007801280BD86D1CEA
:102A800065610BE0C4F80C80C4F81480A4F80480DD
:102A9000A4F80280D4E76088401C60800020FFF723
:102AA000B5F8074800F807800120CAE76E2C000837
:102AB0000100002024000020F00000206C2C000801
:102AC00070000020054800210170416081600122F2
:102AD00042708170C1600161704700008000002079
:102AE00070B51C4CA0686168884202D1207800282B
:102AF0002ED0194DE068A26805EB8011A5F5805035
:102B000000EB8210FEF7DCF8A068401C402800D1E2
:102B10000020A060A16862680020914200D120706E
:102B2000617841B16070E068402205EB80110020BF
:102B3000FFF77EFF0BE0E068401C402800D100203A
:102B4000E060E0682169884201D10120A070012085
:102B500070BD00008000002072110020704700004E
:102B600010B51146022829D1002B27D00878072854
:102B700014D0134C207818B16068A26890421DD020
:102B80001048626800EB82101A46FDF7CBFA6068C5
:102B9000401C60606068402808D009E00A4800686E
:102BA00000280BD08068BDE810400047002060601E
:102BB0006068A168884201D10120207010BD00002A
:102BC000800000207201002060000020054910B53F
:102BD0000020C870FFF7F0FEFFF739FABDE810409B
:102BE000FFF720BA0000002006484FF001120178DC
:102BF0000548C180002101704170C0E902210161D6
:102C0000704700005C2C000800000020312E31309D
:102C1000000000000010021000200210000102104D
:102C2000000203100001031040000048200000488B
:102C300080000048000200280001004820000048F1
:102C40004000004880000048FF870204FFFF0204A4
:102C500000F00204A10E0008C90E000800000100E7
:102C60004000030301004000400004000101400057
:102C70004000000000000000000000000000000014
:102C8000C9260008000000004519000800000000E7
:102C900000000000D11D000800000000000000003E
:102CA0000000000000000000000000000000000024
:102CB0000000000000000000000000000000000014
:102CC0000000000000000000A9180008000000003B
:102CD000000000000600FF0901A101150026FF0009
:102CE00075089540090181029540090191029501FD
:102CF0000901B102C0002100120012011001000000
:102D0000004051C201F0000101020301000009026C
:102D100029000101008032090400000203000004C0
:102D20000921000100012221000705830340000161
:102D3000070503034000010000000000040309042C
:102D400012034500430048004F002000410052009C
:102D50004D00140343004D005300490053002D0063
:102D60004400410050001A033100310032003200AB
:102D700033003300340034003500350036003600AF
:102D80001C0343004D005300490053002D00440034
:102D9000410050002000480049004400C82D0008B0
:102DA0000000002098000000C4280008602E0008E1
:102DB00098000020E0240000D4280008B92800086A
:102DC000C5010008AD280008000000000000000058
:102DD00000000000000000000000000000000000F3
:102DE00000000000000000000000000000000000E3
:102DF00000000000000000000000000000000000D3
:102E000000000000000000000000000000000000C2
:102E100000000000006CDC02000000000000000068
:102E2000010203040607080900000000000000007A
:102E30000000000000000000000000000000000092
:102E400000000000006000400000000000000000E2
:102E50000000000000000000000000000000000072
:04000005080000ED02
:00000001FF
