:020000040801F1
:104000005826002019410108075F01089D55010845
:10401000055F010885410108716A0108E1BC8F81D3
:10402000538017B1691C7FD509000000196201088F
:10403000E1510108A55AA55AD9610108896801080A
:10404000334101083341010833410108334101087C
:10405000334101083341010833410108334101086C
:10406000334101083341010833410108334101085C
:10407000334101083341010833410108334101084C
:10408000334101083341010833410108656A0108E1
:10409000696A0108334101083341010833410108CD
:1040A000334101083341010833410108334101081C
:1040B000334101083341010833410108334101080C
:1040C00033410108334101083341010833410108FC
:1040D00033410108334101083341010833410108EC
:1040E000334101083341010833410108FFFFFFFF5D
:1040F00011122020FFFFFFFFFFFFFFFFFFFFFFFF69
:1041000000000000DFF80CD000F02AF8004800475B
:10411000BD6C010858260020064880470648004725
:10412000FEE7FEE7FEE7FEE7FEE7FEE7FEE7FEE767
:10413000FEE7FEE78D6801080541010840EA01033A
:104140009B0703D009E008C9121F08C0042AFAD24D
:1041500003E011F8013B00F8013B521EF9D2704711
:10416000064C074D06E0E06840F0010394E80700C4
:1041700098471034AC42F6D3FFF7C8FF7C7C0108A7
:104180009C7C0108FEE780B5002002F03FF84FF06C
:104190008450012102F022F80D200121BDE8804069
:1041A00002F028B8F8B5362243688DF80020AA221C
:1041B0008DF805202522CDF806308DF80A209B22A7
:1041C0008DF80F2002688068CDF80120CDF80B0033
:1041D00068460C2202F0D2FB9DE80F004840504098
:1041E000584004B080BD00002DE9F0411448154945
:1041F000FFF7D8FF044614488168A14207D0006841
:10420000A04204D0392001F03BF8A04201D1BDE822
:10421000F0810F480D4D00244FF480764FF4805705
:104220008046E00703D16E60C5F8007403E02E609D
:104230004046C8F80070322000F0D4FF0134F0E7A7
:10424000E8F7FF1F197C0108F4000008100801407E
:10425000140C01402DE9F04F89B00C4690F9001084
:104260000546C8B2B1F1FF3F08DC9F2806D82846B2
:10427000214609B0BDE8F04F00F090BFA02801D35F
:10428000FF283ED1A2462E460AF8010B16F8010B74
:104290001D2800F2E681DFE810F01E003B004B0015
:1042A0005C0066007000A101E401F10105021A0240
:1042B000E401E401E401E401E40120022F024B02E5
:1042C00061026D029202A402E401E401E401E4014E
:1042D000E401E401BF023178FF2900F02A85A01C27
:1042E000F02900F02A85FE2900F03085042911BF4D
:1042F000002030218180DE4904BF0160062000F0EB
:1043000028BD2846214609B0BDE8F04F00F04BBF5C
:104310003078012800F0D982002840F0DF82A878A8
:104320004FF48071C007D3480CBFC1608160C8E101
:104330003078002808BF0120022800F0D18201282F
:1043400011BF0024CC480124047108BF01F00AFF0A
:10435000CCE2C9480024047101F0E2FE01208AF891
:10436000004000F009BF6878C349087468888882F3
:10437000A888C882002000F0A1BCDFF8FC8298F871
:104380000400022800F0B882012840F02F840020A9
:10439000002105F103090027079088F80010E01CB0
:1043A000002195F802B006900020CDF80CB00491E1
:1043B000BBF1000F00F00C86CDF8149019F8015BEA
:1043C000A90711D46FB3B8F81400471C0E2008A930
:1043D00001F074FF02281FD1013F00F0278501F092
:1043E00026FEF3D000F022BDA7B105F01101B8F808
:1043F000140001292ED1471C284608A901F05EFFB0
:10440000022845D1013F00F0118501F010FEF3D0E4
:1044100000F00CBD00274BE0012840F03F8501F083
:10442000C3FD0599D1F8010001F10509A90608901D
:1044300022D4B8F81400471C284608A901F03EFF12
:1044400002281DD1013F00F02B8501F0F0FDF3D0D3
:1044500000F026BD474600F101080E2008A901F032
:104460002DFF022816D1B8F1010800F01385387825
:104470000028F2D000F00EBD0027C8F818008AE02E
:10448000012840F00985012100270120049183E0E3
:10449000012701E0B8460027012840F09B850898D5
:1044A000069908700898000A487001F09FFD06916F
:1044B000E90613D4B8F81410EA072BD102974F1C61
:1044C000284608A901F0FAFE022829D1013F00F090
:1044D0007C8501F0D4FDF3D000F078BDB8F816006B
:1044E0000190059800F10509D0F801000590E80752
:1044F00002971FD0B8F81400471C284601F0B9FDF8
:10450000022814D1013F00F0608501F0B8FDF4D01D
:1045100000F05CBD002F4AD00021049101273BE050
:10452000029F012840F0568501F03EFD31E0012850
:1045300040F04C85B8F81400471C284608A901F043
:10454000BDFE022806D1013F16D098F800100029C0
:10455000F3D011E001280FD1D8F81810089A1140B3
:10456000059A914238D0019A52B1013A019298F8D5
:104570000020002ADED003E0D8F81810089A114075
:10458000059A914218BF40F01000029F012840F0A8
:10459000218500200490012007990131079198F8A6
:1045A0000010002940F01685ABF1010B00E74F1C0D
:1045B000284601F05EFD022807D1013F00F070841B
:1045C00001F05DFDF4D000F067BC012840F0648488
:1045D000002004900120A1E70599D1E7DFF8F47BE2
:1045E0003879022800F01183012840F052834FF0FF
:1045F000000B87F800B0271DB5F80280B8F1000F56
:1046000000F0128495F804905FEA897000F110843C
:10461000079747464FF0000B0DF120080697002F33
:1046200000F03085301D013F059070680890DFF87C
:10463000A40B808A461C4846414601F03FFE0228F2
:1046400008D1013E00F0F983DFF8880B00780028DC
:10465000F1D0F2E3012840F0F183059E0BF1010B4C
:10466000DDE7FF2020704FF0011000F087BD00BF94
:10467000322E302E080801409C000020DFF8540B39
:104680000179022900F00B83012940F01683D5F847
:1046900002000024089008A9002001F00FFE8AF80B
:1046A00000400DE3DFF8300BDF490068B0FBF1F0AC
:1046B00003210230B0FBF1F0B5F801104843401E71
:1046C000FDD100208AF80000D84800F055BD002038
:1046D000A4F80100022000F04FBDAE78D5F803C069
:1046E0006978D34816F0010200F00583CB0740F04B
:1046F00000832023C360FEE2D5F80100002800F00B
:10470000E280DFF8D41A0968B0EB910F80F0E38201
:1047100000EB5101DFF8BC2A00230139B1FBF0F1B5
:10472000537103220120022988BFB1FBF2F0D6E2C7
:104730006C78A91C002C08BF4FF48074204602F04E
:1047400081F800208AF800004FF4604000EB44300C
:1047500000F4FE0000F1011000F00EBD3078DFF82B
:10476000742AC0F3800100F0030001305177107704
:104770000020A5E00020AE1C4FF001084FF0010919
:10478000607002346F78002F7ED016F8015B2246ED
:104790002846314601F076F815F03F0000F1070099
:1047A0004FEAD00008BF082015F080011CBF8144EB
:1047B000044406444044013F00F10108E3E76878FF
:1047C000DFF8102AAB1C0021002490772032A04291
:1047D0005ED01D5D02EB44067180155529440134FD
:1047E000F5E7DFF8F0090179022968D13178C1775E
:1047F000807F814263D20E2000F0EAFE00F0DEFFEF
:104800000021A0706170010E6171010C000AE0705E
:104810008848217100F0B0BC0020AE1C04F10209F0
:104820004FF0010A4FF0010860706878C0F1010490
:10483000012C37D016F8015B15F03F0000F107009E
:104840004FEAD00708BF082715F0800B02D101F00E
:1048500035FC01E001F02CFC284631464A4601F0C7
:10486000DDFC0CB901F02AFCBBF1000F06D10AEB0C
:1048700007003E44013400F1010AD9E7B844B944C5
:1048800060420AF1010AD1E749EA084000F074BC2D
:10489000002398420AD0D55C02EB43040133491B44
:1048A000A180F6E748EA0A4000F066BC00218AF8D9
:1048B00000104FF0011101EB004000F05DBCFF2043
:1048C0008AF8000014E0FF200DE2A878C00740F04D
:1048D000A08259484FF480510160F2E6FF20F1E6D2
:1048E000DFF8F0080224047101F0EEFB8AF80040C2
:1048F0004FF0011000F040BC002704F1030988F8D4
:104900000070687898F81E10884288F81F0080F0C0
:10491000878295F80280CDF8149005F103090027ED
:104920000522002000210023CDF808800793B8F16C
:10493000000F00F0A383CB461BF8015B284662F30F
:104940005F000490A807069719D4002948D007985B
:104950000A2801D001F085FBDFF87808808A471C1F
:104960000E2008A900F0DCFF02282CD1013F00F046
:104970009A82DFF8600800780028F1D093E2D9B17C
:104980000498079905F010020192484010430090E6
:10499000DFF84008878A51D10137284608A900F07E
:1049A000BFFF02286ED1013F00F07F82DFF82408AC
:1049B00000780028F1D078E20799E80640F1DF801E
:1049C000002003907BE0069F012840F0F98201F06F
:1049D0005BFB9070D17004320A200592052207908B
:1049E000D9F8010009F1050BA90608903AD40498FA
:1049F0000799DDF81490814202D0049800F0E8FD98
:104A0000DFF8D007808A471C284608A900F088FFF5
:104A100002282FD1013F00F0C482DFF8B8070078E8
:104A20000028F1D0BDE200BF40420F0001000200AB
:104A30000808014005000100140C01400A2901D0BA
:104A400001F00FFB01370E2008A900F069FF0228D2
:104A50001AD1013F00F0AC82DFF878070078002817
:104A6000F1D0A5E2DFF86C17886100200390DDF833
:104A70001490AAE0069F01284FF0050240F0F98249
:104A800000209DE0012102E00A210791002103910D
:104A90000128069F40F01C8301F0F6FAD170907057
:104AA00004320592019848B900980522B0FA80F0C6
:104AB000400963D00120DFF81C17D7E70799DFF81A
:104AC0001407C08A0190D9F8010007900498814228
:104AD00002D0049800F07CFDDFF8F80609F1050B20
:104AE000DDF81490808A471C284601F0C5FA022898
:104AF00008D1013F00F05782DFF8D806007800287F
:104B0000F2D050E2012840F04F82DFF8C806808AD8
:104B1000471C284608A900F003FF022807D1013FDF
:104B20001DD0DFF8B01609780029F2D017E001286F
:104B300015D1DFF8A016089A89691140079A9142A9
:104B400050D0019A002A4ED0019A013A0192DFF822
:104B500084261278DDF81490002AD6D004E0DFF81D
:104B60007416089A89691140079A914218BF40F05B
:104B70001000069F0522012823D07CE207990498A3
:104B8000DDF81490814202D0049800F021FDDFF896
:104B90004406808A471C284601F06EFA022808D194
:104BA000013F00F0FE81DFF82C0600780028F2D0EB
:104BB000F7E1069F01284FF0050240F05A820120DC
:104BC00003900498DFF80C160790CDF81490013785
:104BD0000878002840F07B820399A8F101080120A1
:104BE000D946A4E60799DDF81490BDE7A978E81C3A
:104BF000002969D0421D10F8013BDD0648BF104670
:104C00009B0758BF10460139F2E74FF0000B04F143
:104C1000040887F800B03078B97F8842F87780F0D0
:104C2000118168880028079000F00A8195F80490A7
:104C300009F0010005900A3000F0CAFC5FEA8970B3
:104C400000F10281CDF818804FF0000B0DF1200823
:104C50000798002800F0298201380490301D039045
:104C600070680890B88A461C4846414600F058FED5
:104C7000022806D1013E00F04A8138780028F3D09E
:104C800045E1012840F04481DDE903600BF1010BAF
:104C9000DFE70020E070A4F80100032072E1317822
:104CA000C177807F814208D2082000F091FCD5F8BE
:104CB000020001F063F8FFF75DBBFF208AF80000F7
:104CC000CC4800F5403057E2801B00210004A4F8D6
:104CD0000110023050E2DFF8FC1401204871DFF8C7
:104CE000F414886000208AF80000C24800F5003003
:104CF00042E22023836016F0020306D08C0702D420
:104D00008024C46001E08024846016F0040906D089
:104D10004C0702D40424C46001E00424846016F02B
:104D2000800E1DD04CB2B4F1FF3F17DD0224C460E9
:104D300016E04020608002200BE0DFF89C14332254
:104D40000968002908BF1322027001E040210170A8
:104D500001208AF8000000F102100FE202248460B2
:104D6000BCF1000F39D006F0200401F0E005A24F9D
:104D70004FEA91084FEA510B4FEAD11CB4FA84F480
:104D8000B5FA85F564096D0945EA04063C6822B167
:104D90004568C5F34015A9421CD123B10568C5F388
:104DA000C015AB4516D1B9F1000F01D156B911E0CC
:104DB0004568C5F38005A8EB0505B5FA85F56D09CD
:104DC0002E4207D0BEF1000F07D00568C5F340059D
:104DD000AC4502D03D68A542D9D04168026843681D
:104DE00004680825006805EAD4140225C1F34011BF
:104DF00000F0020005EA9212114403F0040211448B
:104E0000214441EA80108AF800007A4800F58020A9
:104E1000B2E17A484FF48051C0F80814FFF751BC52
:104E200005F1020B00209FE10020A7E0012738E0F8
:104E30005FEAC9701AD1002073E00220079F9DE04D
:104E40004FF0000B002065E0B88A4FF0000B461CC5
:104E5000484601F011F9022829D1013E02D03878E4
:104E60000028F5D002204FF0000B53E0D9484FF056
:104E7000000B808A461C484601F0FBF802284ED100
:104E8000013E03D0D34800780028F4D002204FF030
:104E9000000B73E00220B84600279BE0012799E051
:104EA0000027022096E00A200790012083E00128D5
:104EB00030D1079E4FF0000B002E00F06A81013EBA
:104EC00008BF4FF00E090598CDF8188020B11EB923
:104ED00001F0C7F84FF00E09B88A00F10108484602
:104EE00008A900F01DFD022807D1B8F101080ED075
:104EF000397802200029F2D00AE0012808D1089868
:104F0000DDF818800BF1010B48F8040BD4E7022000
:104F1000DDF8188001F0C4F8A8EB0A0032E001289F
:104F20002CD14FF0000B4646CDF81880002E00F033
:104F3000B980013E5FEAC970484618BF0E20002EB6
:104F400008BF8146A348808A00F10108484608A9A5
:104F500001F0B4F9022807D1B8F101080DD09D483D
:104F600000780028F2D008E0012807D108980BF15A
:104F7000010B47F8040B0120D8E7022001F090F85C
:104F8000A7EB0A00297989074FBF40F48020A97850
:104F9000EA7892065EBF42EA814101F5802108432A
:104FA000EAE000200390022004990791069F91E017
:104FB0000A200790002003900220DDE9059789E090
:104FC0000A2107910121039182E00220029F01E062
:104FD0000399079100218B4512D009F1050219F8B8
:104FE000013BDD0648BF91469B0758BF9146013102
:104FF000F1E700BF01000200041000E008080140D2
:1050000001282DD17FB1B8F8140008AD471C0E203F
:10501000294601F053F9022816D1013F12D001F0C0
:1050200006F8F4D00EE00498C8B1B8F81400451C96
:105030000E2001F01EF8022812D1013D02D000F02E
:10504000F6FFF5D002200BE0079A012805D1089859
:105050000699088000F0CAFF04E0069902E00120EA
:10506000DDE90612A070A9EB0600A1EB0A0162704F
:1050700080E000210391049907912BE00391CB4636
:10508000029F25E05348808A461C0E2000F0F1FF65
:10509000022877D1013E74D04E48017802200029C1
:1050A000F3D06FE0DDF818B068E7059808B100F0BC
:1050B000D8FFB88A461C0E2000F0DEFF022865D11A
:1050C000013E62D0397802200029F4D05EE0012050
:1050D000DDF81490002188450BD00BF105021BF878
:1050E000013BDD0648BF93469B0758BF93460131FD
:1050F000F1E7012838D107980A2801D000F0B1FF64
:10510000DFF8D0800399B8F8140079B10697471CEE
:1051100008AD0E20294600F003FC022813D1013F00
:1051200002D000F084FFF4D0069F0AE0451C0E2058
:1051300000F0A2FF022817D1013D02D000F077FF56
:10514000F5D0022010E0069F01280DD10898A9F89B
:105150000000BDF8220089F802009DF8230089F8BC
:10516000030009F104090120A070ABEB0600A9EBD4
:105170000A01677041EA004000F1011009B0BDE882
:10518000F08F0220DDF818B058E60220DDF81CB0E0
:10519000BEE6DDF81CB00120BCE600BF0078087058
:1051A0004FF00110704700F076BF0000094801225F
:1051B000002182836422818081770174C0E9052106
:1051C0000549064A0968B1FBF2F10239816000F035
:1051D000A7BF00BF9C0000200000002080841E00AC
:1051E0007047000004490A680B689B1A834228BF75
:1051F000704700BFF8E700BF48220020F8B51F4DF8
:10520000002180224FF6FF7405F17C0005F17E033A
:1052100008290BD002F4607647881E4336880FB900
:10522000A64210D0803280300131F1E7124E0020CA
:10523000308000F0B3F8308805EBC01000F06EF855
:1052400000F098F802E00C4A118004882046F8BD6E
:1052500009480022018801F007010180074840EA5F
:10526000C1100A490968802A03D0835A8B5202323E
:10527000F9E7B1F87C00704740220020003C0008AC
:105280000249C0B2096851F81000704704000020BC
:1052900001490860704700BF140401401CB54FF479
:1052A00080204FF48024FFF7F3FF4FF484700094C4
:1052B000ADF80500684600F001F81CBD10B5827914
:1052C0001549E2B102680B6893430B604B68934346
:1052D0004B6003790B431C6822431A6002688B6899
:1052E00093438B60CB689343CB60407910280ED1F9
:1052F000886810438860C8681043C86010BD027990
:10530000006811430A6822EA0000086010BD0843E3
:1053100001681143016010BD00040140B0B50446AE
:1053200000F05AFE042810D11B4D286840F00200FE
:1053300028606C60286840F04000286000F04CFE57
:10534000296841F6FD7211402960B0BD0848016826
:10535000C9071CBF012070470168490744BF0220EC
:1053600070470068C0064FF0030058BF0420704724
:105370000C200240084800F077BE00BF70B500F076
:1053800067FE042807D1044E00F042FE316841F662
:10539000FE721140316070BD102002400248034986
:1053A0000160034901607047042002402301674502
:1053B000AB89EFCD10B50446FFF7C8FF24B1C1B2E9
:1053C000012901D1013CF7E7002C08BF0520C0B23C
:1053D00010BD80B500F0F4FE00F080FDBDE8804017
:1053E00000F0C0BE2DE9F04391F8039009F00F08DA
:1053F0005FEAC96344BF8B7848EA030809880B0653
:1054000021D0046800254FF0010E4FF00F0C00274B
:10541000082F17D00EFA07F30B4210D00CFA05F242
:1054200008FA05F6B9F1480F24EA020242EA060436
:1054300004D0B9F1280F08BF436100E003610435CF
:105440000137E5E70460B1F5807F23D34468002588
:105450004FF4807E4FF00F0C0027082F19D00EFA62
:1054600007F606EA0102B24210D10CFA05F308FA77
:1054700005F2B9F1480F24EA030343EA020404D019
:10548000B9F1280F08BF466100E006610435013715
:10549000E3E74460BDE8F08301617047F8B5027846
:1054A00002F0F803D02B13D10D4605F8012B02783A
:1054B000D03A072A0AD8DFE802F0040F1215431A7F
:1054C0003A6935480068C1F801000531FF2239E02A
:1054D000BDE8F840FEF7BEBEFFF760FF30E0FFF723
:1054E00049FF2DE0D0F80100FFF718FF28E0B0F8E1
:1054F0000560382E24D8D0F80140C71D30041FD0D5
:105500003946B2B211F8010B012A02D100260F462A
:1055100004E07978023E023740EA012081B2204659
:10552000FFF72CFF0234FF220428E7D009E0B0F88F
:1055300005303E2B04D8D0F80100154A904203D222
:10554000FF2229460A70F8BD124CA04208BF042B66
:1055500014D0002402F5807290424C7038BF00F5E0
:1055600080300231FF221C04ECD0013B1C040EBF32
:10557000027810F8014B01F8014BF4E70020487164
:105580004FF48C40C1F8010006319FE701F0A6FA04
:10559000004000081C900008002004E0FEE7000026
:1055A0000A484AF6AA210160704700BF0149086015
:1055B000704700BF0430004001490860704700BFD9
:1055C0000830004001490860704700BF00300040CB
:1055D00070B5694980242023DFF8DC2C0C604B6017
:1055E00055785DB30B604B600B604C6004244B60DE
:1055F0000B604B600B600C60D57E02EB4504E68BC4
:105600001EB14B600B60013EFAE72A4404232025BB
:10561000127F013A42B1C6070CBF4B600B604D6070
:105620000D60013A4008F5E7228C002A00F057800F
:10563000C00740F05B800420486059E055686D1E4B
:10564000FDD10B6055686D1EFDD14B6055686D1E18
:10565000FDD10B6055686D1EFDD14C604B605468E8
:10566000641EFDD10B605468641EFDD14B6054680C
:10567000641EFDD10B605468641EFDD104240C60CF
:10568000D47E02EB4404E48B4CB14B60013C556882
:105690006D1EFDD10B6055686D1EFDD1F4E7D37E04
:1056A0000424202513441B7F013B73B1C6070CBFA4
:1056B0004C600C604D605668013B4008761EFDD181
:1056C0000D605668761EFDD1EFE7D37E02EB4303F3
:1056D0001B8CD3B1C0071FD1042048601EE080227C
:1056E000C0070A603BD1042048603AE0042008600B
:1056F000202048600860501E04220A6018B1202251
:1057000001384A60F9E780202AE08023C0070B6057
:1057100034D10420486033E0042008602020486031
:105720005468641EFDD108605468641EFDD10424D1
:105730000C60013B43B148605468641EFDD10860B1
:105740005468641EFDD1F4E78020086000F040FC3E
:105750005B1EFDD108605068401EFDD118E004209A
:1057600008602020802248600860486008604A6025
:10577000486008601EE000BF100801400420086077
:1057800000F026FC5B1EFDD108605068401EFDD174
:1057900000F01EFC5B1EFDD1086053685B1EFDD14E
:1057A00080234B60486053685B1EFDD108605068E1
:1057B000401EFDD10420086070BD00BF70B5EB48ED
:1057C000802320225549036042604C68641EFDD14D
:1057D00002604C68641EFDD1436042604B685B1EF2
:1057E000FDD102604B685B1EFDD142604B685B1EC1
:1057F000FDD102604B685B1EFDD1CB7E4BB1426098
:10580000013B4C68641EFDD102604C68641EFDD1F2
:10581000F4E700226FF01E03202483B144600133BB
:105820004D686D1EFDD150F8085C04604E6805F4AB
:105830008065761EFDD142EA45525208EDE780238D
:105840002024036044604D686D1EFDD150F8085C53
:1058500004604E68761EFDD144604E68761EFDD110
:1058600004604E68761EFDD1436044604B685B1E49
:10587000FDD104604868401EFDD105F4806042EA15
:10588000405070BD2DE9F04F10F03F0BDFF8ACAF8A
:1058900000F0800C4FF0040E4FF020094FF080080C
:1058A0004FF0800508BF4FF0400B4406AF4C54BF8B
:1058B00065602560BBF1000F08BFBDE8F08F0E7872
:1058C0000025002019E0F7070CBFC4F804E0C4F875
:1058D00000E0C4F80490DAF80470013576087F1E01
:1058E000FDD154F8087CC4F80090DAF804305B1E4F
:1058F000FDD108EAD70343EA5000AB4518BF082D95
:10590000E1D10131ABEB050BBCF1000FD2D0C5F1F9
:105910000803D84002F8010BCCE700BFA00000202C
:105920002DE9F041914B80252022DFF8584F1D6072
:105930005A6066780EB31A605D605A601A605A60E9
:105940001A6094F81BE076461EB15A601A60013E58
:10595000FAE7042210F002080CBF5A601A602022F5
:105960005A6053F8087C1A60022202EA572247075D
:1059700000F1408004275F603EE06668761EFDD13E
:105980001A606668761EFDD15D605A6065686D1E9E
:10599000FDD11A6065686D1EFDD15A6065686D1E87
:1059A000FDD11A6065686D1EFDD1E57E4DB15A606E
:1059B000013D6668761EFDD11A606668761EFDD1CF
:1059C000F4E7042210F0020E0CBF5A601A60202285
:1059D0005A606668761EFDD153F8086C1A606268DA
:1059E000521EFDD1022202EA562246073AD404266C
:1059F0005E6039E004271F6020275F6053F8085C71
:105A00001F60C5F380252A43050702D404255D6085
:105A100001E004251D60202704265F6053F8085C20
:105A20001F6006EA152502EB050CBCF1010F14D12D
:105A3000B8F1000F40F0668009686FF01E06042779
:105A40002022002E00F06E80CD070CBF5F601F602B
:105A50005A601A6001364908F3E7802119605F60D7
:105A60001F603FE104261E6020265E6067687F1E7F
:105A7000FDD153F8087C1E606668761EFDD1C7F321
:105A800080263243060702D404265E6001E0042625
:105A90001E6020265E6067687F1EFDD153F8087C7B
:105AA0001E6065686D1EFDD1042505EA172502EB11
:105AB000050CBCF1010F1AD1BEF1000F40F0588067
:105AC00009686FF01E0504262027002D00F068806D
:105AD000CA070CBF5E601E605F60626801354908DE
:105AE000521EFDD11F606268521EFDD1EDE780217C
:105AF00019605E606168491EFDD11E606168491EC3
:105B0000FDD110E100266FF01E022027B2B15F60C8
:105B1000013253F8085C1F6005F4806546EA45557C
:105B20006E08F3E7A27E6FEA0E05AD1800F0628002
:105B3000C90740F084800421596082E0A77E6FEAA3
:105B40000E02D21900F05E802022AEEB07055A60EB
:105B5000AF1C53F8085C1A6017B15A600137FAE7B6
:105B600080221A6020225A6052E000BF10080140D3
:105B70004FF000086FF01E062022EEB15A60013689
:105B800067687F1EFDD153F8087C1A6065686D1E3A
:105B9000FDD107F4806548EA45554FEA5508ECE722
:105BA000E57EA27EEE43B61800F05580C90740F0AE
:105BB0007080042159606EE0E67EA27EF543AD1848
:105BC00000F051802027B21A5F60023265686D1EB6
:105BD000FDD153F808EC1F6065686D1EFDD112B34E
:105BE0005F60013265686D1EFDD11F6065686D1EC6
:105BF000FDD1F4E78022C9071A6040F06E800421CD
:105C000059606CE080221A6020225A6053F8085CC8
:105C1000202200291A6000F0658005F4806246EABF
:105C200042520A605EE080221A6020225A60656853
:105C30006D1EFDD11A606268521EFDD120E0042164
:105C40001960AEEB02012022013101315A601A6065
:105C5000FBD3802142E08022C9071A6040F05880BF
:105C60000421596056E080221A6020225A6065683B
:105C70006D1EFDD153F808EC1A606268521EFDD10A
:105C8000002900F050800EF4806248EA42520A6017
:105C900049E0042119602021AA1A5960023266687D
:105CA000761EFDD119606668761EFDD14AB1596035
:105CB000013265686D1EFDD1196065686D1EFDD1EC
:105CC000F4E780211960202159606268521EFDD1DD
:105CD00019606168491EFDD125E004211960202169
:105CE0005960196020218022596019605A6004228D
:105CF0005960196000061A6002D51F480068A0604C
:105D0000207B002800F03580596019600138F8E7E1
:105D100004211960202159606268521EFDD119606A
:105D20006168491EFDD1202159606268521EFDD173
:105D300019606268521EFDD180225A605960626803
:105D4000521EFDD119606268521EFDD10422000668
:105D50001A6002D508480068A060207B48B15960ED
:105D600001386268521EFDD119606268521EFDD171
:105D7000F4E76046BDE8F081041000E070B55549D5
:105D800080242023544A0C604B6055686D1EFDD161
:105D90000B6055686D1EFDD14C604B605468641EED
:105DA000FDD10B605468641EFDD14B605468641EC5
:105DB000FDD10B605468641EFDD1D47E4CB14B60A4
:105DC000013C55686D1EFDD10B6055686D1EFDD1FF
:105DD000F4E7042320244B604C6055686D1EFDD110
:105DE0000C6055686D1EFDD14C6055686D1EFDD16F
:105DF0000C6055686D1EFDD14C6055686D1EFDD15F
:105E00000C6055686D1EFDD16FF01E0575B1C6079B
:105E10000CBF4B600B604C60566801354008761E25
:105E2000FDD10C605668761EFDD1EFE7D47E937EDF
:105E3000E543ED1804D0C00709D10420486008E00C
:105E40008023C0070B6025D10420486024E0042093
:105E500008602020E31A4860023355686D1EFDD1AA
:105E6000086055686D1EFDD14BB148600133546820
:105E7000641EFDD108605468641EFDD1F4E78020E3
:105E8000086000F0A5F85B1EFDD108605068401E58
:105E9000FDD109E00420086000F09AF85B1EFDD1F6
:105EA00008605068401EFDD100F092F85B1EFDD1E5
:105EB000086053685B1EFDD180234B6048605368C7
:105EC0005B1EFDD108605068401EFDD104200860B3
:105ED00070BD00BF10080140A00000201CB508489C
:105EE000BC4C019000F57060009001A92046FFF7BE
:105EF00079FA04F580606946FFF774FA1CBD00BFAB
:105F000000010210FEE77047E0B54FF4A06000F01A
:105F100031F80348019001A800F004F88CBD00BFDF
:105F20001401000170B5C2781149A2B1154A0723C6
:105F3000126845788678047823EA12220F23D3402A
:105F4000C2F10402334005FA02F21A430B1912019E
:105F500083F8002300E080310078012300F01F0265
:105F6000C0F3421003FA02F241F8202070BD00BFD6
:105F700000E100E00249084302490860704700BFA1
:105F80000000FA050CED00E005EB8500324604EB5D
:105F90008000006C00F0CCBF48F6BF720168114071
:105FA00081F03001016070BD08980699087008986A
:105FB000000A4870BDF8220088709DF82300C87060
:105FC00004310691704779600138DBF8042070478E
:105FD00020204860536870474FF43020FFF7EAB93B
:105FE000002148F6BF72006881807047BDF822002A
:105FF00088709DF82300C870043101207047396013
:10600000DBF804207047016862F31F71016070477C
:10601000306840F0010030604FF400502C80FFF7F2
:10602000C9B90168114081F03001016080BD98F864
:10603000000000287047D8F8001000206FF01F0201
:10604000802320267047206101206561FFF7CAB8D0
:1060500005464FF400500C46FFF7ACB9002101F0A3
:10606000ABB80A20FFF7B4BA016841F080010160C3
:106070007047002100F022B90021FFF751BC98F8C9
:1060800000100220002970470898059A108008988F
:10609000010E000C7047FF2008704FF00110704790
:1060A000E0704FEA1B2084F801B0A0707047000038
:1060B0004848802108220161FFF7A5BF454880219B
:1060C00002224161FFF79FBFB0B586B01348414C33
:1060D0003A4D00F11C01059100F17C010491354914
:1060E000CDE902013448019005A92046A84704A93A
:1060F0002046A84703A92046A84702A92046A8474A
:1061000001A92046A8472020022520618020206187
:106110000420FFF798FF256106B0B0BD040002100F
:10612000B0B586B00E482B4C244D0590224800F1A6
:106130007E010491811C03911E49CDE9010105A94D
:106140002046A84704A92046A84702A92046A847F8
:1061500003A92046A84701A92046A84706B0B0BD1C
:1061600020000228B0B586B011481A4C134D059096
:10617000603004900F4803900F48811CCDE9010165
:1061800005A92046A84704A92046A84703A92046F8
:10619000A84702A92046A84701A92046A8472020D1
:1061A000022520618020FFF74EFF256106B0B0BDBB
:1061B000200002100004024802000248E5530108D2
:1061C000E0B503480190034801A9FFF70BF98CBD26
:1061D000000202100008014070470000044A002934
:1061E00011680CBF21EA000008431060704700BF2F
:1061F0001C100240044A002911680CBF21EA00006B
:1062000008431060704700BF181002400149086041
:10621000704700BFD800424270470000F0B510F050
:106220003F0308BF40230006AE481FD4224D4FF065
:10623000800C2024002B3DD00F7800260FE0FA07B9
:106240000CBFC0F804C0C0F800C044606A680136E2
:106250007F08521EFDD104606A68521EFDD1B34210
:1062600018BF082EEBD19B1B0131E3E7124C4FF016
:10627000200CFBB10025002610E0C0F804C0013559
:1062800067687F1EFDD150F8087CC0F800C06168C7
:10629000491EFDD107F0800141EA5606AB4218BF06
:1062A000082DEAD1C5F108015B1B26FA01F102F8BD
:1062B000011BDEE7F0BD00BFA00000202DE9F84F74
:1062C000884F82468020DFF8BCB5884638602020A1
:1062D00078609BF8011031B138605FEACA7012D162
:1062E0008020786011E0DBF80410491EFDD1386091
:1062F000DBF80400401EFDD15FEACA7040F09F80C9
:10630000802078609DE080203860202080211AF075
:106310000209786038604FEA5A000CBF7960396032
:1063200020215044796039604FEA9A015FEA4A724D
:1063300002D480227A6001E080223A602022084460
:106340004FEADA017A603A605FEA0A7202D4802288
:106350007A6001E080223A6020220844C0077A6017
:106360003A6002D18020786001E0802038602026E9
:1063700080207E603E6078607E603E6038607E6037
:106380003E60FFF795FE9BF8180001467E6011B154
:106390003E600139FAE7202257F8081C3A607A601B
:1063A00057F8083C3A607A60C1F3C01157F8084CBE
:1063B0003A60022202EA93121144042202EA5412C1
:1063C0008E18042E18BF022E2AD1B9F1000F0ED05C
:1063D0009BF8191059B16FF02001202239B17A6071
:1063E0003A600131FAE720210138796039600028EC
:1063F000F9D1FFF763FEB9F1000F40F040819BF83F
:106400001900002800F03B818020202178606FF087
:106410002000002800F03381796039600130F8E70E
:10642000012E40F01581B9F1000F40F02D8120219F
:10643000002800F03C81796039600138F8E780205D
:10644000386020207860DBF80410491EFDD13860E8
:10645000DBF804008021401EFDD11AF002090CBFB8
:10646000796039604FEA5A00202150447960DBF8A6
:106470000420521EFDD13960DBF80410491EFDD105
:106480004FEA9A015FEA4A7202D480227A6001E000
:1064900080223A60202208444FEADA017A60DBF871
:1064A00004305B1EFDD13A60DBF80420521EFDD1A2
:1064B0005FEA0A7202D480227A6001E080223A60A8
:1064C000202208447A60DBF804305B1EFDD13A607C
:1064D000DBF80420521EFDD1C00705D18020786072
:1064E00004E000BF100801408020386020267E6054
:1064F000DBF80400401EFDD13E60DBF80400401EC6
:10650000FDD1802078607E60DBF80410491EFDD14B
:106510003E60DBF80410491EFDD138607E60DBF878
:106520000400401EFDD13E60DBF80400401EFDD19A
:10653000FFF7BEFD9BF818007E60DBF80410491ED3
:10654000FDD130B13E600138DBF80410491EFDD1A9
:10655000F2E7202157F8080CFFF751FDC0F3C010F7
:10656000521EFDD17960DBF80420521EFDD157F890
:10657000082C3960DBF804305B1EFDD17960DBF854
:1065800004305B1EFDD157F8083C3960DBF804107D
:10659000491EFDD1022101EA92110844042101EAB9
:1065A00053114618042E18BF022E3CD1B9F1000F2A
:1065B00011D09BF8190070B16FF02000202150B16C
:1065C00079600130DBF80420521EFDD1FFF717FD82
:1065D000521EFDD1F3E79BF81800202140B1FFF7D0
:1065E000F2FC521EFDD1FFF70AFD521EFDD1F5E768
:1065F000FFF764FDB9F1000F41D19BF819000028A5
:106600003DD08020202178606FF02000002836D017
:1066100079600130DBF80420521EFDD1FFF7EFFC5A
:10662000521EFDD1F2E7012E19D1B9F1000F40F051
:1066300067809BF818002021002800F07D80FFF77C
:10664000C2FC521EFDD1FFF7DAFC521EFDD1F3E76A
:106650002130202188B1796039600138FAE79BF850
:1066600018002021213040B1FFF7ADFC521EFDD1B2
:10667000FFF7C5FC521EFDD1F5E7FFF71FFD802097
:1066800038603046BDE8F88F00216FF01F022026E9
:1066900000237E6057F8084CE409BAB1E50704F01E
:1066A00001043E60013245EA51012344F1E7FFF75E
:1066B00005FDFFF7C0FCD2B1CC070CBF7B603B608F
:1066C0007E6008443E6001324908F4E720226340BE
:1066D0000826DB073A6008BF0126B8F1000F18BF93
:1066E000C8F8001048B17A603A600138FAE7C0078C
:1066F00040F05E80802078605CE0FFF7DFFC5DE0CA
:1067000000206FF01F01202300227B60DBF8044093
:10671000641EFDD157F8084CE609002924D03B60DF
:106720000131DBF80440641EFDD1F40744EA500057
:1067300006F001042244E8E7FFF7C0FCFFF77BFC0A
:10674000002A2DD0CC070CBF7B603B607E600844E4
:10675000DBF8044001324908641EFDD13E60DBF8DD
:106760000440641EFDD1EBE7202172400826396009
:10677000DBF804305B1EFDD1D20708BF0126B8F15B
:10678000000F18BFC8F800009BF8180068B1FFF7A9
:106790001AFC521EFDD1FFF732FC521EFDD1F5E767
:1067A000C00721D18020786020E0FFF787FC29E036
:1067B0008020386020200126786038605FEA0A6017
:1067C00003D51F480068CBF808009BF80C00002890
:1067D0003FF455AF80217960202100283FF44FAF6E
:1067E000796039600138F8E7802038602020012680
:1067F0007860DBF80410491EFDD13860DBF8040036
:10680000401EFDD15FEA0A6003D50D480068CBF851
:1068100008009BF80C0000283FF431AF802179601C
:10682000202100283FF42BAFFFF7CDFB521EFDD1F6
:10683000FFF7E5FB521EFDD1F3E700BFA0000020EB
:10684000041000E0F0B5A44A0E4E00234FF0800C77
:1068500020250027A8B117B911F8013B0827DC074C
:106860000CBFC2F804C0C2F800C05560746801389B
:10687000013F5B08641EFDD115607468641EFDD184
:10688000E8E7F0BDA000002000F07CBA82B03548F7
:10689000354A016841F00101016041681140334A05
:1068A0004160016811400160016821F480210160AC
:1068B000416821F4FE0141604FF41F018160002115
:1068C00001910091016841F480310160016801F497
:1068D00000310091019901310191009919B9019993
:1068E000B1F5A06FF2D10168890354BF00210121E5
:1068F00000910099012930D11D490A6842F0100227
:106900000A600A6822F003020A600A6842F0020282
:106910000A604168416041684160416841F48061BA
:106920004160416821F47C114160416841F4E81103
:106930004160016841F08071016001688901FCD506
:10694000416821F003014160416841F0020141606A
:10695000416801F00C010829FAD106480649016096
:1069600002B07047001002400000FFF8FFFFF6FE83
:106970000020024008ED00E0004001082DE9F0474A
:106980004FF0FF3334244FF0000803EB920E9208CF
:10699000B4FBF2F250F82E5002F1050C224A924656
:1069A0005FEA0C6208BFBDE8F087D044ACF1010C8F
:1069B00000265246C8F38109F2B296451BDD02F06B
:1069C000030700EB8203013687EA09075B6851F889
:1069D000277083EA08046F403C44DF089B0087EA85
:1069E000051783EA55133B44634050F822401D19B4
:1069F00040F82250E0E702F00302036882EA09024D
:106A000051F82220DC089E0083EA080384EA05147A
:106A100086EA55166A4034441A4450F82E306240D3
:106A2000D51840F82E50BBE7B979379E0A484FF485
:106A30007A710068B0FBF1F00138B0F1807F00D3CB
:106A4000FEE70649F0224860054802700020886091
:106A500007200860704700BF0000002010E000E041
:106A600023ED00E070470000BC4800F0CFBD00BF40
:106A7000FEE780B545F25550FEF7A4FD0520FEF770
:106A800095FD40F27120FEF797FDBDE88040FEF7CE
:106A900087BD00002DE9F041B14C0F4EAF4F4FF0D4
:106AA00000084FF48075C4F800807878032808BF88
:106AB000BDE8F0812068411C3128216004D0042801
:106AC00005D028B9356003E0C4F8008000E07560A7
:106AD0000A20FEF787FBE8E7100801400648BFF3ED
:106AE0004F8F064A016801F4E06111430160BFF372
:106AF0004F8F00BFFDE700BF0CED00E00400FA057A
:106B0000002070470020704770B501291CBF02208B
:106B100070BD664D0446E888A988884208D3664A55
:106B2000012000210123002600F032FCA880EE8025
:106B3000A888402808D1604A20468121402300F0DF
:106B40000DFBE8884030E880002070BD7CB501294D
:106B500010D11C4E05460024022000214023009441
:106B6000324600F0B7FC284601213246402300F0AF
:106B7000DFFA00E0022420467CBD00BF10B5812171
:106B8000044600F0F3F92046012100F0EFF900205F
:106B900010BD0000B0B5464D0021044605F11B02B2
:106BA00000F00AFA05F122022046002100F004FA62
:106BB000044A20460121402300F0BAFA00F040FCCC
:106BC0000020B0BD7D010020B0B50A784B8812F0DE
:106BD00060044FEA132215D0202C59D14C78013C87
:106BE0000A2C36D8DFE804F0062E27353535353542
:106BF000393E2A00012A4ED0032A51D12B4901F1F6
:106C0000080249E04C780B2C0DD00A2C0FD0062C32
:106C10003ED1212A2FD0222A35D1CB88254A212BBB
:106C200028BF212331E02149D8B2C86230E01F4992
:106C300001F12C020AE01D4A916A05E01B4AD9B213
:106C4000916211E0194A516A02F8301F8021012334
:106C50001CE000F02FF902241BE014480169013107
:106C6000016115E011494A628021002200230024BD
:106C700000F074FA0DE0CB880D4901F11202092BE6
:106C800028BF092301E000230022802100F066FADA
:106C900000242046B0BD084A8121402300F05EFA5E
:106CA0000248C1680131C160F2E700BFCC0000209A
:106CB000BD7B0108E67B01083C010020FDF763FA7B
:106CC000FEF79CFAFEF7C4FAFFF71EF9FFF7AEFED7
:106CD000FEF77FFBFEF7E2FA1F4C4FF48078C4F812
:106CE0001080FEF763FAC4F81480FDF77DFA0A20DD
:106CF000FEF778FA194D284600F0A2F800F0A0FB44
:106D000020464FF40071FEF7C7FB05206870FFF7BF
:106D1000C1FE6420C4F81480FEF764FA104D114FD0
:106D20000020C5E90007FFF7A4FE0F4EFEF738FC70
:106D300000F092FB002838460BD1686828B1B042B9
:106D400006D1C4F81080686802E03846C4F81480A0
:106D500001386860EAE700BF000801401000002029
:106D6000C4000020400D0300A08601003C484FF6FF
:106D7000FB72016811404FF6F77201600168114023
:106D8000016070470248016801310160704700BF2F
:106D90004822002070B5044608780D4600F0030034
:106DA000022817D0012821D000283FD1607800F0B8
:106DB000FE00022819D16888022837D0012814D192
:106DC000626F002620462946E670904736480068E4
:106DD000868024E06178A88803290DD0022904D197
:106DE00040F08000C0B2802820D170BD60780328B8
:106DF00018D002281AD0F8E7698841B940F080011C
:106E0000C9B2802903D0C1B2204600F057F8626FA2
:106E10002046294690472448002100688180CE48BA
:106E2000FFF7BAB8A88810F0FE0FDED02046002188
:106E3000BDE8704000F0C0B9406E817811807047A5
:106E400010B507490122074B4FF41F440A60002286
:106E50000A604A600A611C60C2700C6010BD00BF0D
:106E6000405C00404422002010B50C4641780329C4
:106E700003D1A18811F0FE0F03D0FFF7EFF8002037
:106E800010BD426F214690470028F8D1E0880028C5
:106E9000F5D10548FFF7A4F8DF480168114081F0FB
:106EA00030010160EBE700BF2C7C0108006E017827
:106EB00011807047002100F07FB9000010B501F08B
:106EC0007F0249B2D44BB1F1FF3F16DD02EB8201E4
:106ED00000EB810000F1380143EA820002685204AD
:106EE00006D5026848F68F731A4002F580420260A8
:106EF0004FF440524BF68F7313E002EB820100EB2C
:106F0000810000F1100143EA82000268520605D5B3
:106F1000026848F68F731A4040320260302248F609
:106F2000BF7300240C70016819405140016010BD0E
:106F30009F4B01320130520803EB410142B10B6813
:106F4000013A1B0A00F8023B08C900F8033CF5E7C8
:106F5000704700BF964B0132520803EB410122B14A
:106F600030F8023B013A08C1F9E77047AA4B01F03B
:106F70007F0049B2B1F1FF3F53F8202043EA80007F
:106F80000BDD510406D5016848F68F72114001F5FA
:106F9000804101604BF68F7109E0510605D501680B
:106FA00048F68F7211404031016048F6BF710268A7
:106FB00011400160704700BFF0B5D77892F90260C8
:106FC00054A58E46524907F0030706F00F0455F802
:106FD0002750784F41EA84032543DD51A3F58063B0
:106FE000B6F1FF3F92882BDD8C4604EB84054E49B9
:106FF000BEF1010F00EB8500C2634DD1186848F661
:107000008F65284048F68F7500F580701860186805
:107010002840444D4030186020012E680D466146DE
:107020003F2A29462CF800603DD302F11F003F4D56
:1070300000EA01074FF0FF3000EB4710284338E02B
:1070400004EB840500EB85002501426135480132DF
:1070500006684E53344D1E352A40B5180560BEF102
:10706000010F1E681BD10D4648F68F61314001F5B6
:107070008071196001680A44026048F6BF7218689E
:10708000104080F03000186005EB041001814BF6D1
:107090008F711868084039E0224806680DE048F60C
:1070A000BF7030402DE001F11E00551C05EA0007BD
:1070B00078020CEB04153E44A8800CEB04143F2A24
:1070C000268109D302F11F004FF0FF32174D08400F
:1070D00002EB40122A4304E001F11E00013210408D
:1070E0004202A2810F4A304410604BF68F7218683A
:1070F0001040BEF1010F07D1186048F6BF71186843
:10710000084080F0200001E080F400501860F0BDDD
:1071100000600040000200000004000000000000C9
:107120000006000008000020E0FF01000080FFFFD3
:10713000B0B501F07F014BF68F7501EB810400EBD8
:1071400084004364344B53F821402C4084F4405471
:1071500043F821400264B0BD005C00407CB501F002
:107160007F05134E144605EB850100EB81000021DD
:10717000C0E9062301620191406998422CBF019346
:1071800001902801315A019882B22046FFF7E2FEB1
:10719000084A46EA8500019948F6BF74835823409F
:1071A00083F03003835046EA051081807CBD00BF28
:1071B0000060004000FCFFFFB0B54AB201F07F0460
:1071C000154948F6BF73B2F1FF3FC8BF4BF68F7346
:1071D00051F824502B401025B2F1FF3FC8BF4FF4A7
:1071E00080556B4041F8243004EB8403B2F1FF3F3B
:1071F00000EB830000F11003C8BF00F13803012049
:10720000187004B1B0BD08684BF6BF72104041F26F
:10721000100250400860B0BD005C0040E0B5C98875
:1072200000220192012907D14178032907D00229C0
:1072300002D101AA802104E0FEF710FF8CBD80215D
:1072400002460123FFF78AFF8CBD0000BCB504464F
:1072500008780D4600F00300012826D068BB688836
:107260000021ADF80610B1EB902F27D100F0FE0100
:10727000052923D8010A13A202EB81010DF10602B0
:1072800051F8043CC1B2204698470246BDF80600BA
:1072900098B1EB888BB1984238BF03462046ADF8D1
:1072A00006308021FFF75AFFBCBD626F2AB120462D
:1072B000294602B0BDE8B0401047BCBD2046FEF7ED
:1072C000CDFEBCBDAD6E0108396E0108F17A010832
:1072D0004278032A02D0022A04D070478A8812F02A
:1072E000FE0F02D00021FFF767BF426F002AF4D0E3
:1072F0001047E0B50022ADF80620ADF804200A786A
:1073000002F00302022A0DD0012A16D0FAB9417800
:1073100001F0FE01022915D1C178D9B10221ADF8E1
:10732000061017E042780979032A16D0022A09D1FB
:1073300041F08001802905D009E04278032A02D07B
:10734000022A04D08CBD898811F0FE0F02D0FEF70E
:1073500085FE8CBD0DF1060214E00A0606D401EB91
:10736000810100EB810191F8381006E001F07F0106
:1073700001EB810100EB8101097C11B10121ADF824
:10738000041001AA80210223FFF7E8FE8CBD000053
:1073900010B501460020012908BF012B00D010BD07
:1073A000614C206AE169884201D1A078B8B1206AB5
:1073B000474901EB801110464022FCF7BFFE206ACE
:1073C00001302062206A402804BF00202062206A29
:1073D000E169884204BF0020A070402010BD012058
:1073E0006070002010BD00BF70B5402A0EDC12484E
:1073F00014464278032A09D14B4EB28842B14278F2
:10740000032AFAD00020F080B08070BD002070BD4B
:107410000A4D22462846FCF791FE0020A3B28121A6
:107420002A46F0800448B480FFF798FEF088204494
:10743000F080012070BD00BF100000203C01002042
:1074400039480021012201704161816142708170DF
:10745000C1610162704700BFB0B5334CA06961697A
:10746000884201D1207888B3A0693049184D01EBDA
:107470008010E16905EB8111FEF710F8A069013079
:10748000B0F1400118BF0146A161A069616988425D
:1074900004BF00202070607850B10020402260704E
:1074A000E06905EB80110020FFF79EFF0120B0BDD1
:1074B000E0690130B0F1400118BF0146E1610120EF
:1074C000E169226A914208BFA070B0BD0020B0BD42
:1074D000BE11002010B5022824D11BB31078072854
:1074E00003D113480121017010BD0F4C207818B151
:1074F0006069A169884215D060690C4901EB801070
:1075000011461A46FCF71AFE606901306061606935
:10751000402804BF002060616069A169884204BFFF
:107520000120207010BD00BFCC000020BE01002053
:107530009C000020B0B5044671B101EB810004EB62
:107540008000D0E90723D31AC3611BD082699BB2A4
:107550002046FFF703FE57E0E268E2B101EB81004D
:1075600004EB8005284650F81C1F50F8083C99424F
:107570001BD9C91AAA6901608BB220468021FFF786
:10758000EDFD21E0607803283ED1D4F88020DAB305
:107590002046904738E0E4480178A9B30022027001
:1075A00041F08000E149C8642EE0914213D2B1FB62
:1075B000F3F202FB131171B920468021002200234F
:1075C0000025FFF7CBFDE5602046002100220023C7
:1075D000FFF7AEFD18E0002505606078032803D1B1
:1075E000A16F09B120468847F74848F68F620168C5
:1075F00011404BF68F7201F58071016001681140F6
:1076000081F440510160E5600020B0BD2DE9FE4FDE
:107610004FF0000AEC4F04468A4E48F2FF79ADF86D
:1076200006A0786CADF806003068BDF80610014081
:1076300009047ED5E54840F68F78ADF80AA0ADF88C
:1076400008A0D0F800B0786CADF80A0000046ED540
:10765000BDF80A0000F00F0547EA85000168ADF8A3
:107660000810BDF80A10C906BDF8081018D409069C
:10767000E9D5016848F60F721140016005EB8500FD
:107680000BEB0511898804EB800082696FF39F2161
:1076900001621144816120462946FFF74BFFD2E782
:1076A00009F5F04209B212B29142CCDC016801EA5C
:1076B000080101600BEB051086896FF39F2636B138
:1076C000BDF80810090529D40189FEF75DFC05EB1A
:1076D000850004EB8000814659F8481F3144C9F801
:1076E000001059E902138A19991B49F8082C49F826
:1076F000041C02D0C06BB04208D92046294600F0D5
:10770000ADF8C9F800A048F2FF799CE78BB220469B
:107710002946FFF70DFD48F2FF7994E7BBF8081002
:10772000201D3246FFF704FC204600F0BDF9454E0F
:107730003068BDF806100840C00409D54EF6FF7049
:107740007864A07860704048007808B9FFF70EFBB5
:107750003068BDF806100140090513D5396CC9061B
:1077600010D4607804216170A0703848007810B19E
:1077700000F0C4F902E03648032101704FF2FF70B7
:1077800078643068BDF806100840800508D54FF6CB
:10779000FF5078642F48006810B101682046884780
:1077A0003068BDF806100840C0051CD54FF6FF60D4
:1077B000786427480178B1B1017801390170017806
:1077C00089B921494FF6EF750B783A6C2A40012BA5
:1077D00002D13A64002005E042F010023A6403222C
:1077E0000270012008703068BDF80610084040059E
:1077F00025D54FF6FF30A02178641748016040205E
:1078000048F68F71E06360613868084048F68E7111
:107810003860786808406021013078608020F86422
:10782000386880B2386043F220203860964800689B
:1078300001812021A0F80C90018001206070BDE83A
:10784000FE8F00BF44220020990000200C00002081
:10785000980000204C2200200800002010B50446AB
:1078600041B16078032836D1D4F884209AB32046F9
:10787000904730E0E06898B101EB810004EB8000B4
:10788000014651F8442F51F8083C9A420FD9D31AB7
:10789000026C20460B609BB20021FFF749FC1AE006
:1078A0007A4848F68F6201681140016013E0607801
:1078B000032803D1E16F09B120468847734848F691
:1078C000BF720168114081F0300101606E480021F3
:1078D000E16000688180002010BD00BF704700009B
:1078E00010B58A884AB9CA883AB989780E4A01F02F
:1078F0007F0111704278032A04D10021BDE81040B5
:10790000FFF75ABC604A002348F6BF7412689380A0
:107910005E4A1368234083F03003136009B10221EB
:1079200000E00121417010BD42220020005C0040B7
:1079300070B504464888234E10F0FE0F307005D015
:1079400020460021BDE87040FFF736BC617803296E
:107950000FD0022927D1010606D0032161702070C3
:10796000C1B22046E26E90474748002100688180FE
:1079700025E0010618D02178C0B2444D814207D0DD
:10798000226F204690473178E26E20462170904762
:107990003D4800210068818048F6BF712868084092
:1079A00080F03000286070BD002502200021257085
:1079B00060702046226F90473348006885803348C6
:1079C000FEF7EABA50220020005C00402C7C01083F
:1079D0007047000080B50A7802F00302022A0DD039
:1079E000012A17D082BB427802F0FE02022A10D18F
:1079F000498801290DD10121C1701BE043788A8893
:107A0000032B0DD0022B04D142F08001C9B2802992
:107A10001AD180BD4278032A12D0022A14D0F8E786
:107A2000498839B942F08001C9B2802902D0D1B267
:107A3000FFF7C2FB1448FEF7D3FA1448FEF7F1BA79
:107A4000898811F0FE0FE4D00021BDE88040FFF7E7
:107A5000B3BB00BF80B54278032A02D0022A04D00B
:107A600080BD8A8812F0FE0F04D00021BDE880405E
:107A7000FFF7A2BB426F02B190470348FEF7B0FA8E
:107A80000248FEF7CEBA00BF2C7C0108005C004023
:107A900002790A7042794A70C2884A8002898A80D3
:107AA0004289C260CA8070471CB569460446FFF728
:107AB000EFFF9DF8000000F06000402813D0202860
:107AC00009D068B99DF80100084951F8202069469D
:107AD0002046904707E069462046FFF7C5F902E0D7
:107AE0002046FEF7BBFA00201CBD00BF307C010819
:107AF000806E50F8210001781180704703480168BA
:107B000041F00C0189B20160704700BF405C004049
:107B1000704702E008C8121F08C1002AFAD1704756
:107B20007047002001E001C1121F002AFBD17047FD
:107B3000040309041403470044004C0069006E006C
:107B40006B002D004F00421E0343004D00530049BF
:107B50000053002D00440041005000200047004425
:107B60000033003200140343004D0053004900531A
:107B7000002D00440041005000320338003100382D
:107B80000046004200430045003100420031003110
:107B9000003700380030003500330044003500372E
:107BA000004600310043003600390012034700440C
:107BB00000330032002000410052004D000902292C
:107BC00000010100803209040000020300000009E6
:107BD0002101000001222100070581034000010767
:107BE0000501034000010600FF0901A1011500265F
:107BF000FF00750895400901810295400901910235
:107C000095010901B102C01201100100000040E914
:107C1000288F06000101020301E48D70097BDD411C
:107C2000DA886E0E95C161B92D0000000060004039
:107C3000F3720108956D0108DD780108D579010816
:107C4000DD780108E17801084D720108D179010859
:107C50001D72010831790108D1720108557A0108B5
:107C6000117B0108307B0108AB7B0108657B0108B3
:107C7000797B0108347B0108477B0108A07C01085F
:107C80000000002098000000127B0108387D0108E8
:107C900098000020C0250000227B010800000000A1
:107CA00000A24A04C02100202000000001000000C2
:107CB00000000000000000000000000000000000C4
:107CC00000000000000000000000000000000000B4
:107CD00000000000000000000000000000000000A4
:107CE0000000000000000000000000000000000094
:107CF0000000000000000000000000000000000084
:107D00000000000000000000000000000000000073
:107D1000077C0108BD7B0108647C0108956B0108A4
:107D20007D6B0108C96B0108016B0108056B010837
:087D3000096B01084D6B01080D
:0400000508014105A8
:00000001FF
