:020000040800F2
:104000004026002019410008D75B0008B55200087F
:10401000D55B00088541000829650008E1BC8F8157
:10402000538017B1691C7FD5070000002B5D000885
:10403000CD510008A55AA55A295D0008C1630008A2
:104040003341000833410008334100083341000880
:104050003341000833410008334100083341000870
:104060003341000833410008334100083341000860
:104070003341000833410008334100083341000850
:104080003341000833410008334100083341000840
:104090001D65000833410008334100083341000822
:1040A0003341000833410008334100083341000820
:1040B0003341000833410008334100083341000810
:1040C0003341000833410008334100083341000800
:1040D00033410008334100083341000833410008F0
:1040E000334100083341000821650008FFFFFFFF4E
:1040F00011122020FFFFFFFFFFFFFFFFFFFFFFFF69
:1041000033410008DFF80CD000F02AF800480047DF
:10411000016B0008402600200648804706480047FB
:10412000FEE7FEE7FEE7FEE7FEE7FEE7FEE7FEE767
:10413000FEE7FEE7C56300080541000840EA010309
:104140009B0703D009E008C9121F08C0042AFAD24D
:1041500003E011F8013B00F8013B521EF9D2704711
:10416000064C074D06E0E06840F0010394E80700C4
:1041700098471034AC42F6D3FFF7C8FF647D0008BF
:10418000847D0008FEE7F8B536228DF80020AA22CB
:104190008DF8052025228DF80A209B228DF80F200E
:1041A000026843688068CDF80120CDF80630CDF86C
:1041B0000B00684602F06AF99DE80F004840504045
:1041C000584004B080BD00002DE9F04F89B00C4686
:1041D00090F900100546C8B2B1F1FF3F08DC9F28F6
:1041E00006D82846214609B0BDE8F04F00F0CABF06
:1041F00000F16001C9B25E293DD9A04608F8010B63
:104200002F4617F8010B1D2800F20582DFE810F099
:104210001E003A004900590063006D00BE01030210
:1042200009021D022F02030203020302030203021A
:104230003502660282029802A402C802F102030259
:10424000030203020302030203020C033978FF296D
:1042500000F01A85A01CF02900F01A85FE2900F054
:104260002085042940F0218530218180C4490160E6
:10427000062000F01BBD2846214609B0BDE8F04FDE
:1042800000F085BF3878012800F01083002840F046
:104290001683A878C00740F06F85BA484FF40051E4
:1042A0000BE33878002808BF0120022800F00983BA
:1042B000012840F00D83B4480124047101F0F6FC9C
:1042C00007E3B1480024047101F0CEFC012088F816
:1042D000004000F0F5BE6878AB49087468888882B1
:1042E000A888C882002000F0B4BCA7490879022839
:1042F00000F0F482012840F03C8400220020079066
:104300000A7095F802B0E01C8946EA1C059000206E
:104310004FF0000A0021CDF808B00491CDF81880C4
:10432000BBF1000F00F0E386904618F8016BB1076F
:1043300013D4BAF1000F4CD0B9F8145003920E20E8
:1043400008A901F045FDADB3022833D199F800006A
:10435000013D0028F3D000F031BDBAF1000F26D0A6
:10436000B9F8145006F01100012803920FD101355D
:10437000304608A901F02CFD02284AD1013D00F089
:104380001D8599F800000028F2D000F017BD0E201E
:1043900008A901F01DFD4FF0000AD5B3022838D15D
:1043A00099F80000013D0028F1D000F005BD4FF064
:1043B000000A3EE0012840F002850898059908802F
:1043C000BDF8220088709DF82300C8700431059163
:1043D000039AD2F8010002F10508B106CA46089016
:1043E00010D4BAF81450304608A901F0F1FC002DA1
:1043F0004ED002284CD19AF80000013D0028F2D09E
:1044000000F0DABCCAF8180051464FF0000A01204B
:10441000A1E0012840F0D384089805990880BDF8F0
:10442000220088709DF82300C87004310591039A1A
:104430000120F10612D4B9F81450F10730D13046FA
:1044400008A901F0C5FC002D42D0022840D199F8FE
:104450000000013D0028F2D000F0B0BCB9F8160011
:1044600002F105080390D2F801000190F00741D055
:10447000B9F814503046002101F0AAFCBDB302285F
:1044800035D199F80000013D0028F3D000F096BC2A
:10449000012840F068864FF0000A0120012103E066
:1044A000BAF1000F02D00021049153E03046002100
:1044B00001F08EFC002D59D0022857D199F8001038
:1044C000013D4FF0000A02200029EFD000F077BC38
:1044D000012840F07484089805990880BDF82200EE
:1044E00088709DF82300C870043105912FE00128E1
:1044F00040F06584B9F81450304608A901F068FC12
:104500003DB1022805D199F80010013D0029F3D0F2
:1045100011E001280FD1039969B1D9F81810089A50
:104520001140019A914206D003990139039199F8FB
:1045300000100029DED0D9F81810089A1140019A0D
:10454000914218BF40F01000012840F0388400204C
:10455000049001204946079A013207920978002900
:1045600040F02D84ABF1010B4246D9E6012840F022
:10457000FA850020049001204FF0010AEAE700BF0D
:10458000322E302E140C0140E4000020DFF830AC55
:104590009AF80400022800F0FD82012840F04483CC
:1045A00000228AF80020A878E97804F1040940EA9A
:1045B000012BBBF1000F00F0F1832E79B00700F161
:1045C000EF830020CDF81090C14607900DF1200830
:1045D000CDF80CB0BBF1000F00F09385381D0590AD
:1045E0007868BAF81470ABF1010B08903046414678
:1045F00001F0EEFB3FB1022805D19AF80000013F1F
:104600000028F3D0D2E3012840F0D183079801308D
:104610000790059FDEE7FF2020704FF0011000F0AB
:1046200051BDDFF89C0B0179022900F003830129B9
:1046300040F00E83D5F8020008A90890002000245D
:1046400001F0C6FB88F8004005E3DFF8780BD44999
:104650000068AA78B0FBF1F003210230B0FBF1F062
:10466000697841EA02214843401EFDD18DE30020D4
:10467000A4F80100022000F023BDAE78D5F8037045
:104680006978C84816F0010205D0CB074FF0200327
:104690000CBFC360836016F0020305D08C074FF097
:1046A000100454BFC460846016F0040CCDF8188068
:1046B00005D04D074FF0800554BFC560856016F0EA
:1046C0008004079400F0FB824DB2B5F1FF3F40F348
:1046D000F282B54C4FF400752560F0E2D5F8010088
:1046E000002800F0E180DFF8DC1A0968B0EB910FD8
:1046F00080F0BC8200EB51010139DFF8C42AB1FB24
:10470000F0F10023012053710322022988BFB1FB7D
:10471000F2F0AFE26C78A91C002C08BF4FF4807453
:10472000204601F029FE002088F800004FF4604088
:1047300000EB443000F4FE0000F1011000F0C0BCBA
:104740003878DFF87C2AC0F3800100F003000130E4
:10475000517710770020A4E0002060706F78AE1CC5
:1047600002344FF001084FF001095FB316F8015B06
:1047700022462846314600F0F5FE15F03F0000F1D4
:1047800007004FEAD00008BF082015F080011CBFC9
:10479000814404440644404400F10108013FE4E739
:1047A0006878DFF81C2AAB1C9077002120320024A7
:1047B000A0420BD01D5D02EB4406155571802944C3
:1047C0000134F5E749EA084000F07ABC002398423A
:1047D00006D0D55C02EB4304491BA1800133F6E708
:1047E000002188F800104FF0011101EB004000F0AB
:1047F00067BCDFF8CC090179022951D13978C1773A
:10480000807F81424CD20E2000F056FD00F046FE23
:104810000021A0706170010E6171010C000A21710C
:10482000E070624800F04CBC002060706878AE1CFC
:1048300004F102094FF0010A4FF00108C0F1010430
:10484000012C29D016F8015B15F03F0000F107009C
:104850004FEAD00708BF082715F0800B02D001F0FF
:10486000BBF901E001F0C2F9284631464A4601F0A1
:104870005DFA0CB901F0BAF9BBF1000F06D10AEBF1
:1048800007003E4400F1010A0134D9E7B844B944B5
:1048900060420AF1010AD1E748EA0A4000F010BC80
:1048A000FF2088F8000016E0FF20E7E1A878C007A5
:1048B00040F066823C484FF48051016065E2FF2081
:1048C00064E2DFF8FC080224047101F099F900E0C9
:1048D000002488F800404FF00110F1E300260E702C
:1048E000687804F1030AC877897F884280F0528291
:1048F000CDE905A895F8028005F1030B00260020FC
:1049000000254FF0000ACDF80480B8F1000F07969B
:1049100000F0F583CDF808B01BF8019B052249464D
:1049200062F35F0104915FEA897119D4002D53D0BD
:10493000BAF10A0F039502D00A2000F0BDFCDFF89F
:104940008058DDF814A0AE8A0E2008A900F05AFEA7
:1049500076B302282CD12878013E0028F4D0ACE2AE
:10496000CDB119F010000390DFF85408868A5AD1AF
:104970000498824557D10136484608A900F042FE06
:10498000022867D1013E00F04C83DFF8340800783C
:104990000028F1D045E309F0100100256AE000BFCE
:1049A00040420F0008080140140C014005000100BE
:1049B000012840F0DB830898AAF80000BDF8220027
:1049C0008AF802009DF823008AF803000AF1040A1D
:1049D000CDF814A04FF00A0A0299D1F8010001F1B4
:1049E000050B5FEA8961089018D4049882458246D5
:1049F00002D0504600F060FCDFF8C457AE8A48464B
:104A000008A900F0FFFD002E00F08680022840F08B
:104A100083802878013E0028F1D001E3DFF8A01759
:104A20000D4688617BE0BAF10A0F02D00A2000F03F
:104A300043FC0E2008A900F0E5FD4FF00A0A00250E
:104A400046B1022806D1DFF87807013E0078002839
:104A5000EFD0E3E2012840F0E5820898059908804C
:104A6000BDF8220088709DF82300C87004310591BC
:104A70000399012001B3DFF848070395C08A00902D
:104A8000029800F1050BD0F80100029004988245CD
:104A9000824602D0504600F00FFCDFF82457AE8A61
:104AA0004846002100F0AEFD5EB1022809D1287809
:104AB000013E0028F4D002E2F5B30395DFF8005779
:104AC00030E0012840F0FC81AE8A484608A900F099
:104AD00099FD36B1022804D12978013E0029F4D08D
:104AE0000FE001280DD1009959B1A969089A114028
:104AF000029A914205D00099013900912978002944
:104B0000E2D0A969089A1140029A914218BF40F078
:104B10001000012805D0D3E1012840F02C830020AB
:104B200003900120079E29780136002940F0C981B1
:104B3000039DA8F10108E8E604988245824602D068
:104B4000504600F0B9FBDFF87856AE8A484600219F
:104B500000F058FD36B1022804D12878013E002823
:104B6000F4D05DE2012840F0068301210120039189
:104B7000D8E7A978E81C002971D00278930701D4FE
:104B8000052204E0D2064FF0050258BF012210446E
:104B90000139F0E74FF0000B8AF800B0387804F1E3
:104BA00004098AF81F009AF81E10884280F03081AC
:104BB000A878E97840EA012BBBF1000F00F02681CC
:104BC0002E7906F0010004900A3000F075FBB00762
:104BD00000F14A810020CDF80C90CDF818800790A4
:104BE0000DF12008D946B9F1000F00F09F82381D61
:104BF00005907868BAF81470A9F101090890304658
:104C0000414600F0FFFC3FB1022805D19AF80000B0
:104C1000013F0028F3D048E1012840F04781079880
:104C200001300790059FDEE70020E070A4F8010046
:104C30000320DAE13978C177807F814208D20820E9
:104C400000F03AFBD5F8020000F002FFFFF74ABB84
:104C5000FF2088F80000D24800F5403030E2C01B49
:104C600000210004A4F80110023029E2DFF85015F9
:104C700001204871DFF848158860002088F800009E
:104C8000C74800F500301BE24020608002200DE0A4
:104C9000DFF8301533220968002908BF132202709B
:104CA00001E040210170012000E0002088F80000B0
:104CB00000F1021006E24FF40075C0F80854EFB39B
:104CC00006F0200501F0E006B5FA85F5B6FA86F69D
:104CD0006D09760946EA050BB24D8BF0010E2E6880
:104CE0004FEA910A4F084FEAD1182AB1D0F8009044
:104CF000C9F34014A1421ED123B10468C4F30014C7
:104D0000A74218D1BCF1000F0AD00468C4F3C01444
:104D1000BAEB040418BF012454EA0E0403D00AE0DD
:104D2000BBF1000F07D0079C44B1D0F80044C4F396
:104D30004024A04502D02C68B442D6D00168026855
:104D40000368042404EA5313022404EAD202C1F3E0
:104D50004011114402681944082303EAD202D0F832
:104D600000041144802202EA900008440699087069
:104D70008B4800F58020A3E18B484FF4005102E0FE
:104D800089484FF48051C0F80814002088F80000CA
:104D9000834895E105F1020B002089E100201EE126
:104DA000F00771D1CDF818800020D6E00220C84667
:104DB000DDF81090079A12E14FF0000A022000215E
:104DC0008B450DD098F80020930701D4052204E00C
:104DD000D2064FF0050258BF012290440131EFE79F
:104DE000012840F01281BAF1000F18D0B9F8146010
:104DF00008AD0E20294600F0EBFF36B3022824D17F
:104E000099F80000013E0028F3D01CE04FF0000BA1
:104E10000020E07084F801B04FEA1B20E2E0049823
:104E2000002800F0F180B9F81400451C0E20002184
:104E300000F0CEFF022840F0E880013D03D099F851
:104E400000000028F2D00220DFE0079901283AD1C3
:104E50000898059A1080BDF8220090709DF82300F4
:104E6000D07004320120D2E0BAF81470304600212C
:104E700000F0C8FB4FB3022827D19AF80000013F89
:104E80000028F3D0022060E0BAF814703046002108
:104E900000F09EFF002F5BD0022859D19AF8000045
:104EA000013F0028F2D0022098E00220DDF81CB07B
:104EB000DDF81880DDF80C90ABE74FF00A0A02200D
:104EC000079E039DAFE0059AA1E001283DD1CDF8F2
:104ED000188004980DF1200880F0010100205A4646
:104EE0000491002A00F04981013A079010460CBF56
:104EF0000E2601200843059203D10A2000F0DCF9B8
:104F00000E26BAF814703046414600F07BFB3FB1E4
:104F1000022805D19AF80000013F0028F3D0EAE00A
:104F2000012840F0E9800898BDF8221089F80210A5
:104F3000A9F800009DF8230089F803000798DDE92F
:104F40000412013009F10409CBE74FF0000B60E7D0
:104F5000012843D10120CDF8188000210DF120084F
:104F60000791CDF80CB0BBF1000F00F0DB80F0072B
:104F7000ABF1010B304618BF0E20BBF1000F08BF8C
:104F80000646BAF814703046414600F021FF6FB172
:104F900002280BD19AF80000013F0028F3D019E055
:104FA00001000200041000E008080140012812D1AD
:104FB0000898BDF8221089F80210A9F800009DF8A1
:104FC000230089F80300079809F1040901300790CC
:104FD0000120C8E70220DDE9068200E00022E0703F
:104FE000100A6270A070A9EB08002979890708D41B
:104FF000EA78A978920642EA814101F580210843C6
:105000005EE040F480205BE00120059A0799A070E3
:1050100061700699A8EB0700511A4FE04FF00A0A99
:1050200000250220079E002188450DD09BF8002016
:10503000930701D4052204E0D2064FF0050258BFC1
:10504000012293440131EFE701281DD10796DDF8D5
:105050001880BAF10A0F02D00A2000F02DF9DFF80B
:105060006091B9F8146095B1DDF814A008AD0E2078
:10507000294600F0C7FA46B3022826D199F8000065
:10508000013E0028F3D011E0DDE905A810E0DDF8CD
:1050900014A0751C0E20002100F0B4FA022806D1DD
:1050A000013D03D099F800000028F3D00220079EAC
:1050B000A070ABEB0700AAEB0801667041EA004064
:1050C00000F1011009B0BDE8F08F079E0128EFD173
:1050D0000898AAF80000BDF822008AF802009DF89E
:1050E00023008AF803000AF1040A0120E0E702998C
:1050F0009046079163E60220DDE9068B89E6019E72
:1051000091E7BAF81400461C0E20002100F060FE62
:10511000022823D1013E20D09AF800100220002955
:10512000F2D01BE0039ADDF8188058E7049810B11C
:105130000A2000F0C1F8BAF81400461C0E20002125
:1051400000F060FA02287FF4B3AE013E11D09AF865
:10515000001002200029F1D0AAE60220039AC846D6
:10516000DDF810903BE74FF0000A28E64FF00A0AFE
:10517000A6E602209CE6002554E7DDF81880012011
:1051800047E600BF007808704FF001107047FF201D
:1051900008704FF0011070470948002101228180FA
:1051A000817782836422C0E9052101740549064A9A
:1051B0000968B1FBF2F10239816000F055BD00BF12
:1051C000E40000200800002080841E0070470000DA
:1051D000F8B50C46017801F0F802D02A13D1254623
:1051E00005F8011B0178D03907290AD8DFE801F05A
:1051F000041518103F1B3B5D01F0B2FAC4F8010022
:105200000534FF2135E02146BDE8F840FEF7DCBF5C
:10521000D0F8010001F07EFB29E001F0BFFB26E0A1
:1052200001F068FB23E0B0F80560382E1FD8D0F8F5
:105230000140C71D30041AD0394611F8010BB2B233
:10524000012A02D100260F4604E07978023E40EAA6
:105250000120023781B2204601F016FB0234FF2103
:105260000028E7D004E0B0F805203E2A03D9FF214A
:105270002C462170F8BD0021D0F8010061700C4966
:1052800088420DD00234FF211304F2D0013A1304F6
:1052900001D10178F8E710F8013B04F8013BF3E78E
:1052A0003F20C4F802000634ABE701F03FF900BF2D
:1052B0001C900008FEE7000070B5D04910242023A0
:1052C000CF4A0C604B605578CDB30B604B600B60E0
:1052D0004C6080244B600B604B600B600C60D57E93
:1052E00002EB4504E68B1EB14B600B60013EFAE712
:1052F0002A44127F8023013A202542B1C6070CBF01
:105300004B600B604D600D60013A4008F5E7228C60
:10531000002A00F07D80C0074FF080000CBF48607D
:105320000860202048600860501E80220A6018B182
:1053300020224A600138F9E71020086070E05568C3
:105340006D1EFDD10B6055686D1EFDD14B6055681B
:105350006D1EFDD10B6055686D1EFDD14C604B601C
:105360005468641EFDD10B605468641EFDD14B600F
:105370005468641EFDD10B605468641EFDD1802406
:105380000C60D47E02EB4404E48B4CB14B60556856
:105390006D1EFDD10B6055686D1EFDD1013CF4E71B
:1053A000D37E802413441B7F2025013B73B1C607A5
:1053B0000CBF4C600C604D605668761EFDD10D60D0
:1053C0005668761EFDD1013B4008EFE7D37E02EB25
:1053D00043031B8C002B39D0C0074FF080000CBF5B
:1053E00048600860202048605468641EFDD1086051
:1053F0005468641EFDD180240C60013BD3B1486029
:105400005468641EFDD108605468641EFDD1F4E741
:105410001022C0070A604FF080000CBF486008608F
:105420002020102248600860486008604A60486098
:10543000086030E0102008602020486053685B1E40
:10544000FDD108605068401EFDD111E0C0074FF04B
:1054500010034FF080000B600CBF486008602020F4
:10546000486053685B1EFDD108605068401EFDD146
:105470002020486053685B1EFDD1086053685B1EA6
:10548000FDD110234B60486053685B1EFDD108605E
:105490005068401EFDD18020086070BD70B5F04896
:1054A000102320225649036042604C68641EFDD1DF
:1054B00002604C68641EFDD1436042604B685B1E15
:1054C000FDD102604B685B1EFDD142604B685B1EE4
:1054D000FDD102604B685B1EFDD1CB7E4BB14260BB
:1054E0004C68641EFDD102604C68641EFDD1013B16
:1054F000F4E700226FF01E03202483B144604D685E
:105500006D1EFDD150F8085C046005F040054E6842
:1055100042EA4562761EFDD152080133EDE71023C1
:105520002024036044604D686D1EFDD150F8085C76
:1055300004604E68761EFDD144604E68761EFDD133
:1055400004604E68761EFDD1436044604B685B1E6C
:10555000FDD104604868401EFDD105F0400042EADC
:10556000406070BD2DE9F04710F03F0A08BF4FF0D2
:10557000400A4406BA4CDFF8449E00F0800C4FF01D
:10558000800E4FF020084FF0100554BF6560256075
:10559000BAF1000F08BFBDE8F0870E7800200025A3
:1055A0001AE0F7070CBFC4F804E0C4F800E0C4F840
:1055B0000480D9F804707F1EFDD154F8087CC4F82B
:1055C0000080D9F804305B1EFDD107F040035B007A
:1055D00043EA550501307608824518BF0828E0D116
:1055E000AAEB000A0131BCF1000FD1D0C0F10800D4
:1055F00025FA00F002F8010BCAE700BF10080140CD
:10560000E80000202DE9F041954B10252022DFF81D
:10561000AC4D1D605A606678002E53D01A605D60F4
:105620005A601A605A601A6094F81BE076461EB100
:105630005A601A60013EFAE7802210F002080CBF9F
:105640005A601A6020225A6053F8087C1A600222BD
:1056500002EA571247074FF0800754BF5F601F6090
:1056600020275F6053F8085C1F60C5F380152A434C
:1056700005074FF020074FF0800554BF5D601D60A7
:105680005F6053F8085C042606EA151502EB050C6A
:10569000BCF1010F1F6040F09580B8F1000F40F0A1
:1056A000A18009686FF01E0680272022002E00F0DE
:1056B000A980CD070CBF5F601F605A601A60013679
:1056C0004908F3E76668761EFDD11A606668761EA3
:1056D000FDD15D605A6065686D1EFDD11A60656818
:1056E0006D1EFDD15A6065686D1EFDD11A6065683A
:1056F0006D1EFDD1E57E4DB15A606668761EFDD106
:105700001A606668761EFDD1013DF4E7802210F034
:10571000020E0CBF5A601A6020225A606668761E1C
:10572000FDD153F8086C1A606268521EFDD1022246
:1057300002EA561246074FF0800654BF5E601E60B4
:1057400020265E6067687F1EFDD153F8087C1E60CE
:105750006668761EFDD1C7F38016324306074FF008
:10576000800654BF5E601E6020265E6067687F1EF4
:10577000FDD153F8087C1E6065686D1EFDD10425BF
:1057800005EA171502EB050CBCF1010F1FD1BEF1A4
:10579000000F40F0678009686FF01E058026202703
:1057A000002D00F07880CA070CBF5E601E605F604D
:1057B0006268521EFDD11F606268521EFDD1013524
:1057C0004908EDE7102119605F601F60C0E01021FB
:1057D00019605E606168491EFDD11E606168491EE6
:1057E000FDD109E100266FF01E0220270AB35F6099
:1057F00053F8085C1F6005F0400546EA45656E08F1
:105800000132F3E7A27E6FEA0E05AD1800F0868044
:10581000C9074FF080010CBF59601960AEEB02015F
:105820000131202201315A601A60FBD31021196026
:105830007CE0A77E6FEA0E02D21900F07B80202266
:105840005A60AEEB0705AF1C53F8085C1A6017B13D
:105850005A600137FAE710221A6020225A606FE07E
:10586000100801404FF000086FF01E062022002EA5
:1058700035D05A6067687F1EFDD153F8087C1A60E6
:1058800065686D1EFDD107F0400548EA45654FEAA1
:1058900055080136EBE7E57EA27EEE43B61800F030
:1058A0008580C9074FF080010CBF59601960202125
:1058B00059606668761EFDD11960AA1A66680232C0
:1058C000761EFDD1002A00F05980596065686D1E72
:1058D000FDD1196065686D1EFDD10132F2E7E67EEB
:1058E000A27EF543AD1800F0748020275F606568E4
:1058F0006D1EFDD153F808EC1F60B21A65680232C4
:105900006D1EFDD1002A45D05F6065686D1EFDD11A
:105910001F6065686D1EFDD10132F3E71022C907D3
:105920001A604FF080010CBF596019602021596046
:1059300019600DE010221A6020225A6053F8085CAA
:1059400020221A6021B105F0400246EA42620A6054
:1059500020211022596019605A6080220006596087
:1059600019601A6002D539480068A060207B0028C1
:1059700000F06880596019600138F8E7102119605B
:10598000202159606268521EFDD119606168491E6C
:10599000FDD131E010221A6020225A6065686D1E28
:1059A000FDD11A606268521EFDD11FE0C9074FF099
:1059B00010024FF080011A600CBF5960196020215D
:1059C00059606268521EFDD119606168491EFDD19F
:1059D00012E010221A6020225A6065686D1EFDD107
:1059E00053F808EC1A606268521EFDD121B10EF026
:1059F000400248EA42620A60202159606268521EF1
:105A0000FDD119606268521EFDD110225A605960A2
:105A10006268521EFDD119606268521EFDD180225B
:105A200000061A6002D509480068A060207B48B1D2
:105A300059606268521EFDD119606268521EFDD124
:105A40000138F4E76046BDE8F08100BF041000E0D3
:105A500070B5DD4910242023DC4A0C604B6055688A
:105A60006D1EFDD10B6055686D1EFDD14C604B6005
:105A70005468641EFDD10B605468641EFDD14B60F8
:105A80005468641EFDD10B605468641EFDD1D47E41
:105A90004CB14B6055686D1EFDD10B6055686D1E95
:105AA000FDD1013CF4E7802320244B604C60556815
:105AB0006D1EFDD10C6055686D1EFDD14C605568A2
:105AC0006D1EFDD10C6055686D1EFDD14C60556892
:105AD0006D1EFDD10C6055686D1EFDD16FF01E0569
:105AE00075B1C6070CBF4B600B604C605668761EE4
:105AF000FDD10C605668761EFDD101354008EFE7F8
:105B0000D47E937EE543ED1827D0C0074FF0800088
:105B10000CBF486008602020486055686D1EFDD1AC
:105B20000860E31A556802336D1EFDD14BB1486021
:105B30005468641EFDD108605468641EFDD10133B1
:105B4000F4E7102008602020486053685B1EFDD1F8
:105B500008605068401EFDD111E0C0074FF01003EF
:105B60004FF080000B600CBF486008602020486048
:105B700053685B1EFDD108605068401EFDD1202097
:105B8000486053685B1EFDD1086053685B1EFDD101
:105B900010234B60486053685B1EFDD1086050685D
:105BA000401EFDD18020086070BD00BF10B5084CBC
:105BB0001021204603224FF4005300F04EFF2046F0
:105BC000102103224FF48053BDE8104000F045BF80
:105BD000000C0140FEE77047524810210161016846
:105BE000082262F313410160704700BF4D48102145
:105BF00041610168032262F313410160704700BFF5
:105C00002DE9F843474C414F204610210322202321
:105C10004FF010084FF02009B8472046102103220A
:105C20001023B8472046482103224023B847204686
:105C30001021032280238025B84704F58060482185
:105C400003224FF400734FF40076B8473048C4F88D
:105C50001090C4F8108025610660012000F086FDD8
:105C6000C4F81064BDE8F883B0B52E4C274D20462B
:105C7000282103222023A84720464821032210235D
:105C8000A8472046482103228023A84720464821D0
:105C900003224023A84704F58060482103224FF4E3
:105CA0000073AC46BDE8B040604700BF2DE9F0414D
:105CB0001C4C164F20461021032220234FF01008C1
:105CC0002026B8472046102103221023B84720463B
:105CD000482103224023B84720464821032280233D
:105CE000B84704F58060482103224FF400734FF455
:105CF0000075B84706482661C4F810800560012089
:105D000000F034FDC4F81054BDE8F0815B6A00086F
:105D1000140C01400348102103224FF4807300F05B
:105D20009CBE00BF0008014070477047F0B510F0FE
:105D30003F0308BF40230006C0481FD4234D4FF047
:105D4000100C2024002B3ED00F7800260FE0FA071D
:105D50000CBFC0F804C0C0F800C044606A68521E9E
:105D6000FDD104606A68521EFDD101367F08B3423E
:105D700018BF082EEBD19B1B0131E3E7134C4FF00A
:105D8000200C03B30025002611E0C0F804C06768AA
:105D90007F1EFDD150F8087CC0F800C06168491E24
:105DA000FDD107F01001C90041EA56060135AB42AA
:105DB00018BF082DE9D1C5F1080126FA01F15B1BD6
:105DC00002F8011BDDE7F0BD10080140E8000020EB
:105DD0002DE9F84F994F8246102038602020DFF8D7
:105DE000DCB5786088469BF80110002900F09380AC
:105DF00038605FEACA704FF010000CBF78603860FE
:105E000020201AF002094FF01001786038604FEA44
:105E10005A000CBF7960396020215FEA4A727960CC
:105E2000396050444FEA9A014FF0100254BF7A6033
:105E30003A60202208444FEADA017A603A605FEA69
:105E40000A7208444FF0100254BF7A603A60C007EB
:105E50004FF020024FF010007A603A600CBF78607B
:105E60003860202610207E603E6078607E603E6054
:105E700038607E603E60FFF7AFFE9BF81800014679
:105E80007E6011B13E600139FAE7202257F8081C04
:105E90003A607A6057F8083C3A607A6057F8084CE4
:105EA0003A60022202EAD302C1F300111144042233
:105EB00002EA94028E18042E18BF022E40F034819C
:105EC000B9F1000F0ED09BF8191059B16FF02001F5
:105ED000202239B17A603A600131FAE720217960F5
:105EE000396001380028F9D1FFF780FEB9F1000FC1
:105EF00040F03A829BF81900002800F0358210200B
:105F000078606FF020002021002800F02D82796059
:105F100039600130F8E7DBF80410491EFDD1386024
:105F2000DBF80400401EFDD15FEACA704FF010009C
:105F30000CBF7860386020207860DBF80410491EC0
:105F4000FDD13860DBF80400401EFDD110211AF0AD
:105F500002090CBF7960396020217960DBF80420E8
:105F6000521EFDD13960DBF80410491EFDD15FEAF5
:105F70004A724FF0100254BF7A603A6020227A6071
:105F8000DBF804305B1EFDD13A60DBF80420521EC2
:105F9000FDD15FEA0A724FF0100254BF7A603A6096
:105FA00020227A604FEA5A00DBF8043050444FEA6E
:105FB0009A015B1EFDD13A6008444FEADA01DBF832
:105FC0000420521EFDD10844C0074FF020064FF0B8
:105FD00010000CBF786038607E60DBF80400401E63
:105FE000FDD13E60DBF80400401EFDD1102078603A
:105FF0007E60DBF80410491EFDD13E60DBF8041022
:10600000491EFDD138607E60DBF80400401EFDD1E2
:106010003E60DBF80400401EFDD1FFF7DDFD9BF87C
:1060200018007E60DBF80410491EFDD140B13E60CF
:10603000DBF80410491EFDD10138F2E710080140D9
:10604000202157F8080C3960DBF80420521EFDD1DE
:106050007960DBF80420521EFDD157F8082C396016
:10606000DBF804305B1EFDD17960DBF804305B1E89
:10607000FDD157F8083C3960DBF80410491EFDD10A
:10608000022101EAD201C0F300100844042101EA10
:1060900093014618042E18BF022E40F05180B9F12A
:1060A000000F12D09BF8190078B16FF0200020216A
:1060B00058B17960DBF80420521EFDD13960DBF85D
:1060C0000420521EFDD10130F2E79BF81800202178
:1060D00058B17960DBF80420521EFDD13960DBF83D
:1060E0000420521EFDD10138F2E7FFF77FFDB9F120
:1060F000000F40F039819BF81900002800F034812E
:10610000102078606FF020002021002800F02C8102
:106110007960DBF80420521EFDD13960DBF80420E1
:10612000521EFDD10130F0E7012E21D1B9F1000F4F
:1061300039D1202100284AD0796039600138F9E747
:10614000012E1CD1B9F1000F40F08A809BF8180095
:106150002021002800F09F807960DBF80420521E87
:10616000FDD13960DBF80420521EFDD10138F0E783
:1061700021302021A0B1796039600138FAE79BF81D
:1061800018002021213058B17960DBF80420521E1C
:10619000FDD13960DBF80420521EFDD10138F2E751
:1061A000FFF724FDE0E000216FF01F02202300260E
:1061B0007B6057F8084C4FEA14143B60DAB1E507EE
:1061C00004F0010445EA510126440132F0E7FFF7EB
:1061D0000DFDD8F8001000206FF01F0210232026BC
:1061E000DAB1CC070CBF7B603B607E603E60084448
:1061F00001324908F4E784EA0602D2074FF00806A4
:1062000008BF0126B8F1000F18BFC8F80010202100
:1062100070B1796039600138FAE7C0074FF01000BB
:106220000CBF78603860202001267860386001E07B
:10623000FFF7DCFC5FEA0A6003D54E480068CBF844
:1062400008009BF80C00002800F08E801021796077
:106250002021002800F08880796039600138F8E753
:1062600000206FF01F01202200237A60DBF8044039
:10627000641EFDD157F8084C3A60DBF804506D1EDF
:10628000FDD1240921B3E50704F0010445EA5000DB
:1062900023440131E9E7FFF7A9FCD8F800100020FA
:1062A0006FF01F0210232026002A2ED0CC070CBF2F
:1062B0007B603B607E60DBF80440641EFDD13E6085
:1062C000DBF80440641EFDD1084401324908EBE7C5
:1062D00084EA0301C9074FF0080608BF0126B8F198
:1062E000000F18BFC8F800009BF8180020210028F4
:1062F0001ED07960DBF80420521EFDD13960DBF836
:106300000420521EFDD10138F1E7C0074FF0100004
:106310000CBF7860386020207860DBF80410491EDC
:10632000FDD13860DBF804000126401EFDD101E0FC
:10633000FFF75CFC5FEA0A6003D50E480068CBF803
:1063400008009BF80C0078B110217960202158B129
:106350007960DBF80420521EFDD13960DBF804209F
:10636000521EFDD10138F2E7102038603046BDE8FA
:10637000F88F00BF041000E0F0B50F4A0F4E002365
:106380004FF0100C20250027A8B117B911F8013BD8
:106390000827DC070CBFC2F804C0C2F800C0556073
:1063A0007468641EFDD1156074680138641EFDD1E7
:1063B000013F5B08E8E7F0BD10080140E80000205D
:1063C00000F0DAB92B482C4A01682D4B41F001014D
:1063D00001604168114041600168284A1140016034
:1063E000016821F480210160416819404160016821
:1063F000114001604FF41F018160016841F4803158
:1064000001604FF6FE714A1E03688A4203D213F4FC
:1064100000311146F7D00168890300D4FEE74168D6
:10642000416041684160416841F480614160416878
:1064300041F480314160416821F47011416041684C
:1064400041F4E0114160016841F080710160016830
:106450008901FCD5416821F003014160416841F0A8
:106460000201416041680907FCD506480649016000
:10647000704700BF001002400C00FFE8FFFFF6FE6F
:10648000FFFF00F708ED00E0004000082DE9F041B3
:10649000214A85684FF0160C4FF0000E90465FEAD7
:1064A0000C6608BFBDE8F081C644ACF1010CCEF328
:1064B000810600274246022F19D000EB870487EAA5
:1064C0000603646851F8233084EA0E026B401A44D4
:1064D000E308A40083EA051384EA551423445A40D0
:1064E00050F82730D51840F827500137E3E786F0F9
:1064F0000206026851F8266082EA0E046E403444B7
:10650000D608920086EA051682EA5512836832445C
:106510006240D5188560C2E7B979379E01F0D2B8DC
:106520004FF4802000F066B9FEE700000648BFF394
:106530004F8F064A016801F4E06111430160BFF327
:106540004F8F00BFFDE700BF0CED00E00400FA052F
:10655000F8B57F4F0446F869012900F10100F861A0
:1065600008BF012A16D099BB022A31D1374E01202B
:1065700000900220002132464023002501F000F85F
:10658000204602213246402300F024FEF86A013002
:10659000F86234E078883988884208D36F4A01204D
:1065A00000210123002500F047FF38807D803888D6
:1065B000402808D1694A20468121402300F04EFE40
:1065C000788840307880B86A00250130B86216E0DB
:1065D000012908BF002A09D052EA01000BD0386B0C
:1065E0000225013038637963BA6308E0386A002510
:1065F0000130386203E0786A00250130786228466D
:10660000F8BD00BF10B58121044600F00BFD204607
:10661000022100F007FD002010BD0000B0B54D4D77
:10662000002105F11B02044600F022FD05F12202C3
:106630002046002100F01CFD044A20460221402390
:1066400000F0C8FD00F052FF0020B0BDE5010020C1
:10665000B0B5044608784A8810F060034FEA12206B
:1066600015D0202B5DD14B78013B0A2B37D8DFE8C2
:1066700003F0062E2736363636363B402A000328EE
:1066800052D001285ED1354DD1B2012050E04B7877
:106690000B2B0DD00A2B0FD0062B42D1212832D044
:1066A000222838D1CB882C4A212B28BF212334E043
:1066B0002749D0B2886134E0254800F118020AE089
:1066C000234A506905E02249D0B2486113E0204ACC
:1066D000106902F83C0F2046802101231FE020466C
:1066E00000F049FC02251DE01948C1680131C16074
:1066F00017E0174908612046802100220023002569
:1067000000F0ACFD0EE01348CB8800F11202092B1B
:1067100028BF092301E0002300222046802100F049
:106720009DFD00252846B0BD0948D1B2051D0320B6
:106730002A46002300F080FE204681212A4640237D
:1067400000F08CFD0248816801318160E9E700BFFB
:10675000140100200C000020D07C0008A4010020BF
:1067600001480068704700BF002004E00649086047
:1067700008680028FCD170470348016811B101681E
:1067800001390160704700BF2822002010B5184B66
:1067900001291C6824EA00041C605C6824EA0004E7
:1067A0005C609C6824EA00049C60DC6824EA0004C5
:1067B000DC6004D031B919680143196002E05968FE
:1067C00001435960022A09D0C143012A09D072B994
:1067D0009A6810439860D868084007E099680143B8
:1067E00001E09A6811409960D9680843D86010BDEB
:1067F0000004014001490860704700BF14040140D3
:1068000070B5441E0025013C45F1000600F008F873
:10681000012801D1002EF6D1012808BF042070BD47
:1068200007480168C9071CBF012070470168C906F5
:106830004FBF03200068022101EA5000704700BFEB
:106840000C20024070B5441E0025013C45F10006B5
:1068500000F008F8012801D1002EF6D1012808BF68
:10686000042070BD07480168C9071CBF012070479C
:106870000168C9064FBF03200068022101EA5000E9
:10688000704700BF4C20024070B5054651480C4689
:1068900000880021B1EB502F02D13F48854213D828
:1068A0004FF47020FFF7ACFF98B93A4E306840F0D3
:1068B000010030604FF470202C80FFF7A1FF316899
:1068C00021F00101316070BD4FF47020FFF7BAFF75
:1068D00000B170BD2F4E306C40F0010030644FF4B9
:1068E00070202C80FFF7AEFF316C21F00101316484
:1068F00070BD00BF2748016841F080010160354943
:106900000988B1F5007F03D9016C41F08001016471
:10691000704700BFB0B504462E480088B0F5007F30
:1069200002D91D48844217D84FF47020FFF768FF42
:10693000B8B9184D286840F0020028606C602868DB
:1069400040F0400028604FF47020FFF759FF29689D
:1069500021F002012960B0BD4FF47020FFF772FFF3
:1069600000B1B0BD0B4D286C40F0020028646C648F
:10697000E868800748BF6C60286C40F040002864DD
:106980004FF47020FFF75EFF296C21F002012964AB
:10699000B0BD00BF10200240FEFF07080A48C168D2
:1069A000090603D5094901600949016009490988B7
:1069B000B1F5007F06D9C16C090603D5034901640E
:1069C00003490164704700BF04200240230167456A
:1069D000AB89EFCDE0F7FF1FB0B5144A45F2555330
:1069E00013600E4B1C46D56805F0010514B1013447
:1069F000002DF8D145B95160D16801F0020113B101
:106A000001330029F8D109B10020B0BD6FF31F3068
:106A100090604AF6AA2010600120B0BD0200F0FF8D
:106A200002484AF6AA210160704700BF00300040CA
:106A30000161704780B5FFF76DF9FFF7B7F8FFF711
:106A400035F94FF48020FFF7D5FE4FF48020002168
:106A50000022BDE88040FFF799BE2DE9F04F01F01C
:106A60000F0A00F1140C00F1100E00264FF001097E
:106A70004FF00F080027CC0648BF4AEA020A082F49
:106A800019D009FA07F212EA030B11D0056808FAC7
:106A900006F40AFA06F225EA04042243282903D060
:106AA000482904D1744600E06446C4F800B002608E
:106AB00004360137E3E7082600274FF001094FF0BD
:106AC0000F08102E08BFBDE8F08F09FA06F212EA8F
:106AD000030B11D0456808FA07F40AFA07F225EA11
:106AE00004042243282903D0482904D1744600E035
:106AF0006446C4F800B0426004370136E1E70000A4
:106B000000F0FCF800F096F800F07AF9FFF792FF39
:106B100040484FF400588146C0F80080FEF73CFB27
:106B20003D4E3E4D3E4CC6F800803E49AF68204683
:106B3000FDF729FB874206D03A492D682046FDF72C
:106B400022FB854250D10A20FFF710FE364C20462A
:106B500000F0D2F900F0CAFCA9F582604FF4807110
:106B6000FFF766FF314F002505203D6060706078BB
:106B7000032813D03868411C3128396009D0042813
:106B800004D038B94846C9F8008003E0C6F8008050
:106B900000E03D600A20FFF7E9FDE8E74FF400540C
:106BA00064203460FFF7E2FD214D0020C7E90005B5
:106BB0004FF47A700521FFF70FFFFFF731FF00F068
:106BC000A1FC002828460DD1786838B1B0F57A7F4D
:106BD00007D14846C9F80040786802E0284634608A
:106BE0007D6001387860E8E700244FF400554FF4E9
:106BF0008057E00704D135604846C9F8007003E0CB
:106C00004846C9F8005037603220FFF7AFFD013425
:106C1000EFE700BF100C0140140C0140F400000825
:106C2000E8F7FF1F047D0008380000200C01002059
:106C3000400D030080B54FF4A06000F039F8142037
:106C40000221002200F008F82A2000210022BDE8DD
:106C5000804000F001B8000010B5194B1C6804F426
:106C6000E064A4F54074B4F5A06F03D2230AC3F125
:106C7000040403E00C4C1C600223022499400F23FF
:106C8000E3401A401143094A090140EA020383F82C
:106C900000131C2101EAD00100F01F00012303FAB8
:106CA00000F0885010BD00BF0005FA0500E100E0CB
:106CB0000249084302490860704700BF0000FA0516
:106CC0000CED00E00C4A0029136823F00303136065
:106CD000136840EA030010604848026842F004026A
:106CE00002600FBF30BF40BF20BF20BF016821F04E
:106CF00004010160704700BF0070004010B5094CEE
:106D000040F20260A04740F20360A04740F21C70CE
:106D1000A04740F21770A0470020BDE8104000F0E7
:106D200035B800BF556D0008104A8109895800F038
:106D30001F0021FA00F000F00100704700F01F0171
:106D4000012202FA01F1094A80098358194381504E
:106D5000704700BF00F01F01012202FA01F1034A4F
:106D60008009835819438150704700BF00100240CA
:106D70000A490A6822F0030210430860704700BF06
:106D80000648006800F00C00704700BF03490A681D
:106D900022F4400210430860704700BF0410024014
:106DA00010B55D4C4FF6FB71206808402060102044
:106DB000FFF7C4FF1120FFF7B7FF0028FAD0182013
:106DC000FFF7BCFF1920FFF7AFFF0028FAD0022021
:106DD000FFF7CEFFFFF7D4FF0828FBD1042000F017
:106DE00007F820684FF6F7710840206010BD00BF1B
:106DF00002490A6822EA00000860704710ED00E0CE
:106E00000A484FF47A710068B0FBF1F00138B0F134
:106E1000807F00D3FEE70649F022486005480270F3
:106E20000020886007200860704700BF080000202D
:106E300010E000E023ED00E070B5044608780D4650
:106E400000F01F00022818D0012822D0002847D1C6
:106E5000607800F0FE0002281AD1688802283FD02E
:106E6000012815D10026E670D4F89C20204629463A
:106E700090473D480068868025E06178A88803290E
:106E80000DD0022904D140F08000C0B2802827D163
:106E900070BD607803281FD0022821D0F8E76988E8
:106EA00041B940F08001C9B2802903D0C1B2204667
:106EB00000F064F8D4F89C202046294690472A48E0
:106EC000002100688180E44848F6BF7201681140E3
:106ED00081F03001016070BDA88810F0FE0FD7D09E
:106EE00020460021BDE8704000F088B9D0F88C0041
:106EF000817811807047000010B507490122074BC7
:106F00000A6000224FF41F440A604A600A611C6054
:106F1000C2700C6010BD00BF405C004030220020F9
:106F200010B50C464178032903D1A18811F0FE0F5A
:106F300004D0002100F062F9002010BDD0F89C20A0
:106F4000214690470028F7D1E0880028F4D1064870
:106F50000021006848F6BF728180D748016811405F
:106F600081F030010160E7E704000020D0F88800DC
:106F7000017811807047002100F040B910B501F090
:106F80007F0249B2CC4BB1F1FF3F16DD43EA8201EB
:106F900002EB820453F8222000EB84004C305204B0
:106FA00006D50A6848F68F731A4002F580420A60D7
:106FB0004FF440524BF68F7313E043EA820102EB29
:106FC000820453F8222000EB84001030520605D5CD
:106FD0000A6848F68F731A4040320A60302248F639
:106FE000BF7300240470086818405040086010BD4A
:106FF0000B4B013203EB4101520822B108C9013A9F
:1070000020F8023BF9E77047054B013203EB4101E1
:10701000520822B130F8023B013A08C1F9E7704743
:1070200000600040A44B01F07F0053F8202049B2DB
:1070300043EA8000B1F1FF3F0BDD510406D5016842
:1070400048F68F72114001F5804101604BF68F7157
:1070500009E0510605D5016848F68F7211404031AC
:10706000016048F6BF71026811400160704700BFBF
:10707000F0B5D37850A403F0030392F9025054F80A
:10708000233005F00F048C4E234346F824309288B9
:1070900046EA8403B5F1FF3F27DD04EB840500EBEE
:1070A0008500012902654BD1186848F68F65284094
:1070B00000F580701860186848F68F7528404030D9
:1070C000DFF8F0C11860DCE90056200135523E4877
:1070D0003F2A3CD302F11F0707404FF0FF3000EB7F
:1070E000471E3A4840EA0E0035E004EB840500EB09
:1070F0008500704D4261D5E9007026018753324EFC
:1071000001321E363240BE182E601E6801291AD187
:1071100048F68F61314001F580711960296800EBF4
:1071200004100A442A601A6848F6BF752A4082F0A3
:1071300030021A60018118684BF68F71084038E000
:107140005C4805680DE048F6BF7030402CE01E300A
:10715000571C0740780206EB04163D44B080CCF87B
:10716000005054483F2A406800EB0410058109D3C1
:107170004FF4787404EB421202F4F842134C013AD3
:10718000224305E04FF4007404EB4222104C2240ED
:10719000828118684BF68F721040012907D1186060
:1071A000186848F6BF71084080F0200001E080F4C4
:1071B00000501860F0BD00BF000200000004000095
:1071C0000000000000060000E0FF01000080FFFF5B
:1071D00000FCFF03B0B501F07F0101EB810400EB7F
:1071E00084008365344B4BF68F7553F821402C4057
:1071F00084F4405443F821404265B0BDB0B54AB272
:1072000001F07F042C494BF68F73002A48BF48F6E3
:10721000BF7351F82450002A03EA05034FF4805548
:1072200048BF10256B4041F8243004EB840300EB89
:10723000830000F14C03002A48BF00F11003012035
:10724000187004B1B0BD08684BF6BF72104041F22F
:10725000100250400860B0BD005C00407CB501F0F9
:107260007F0505EB850100EB81000021C0E90623C5
:107270000162019140690F4E98422CBF0193019029
:1072800071682801095A0198144682B22046FFF716
:10729000BBFE0949019851F8252048F6BF731A40F2
:1072A00082F0300241F82520716801EB05118880D9
:1072B0007CBD00BF00000020005C0040E0B5002263
:1072C0000192C988012907D14178032908D00229F0
:1072D00002D101AA802105E00021FFF78FFF8CBDBC
:1072E000802102460123FFF7B9FF8CBDBCB50446DF
:1072F00008780D4600F01F00012826D070BB688872
:107300000021B1EB902FADF8061028D100F0FE015E
:10731000052924D8010A14A202EB810151F8043C8A
:10732000C1B20DF10602204698470246BDF806009C
:10733000A0B1EB8893B1984238BF03462046802124
:10734000ADF80630FFF78AFFBCBDD4F89C202AB107
:107350002046294602B0BDE8B0401047BCBD2046DB
:107360000021FFF74BFFBCBD6D6F0008ED6E0008FC
:10737000F57B00084278032A02D0022A04D0704725
:107380008A8812F0FE0F02D00021FFF737BFD0F835
:107390009C20002AF3D01047E0B50022ADF806206B
:1073A000ADF804200A7802F01F02022A0DD0012A4B
:1073B00016D0FAB9417801F0FE0102290FD1C17847
:1073C000E1B10221ADF8061018E042780979032AEC
:1073D00017D0022A03D141F0800180290AD18CBD47
:1073E0004278032A02D0022A04D0F8E7898811F0F3
:1073F000FE0F03D00021FFF701FF8CBD0DF1060247
:1074000014E00A0606D401EB810100EB810191F83A
:107410004C1006E001F07F0101EB810100EB8101DE
:10742000097C11B10121ADF8041001AA80210223C9
:10743000FFF714FF8CBD000010B5014600200129A4
:1074400008BF012B00D010BD624C2069E168884262
:1074500001D1A078B8B12069484901EB80111046EC
:107460004022FCF76BFE2069013020612069402832
:1074700004BF002020612069E168884204BF002029
:10748000A070402010BD01206070002010BD00BF22
:1074900070B5402A0EDC124814464278032A09D1FE
:1074A000104E328842B14278032AFAD00020708010
:1074B000308070BD002070BD0B4D22462846FCF781
:1074C0003DFE002070800648A3B281212A46348008
:1074D000FFF7C4FE708820447080012070BD00BF9B
:1074E0003800002014010020A401002039480021A8
:1074F000012201704160816042708170C160016150
:10750000704700BFB0B5334CA0686168884201D1B4
:10751000207888B3A0683049184D01EB8010E168ED
:1075200005EB8111FDF754FEA0680130B0F1400178
:1075300018BF0146A160A0686168884204BF0020AE
:107540002070607850B100206070E068402205EB48
:1075500080110020FFF79CFF0120B0BDE0680130E2
:10756000B0F1400118BF0146E160E16822690120E5
:10757000914208BFA070B0BD0020B0BD261200200F
:1075800010B5022824D11BB31078072803D1134863
:107590000121017010BD0F4C207818B16068A168FE
:1075A000884215D060680C4901EB801011461A46DC
:1075B000FCF7C4FD6068013060606068402804BF6B
:1075C000002060606068A168884204BF01202070CC
:1075D00010BD00BF9001002026020020E400002022
:1075E000B0B50D46044679B105EB850004EB80008B
:1075F000D0E90712891AC1611CD082698BB220467A
:107600002946FFF72BFE5AE0E168E9B105EB85005A
:1076100004EB8005284650F81C2F50F8083C9A428D
:107620001CD9D11A0160AA698BB220468021FFF7CC
:1076300015FE22E06078032841D1D4F8A03020461E
:1076400001212A4698473AE0EE480178B9B3002272
:10765000027041F08000EC49C86430E08A4213D2E5
:10766000B2FBF3F101FB132171B920468021002206
:1076700000230025FFF7F2FDE560204600210022EF
:107680000023FFF7A7FD1AE00025056060780328B6
:1076900005D1D4F8A0302046012100229847DA48CD
:1076A00048F68F620168114001F580710160016840
:1076B0004BF68F72114081F440510160E56000206B
:1076C000B0BD00BF2DE9FE4F4FF00009CE4FADF821
:1076D0000690ADF80490786C8E4DADF806002868E1
:1076E000BDF806100140090440F182808A4CDFF8A1
:1076F0009CB440F68F78ADF80A90ADF80890786C9D
:10770000ADF80A00000471D5BDF80A0000F00F05BD
:1077100047EA85000168ADF80810BDF80A10C906EF
:10772000BDF808101AD40906E9D5016848F60F72A9
:1077300011400160DBF8001005EB850001EB05113D
:10774000898804EB80006FF39F21016282691144F4
:10775000816120462946FFF743FFD0E709B2B1F126
:10776000FF3FCCDC016801EA08010160DBF80000A2
:1077700000EB05118E896FF39F2666B1BDF80820D6
:1077800012052BD405EB850004EB80000989406DC0
:107790003246FFF72DFC05EB850004EB80008246A6
:1077A0005AF85C1F3144CAF800105AE902138A19CA
:1077B000991B4AF8082C4AF8041C02D0006DB0420C
:1077C00006D92046294600F0B3F8CAF8009096E79B
:1077D0008BB220462946FFF7FDFC90E70189201D6A
:1077E0003246FFF705FC204600F0E0F9494D2868D5
:1077F000BDF806100840C0040AD54EF6FF70786444
:107800004548817841704548007808B9FFF7C8FAC3
:107810002868BDF806100140090514D5396CC90661
:1078200011D43D4804224178427081703C48007870
:1078300010B100F0E7F902E03A48032101704FF27D
:10784000FF7078642868BDF806100840800508D5E8
:107850004FF6FF5078643448006810B101682E4834
:1078600088472868BDF806100840C0051DD54FF6AA
:10787000FF6078642B480178B9B101780139017053
:10788000017891B925494FF6EF740B783A6C012BCA
:1078900002EA040202D13A64002005E042F010023C
:1078A0003A6403220270012008702868BDF80610AF
:1078B000084040052BD54FF6FF307864B34870215F
:1078C0000068B022018130210180184900230A603C
:1078D00048F2FF718181104840210165416100211A
:1078E00048F68F72032B08D041EA0704256804315B
:1078F00015401D4325600133F4E78021F9643968A0
:1079000089B2396043F22021396001214170BDE81C
:10791000FE8F00BF3022002038000020E100002050
:1079200035000020E000002034220020000000206C
:1079300010B50A46044641B16078032838D1D4F81E
:10794000A03020460021984732E0E06898B102EB71
:10795000820004EB8000014651F8582F51F8083C92
:107960009A420FD9D31A0B60426D9BB22046002178
:10797000FFF730FC1CE0864848F68F620168114032
:10798000016015E06078032805D1D4F8A0302046C6
:107990000021002298477E4848F6BF7201681140D6
:1079A00081F0300101607948002100688180E16048
:1079B000002010BD7047000010B58A884AB9CA88F7
:1079C0003AB989780F4A01F07F0111704278032A91
:1079D00004D10021BDE81040FFF710BC6B4A002322
:1079E000126848F6BF749380694A0029136803EA55
:1079F000040383F0300313600CBF012102214170A6
:107A000010BD00BF2C220020005C004070B5044671
:107A10004888284E10F0FE0F307005D02046002117
:107A2000BDE87040FFF7EABB6178032910D0022956
:107A30002AD1010607D0032161702070D4F8942068
:107A4000C1B220469047514800210068818028E05B
:107A500001061AD02178C0B24D4D814209D0D4F828
:107A6000982020469047317820462170D4F8942001
:107A700090474648002100688180286848F6BF7119
:107A8000084080F03000286070BD0025022025707D
:107A90006070D4F898202046002190473B48006849
:107AA00085803B4848F6BF720168114081F0300183
:107AB000016070BD382200207047000080B50A7850
:107AC00002F01F02022A0DD0012A17D0BABB427859
:107AD00002F0FE02022A10D1498801290DD10121AC
:107AE000C1701BE043788A88032B0DD0022B04D190
:107AF00042F08001C9B2802921D180BD4278032A99
:107B000019D0022A1BD0F8E7498839B942F0800120
:107B1000C9B2802902D0D1B2FFF770FB1B48002107
:107B2000006848F6BF72818019480168114081F0F1
:107B30003001016080BD898811F0FE0FDDD0002189
:107B4000BDE88040FFF75ABB80B54278032A02D0D7
:107B5000022A04D080BD8A8812F0FE0F04D00021D2
:107B6000BDE88040FFF74ABBD0F89C2002B19047A7
:107B700006480021006848F6BF7281800448016809
:107B8000114081F03001016080BD00BF0400002081
:107B9000005C004002790A7042794A70C2884A80CB
:107BA00002898A804289C260CA8070471CB56946D2
:107BB0000446FFF7EFFF9DF8000000F0600040284A
:107BC00014D0202809D068B99DF80100084951F85F
:107BD000202069462046904708E069462046FFF786
:107BE0009FF903E020460021FFF708FB00201CBDA1
:107BF000147D0008D0F8900050F821000178118021
:107C0000704700000A48016841F00C0189B2016028
:107C10004168C90403D401200021FFF753B84EF690
:107C2000FF71416001684FF6F772114001607047C3
:107C3000405C0040704702E008C8121F08C1002ADB
:107C4000FAD170477047002001E001C1121F002ADD
:107C5000FBD170471203470044003300320020007C
:107C6000410052004D000000140343004D0053003A
:107C7000490053002D0044004100500000001A0349
:107C80003000300030003100410030003000300062
:107C90003000300030003000000014034700440082
:107CA0004C0069006E006B002D004F004200000088
:107CB0001E0343004D005300490053002D004400B3
:107CC0004100500020004700440033003200000013
:107CD0000600FF0901A101150026FF007508954067
:107CE0000901810295400901910295010901B10242
:107CF000C0001201100100000040E9288F060001B9
:107D000001020301E48D70097BDD41DA886E0E9576
:107D1000C161B92D99730008396E0008B579000862
:107D2000BD7A0008B5790008B9790008ED7200083D
:107D3000B97A0008BD7200080D7A00087573000852
:107D4000497B0008357C000804030904487D0008CD
:107D5000547C0008687C00087E7C00089A7C00083F
:107D6000B07C0008887D000800000020E0000000D2
:107D7000367C0008687E0008E000002060250000D6
:107D8000467C000800000000300000000060004059
:107D900000A24A04090229000101048032090400FA
:107DA0000002030000050921000100012221000753
:107DB00005810340000107050203400001010000A6
:107DC00000000000000000000000000000000000B3
:107DD00000000000000000000000000000000000A3
:107DE0000000000000000000000000000000000093
:107DF0000000000000000000000000000000000083
:107E00000000000000000000000000000000000072
:107E10000000000000000000000000000000000062
:107E20000000000000000000000000000000000052
:107E30000000000000000000000000000000000042
:107E40000000000000000000F27C00080C00002090
:107E50004C7D00081D660008056600085166000894
:087E600051650008000000005C
:0400000508004105A9
:00000001FF
