:020000040800F2
:1060000037B50008E700E5F9BEAE0008C2AE0008EB
:106010000000000036AF000800000000E1BC8F81E6
:10602000538017B1691C7FD50900000000000000F3
:10603000E6AE0008A55AA55A3EAF000800000000D1
:1060400040AF000842AF000844AF000846AF000868
:1060500048AF00084AAF00084CAF00084EAF000838
:1060600050AF000852AF000854AF000856AF000808
:1060700058AF00085AAF00085CAF00085EAF0008D8
:1060800060AF000862AF000864AF000866AF0008A8
:10609000EAAE00086AAF00086CAF00086EAF0008F7
:1060A00070AF000804AF000874AF000876AF0008B6
:1060B00078AF00087AAF00087CAF00087EAF000818
:1060C00080AF000882AF000884AF000886AF0008E8
:1060D00088AF00088AAF00088CAF00088EAF0008B8
:1060E00090AF000892AF0008FAAE000896AF000823
:1060F00098AF00089AAF00089CAF0008FFFFFFFFB1
:10610000397101436EC619A0397141536AC866CA14
:1061100062CC5ECE19A0397101535AD056D252D4F6
:106120004ED64AD826DA22DC06DE3301614082826E
:1061300041114AC026C222C406C68282B24D410124
:10614000024D924C224CB24B4101024B924A224AE0
:10615000B2494101024992442244B2404101828045
:10616000A3010500B7670040054723A0E7C423A0AB
:1061700007C423A207C4296723A807C4130707F08D
:1061800023A8E18223A0E7C482808347360003432B
:106190002600371700108D8B939617009387418147
:1061A000B69783D707009378F300130707704697D5
:1061B000B3E7F8000A071CC383475600834646002E
:1061C0005146A207D58F93964800B388C802376816
:1061D00000406203369813538341B706002093862C
:1061E0008609AA98635F0304904223AAF8008507F2
:1061F000F99B2310C8003E9690C205466393C50ED6
:106200001043E5751385F5E8698E1366061042069E
:10621000418210C390429385F5FB2314C8003E963B
:1062200090C21C43F1769386F6F8ED8F93C707036F
:10623000C207C1831CC31C43F58FC207C1831CC3A3
:10624000828023AEF8020546639DC5040843E578C5
:106250001386F8E8718D136505104205418108C366
:1062600010439388F8F83376160113660604420645
:10627000418210C383A806001306E003231018010F
:106280006379F6061385F7010199131655007D16FB
:106290006173336666004206418246952312C80048
:1062A00088C288421306E0032314A8006379F60429
:1062B000FD07819B139657007D16E1783366160122
:1062C000AA979CC2F1779386F7F842061C43418255
:1062D0002316C8000546F58F6398C502C207C1831F
:1062E0001CC31C43E5769386F6FBF58F93C7070224
:1062F000A9B71385170079991316950069BF85070B
:10630000F99B139697006DBF8966B58F3DB7371718
:10631000001093F7F50713070770BA978A07E2058D
:106320009843E18563D805021377070419CB984396
:10633000E5769386F6F8758F136707044207418365
:1063400098C39843E5769386F6FB758F42074183A1
:1063500098C382809316170163DC06009843E576A4
:106360009386F6F8758F9166558F4207418398C3DF
:10637000F17698439386F6F8C9BF93F5F507D147B0
:10638000B387F50271771307F7F83E95B71700103A
:1063900093870770BE9530C174C18A059C41F98FFF
:1063A0000D67B98FC207C1839CC1828093F6F50740
:1063B000E205D147E185B387F60263D80504C1073A
:1063C0003E95B717001093870770B6978A079843D2
:1063D00065761306F6FB718F134707014207418369
:1063E00098C385472300F50085E2B766004083A780
:1063F00006C071771307F7FBF98F05674107B98F5F
:10640000C207C18323A0F6C08280938787033E958D
:10641000B717001093870770B6978A07984371766D
:106420001306F6F8718F0566318F4DBF93F7F507A8
:10643000E2055147E1853387E70263D5050441074B
:106440003A953717001013070770BA978A079843D1
:106450001377070419CB9843E5769386F6F8758F82
:10646000136707044207418398C39843E5769386F0
:10647000F6FB758F134707034207418398C3230038
:1064800005008280130787033A953717001013071A
:106490000770BA978A0798439316170163DC0600C2
:1064A0009843E5769386F6F8758F9166558F420787
:1064B000418398C39843F1769386F6F8758F8D667D
:1064C000358F5DBFB7370020BE950506860505826E
:1064D000814713982700939617002E98AA96631366
:1064E000F600828003C7160083C8060085072207CE
:1064F000336717012320E800E9BFEFF27FC313F4ED
:10650000F507D147B307F402411102C6AA9790CF0D
:10651000D4CF23A00702DC4B63F8D7043EC6931701
:106520004400B7640040BE94D147B307F40232463A
:1065300083D50400420641823E95084D6137B2473B
:1065400065771307F7FB2392F400B71700109387C2
:1065500007703E940A041C40F98F93C70703C207D3
:10656000C1831CC04101FDB636C655BFB7370020F8
:106570000506BE95058286050A062E966393C5001C
:1065800082809C4109059105A183A30FF5FE83A795
:10659000C5FF230FF5FEDDB7EFF21FB7411123153D
:1065A0000100B767004083A747C42A84C207C1839C
:1065B0002315F1000357A10083A70183F98FBD8341
:1065C000F1CF03ABC181056A23160100B71A001091
:1065D000930BFAF823170100938A0A70130A0A80B2
:1065E0005A8CB767004083A747C4139707014183BC
:1065F0002316E100139707016352070A8354C10071
:10660000BD88B38754018A07984342074183231703
:10661000E1000357C100418B21E30357E1001377E9
:10662000070861D39843A5669386F6F0758F98C3E3
:1066300093974400E29703D74700D147B387F4020A
:106640001377F73FA6852285A297944F98D3369764
:1066500098CFEF00207F71B70357E10042074187D1
:10666000E35107F898433377770198C313974400B1
:106670005A970359C7001379F93F630A091C8357D6
:10668000E100B377FA00638B071A83558B0013057B
:1066900044004A86E13D2285EF0030160357A100F1
:1066A00083A70183F98F1397370163520702BD67F0
:1066B000FD17376700402322F7C483472400A30057
:1066C000F40083C7518393F7F70F91E3ED2203574B
:1066D000A10083A70183F98F13974701635F070226
:1066E000B767004083A707C4C18B85EB83471400BD
:1066F0002301F4009147A300F400B707002083C7EB
:10670000C70993F7F70F63860718F922BD67376744
:1067100000409387F77F2322F7C40357A10083A784
:106720000183F98F93F7072091CFC1679387F7DF34
:10673000376700402322F7C483A7C18681C79C43E3
:10674000228582970357A10083A70183F98F93F7CE
:106750000710B1C741669307F6EF37670040232261
:10676000F7C483C6418393F6F60F95CA83C6418367
:10677000FD1693F6F60F238AD18283C6418393F6E2
:10678000F60F91EE83C6518305456318D510832714
:1067900007C43D167D8E2320C7C4A38A01820357F8
:1067A000A10083A70183F98F93F70740D1C7416701
:1067B000B76700401307F7BF23A2E7C403A7C1814F
:1067C000930600021306000A2310D7009306000662
:1067D0002314D700B706002023ACC608E1769386C1
:1067E000F67F2316D7001307000458C858DC83A689
:1067F00007C065771306F7F8F18EC206C18223A0A1
:10680000D7C003A747C0718F1367170042074183A2
:1068100023A2E7C01307000823A6E7C403A707C005
:106820004207418323A0E7C00D671307072223A077
:10683000E7C08547A300F400410119B2D147B387EF
:10684000F402835587004A86A297A8430533D147AF
:10685000B387F402A297B847B043F4434A974A96E5
:10686000B3862641B8C7B0C3F4C381C6DC5F637C7E
:10687000F900A68522858923D147B384F402A29426
:1068800023A40404B9BBC206C182A6852285F534BF
:1068900089BB0D47238AE18295BD832607C493E611
:1068A0000601C206C1822320D7C40D47238AE18294
:1068B000A38AA182EDB5B767004083A607C44167EC
:1068C0001306B7FFF18E23A0D7C483A607C45D17B4
:1068D000758F23A0E7C4828037670040832707C4F1
:1068E00093E7C700C207C1832320F7C48280828058
:1068F0002851834705002310F600828068518347A2
:1069000025002310F60082803C558A05AE97884307
:10691000834705002310F6008280EFF27F8183C752
:106920002500938461832380F400854663F6F60096
:106930008145AD3C6FF01F820347150009462A844C
:106940001377F70F6302C7028D45E315B7FE03A95E
:10695000C181B9E73C59A300C5002300050081456A
:1069600082972312090031A883A4C18189CB8D4766
:10697000A300F5007C552300D5008545829723921E
:106980000400B766004083A706C065771307F7FBCE
:10699000F98F93C70703C207C18323A0F6C059BF6D
:1069A00083450500E38FD5FA3C59829783C50400DF
:1069B0007C5422852300B40065B7EFF26FF783C7DC
:1069C000050085462A878D8B6388D70481CB89464D
:1069D0006385D70681453A85D13A89A88347150052
:1069E000F91763E5F60483D725006391D704A30163
:1069F000F50083A7C181B766004065772392070041
:106A000083A706C01307F7FBF98F93C70703C207D5
:106A1000C18323A0F6C019A883461500094693F642
:106A2000F60FE389C6FA0D466384C6006FF08FF255
:106A300083C64500E3FCD7FE71BF0346150083C63D
:106A400045001376F60F630EF6008D47E310F6FE51
:106A500083D72500D9FF93F7F607C1DFB685B93292
:106A600049BF93F6F607BDF6D1B7EFF26FEC03C757
:106A70000500411123160100231701000D8B8546E7
:106A8000630AD70219C789476308F7048145393A71
:106A900025A883471500F91763E8F60283473500F8
:106AA00081C789472316F1008946700093050008C5
:106AB000A93419A883471500894693F7F70FE38790
:106AC000D7FC8D466385D70041016FF0AFE883C7DF
:106AD0004500E36DF7FAC9BF0346150083D64500AC
:106AE0001376F60F93F7F60F6309E6020D47E31DE1
:106AF000E6FCE206E18663D6060293F7F707514704
:106B0000B387E702AA9783C7070181C78547231781
:106B1000F10089461306E10051BF93F7F707BDF76F
:106B200065B75147B387E702AA9783C78703F1BFC9
:106B3000EFF20FE083C7050005472A848D8BAE84F2
:106B40006380E70689CB0947638BE7068145228589
:106B5000EFF0DF85A1A083471500F9176360F70404
:106B600083D725006399E7027C59A301050082972A
:106B700083A7C181B766004065772392070083A78A
:106B800006C01307F7FBF98F93C70703C207C1833A
:106B900023A0F6C021A00947E38AE7FA6FF08FDB54
:106BA0000347150089461377F70FE301D7FA8D469F
:106BB000E316D7FE03C74500E3F2E7FE41BF0347F4
:106BC000150083C545001377F70F6301F7028D4762
:106BD000E316F7FC83D7240091E793F7F50799C3F1
:106BE000EFF0DF847C58A685228551B793F5F50731
:106BF000B1FD6DB7EFF2CFD383471500094693F788
:106C0000F70F6382C7040D466384C7006FF08FD40B
:106C100083C64500854763E8D7027C5991C38297B4
:106C200083A7C181B766004065772392070083A7D9
:106C300006C01307F7FBF98F93C70703C207C18389
:106C400023A0F6C0E1B78145EFF04FF6C1B7EFF2F0
:106C50002FCE83471500094693F7F70F6380C702CD
:106C60000D466384C7006FF0EFCE83C645008547AD
:106C700063E6D7007C59E5DB8297F5B78145EFF0F5
:106C8000EFF2D5B7EFF2CFCA03D76500411102C6C4
:106C900085476306F7008145EFF04FF125A0834754
:106CA000150009472A8693F7F70F6387E7000D471A
:106CB000E393E7FE854619A085467000930500081A
:106CC000EFF0BF8341016FF0EFC8EFF26FC683C7EB
:106CD000050041112A848D8BBDE7AE8483D5250044
:106CE000231701000D4793D785006369F70493F5D7
:106CF000F50F15476364B704FD1737C7000813077E
:106D000007B88A07BA979C431306E1008297035796
:106D1000E1002A860DC383D7640091CFBA8663F35E
:106D2000E700BE862317D100C206C1829305000882
:106D30002285EFF08FFC41016FF0CFC181452285A4
:106D4000EFF0CFE6CDBF0547E397E7FE7C59E5D7E7
:106D50008297D5B783D7450099EF83D7650081EF38
:106D600003C725008D461377F707A38BE18283477E
:106D700015006399F600EFF2AFBB8145EFF00FE32A
:106D80006FF04FBD83A7C18137660040E57623923F
:106D90000700832706C09386F6FBF58F93C707038A
:106DA000C207C1832320F6C0894711E38547A300AA
:106DB000F500828082808280EFF28FB72A84ADE96D
:106DC0005C45A1CF74415C5D63FCD7009D8E304172
:106DD00074C1C206C182EFF04FDA01456FF08FB780
:106DE000834715000D476315F7007C5D91C38297BB
:106DF00083A7C181B766004065772392070083A708
:106E000006C01307F7FBF98F93C70703C207C183B7
:106E100023A0F6C023260400C9B7B766004083A7A5
:106E200006C025671307F7E8F98F23A0F6C075B7EA
:106E3000834715000D47E312F7FA83274508D1DF92
:106E4000829761BFEFF2CFAE2A84CDED584549CF8E
:106E5000544D5C4963F4D7029D8E104D54CDC2064B
:106E6000C18293050008EFF04FE981460146814554
:106E70002285EFF08FD001456FF0CFADB3F7F6026A
:106E800081EF63FBE6008146014693050008EFF0C1
:106E9000CFE623260400D1BF83471400232E04002D
:106EA0000D476316F7003C5C99C3228582973767CC
:106EB0000040832707C0E5769386F6E8F58F93E7D1
:106EC0000710C207C1832320F7C0832707C0F176CC
:106ED0009386F6F8F58F8D66B58FC207C1832320A0
:106EE000F7C02326040041BF9387718303C70700BF
:106EF00059D313670708B766004023A6E6C423806A
:106F0000070095BF5147B387E502AA97D44F98531E
:106F1000998ED4CF99EA834715000D47E31DF7F406
:106F200083270508A9DB8297B9B7904FC206C182B3
:106F3000EFF0AFDC89B7EFF2AF9F83C7150013976F
:106F40002700B7C700089387C7B8BA979C438297B2
:106F500001456FF02FA0EFF2AF9D034715008D465E
:106F6000AA876393E60483C6450005472E84636DB4
:106F7000D7027C5982978357640085E71DE183A778
:106F8000C181B766004065772392070083A706C0DA
:106F90001307F7FBF98F93C70703C207C18323A029
:106FA000F6C001456FF00F9B81453E85EFF00FC0A5
:106FB000CDBF834745002380F50083475500A3805C
:106FC000F5008347750003476500A207BA97239130
:106FD000F5008347950003478500A207BA972392DF
:106FE000F5008347B5000347A500A207BA97C2077B
:106FF000C1832393F5005CC58280EFF26F9341114A
:107000002C002A847D37834781001307000293F701
:107010000706638EE700130700046386E70081EF2D
:107020002C002285093F014541016FF0AF922C00F1
:1070300022851537CDBF81452285EFF02FB7E5B703
:10704000EFF20F8F8145EFF06FB66FF0AF90EFF278
:107050002F8E0145EF406054854537058010EF4085
:107060008065156585451305D581EF40E0626FF0B9
:107070006F8EEFF2EF8B41110945EF40204605443A
:107080009307401228002314F10022C623050100B3
:10709000EF40204593079022280022C62314F100D8
:1070A00023050100EF40E04341016FF0AF8AEFF2AA
:1070B0002F88411137050400EF40400CB70704004A
:1070C0003EC0B1473EC40A8585473EC602C2EF4076
:1070D000400441016FF00F88EFF28F8501116800C5
:1070E000EF40404D37340140130504C0EF4040628B
:1070F000E24737470F0013070724B3D7E7028A8513
:10710000130504C02311010023040100FD172310FF
:10711000F1009307703E3EC2EF40406705461305FD
:1071200004C08545EF4040708545130504C0EF401D
:10713000E06DB7F700E023A00700814694C7014740
:10714000D8C77D5690CB8146D4CB154798C30561EF
:107150006FF04F80EFE2DFFD37440140AA85130551
:107160000480EF40700C13040480854493050004F0
:107170002285EF40100CE31B95FE6FE0BFFDEFE2B0
:107180003FFBC93F6FE01FFDEFE29FFA374401402C
:10719000411113050480EF40206D0A85EF40300255
:1071A000F167938707208A85130504803EC0EF406E
:1071B000807305461305048093055052EF40700319
:1071C000854513050480EF401001B7770008372785
:1071D00000209387E717232AF72841016FE09FF7E4
:1071E000EFE21FF5156513055555EF40C02C154509
:1071F000EF40E02C13051027EF40E02CEF40202D4E
:107200006FE05FF537170140C1462328D7808327F9
:107210000780B706F1FFFD16F58FB7060800D58F7A
:107220002320F780828037170140C146232AD78068
:1072300083270780B706F1FFFD16F58FB70602001A
:10724000D58F2320F7808280EFE29FEE4111B7C5F2
:1072500000083146938585B04800EF40607F3715C0
:1072600001404C00130505C0EF40201441016FE0C0
:107270007FEEEFE2FFEB37C400080111130484B086
:107280009305C40031462800EF40807C31469305C9
:1072900084014808EF40C07B371401402C001305DF
:1072A00004C0EF4080104C08130504C0EF40E00F0D
:1072B00005616FE03FEAEFE2BFE7B7C4000839714C
:1072C000138484B09305440231464800EF4040786F
:1072D0009305040331460808EF4080779305C40303
:1072E00031466808EF40C076938584B03146281057
:1072F000EF4000763146930584044818EF4040750E
:10730000371401404C0013050480EF40000A0C08BC
:1073100013050480EF4060096C0813050480EF40FA
:10732000C0082C1013050480EF4020084C181305EA
:107330000480EF408007930700022328F480C147B0
:107340002328F480930700082328F480A144232AEB
:1073500094800545DD2A1304048004C821616FE090
:107360007FDFEFE2FFDC37C400083971130484B01B
:107370009305440231464800EF40806D93050403B5
:1073800031460808EF40C06C9305C40331466808D5
:10739000EF40006C9305440531462810EF40406BE8
:1073A0003146930584044818EF40806A3714014041
:1073B0004C0013050480EF30507F0C081305048047
:1073C000EF30B07E6C0813050480EF30107E2C1077
:1073D00013050480EF30707D4C1813050480EF30E6
:1073E000D07C930700022328F480C1472328F4802F
:1073F000A144232A94800545892A1304048004C8E3
:1074000021616FE03FD5EFE2BFD241113714014057
:10741000930700200549E1444C0013050480231222
:10742000F1004AC426C6EF3050789307004023127B
:10743000F1004C0093078004130504804AC43EC643
:10744000EF30B0768967938707802312F1004C00F4
:107450008D47130504803EC426C6EF30107589653C
:107460009385058013050480EF40A003F13B11359F
:10747000CD3D41016FE01FCEEFE29FCB37C4000846
:107480003971130484B09305040631464800EF4077
:10749000205C9305C40631460808EF40605B930505
:1074A000440531466808EF40A05A9305C4033146AD
:1074B0002810EF40E0593146930584044818EF4006
:1074C0002059371401404C0013050480EF30F06D53
:1074D0000C0813050480EF30506D2C101305048048
:1074E000EF30B06C6C0813050480EF30106C4C1852
:1074F00013050480EF30706B21616FE0BFC5B727C3
:107500000240C84F7A057D858280EFE27FC2137406
:1075100005F0EF30F0632285EF305066130504105C
:10752000EF30D06513050420EF30506513050430AB
:10753000EF30D064EF30B06311456FE0BFC1938787
:1075400081839843050798C38280138781831443FE
:10755000938781839843158F6363A700828001001E
:10756000D5BFEFE25FBB37240020B7040020232CF7
:107570000418938404000D4A954A130B200337190D
:107580000140854983C714006314FA006FE0FFBB14
:107590000327841993071700232CF41811E72328D5
:1075A00039C129455D37F9BF63955701232A39C190
:1075B000CDBFE39867FF232C0418E5B7EFE2BFB512
:1075C000B7C5000837F5FF1F9385C5D81305857E1D
:1075D000EF30A059B707000803A7C70F630DA70432
:1075E00083A7470F2A846388A70413059003EF300D
:1075F000C048630285040144B71401400549894924
:1076000093771400138704C08DC323282701937731
:107610001400138704C089EF2328370105041305DC
:1076200020031374F40F1537E1BF232A2701C5B7D0
:10763000232A3701E5B76FE05FB1EFE2DFADEFF08E
:107640001FA1EF30E036EF30403FEFF09FA2EFF0A8
:10765000BFA8553BEFF0BFA5EFF01FB34D3501E9D3
:10766000EF3070320545EF30F03EEF3070333714B5
:1076700001400549232824C1EF10E07E232A24C1BC
:10768000353F2945D935B704002013850400EFE0C4
:107690003FADF522374702408327078093840400DB
:1076A000B719014093E727002320F7809547A3806F
:1076B000F400453D13054006232A24C17935B7540B
:1076C0000200B7270020372400209384049F4969D3
:1076D00023AC0718232E94181309894FEFF05FB0DD
:1076E000054AEF30D05EA92D1DE18327C419639AA6
:1076F000270123A849C18327C419FD17232EF41895
:10770000CDB7F5FB23AA49C1232E9418EDB7232E3C
:107710009418C1BF01458280EFE29FA183C7050095
:1077200083D625002A8793F7070613D6860093F69B
:10773000F60FD5CB1308000201456394070B83C7EE
:1077400015002945FD1793F7F70F6368F50837C54E
:1077500000088A071305C5CCAA979C4382878547F2
:107760006314F60237260020930600041306461E13
:10777000930510083A85EFE05FD893878185984399
:10778000050798C30145B1A88D47E318F6FE3726D3
:1077900000209306000413068622D9BF9387C18573
:1077A000F9BF83A74186372600202306F6228546A7
:1077B0001306C622930500083A85EFE01FD4D9B717
:1077C00023A2C18681460146F5B73726002083A74C
:1077D0008186E1BF23A4D186F5B73A85EFF05F86B5
:1077E00009456FE03F9783C715001378F60F2946C8
:1077F000638EC7042D466381C70699460145E3920F
:10780000D7FE930710026303F80293062002631C5D
:10781000D80283D6650063F4D70093061002C2062F
:1078200037C60008C1821306C6C769B783D665008C
:10783000A54763F3D700A546C20637C60008C18234
:10784000130626C685BF01468146ADB78546138619
:1078500001869305000895B723A0D18625B7EFE2EE
:107860003F8D930510082A84EFE07FAA2285854585
:10787000EFE0FFA901456FE0FF8D01458280238085
:10788000018423A2018423A401840547A386E18403
:107890002386018423A8018423AA01848280EFE245
:1078A0003F8937C600081306B6C681452A84EFE033
:1078B000DF8D37C600082285130626C78145EFE015
:1078C000DF8C372600202285930600041306061A53
:1078D0008545EFE09FAA653701456FE0BF87854783
:1078E0000147631BF5066399A606EFE27F84938741
:1078F00041858843938501858C4113844185938418
:1079000001856317B50083C7C18493F7F70FB1C32F
:107910001C40B7150020938585119A073285BE95C6
:1079200013060004EF40C0121C4013090004850731
:107930001CC01C40639427012320040014409C4079
:10794000130700046394F600238601843A856FE0F0
:107950007F80A386D184DDBF3A858280EFE24FFD30
:10796000854789446399F5069387C1831387E1832B
:1079700083D70700035707002A891384C1839384A0
:10798000E18363E0E7023726002085461306461EA2
:1079900081450545A937420541812390A400231064
:1079A000040083D704001307000481446315F70221
:1079B00037260020930600041306461E9305100880
:1079C0004A85EFE09FB38357040093870704C207FB
:1079D000C1832310F40026856FE0CFF78947631138
:1079E000F508BDCE034706009D47B2856318F70032
:1079F000B727002005472388E7288280EFE24FF36E
:107A000013870184034707001377F70F93840184DA
:107A1000138441841389818411C718408327090086
:107A2000630EF7021C4037050020130585119A07E5
:107A30003E953686EF40C0011C4085071CC01840AB
:107A4000930700046314F7002320040018408327E1
:107A500009006315F70085472380F4006FE08FEF7E
:107A600082808547639AF502EFE28FECB72400200D
:107A70002A8405471386041A9306000481450945A4
:107A8000B13F2285930600041386041A8545EFE072
:107A9000DF8E01456FE00FEC09458280EFE2AFE732
:107AA000034705001D48130607031376F60F6360AE
:107AB000C8202380E5001307F7021377F70F194654
:107AC000AE8693841500636BE60037C600080A078C
:107AD000130686CF32971843AA890287B7F7FF1F8C
:107AE00083A747709384550013D78700A380F500C0
:107AF0002381E50013D70701E183A381E5002382F9
:107B0000F5001307F00FA1AAEF30E067DDBFEF30FB
:107B10002069C5BF03471500034525002205598D7F
:107B200003C739004207498F03C549006205598DD3
:107B3000EFF0BF9DF9B70347250083461500834743
:107B400055002207558F834635001306F00FC206F5
:107B5000558F83464500E206D98E0347650022070C
:107B6000D98FB697C207C183139706014183E38A71
:107B7000E7F81387160083C60600E394C6F8BA86B2
:107B8000E5B70344650003475500930680032204CC
:107B9000598C1307F00F63E4860C03472500034953
:107BA0001500930975002207336727010349350043
:107BB000054A914A42093367E900034945006209D1
:107BC0003369E9001DDC83C50900631D4401C2055A
:107BD0008509C18101444A85EF306064E31355F3A0
:107BE0000909CDB783C7190079144204A207DD8DB6
:107BF00041808909CDB703466500034755009305C9
:107C0000E0032206598E1307F00F63EAC50483C50B
:107C100029000345150083C74900A2054D8D83C582
:107C20003900E207C205C98DCD8FB745000863E86A
:107C3000B7023795000871056397A7029145631A4B
:107C4000B6029307A004A38006002381F600A38157
:107C500006002382060093846600A3820600238028
:107C6000E4006FE08FCEB385B7406364B700096767
:107C7000BA9793842600A38006001307F00F93069B
:107C8000F6FFC206C18261DE83C5070091C623806C
:107C9000B4008507BA85850436862E87CDB7B70729
:107CA000EFBE37E700E0938707083CC799BD992AE4
:107CB0004DBF93070004014563C3C708EFE2AFC59A
:107CC000370900209307090083C717000D47930663
:107CD00009006313F7060D459389E18383D70900F3
:107CE000C207C183B1E33284372A002013054A1E3C
:107CF0004204EF30F0559384C18341802390040007
:107D0000A28613064A1E1305090093051008239046
:107D10008900EFE08FFE03D604000545329442044B
:107D200041802390840011A883C71600E306F5FA6A
:107D3000239E01822390090001456FE00FC18280DC
:107D4000EFE26FBD93878184944313874184184386
:107D500093848184938941846398E60083C7018476
:107D6000014593F7F70FB5C7138701859C4018436A
:107D700037190020370500201A079A079305891143
:107D800013058511BA953E95113B98409306000462
:107D9000938701850507130989116313D7000147EC
:107DA00098C0944003A709006394E60023800184EF
:107DB0001387D1848346070093F6F60F89CE2300FC
:107DC00007008C431306000401459A05CA95D53572
:107DD00005456FE08FB798439306000405076313CA
:107DE000D700014798C3984383A741850545E3120F
:107DF000F7FE2386A184F1BFFD5741652380F5007E
:107E000005058280EFE2CFAF834705007D4779719A
:107E100093C607086367D700EF10200945616FE03C
:107E2000EFB1138707061377F70F9306E00563E4B6
:107E3000E600D937E5B7138715003AC42380F5006B
:107E400075472E846374F7006F10000137C7000870
:107E50008A07130747D1BA979C43AA898287834729
:107E600015001307000F6388E704636DF7001147DF
:107E7000638AE702014537090200A300A40009094B
:107E80004A9569BF1307E00F6381E7041307F00FFA
:107E9000E392E7FE930700042381F500A381050028
:107EA0000945D1BF19469385418213052400EF305F
:107EB000303A1945C9B703A7C1809307300311E3CE
:107EC000CD472301F40005457DB793070004D5BFD6
:107ED0008347150089CF0547638BE702FD57A380D1
:107EE000F5003709020005094165050551BF034743
:107EF0002500B7170140938707C0058B11C70547B9
:107F000098CBA3000400F1BF0547D8CBDDBF0347E2
:107F10002500B7170140938707C0058B19C3094790
:107F2000C5B70947DDB78347150099CB0547638976
:107F3000E7000947638FE7008147A300F4004DA4E1
:107F4000B727002005472386E726EFF08FC1854736
:107F5000EDB7372700202306F726EFF0CFB5894786
:107F6000E9BFB7270020238607260549EFF0CFD0C9
:107F7000A300040095BF8347250003471500B746BB
:107F80000F00A2075D8F83A7C18093860624B3D715
:107F9000D7028D468907B3D7D702B387E7023ED60B
:107FA000B257FD173ED6EDFFA9BF23810500A38080
:107FB0000500094915BF03464500834635000347C0
:107FC00025002206558E8346550083471500C206BC
:107FD000558E8346650013751700E206D18E01CDDC
:107FE0003716014093F5170013060680638E0510BF
:107FF000930500020CCA13782700630C080037169B
:10800000014093F527001306068063830510C145E0
:108010000CCA93784700638D080093D52700371664
:108020000140858913060680FDC5930500080CCA2A
:108030001313870113538341635B03003716014019
:1080400093D5770013060680F9C9A1450CCAA5CEC1
:10805000B7F600E09046D44693DF1700B28593D27E
:10806000270093D3570093D477001377070237166E
:10807000014037FF00E019C58326C6809582858AB6
:10808000639DD70263080800832686809182858AD3
:108090006395DF02638808008326C6809D82858AF7
:1080A000639DD20019C3639A0300635E03008326B5
:1080B00086808D82858A6388D400032E8F00832E6C
:1080C000CF00E38AC5FB371701400326C78083270B
:1080D00087808325C78083268780130707801847FA
:1080E0008D839581898B91891582CD8F058A8D82AB
:1080F000D18FA18A1207D58F13770708D98FA300D4
:10810000F40037090600C5B3930500024CCAE5B573
:10811000C1454CCAFDBD930500084CCA11BFA1451D
:108120004CCA35B78346250083471500A206D58F74
:1081300083463500C206DD8E83474500E207DD8EAB
:1081400099E6FD57A380F5003709040069BB03A732
:10815000C180372600201306C6269357270063EAFE
:10816000F6008547A300F60085475CC2A300040023
:10817000E1BF93571700FD17B697B3D7D702A300F7
:1081800006008946054763F5F6000D4733D7E70239
:1081900058C2E9BF0349150093052500631409007F
:1081A000130900104A851D09EF1090641359390016
:1081B000A3000400050942091369190035B3834778
:1081C0001500372700201307C72693F63700898349
:1081D0008506858B230CD700A30CF700A380050030
:1081E000416911B3A380050083441500138B25005A
:1081F00093072500854A05497D5CFD14639684013B
:10820000420933695901CDB103CA070093891700A8
:108210001374FA0319E013040004931B8A011D046C
:1082200093DB8B410D8063D30B02EFE0BFFD5A86D9
:10823000CE855285EF10706299E0EFE0DFFE050910
:1082400063D90B00229BA29ACE8745BFEFE0BFFD0A
:10825000F9BFA2992299CDBFA3800500034A15005A
:10826000938A25009307250085490549FD5B7D1A02
:1082700063167A01420933693901BDB183C407002D
:10828000138B170013F4F40319E01304000426857C
:108290001D045686DA850D80EF001042E2041307B4
:1082A0001400E184B3078B003A99E3D204FCA29A4C
:1082B000A29975BF03491500B72700209387C726E9
:1082C000238D2701630A090003472500239F070028
:1082D00023900702238EE700A3000400E1BDB72727
:1082E000002083C6C72609476393E60403471500A9
:1082F0009387C726A38DE70083C7A7016379F70299
:108300003945EF100013EF00F04793578500230124
:10831000A400A301F4004169935705016181A30002
:1083200004002302F400A302A400150975BEFD5742
:1083300029B103471500B72700209387C726238656
:10834000E70003473500834625002207558F239811
:10835000E70003475500834645002207558F2399C0
:10836000E700A300040037090500B5BE372A002046
:10837000834DCA26930715003ECA85476386FD02D2
:1083800089476382FD3A03472500130935006312CC
:108390000772D247A3000400230104003309F94007
:1083A00042091369290089B6B7240020B7270020A5
:1083B000130D3500834C2500938D35002388042848
:1083C000014C814B014502C8138AC726094B854AD7
:1083D000639C0C0405466319C502638E0B30B727F6
:1083E0000020938BC72603D90B0189496C103945AE
:1083F000EF105053631E352D6308090083C604290E
:108400007D1993F6F60FFDD2C2472301A400A30005
:10841000F400D2473309FD40A247131509013389FF
:10842000FD4033692501C9B483490D0093071D0040
:108430003EC613F629006307061E63870B0813F672
:10844000190103590A01631F56036C104E85EF1082
:10845000704D631A65056308090003C604297D1978
:108460001376F60F7DD2324D03460D00937526002C
:10847000638E0524418A631B0624050DFD1CE395CC
:108480000CFE89BF6C103945EF10D049631C6501A3
:108490006308090083C604297D1993F6F60FFDD2FF
:1084A000814BD1B7814BE31055FD3256910D935559
:1084B0008600238ECDFEA38EBDFE935506016182FC
:1084C000238FBDFEA38FCDFE93F5090103560A014C
:1084D00093F81900D5CD03492D0083451D0093075E
:1084E0005D002209B365B90003493D003EC642095B
:1084F0003369B90083454D00035D2A01E20533E984
:1085000025016384080281454E8532CCEF109041ED
:10851000631B6501624621DA03C704297D161377C0
:10852000F70F75D389B7E31055F583580A016C101E
:108530004E8546CCEF10103F2A8763166503E2484C
:108540006388080003C60429FD181376F60F65D268
:1085500003264A01B2556D8E6308C90213650701EF
:108560001375F50F09B783254A0132566D8EE31155
:1085700055FFE30FC9FCE30D0DFC03C604297D1D67
:108580001376F60F5DD2E9B7E31F57ED014C15A83E
:1085900063870804E39C0BFE81454E8532CCEF10C7
:1085A0007038631C65016246E30C06EE03C70429BC
:1085B0007D161377F70F6DD37DB5E31655EB014CA0
:1085C000854BC24703C704291386FCFF85073EC8B5
:1085D0001377F70FE31907E8B28C324DD5BB6C1057
:1085E0004E8532CCEF101034631C65016246E30CFB
:1085F00006E603C704297D161377F70F6DD3A5B5DB
:10860000E31355E73257910D13568700238EEDFE85
:10861000A38ECDFE135607016183238FCDFEA38F5A
:10862000EDFEADB763840B0403590A016C103945A4
:10863000EF10502F631B6501E30709E203C604290D
:108640007D191376F60F7DD239BDE31E55E1B25682
:10865000910D13D68600238EDDFEA38ECDFE13D69C
:108660000601E182238FCDFEA38FDDFE03462D00A0
:1086700083461D0093075D002206558E83463D000C
:108680003EC613F70902C206558E83464D00E20628
:10869000D18E36D611C7232ADA00814B054515B78E
:1086A000835B0A016C104E85EF10D027631B6501B8
:1086B000E38B0BDA03C70429FD1B1377F70F7DD378
:1086C000C5B3E31F55DD054C814BE5BD150D7DB3ED
:1086D0008546E31BD5D2B256910D13D68600238E64
:1086E000DDFEA38ECDFE13D60601E182238FCDFEE3
:1086F000A38FDDFE11BBE3090CD0B7270020938BBD
:10870000C72603D90B01894981453945EF109021CE
:10871000E31C35CFE30A09CE83C604297D1993F6FD
:10872000F60FFDD2D5B1834715001307CA26B72A25
:108730000020A30DF7000347A70123880A28138907
:108740003500130ACA2663F1E736130D3500834C52
:10875000250001478149014502C8894B054C639EAC
:108760000C04BA840547631AE50229476385E400CF
:108770002945EF00104C83540A016384092E89496E
:108780006C103945EF10800A631D352F99C403C75B
:108790000A29FD141377F70F65D7C2472247230133
:1087A000A400A300F400D2473309E940B307FD4019
:1087B000C20733E927016FF02FF3034B0D00930736
:1087C0001D003EC693741B0093762B00A90463849E
:1087D000061C6389090883560A01631897021376F9
:1087E0000B0105E66C105A853ACE36CCEF1000042A
:1087F000724763187505E24699C603C60A29FD1635
:108800001376F60F65D2BA8465A8A9476307F70007
:10881000294536CCEF00F041E246B6896C10394567
:10882000EF10C000631D75016380091A03C70A2990
:10883000FD191377F70F7DD3A944814951A029472A
:108840008149E31285FDB256110913D68600230E25
:10885000D9FEA30EC9FE13D60601E182230FC9FE7D
:10886000A30FD9FE93760B01F1CE83462D0003466C
:108870001D00A206558E83463D00C206D18E0346DA
:108880004D006206B367D6003ECC93075D003EC63E
:10889000035D2A016385E4002685EF0090390357C4
:1088A0000A0181455A853ACEEF0050786319750365
:1088B000724719C783C70A297D1793F7F70FF5D3B6
:1088C000324D03470D0093762700638A0618418BCB
:1088D00063170718050DFD1CE3950CFE61B5E31148
:1088E00085FF03570A016C105A853ACEEF001074C9
:1088F000AA87631C7501724719C783C70A297D17A8
:1089000093F7F70FEDD3EE8715A003274A01B25670
:10891000758F631D8501E246638AE60063080D00DA
:1089200003C70A297D1D1377F70F45DFB2560327CA
:108930004A01758FE246638FE61013E50701137550
:10894000F50FBDBF639B09106385E4002685EF002A
:10895000502E035D0A0181455A85EF00306D631B7F
:108960007501E30C0DEC83C70A297D1D93F7F70F02
:10897000FDD3B9B7E31685F58549C2479386FCFF59
:1089800085073EC883C70A2993F7F70F95FB26870B
:10899000B68C324DE9B3638D0904A9476305F7002E
:1089A0002945EF00102983560A016C10394536CC51
:1089B000EF00D067631C7501E24699C603C70A2918
:1089C000FD161377F70F75D3A944DDBDE31E85FFB0
:1089D0003257110993568700230EE9FEA30ED9FEE4
:1089E000935607016183A30FE9FE230FD9FE2947A0
:1089F00003462D0083461D0093075D002206558E19
:108A000083463D003EC693770B02C206558E8346D1
:108A10004D00E206D18E36D699C7232ADA00BA84F1
:108A20008149054599BF6385E4002685EF007020E4
:108A300083590A016C105A85EF00505F631B750162
:108A4000E38009E883C70A29FD1993F7F70FFDD3DF
:108A5000EDB38149E30385F3A5B5BA8439BF150D9C
:108A60009DBD894981453945EF00505CE31735D3F9
:108A7000E38504D203C70A29FD141377F70F7DD3CA
:108A800029BB0547E31BE5D03257110993568700F0
:108A9000230EE9FEA30ED9FE935607016183230F2F
:108AA000D9FEA30FE9FED5B9130D250002C8014573
:108AB000EDB18347090093F6270091C6C18B81E78A
:108AC00005097D17E9B01509EDBFB724002083C75C
:108AD000C4260547638DE70009476384E718A38030
:108AE000050023810500A38105000D49F9A8834AEB
:108AF000350083472500372B0020A20A23080B28C6
:108B0000B3EAFA0013894500638B0A14834B4500CE
:108B10009384C42693F72B009DEB930C5500014AD8
:108B2000094D854D03DC040163984A0F8944FD5AC1
:108B300081453945EF10005F631E95067D1C630B70
:108B40005C0783470B2993F7F70FFDD3A5A093F795
:108B50001B0085CB03DA0401094C81455E85EF10CB
:108B6000605C631C850163070A0483470B297D1A37
:108B700093F7F70FFDD3014A35A88547014A631BD8
:108B8000F502014A854C094D63969A0193F71B0043
:108B900091C3B94B03DC04016C105E85EF10805863
:108BA0006316A50563080C0083470B297D1C93F70A
:108BB000F70FFDD3A3004401135A8A002301440197
:108BC000A247A301A4003309F94083C74900370530
:108BD0000400898BE397078403C5390083C7290004
:108BE00022055D8D05054A056FF0BF83FD1AE3136D
:108BF00095FDB2571109050A13D78700A30EE9FEA8
:108C000013D70701230EF9FE230FE9FEE183A30F1B
:108C1000F9FEE39B0AF679BF03C71C0083C70C006B
:108C2000910C22075D8F83C7ECFFC2075D8F83C75E
:108C3000FCFFE207D98F3ED66C105E85EF10804EA8
:108C4000631BA501E3080CF683470B297D1C93F7F2
:108C5000F70FFDD385B7E31FB5F5050AE1B501456B
:108C600019BF834715001387C426B72A0020A30D18
:108C7000F7000347A70123880A2813894500938436
:108C8000C42663F8E714034A350083472500220A07
:108C9000336AFA00630F0A12034C4500137B1C0071
:108CA000290B5A85EF00E07893772C00E28BA1EB3B
:108CB000938B5900814D894C054D03C71B0083C719
:108CC0000B00910B22075D8F83C7EBFFC2075D8FFF
:108CD00083C7FBFFE207D98F03D704013ED66C1090
:108CE00062853AC6EF009034631A950B324735CB54
:108CF00083C70A297D1793F7F70FF5D39DA083DD6E
:108D00000401894C81456285EF005032631C950156
:108D100063890D0483C70A29FD1D93F7F70FFDD35F
:108D2000814D81A08547814D631DF502054C294D7C
:108D3000894C63178A01B94B6304AB012945D52DD2
:108D400003D704016C105E853AC6EF00302E631124
:108D50009503324719C783C70A297D1793F7F70F81
:108D6000F5D3A300B40193DD8D002301B40189BDC7
:108D70007D1AE31885FFB2571109850D13D78700B7
:108D8000A30EE9FE13D70701230EF9FE230FE9FE18
:108D9000E183A30FF9FEE31E0AF8E1B7E313A5FD93
:108DA000850DE31CBAF1A9476304FB002945512551
:108DB00083D40401094A81453945EF003027E31285
:108DC00045FBC5D083C70A29FD1493F7F70FE5D7F4
:108DD00049BF0145B1B7B727002003C7C72685465D
:108DE000630AD7008946630CD702FD57A300F4003D
:108DF0006FF06FD703473500834725006C102207BB
:108E00005D8F83474500C2075D8F8347550001454D
:108E1000E207D98F3ED6EF10E0306FF08FD40347D2
:108E200015009387C726A38DE70083C7A701E37EBC
:108E3000F7FA2145FD2B03C5390083C72900220518
:108E40005D8D83C74900C207C98F03C559006205FC
:108E50005D8DC5246FF0EFD0FD5741652300F40010
:108E600005056FE0BFFBEFD2AFAC03A7C180B786AB
:108E70001E00938606483357D702B7270020239653
:108E800007269387C7262386070023AA0700238D7A
:108E900007007917D8C31307400698CB0547239CD2
:108EA000E700EFE06FDD6FD0EFAA83470500416573
:108EB00005052380F50082809376F50399E29306F9
:108EC0000004B717014013770504938707801DCF6F
:108ED000414798CB372300201303C326371E014098
:108EE000130F0008930F000213750508850583CE44
:108EF000F5FF8322430021488147D9E211C5B3D74A
:108F000007012300F6000506F5F282804147D8CB21
:108F1000D1B7850583CEF5FF8322430021488147E1
:108F2000A1C613F71E0093080E8021CB23A8E801E9
:108F3000232AFE8116C632477D173AC66DFF0327E6
:108F40008E802328FE8116C41983058BA248FD1844
:108F500046C4E39D08FE85831E077D1893DE1E0030
:108F6000D98FFD16E31E08FA11C5B3D707012300F8
:108F7000F6000506D9FE4101828023AAE8014DBF13
:108F8000411145B7B7170140414723A8E7801307B0
:108F9000000223AAE780372700209307C726DC4377
:108FA00039719306C7263ECA52477D173ACA6DFFEC
:108FB00037170140130600022328C7803EC84247E6
:108FC0007D173AC86DFF371701404146232AC780F5
:108FD00013060002232AC7803EC632477D173AC6D1
:108FE0006DFF37170140130600022328C7803EC4D7
:108FF00022477D173AC46DFF371701401306000260
:10900000232AC7803EC212477D173AC26DFF371729
:109010000140130600022328C7803EC002477D1787
:109020003AC06DFF03C7B601371601409305000231
:109030006DE3B7160140FD459386068013080002D4
:109040009308000223AA16013ED212567D1632D290
:109050006DFE884623A806013ED019810589025677
:109060007D1632D06DFE7E05598DFD151357150006
:10907000F1F9B7160140414623A8C6801306000245
:1090800023AAC6803EDEF256FD1636DEEDFEB7168A
:10909000014003A586801306000223A8C68019811B
:1090A00005893EDCE256FD1636DCEDFE7E05598D67
:1090B0009306000237170140232AD7803EDA525721
:1090C0007D173ADA6DFF3717014093060002232817
:1090D000D7803ED842577D173AD86DFF37170140E9
:1090E000C146232AD78093060002232AD7803ED682
:1090F00032577D173AD66DFF3717014093060002AD
:109100002328D7803ED4A257FD173ED4EDFF21611E
:109110008280232AB6803ECEF246FD1636CEEDFE84
:109120002328B6803ECCE246FD1636CCEDFE7D17F8
:1091300001B7B7170140414723A8E7801307000292
:1091400023AAE780372700209307C726DC435971FD
:109150009306C7263ECA52477D173ACA6DFF371796
:109160000140130600022328C7803EC842477D17EE
:109170003AC86DFF371701404146232AC7801306BE
:109180000002232AC7803EC632477D173AC66DFFCC
:1091900037170140130600022328C7803EC4224728
:1091A0007D173AC46DFF3717014013060002232ACA
:1091B000C7803EC212477D173AC26DFF3717014084
:1091C000130600022328C7803EC002477D173AC01D
:1091D0006DFF83C6B60137160140930500021307E1
:1091E00006806397061C9306000854CB9306000282
:1091F00054CB3EDA52577D173ADA6DFF37170140EC
:10920000930600022328D7803ED842577D173AD8CC
:109210006DFF3717014093060002232AD7803ED600
:1092200032577D173AD66DFF37170140930600027B
:109230002328D7803ED422577D173AD46DFF3717A5
:10924000014093060002232AD7803ED212577D1791
:109250003AD26DFF37170140930600022328D780CA
:109260003ED002577D173AD06DFF371701407D463B
:1092700013070780930500081308000293080002F3
:1092800093761500638506140CCB232A17013EDE66
:10929000F256FD1636DEEDFE232807013EDCE256CF
:1092A000FD1636DCEDFE7D16058179FA37260020A5
:1092B0009306C62603C7A60183C6B6018545058960
:1092C000158FB7160140938606801306C6266303E2
:1092D000B7129305000875CD8CCAB71601409305E7
:1092E000000223AAB680BEC29646FD16B6C2EDFEA7
:1092F000B71601409305000223A8B680BEC086467B
:10930000FD16B6C0EDFE7917B71501401305000232
:109310009386058069E3414798CA13070002D8CABB
:10932000BECA56477D17BACA6DFF3717014093066C
:1093300000022328D780BEC8C647FD17BEC8EDFF70
:10934000B71701401307000223AAE7805C42BED68C
:1093500036577D17BAD66DFF3717014093060002C6
:109360002328D780BED426577D17BAD46DFF371770
:109370000140C146232AD78093060002232AD780C2
:10938000BED216577D17BAD26DFF3717014093062C
:1093900000022328D780BED08657FD17BED0EDFF30
:1093A000B71701401307000823A8E7806561828092
:1093B0004CCB3ECE72477D173ACE6DFF2328B68048
:1093C0003ECC62477D173ACC6DFFFD1609BD4CCBF4
:1093D0006DBDCCCA19B7C8CABEC6B646FD16B6C65C
:1093E000EDFE23A8A580BEC4A646FD16B6C4EDFEBC
:1093F0007D1739BF414798CA130700080DC998CA9D
:109400003717014093060002232AD780BECE764745
:109410007D17BACE6DFF371701409306000223284F
:10942000D780BECCE647FD17BECCEDFF11BFD8CA32
:10943000C1BF372700209306C72603C6B60113070E
:10944000C726930786008607B69783C6160083D57E
:10945000E700B717014093870780638206124148EF
:1094600023A8070193060002D4CB94CBD4CB94CB92
:1094700023AA0701D4CB94CBD4CB94CB930600087A
:1094800094CB3718014093070002C9ED3A96834701
:10949000C601054337160140930500081308000272
:1094A00093761500639667088347B701A10786077F
:1094B0003E9703570701B71701409387078059CF9D
:1094C000D9C69306000894CBB71701409306000253
:1094D00023AAD78023A8D7809306000823A8D78083
:1094E00037160140930600027D179307068025E793
:1094F000414798CB13070002D8CB98CBB717014050
:109500001307000223AAE78023A8E780C14623AA05
:10951000D78023AAE78023A8E7801307000823A8A1
:10952000E7808280232AF8802328F880FD15B1BFC8
:109530009308068091CA23A8B800232A068123280D
:1095400006810581FD17A9BF23AAB800FDB79306C0
:109550000008D4CB95BFD4CB94CB79B7414798CBF7
:109560001307000899CA98CBB717014013070002E8
:1095700023AAE78023A8E78051B7D8CBF5B7C14627
:1095800094CB93060002D4CB5C431D71BEC08646CB
:10959000FD16B6C0EDFEB71601401308000223A861
:1095A0000681BEC29646FD16B6C2EDFEB716014054
:1095B0001308000223AA0681BEC4A646FD16B6C43F
:1095C000EDFEB71601401308000223A80681BEC6AF
:1095D000B646FD16B6C6EDFEB7160140414823AAB1
:1095E00006811308000223AA0681BEC8C646FD16DE
:1095F000B6C8EDFEB71601401308000223A8068185
:10960000BECAD646FD16B6CAEDFEB716014013080F
:10961000000223AA0681BECCE646FD16B6CCEDFEBE
:10962000B71601401308000223A80681BECEF646F5
:10963000FD16B6CEEDFE13080008B716014023A8AC
:1096400006819308000237180140639505123A9687
:109650008345C601054E37180140930800081303DF
:109660000002137615006397C5138347B701A1075E
:109670008607BA9783D60701B717014093870780FB
:1096800063860616630106141306000890CBB7170D
:1096900001401306000223AAC7805C433ED4225631
:1096A0007D1632D46DFE3716014093050002232843
:1096B000B6803ED632567D1632D66DFE9305000832
:1096C000371601402328B6800548B7150140130519
:1096D000000213860580639C060FC14614CA9306D8
:1096E000000254CA3ECCE246FD1636CCEDFEB7165B
:1096F00001401306000223A8C6803ECEF247FD17A4
:109700003ECEEDFFB71701409306000223AAD78093
:109710005C433EC002477D173AC06DFF37170140DA
:10972000930600022328D7803EC212477D173AC213
:109730006DFF37170140C146232AD78093060002E8
:10974000232AD7803EC422477D173AC46DFF3717BE
:109750000140930600022328D7803EC6B247FD177A
:109760003EC6EDFFB71701401307000823A8E780A6
:1097700025618280232A18813EDCE256FD1636DC04
:10978000EDFE232818813EDEF256FD1636DEEDFE94
:10979000FD1565BD9306088005C623A81601232A7A
:1097A00068803ED8C256FD1636D8EDFE2328688064
:1097B0003EDAD256FD1636DAEDFE0581FD1555B5B9
:1097C00023AA1601E9BF13060008D0CBC9B548CAC1
:1097D0003ED002567D1632D06DFE23A8A5803ED223
:1097E00012567D1632D26DFEFD16E5B5C14694CBFC
:1097F0009306000815CA94CB93060002B7170140E0
:1098000023AAD780544336C8C247FD173EC8EDFF90
:10981000B71701401306000223A8C78036CAD247F3
:10982000FD173ECAEDFFF9BDD4CBF9B7B72800202C
:109830001387C82683461700B71701400348B701AE
:109840009387078063820626C14694CB13070002E4
:10985000D8CB98CBD4CBD8CB98CBD8CB98CB93883C
:10986000C826B716014093070002631F080C135760
:109870001500B7170140058B9387078061CF130749
:10988000000898CBB7170140938707809306000222
:10989000D4CB984794CB1583137627001357250014
:1098A000058B4DCF1307000898CB13070002D8CBC8
:1098B000944798CB135735009982058B858A5DC3F1
:1098C0001307000898CBB71701409387078013034D
:1098D000000223AA6700984723A867001183118B11
:1098E000518F558F85466303D708C14694CB23AA71
:1098F000670023A86700B71701409306000223AA58
:10990000D78023A8D780414623AAC78023AAD7801F
:1099100023A8D7809306000823A8D78013750508CD
:1099200019C5B7F700E09047D44723A4C80083C700
:10993000C800FD553715014093060002FD176390DE
:10994000B7161375F70F828023AAF68023A8F68036
:109950007D1821BF13070008D8CB2DB713070008C7
:10996000D8CBA1B713070008D8CBB1BF9376250099
:10997000D9C6FD4613030002130E000223AAC70135
:109980009047FD1623A8C70119827E06336606019B
:1099900013581600E5F603C6B80183C6A801918ED8
:1099A00005466384C60423AA67009047371E01401A
:1099B00023A867001982058A9387E6FF1303000234
:1099C00093060E8089EFC1479CCA93070002DCCA48
:1099D0009CCA95D17E063366060190C129BF23AA91
:1099E000660023A86600FD17E1BFC14694CB23AAF9
:1099F0006700904723A867001982058AD9BF904164
:109A0000FD46130800089305000213731600630C4B
:109A1000030423A80701CCCB8CCBFD160582F5F6F9
:109A200083C5B80183C6A801058A8D8E85456387E5
:109A3000B6040DCE1306000890CBB71701401306ED
:109A4000000223AAC78023A8C780B71501409387C7
:109A5000E6FF9386058099EFC1479CCA93070002F1
:109A6000DCCA9CCA49BD23AA070175B713060008C2
:109A7000D0CBE1B7D0CA90CAFD17E1BFC14694CBA5
:109A80009306000819CA94CBB71701409306000249
:109A900023AAD78023A8D780B9BDD4CBF5B7232A72
:109AA000D5802328D58059BDC14694CB93060002AA
:109AB000D4CB5C4371713ECD6A477D173ACD6DFFC3
:109AC00037170140930600022328D7803ECF7A47FC
:109AD0007D173ACF6DFF37170140C146232AD78043
:109AE00093060002232AD7803ED10A577D173AD128
:109AF0006DFF37170140930600022328D7803ED31D
:109B00001A577D173AD36DFF3717014093060002AD
:109B1000232AD7803ED52A577D173AD56DFF3717B0
:109B20000140930600022328D7803ED73A577D177D
:109B30003AD76DFFB7160140130600026319081CDF
:109B40009356150037170140858A130707806380F5
:109B5000061E9306000814CB371701409306000237
:109B6000232AD780BEDC66577D17BADC6DFFB71697
:109B7000014003A786801306000223A8C68019832C
:109B8000058BBEDEF656FD16B6DEEDFE9318170009
:109B900013572500B7160140058B93860680630C8A
:109BA00007181307000898CA3717014093060002E8
:109BB000232AD7803EC18A46FD1636C1EDFE3716F0
:109BC000014003278680198393761700130700024C
:109BD0002328E6803EC31A467D1632C36DFE135716
:109BE000350037160140058B1306068063090714FC
:109BF0001307000818CA3717014013060002232A6A
:109C0000C7803EC52A467D1632C56DFE3716014017
:109C10000327868013030002232866801983058B9F
:109C20003EC73A467D1632C76DFE0A0733671701F5
:109C3000558F85466309D710B7160140414623A8C2
:109C4000C6801306000223AAC680BED8C656FD16DB
:109C5000B6D8EDFEB71601401306000223A8C68051
:109C6000BEDAD657FD17BEDAEDFFB71701409306EF
:109C7000000223AAD780B72600209387C626D043A8
:109C80009386C62632C8C247FD173EC8EDFFB717F8
:109C900001409305000223A8B78032CAD247FD17BE
:109CA0003ECAEDFFB7170140C14523AAB78093050F
:109CB000000223AAB78032CCE247FD173ECCEDFF6D
:109CC000B71701409305000223A8B78032CEF247B0
:109CD000FD173ECEEDFFB71701409305000823A8FE
:109CE000B7801375050811C5B7F700E08847CC4762
:109CF00088C683C6C6007D58B7150140130500020B
:109D0000FD166398062D1375F70F4D61828023AA07
:109D1000C6803EC94A477D173AC96DFF23A8C68051
:109D20003ECB5A477D173ACB6DFF7D1801BD930698
:109D3000000854CB15B513070008D8CAB5B51307EA
:109D4000000858CA4DBD9376250063810614B716E6
:109D500001407D4393860680130E0002930E00029D
:109D600023AAD601BED426567D16B2D46DFE9046E7
:109D700023A8C601BED61982058AB658FD18C6D6D4
:109D8000E39D08FE7E06336606017D131358160018
:109D9000E31803FCB72600209386C62603C6A60157
:109DA00083C6B6018548158EB71601409386068096
:109DB0006304160B9308000223AA1601BED0865630
:109DC000FD16B6D0EDFEB718014083A688801303B8
:109DD000000223A868809982858ABED29658FD1811
:109DE000C6D2E39D08FE791637130140130E000218
:109DF0009308038021E2414623A8C800130600020D
:109E000023AAC800BEC846467D16B2C86DFE3716E6
:109E100001409308000223281681BECAD647FD17C9
:109E2000BECAEDFFE38305E41396F601336606012F
:109E300090C125BD23AAC801BECCE648FD18C6CCFA
:109E4000E39D08FE2328C381BECEF648FD18C6CE8A
:109E5000E39D08FE7D1669BF414690CA13060002C5
:109E6000D0CABEC4A646FD16B6C4EDFE37160140E4
:109E70008326868093080002232816819982858A8A
:109E8000BEC6B647FD17BEC6EDFF69BF9041B71607
:109E900001407D4893860680930800081303000262
:109EA000130E000293751600DDCD23A8160123AA18
:109EB000C601BEC08645FD15AEC0EDFD23A86600F7
:109EC000BEC29645FD15AEC2EDFD7D180582E31BB1
:109ED00008FCB72500209385C52683C6A50183C548
:109EE000B50105488D8E937516003716014013068F
:109EF00006806381060BBDC9930500080CCA37169E
:109F0000014093050002232AB6803EDC62567D168E
:109F100032DC6DFE37160140930500022328B6801F
:109F20003EDE72567D1632DE6DFEF916B715014023
:109F3000130800021386058095EEC14614CA9306E5
:109F4000000254CA3ED4A256FD1636D4EDFEB71612
:109F500001401306000223A8C6803ED6B257FD1763
:109F60003ED6EDFF19B323AA160191B79305000859
:109F70004CCA71B7232A06013ED842567D1632D804
:109F80006DFE23A805813EDA52567D1632DA6DFE4B
:109F9000FD164DB7C14614CA930600088DC914CAF0
:109FA000B71601401306000223AAC6803ED082568F
:109FB000FD1636D0EDFEB71601401306000223A8A9
:109FC000C6803ED29257FD173ED2EDFF79B954CAF2
:109FD000C1BF23AAA58032C4A247FD173EC4EDFF2E
:109FE00023A8A58032C6B247FD173EC6EDFF09BBC8
:109FF000B7270020FD5E7D1503A80727014781478D
:10A0000037160140C148130300026316D501828050
:10A01000232A1E0131A8411109E783C70500214702
:10A02000850593F61700130E0680FDD223281E0126
:10A03000232A668042C6B246FD1636C6EDFE2328A8
:10A04000668042C4A246FD1636C4EDFE7D158583AA
:10A050007D17E313D5FD410182809377F50341110C
:10A0600099E39307000437280020137505081308A7
:10A07000C82639C937130140130E0002832848004F
:10A08000A14501470DA8232AC38146C29246FD1669
:10A0900036C2EDFE832683802328C38146C0918289
:10A0A000858A02457D152AC06DFD05839E06FD1536
:10A0B000558FFD1791C1E1FB05063357B700A30F7C
:10A0C000E6FECDFF4101828037170140032548009D
:10A0D0001307078041489308000213030002850517
:10A0E00003C6F5FF138E87FF937616009DC62328BF
:10A0F0000701232A67002AC6B246FD1636C6EDFEC2
:10A10000232817012AC4A246FD1636C4EDFEFD170A
:10A1100005826307FE00E9FB75B7232A0701D1BF5B
:10A12000DDFF4DB7EFB23FFF372900201307C926E7
:10A1300003461700B71701403171AA89AE849376A0
:10A14000150093870780630A062A414798CB1306B8
:10A150000002D0CB90CB1309C926638F061298CB8F
:10A16000B71601409307000293860680DCCA9CCA9A
:10A1700093D7190013F7170063020712414798CAD3
:10A1800013070002D8CA13D6290098CA3387C7001C
:10A19000058AC147630706109CCAB717014093069A
:10A1A000000293870780D4CB94CB93D6390013F663
:10A1B00016004E976DCA414690CB13060002D0CBD5
:10A1C000369790CB058B7DC3414798CBB71701409D
:10A1D0001307000223AAE78023A8E780C14623AA29
:10A1E000D78023AAE78023A8E78023A8D78023AAC3
:10A1F000E78023A8E780EFD0EF80034A8901371674
:10A20000014013070002D28693070680DDE21307A0
:10A210000002D8CB884798CBD8CB804798CBD8CBF7
:10A2200090470D8098CB13572600118B0988118118
:10A23000598C0589498C05476318E41213F72900E6
:10A240002DEFB71601409307000263180A0EEFC006
:10A250009FFD9840B717014093060002938707803F
:10A26000C145130600021375170071CD8CCBD0CBFE
:10A2700090CBFD163A9A0583FDF6137A1A004147F2
:10A2800063050A0C98CBB71701401307000223AAF5
:10A29000E78023A8E78095A8D8CBD9B54147D8CA8D
:10A2A000C5B5DCCADDBD4146D0CB01BF4147D8CBE7
:10A2B00031BFD8CB98CBFD1681BF01469305000274
:10A2C000130500021308000223AA0701984705821C
:10A2D00023A807011183058BBA96FD157E07598EB9
:10A2E000E5F5C8CB984788CB93574700B58F858B4A
:10A2F00091C3214491C090C0834789013716014022
:10A30000130700028DE7EFC01FF213F5090819C506
:10A31000B7F700E09847DC472324E9000347C9006A
:10A320001DE7B7170140414723A8E78085A0232AEE
:10A33000E6802328E680FD17F1B723AAF68023A83C
:10A34000F6807D1A19B7CCCB1DB7D8CB2DBFB71768
:10A350000140C14693870780D4CB93060002D4CB3B
:10A3600094CB7D176DFF75BF1307E4FF759B05C781
:10A37000BE841307F0FD93070002DCC89CC87D1A59
:10A38000E31DEAFEEFC03FEAC1479CC81375F40F16
:10A3900029616FB09FDB0347990115EFB7160140A4
:10A3A0009307000263150A04EFC0FFE78347990192
:10A3B000ADDB13F5290035F5B71701404147938709
:10A3C0000780D8CB9306000213071002D4CB94CB9E
:10A3D0007D176DFFB9B713F7290069D31307100272
:10A3E00093060002D4CB94CB7D176DFF45BF23AA03
:10A3F000F68023A8F6807D1A75B7414690CB1306E8
:10A400000002D0CB58433AC18A47FD173EC1EDFF49
:10A41000B71701401306000223A8C7803AC39A4722
:10A42000FD173EC3EDFFB717014093870780638D8B
:10A430000630C14694CBB71701409306000223AA09
:10A44000D7803AC5AA47FD173EC5EDFFB7170140B3
:10A450009306000223A8D7803AC7BA47FD173EC724
:10A46000EDFF93D71900B716014013F61700938636
:10A470000680630E062C414690CAB71601401306AB
:10A48000000223AAC6803AC9CA46FD1636C9EDFEA7
:10A49000B71601401306000223A8C6803ACBDA465D
:10A4A000FD1636CBEDFE93D62900B69713F61600AF
:10A4B000B716014093860680630E0628414690CA6F
:10A4C000B71601401306000223AAC6803ACDEA4619
:10A4D000FD1636CDEDFEB71601401306000223A887
:10A4E000C6803ACFFA46FD1636CFEDFE13D63900B8
:10A4F000B716014093751600CE9793860680638E3B
:10A500000524C1458CCAB71601409305000223AA51
:10A51000B6803AD18A56FD1636D1EDFEB716014007
:10A520009305000223A8B6803AD39A56FD1636D377
:10A53000EDFEB297B7160140858B93860680638146
:10A540000722C1479CCAB71701409306000223AAFD
:10A55000D7803AD5AA57FD173ED5EDFFB717014072
:10A560009306000223A8D7803AD7BA57FD173ED7E3
:10A57000EDFFB7170140C14623AAD780930600021A
:10A5800023AAD7803AD9CA57FD173ED9EDFFB7178E
:10A5900001409306000223A8D7803ADBDA57FD1763
:10A5A0003EDBEDFFB7170140C14623A8D7809306D5
:10A5B000000223AAD7803ADDEA57FD173EDDEDFF02
:10A5C000B71701409306000223A8D7803ADFFA5755
:10A5D000FD173EDFEDFFEFC0FFC2372A00209307D3
:10A5E000CA2603C98701D443130ACA26CA87371665
:10A5F00001409305000213070680639607161306B1
:10A60000000250CBB6D006577D17BAD06DFF371673
:10A61000014003248680930500022328B680118020
:10A6200013771400B6D216567D16B2D26DFE3716C9
:10A63000014093050002232AB680B6D426567D1623
:10A64000B2D46DFE371601400324868093050002C4
:10A650002328B68011800588B6D636567D16B2D628
:10A660006DFE3716014093050002232AB6801315AC
:10A670001400B6D846567D16B2D86DFE3716014086
:10A6800003248680930500022328B6801180058864
:10A69000B6DA56567D16B2DA6DFE0A04498C598C2C
:10A6A0000547631BE42013F7290069EF37170140C2
:10A6B00013060002631E091CEFC0FFB69440032777
:10A6C0004A00B71701409305000293870780414570
:10A6D000130800029308000213F61600630A061C12
:10A6E00088CB23AA17013ADC62567D1632DC6DFE58
:10A6F00023A807013ADE72567D1632DE6DFEFD1587
:10A7000036998582F1F9B7170140137919009387BB
:10A710000780C1466300091A94CBB717014093061E
:10A72000000223AAD7803AD8C257FD173ED8EDFFC2
:10A73000B71701409306000223A8D7803ADAD25710
:10A74000FD173EDAEDFFE9A8C146D4CBEDB1414695
:10A75000D0CA25B34146D0CAA5B3C145CCCA65B35A
:10A76000C147DCCACDB34CCBB6DC66577D17BADC2B
:10A770006DFF2328B680B6DE76577D17BADE6DFFF3
:10A78000FD1795BDB71501400146130800029385DA
:10A790000580930800021303000223AA6500B6CCCB
:10A7A00066477D17BACC6DFF984523A81501B6CE34
:10A7B0001183058B76457D15AACE6DFDBA9705826E
:10A7C0007E077D18598EE31A08FC37170140930560
:10A7D0000002232AB780B6C846477D17BAC86DFF66
:10A7E000B715014003A785801305000223A8A580A3
:10A7F0001183058BB6CAD646FD16B6CAEDFE858B0B
:10A800006383E700214491C090C003478A018326F7
:10A810004A00371601409305000239EBEFC0BFA094
:10A8200013F5090819C5B7F700E09847DC4723245A
:10A83000EA000347CA00E30607AEB7170140938753
:10A840000780C146D4CB03264A00930500021305B6
:10A850000002C8CB32D4A256FD1636D4EDFE8CCB06
:10A8600032D6B256FD1636D6EDFE7D177DF355BCB9
:10A87000232AB680B6C4A647FD17BEC4EDFF232821
:10A88000B680B6C6B647FD17BEC6EDFF7D1771B7D9
:10A89000232AC780B6C08647FD17BEC0EDFF232818
:10A8A000C780B6C29647FD17BEC2EDFF7D1919B528
:10A8B000C8CB05BDD4CB95B59307E4FFF59B8DCFF1
:10A8C000B717014093870780930500021305000224
:10A8D0001306F0FDC8CB36C422477D173AC46DFF7E
:10A8E0008CCB36C632477D173AC66DFF7D19E31310
:10A8F000C9FEEFC05F9335B483479A01B1EF3717B4
:10A9000001401306000263150908EFC0DF91834779
:10A910009A01E38807A013F52900E31405A0B717EF
:10A920000140938707804147D8CB03264A0093060E
:10A9300010029305000213050002C8CB32C842473B
:10A940007D173AC86DFF8CCB32CA52477D173ACA81
:10A950006DFFFD16FDF2F1B293F72900CDD3B717C5
:10A960000140130610029387078093050002130528
:10A970000002C8CB36D002577D173AD06DFF8CCB82
:10A9800036D212577D173AD26DFF7D167DF285BF04
:10A99000232AC78036CCE247FD173ECCEDFF2328A3
:10A9A000C78036CEF247FD173ECEEDFF7D19A1BF21
:10A9B000B757000837061000B9659387E7070147C6
:10A9C0001306060A938595331308000293180701AE
:10A9D00005079376F701B29603D507009E0683D646
:10A9E000E60742054181C20693D80801C18211E9F8
:10A9F0006399B60003D5E7FF23981187420541818B
:10AA0000828093870708E31307FDEFB26FF2138488
:10AA1000018723100400EF00007703550400B707F7
:10AA200010009387070A3E951E05EF00C07BEF00DC
:10AA3000207741657D156FB0EFF11387018783574C
:10AA4000070013060008FD8B2310F70083A6818002
:10AA5000370710001307070ABA979E070147B38507
:10AA6000E70003D50500B385E60009072390A5009C
:10AA7000E317C7FE03D5C607828083A781801375BD
:10AA8000F50F050506053E95835705000355E5FFBF
:10AA9000C2075D8D82800982130740033347C702D6
:10AAA00093162600F116AA96B78E379E130FF00F55
:10AAB0009C42014E938E9E9B7D1615077D17137742
:10AAC000F70F6312E7058280850813932800B30708
:10AAD000650083AF070071132A9313D83F00939743
:10AAE0002F0033448800A58FB34FFE0133885F00E9
:10AAF000A297B3C707010328030093F8F80FC29782
:10AB00002320F30009A8EFB2AFE2769E93532E0004
:10AB100093F33300814813F83800334878000A086B
:10AB20002E980328080093D4570013944700B3C20B
:10AB30000701E3CBC8F8032805007D171377F70F4B
:10AB40009317280093583800A58FB3C8880033485E
:10AB50000E011698C697B3C7070103A80600C2974F
:10AB60009CC2E314E7FB6FB0EFDEEFB26FDC411184
:10AB7000930760032300F100834705003146A300DB
:10AB8000F100834715002301F10083472500A3014D
:10AB9000F100834735002302F1009307A0FAA302D6
:10ABA000F100834745002303F10083475500A303C9
:10ABB000F100834765002304F10083477500A30477
:10ABC000F100930750022305F10083478500A30598
:10ABD000F100834795002306F1008347A500A306F3
:10ABE000F1008347B5000A852307F1009307B0F908
:10ABF000A307F1004D3512458247A98F2245A98F41
:10AC0000324541013D8D6FB0EFD4EFB26FD2A9470D
:10AC10002A846314F5003545CD3F938741879843D7
:10AC200001CB9306170094C3230087006FB08FD227
:10AC3000B727002083A74729F5DB1375F40F829708
:10AC4000F5B7EFB2EFCE2A840305040019E16FB027
:10AC50006FD005045D3FCDBFEFB28FCA0111AA8747
:10AC60002E84130A5002930A0003A549294BC14BB5
:10AC700003850700630205229384170063114513BF
:10AC8000038717006318570793843700038727004B
:10AC900085470149930607FD93F6F60F63FAD90637
:10ACA0009376F7FD1306C0046397C600038704007C
:10ACB00093E7470085046301071E13060006BA8662
:10ACC0006356E600930607FEE206E1861306F004EB
:10ACD000638BC60C6347D604130630046389C60A27
:10ACE000130640046383C60E130620046398C60A45
:10ACF00089455DA89306D0026306D7009384270098
:10AD0000814741BF9384370003872700894751B7A4
:10AD10003309690385043A99130909FD0387F4FF90
:10AD200095BF130650056382C60A1306800563802B
:10AD3000C60A130630056393C606130C4400832C21
:10AD40000400014433878C000307070093061400B6
:10AD50000DE393FD2700130D140063950D00636C44
:10AD600024016A846685F13D636D24016284A687AF
:10AD700001B73684C1BF13050002EFF01FE96A84F2
:10AD8000D9BF13050002EFF05FE80504F1BF03052A
:10AD90000400130C4400EFF05FE7C9BF3A85EFF001
:10ADA000DFE6228CE1B7A14513F64700130C4400FF
:10ADB0000DC21305400410406394A60263520602BC
:10ADC0003306C04093E7870021A8A945F1BFC145DC
:10ADD000E1BF130640046394C6001040C5B710409D
:10ADE000130580079D466314A7009306700213F5B0
:10ADF000F60F14080147368DB378B6023353B60206
:10AE00003308150163E61901139888011358884126
:10AE10001308080323800601930C17006367B6002C
:10AE200085061A86639F7C053D4793F6870089CA8D
:10AE30001410B69C9306D0022388DCFE930C2700E6
:10AE400013F717009306000319E393060002E68D3B
:10AE500013F4270093871D0001E463E62D03BE8DE4
:10AE6000FD1CB3079D0103850700EFF01FDAE3998E
:10AE70000CFEE3FD2DEF13050002EFF01FD9850D49
:10AE8000CDBF668795BF36853EC636C4EFF0FFD787
:10AE9000B247A246BE8D7DBF05616FB02FAA397142
:10AEA0002ED24C1006CE32D436D63AD83EDA42DC18
:10AEB00046DE2EC6EFF05FDAF24021618280730039
:10AEC00020304111EF00B0372AC6EF00B0372AC456
:10AED000EF00B0372246B245AA8637C500081305F1
:10AEE000C5D9753F01A07300203037050020130538
:10AEF0000500EFB06FEA7300203037050400BD2C69
:10AF000073002030411122C63734014085451305B6
:10AF100004C0EF00D01285476319F500EFC02FE29F
:10AF20008545130504C0EF005013324441017300FE
:10AF3000203001A001A001A001A001A001A001A05A
:10AF400001A001A001A001A001A001A001A001A0F9
:10AF500001A001A001A001A001A001A001A001A0E9
:10AF600001A001A001A001A001A001A001A001A0D9
:10AF700001A001A001A001A001A001A001A001A0C9
:10AF800001A001A001A001A001A001A001A001A0B9
:10AF900001A001A001A001A001A001A001A0976152
:10AFA000FF179381A18F17A1FF171301A105171593
:10AFB0000000130565E29755FF179385A5041386D6
:10AFC000018363FAC5008322050023A05500110503
:10AFD0009105E3EAC5FE138501839775FF179385F5
:10AFE000E52B6377B500232005001105E36DB5FE61
:10AFF000FD42739002BC8D427390428093028008A0
:10B0000073A0023097B2FFFF9382C2FF93E2320037
:10B0100073905230EF00400197C2FFFF938222628B
:10B020007390123473002030B71702409843B7066C
:10B03000FFF841111367170098C3D8433706020081
:10B04000758FD8C39843B706F7FEFD16758F98C362
:10B050009843B706FCFFFD16758F98C3D843B70613
:10B0600081FFFD16758FD8C337079F0098C702C4AC
:10B0700002C69843C166558F98C3B716024005674C
:10B080009C42F18F3EC6A24785073EC4B24781E786
:10B09000A247E397E7FEB71702409C431397E700E8
:10B0A0006357070685473EC632478547631FF70447
:10B0B000B7170240D843B706C1FFFD16D8C3D8431F
:10B0C000D8C3D84313670740D8C3D843758FD8C3B4
:10B0D000D843B7060900558FD8C39843B706000177
:10B0E000558F98C3984393166700E3DD06FED84357
:10B0F000B7160240719BD8C3D84313672700D8C343
:10B100002147DC42B18BE39EE7FE4101828002C60B
:10B1100061BF5841032805004C453706014093079D
:10B1200006403E979346F8FFB1C583250640F58D4E
:10B130002320B640D043F18ED4C31443B3E60601B6
:10B1400014C3184190479346F7FF758E90C7D047B8
:10B15000F18ED4C7144541466399C6009447D98EF1
:10B1600094C7D447558FD8C78280B6979443558FDC
:10B1700098C382801C43F58F1CC38280B7070140AF
:10B1800023AAA7408280B7076745372702409387E5
:10B1900037125CC3B797EFCD9387B79A5CC38280B1
:10B1A000372702401C4B93E707081CCB82803727C8
:10B1B00002405C470545858B91E748474189133537
:10B1C00015000D058280EFA2BFF62A848544C5379D
:10B1D0006318950019E0154529A0D13F7D14CDBF16
:10B1E0007DD86FA03FF7EFA2BFF4AA8437050B000C
:10B1F000D93F91476313F502372402401C483705B5
:10B200000B0093E727001CC844C81C4893E70704B9
:10B210001CC8553F1C48F59B1CC86FA0BFF3EFA28C
:10B220003FF14111AA8415652EC6713F9147B24581
:10B23000631FF500372402401C48156593E717008B
:10B240001CC82390B40041371C48F99B1CC841011D
:10B250006FA05FF0EFA2DFED01112A8437050B002C
:10B260009D3791476316F508B707674537270240B2
:10B27000938737121CC7B797EFCD9387B79A1CC730
:10B28000A30701009D46370600208347F10063F4C1
:10B29000F606B7270240984B1367070298CB984BE6
:10B2A0001367070498CBD847058B75FF984B137726
:10B2B000F7FD98CB9307F00F01E49967938757AA9E
:10B2C000372702402318F1001C4B9D46370600200B
:10B2D00093E707011CCBA3070100B7250240834772
:10B2E000F10063FFF602372702401C4BBD9B1CCBCD
:10B2F00005616FA03FE60347F1008347F1000C10A2
:10B3000006073297035707808607AE972398E7FE14
:10B310008347F100850793F7F70FA307F100B5B74F
:10B320000347F10000108347F100060722970357F7
:10B3300007FF8607B2972390E780DC45858BF5FFF2
:10B340008347F100850793F7F70FA307F10041BF8B
:10B35000B7066745B7270240938636123797EFCD79
:10B36000D4C31307B79AD8C3D4D3D8D3828037278E
:10B3700002401C4BA166D58F1CCB8280B7270240B0
:10B38000984BB7060200137505F0558F98CBC8CBC4
:10B39000984B1367070498CBD847058B75FF984BDC
:10B3A0008176FD16758F98CB82809C4513F7070137
:10B3B00013F8F70001C7D8413368E8003727024087
:10B3C000145B3707000F758F45EF8546238CD186B8
:10B3D000371701406317E50003D705003583239035
:10B3E000E50083D5050013F7F50F39C318418146F1
:10B3F000854E3D4F930F800293028004214E339679
:10B40000DE00B3F8C50063111603939826003313CA
:10B410001F011343F3FF3377E300B318180133E739
:10B42000E8006397F70750C98506E39AC6FD18C17F
:10B430001307F00F6375B70454412146854E3D4F05
:10B44000930F800293028004414EB398CE0033F7ED
:10B4500015016392E8021317260001173313EF005A
:10B460001343F3FFB376D3003317E800D98E639507
:10B47000F703232A15010506E319C6FD54C182808E
:10B4800037170140E31FE5F403C7818739DBA9B70C
:10B49000E39C57F810C949BFE39F57FC23281501C7
:10B4A000D9BFB71701406316F50083C7818791C3E1
:10B4B000B5814CC98280B737004088C38280B737D6
:10B4C0000040C8C38280B737004088C78280AD671C
:10B4D000373700409387A7AA1CC3828023AEA1867A
:10B4E00082809387C18794430347050089E6834799
:10B4F0002500920731A8944305466391C60483470B
:10B5000025000346150092076314D60093E707F859
:10B51000B7E600E093F7F70FBA962380F64085462A
:10B52000935757003397E6005441ADC693870704FD
:10B530008A07B7E600E0B69798C382808C438946B5
:10B540006393D50283461500834725006365D600C3
:10B550008A06B69779BF9386E6038A06B69793F76D
:10B56000F70F920765B790438D46631ED60083465A
:10B570001500834725006364D6008606D9BF9386ED
:10B58000C6078606E1BF94439147E39AF6F88347DE
:10B59000150085B79387070661BFB7170240D843E8
:10B5A000B70640FFFD16758FD8C3D8435A05598D8D
:10B5B000C8C38280371702405C439146B18B6389D0
:10B5C000D706A146638BD706B7177A009387072063
:10B5D0001CC1371602405C4237070020130787085A
:10B5E0009183BD8BBA9783C607001C41B3D7D700A0
:10B5F0005CC15442A1829D8ABA9683C60600B3D626
:10B60000D70014C55442AD829D8A36970347070080
:10B61000B3D7E7005CC55842398393763700138768
:10B620000181369703470700B3D7E7021CC9828020
:10B63000B727B700938707B061BF5C435843C16623
:10B64000C983BD8B758F8907C5466393D700C947EA
:10B650001DE33747024003270780418B01CB371793
:10B660007A0013070720B387E7029DB737173D001D
:10B6700013070790CDBF3717024058439316E700D2
:10B6800063D7060037975B00130707D8E9BF372752
:10B69000B700130707B0C1BF99C5371702401C4F49
:10B6A0005D8D08CF8280B7170240984F1345F5FF94
:10B6B000798D88CF828099C5371702405C4F5D8DA8
:10B6C00048CF8280B7170240D84F1345F5FF798DD8
:10B6D000C8CF828099C5371702405C475D8D48C747
:10B6E0008280B7170240D8471345F5FF798DC8C748
:10B6F000828099C5371702401C4B5D8D08CB828034
:10B70000B7170240984B1345F5FF798D88CB82809F
:10B71000EFA21FA2B7370140938707C0631DF50052
:10B72000056485451305048075378145130504803C
:10B7300055376FA03FA2B70700406319F500854554
:10B740000545453F814505456D37E5B7938707407A
:10B750006318F50085450945693F81450945EDB701
:10B76000B7170040138707806318E500854511452A
:10B77000493781451145C9BF938707C0E31BF5FAD7
:10B7800085452145BD37814521457DBF835705004E
:10B7900037370140130707C0C207C1836304E502BE
:10B7A000370700406300E50213070740630CE5001C
:10B7B00037170040930607806306D500130707C0BC
:10B7C0006317E50003D7250093F7F7F8D98F03D760
:10B7D000650093F7F7CFC207C183D98F2310F50017
:10B7E00083D745002316F50283D705002314F502FD
:10B7F000B7370140938707C06316F50083C78500FC
:10B800002318F5028547231AF50082808357050027
:10B8100091C593E717002310F5008280C207C1830A
:10B82000F99BC207C183C5BF8357C50009C6DD8D1B
:10B830002316B500828093C5F5FFFD8DD5BF8357D4
:10B8400005010355C500ED8F4205418189C76D8D06
:10B850003335A00082800145828093C5F5FFC20583
:10B86000C1812318B5008280EFA29F8CB7470140A9
:10B8700093870780631CF50085451165EFF09FE510
:10B8800081451165EFF01FE56FA0DF8CB7470040E1
:10B8900093870740631DF500854537050200EFF0EB
:10B8A0005FE5814537050200EFF0BFE4F1BFB75710
:10B8B000004013870780631BE500854537050400BA
:10B8C000EFF03FE3814537050400F9BF938707C0D8
:10B8D000E31CF5FA854537050800EFF09FE1814547
:10B8E00037050800D1B7EFA2BF8483560501F5776D
:10B8F000FD17F58F83D6650003D7C5007971D58F05
:10B900002318F5008356C500FD779387379FF58F81
:10B9100083D645002A842EC6D58F83D68500D58F41
:10B9200083D6A500D58F2316F50083574501C2079E
:10B93000C18393F7F7CFD98F231AF5006808EFF08A
:10B940007FC7B747014093870780B245631DF40462
:10B95000A2578356C4006547B387E702C206C18673
:10B96000984163D4060406070356C4004206B3D7C1
:10B97000E702130740064186B3D6E702B3F7E702B2
:10B980009206635606028E0793872703B3D7E70212
:10B9900013F77700B367D700C207C1832314F400FD
:10B9A00045616FA02FFB92576DB70A0775BF9207CD
:10B9B00093872703B3D7E702BD8BD58FF1BF896784
:10B9C000938707581CC1B7070C00232205001CC52C
:10B9D00023160500828081C98357C5000967D98F66
:10B9E0002316F50082800357C500F977FD17F98FFC
:10B9F000C5BF13F7F50F85471583B395B7006319D6
:10BA0000F7009307C500984301CED98D8CC382807F
:10BA1000894693074501E318D7FE93070501E5B76B
:10BA200093C5F5FFF98DDDB793F5F51F2312B5002A
:10BA30008280035505006D8D3335A000828073250B
:10BA400010348280732520348280732530348280C4
:10BA5000B3C7A5008D8B3307C50081E78D4763EE23
:10BA6000C700AA876370E50A83C6050085078505B8
:10BA7000A38FD7FEE3EAE7FE828093763500AA879C
:10BA800091CA83C6050085078505A38FD7FE93F667
:10BA90003700FDB79376C7FF138606FE63F0C7062F
:10BAA00083A3050083A2450083AF850003AFC500D3
:10BAB00083AE050103AE450103A3850183A8C5013B
:10BAC0009385450223A0770003A8C5FF23A2570052
:10BAD00023A4F70123A6E70123A8D70123AAC701BE
