:020000040800F2
:1060000037B50008E700A5E704AE000808AE0008B1
:106010000000000078AE000800000000E1BC8F81A5
:10602000538017B1691C7FD50900000000000000F3
:106030002CAE0008A55AA55A78AE00080000000052
:1060400078AE000878AE000878AE000878AE000898
:1060500078AE000878AE000878AE000878AE000888
:1060600078AE000878AE000878AE000878AE000878
:1060700078AE000878AE000878AE000878AE000868
:1060800078AE000878AE000878AE000878AE000858
:1060900030AE000878AE000878AE000878AE000890
:1060A00078AE00084AAE000878AE000878AE000866
:1060B00078AE000878AE000878AE000878AE000828
:1060C00078AE000878AE000878AE000878AE000818
:1060D00078AE000878AE000878AE000878AE000808
:1060E00078AE000878AE000840AE000878AE000830
:1060F00078AE000878AE000878AE0008FFFFFFFF1A
:10610000397101436EC619A0397141536AC866CA14
:1061100062CC5ECE19A0397101535AD056D252D4F6
:106120004ED64AD826DA22DC06DE3301614082826E
:1061300041114AC026C222C406C68282B24D410124
:10614000024D924C224CB24B4101024B924A224AE0
:10615000B2494101024992442244B2404101828045
:106160002A8309CA83830500230073007D16050373
:1061700085056DFA8280B7670040A301050013878B
:1061800007C4854614C323200700938647C423A071
:106190000600938707C523A00700A967938707F028
:1061A00023A8F1821CC38280834636000348260060
:1061B0008D8A860693878181B69783D70700371724
:1061C00000109378F800130707704697B3E7F800BC
:1061D0000A071CC3834756008346460013964800AF
:1061E000A207D58FB7660040B29613168801618664
:1061F000370800206356060651463386C8022A96A1
:106200005CCA032688098507F99B2390C6003E9641
:10621000232CC80805466392C50E1043E575138507
:10622000F5E8698E136606104206418210C3032604
:1062300088099385F5FB2394C6003E96232CC80855
:106240001C43F1769386F6F8ED8F93C70703C207D8
:10625000C1831CC31C43F58FC207C1831CC382804A
:106260005146B388C802054646955CDD639EC50A63
:10627000104365759308F5E833761601136606102A
:106280004206418210C310431305F5F8698E136668
:1062900006044206418210C3032688091305E00361
:1062A0002390C6006373F5069388F70193F808FE00
:1062B000139558007D1561733365650046962392EA
:1062C000A6002394C600FD07819B139557007D15FA
:1062D000E178336515014205B29741812396A60006
:1062E000232CF808F17685479386F6F86397F50432
:1062F0001C43F58FC207C1831CC31C43E5769386FC
:10630000F6FBF58F93C7070281BF138517007999B4
:10631000931895002A96239216012394C6008507A8
:10632000F99B1395970045BF032688091305E003E1
:106330002394C600E369F5F8DDB71C43F58F896641
:10634000B58F19BF3717001093F7F50713070770BC
:10635000BA978A07E2059843E18563D80502137767
:10636000070419CB9843E5769386F6F8758F136783
:1063700007044207418398C39843E5769386F6FB6A
:10638000758F4207418398C382809166758F19CBC0
:106390009843E5769386F6F8758F9166558F420798
:1063A000418398C3F17698439386F6F8D1BF93F56D
:1063B000F507D147B387F50271771307F7F83E95D4
:1063C000B717001093870770BE9530C174C18A0556
:1063D0009C41F98F0D67B98FC207C1839CC1828030
:1063E000B717001093F6F50793870770E205B69785
:1063F0005147E1853387E6028A0763D205044107E6
:106400003A95984365761306F6FB718F134707019B
:106410004207418398C385472300F50085E237672B
:106420000040130707C01C43F1769386F6FBF58FF7
:106430008566C106B58FC207C1831CC3828013075E
:1064400087033A95984371761306F6F8718F0566BF
:10645000318F7DBFB717001013F7F50793870770CB
:10646000E205BA97D146E1853307D7028A0763DF91
:10647000050241073A9598431377070419CB9843CF
:10648000E5769386F6F8758F136707044207418314
:1064900098C39843E5769386F6FB758F13470703F9
:1064A0004207418398C323000500828013078703B6
:1064B0003A9598439166758F19CB9843E576938604
:1064C000F6F8758F9166558F4207418398C39843BC
:1064D000F1769386F6F8758F8D66358FD1B7B7371D
:1064E0000020BE9505068605058281479396270004
:1064F00013971700AE962A976313F600828003481D
:10650000070003471700850722073367070198C272
:10651000F1BFEFF2FFC113F4F50751473307E4026F
:10652000AA87411102C63285BA9790CFD4CF23A053
:106530000702DC4B63F3D7043EC693174400324690
:10654000B7640040BE9483D5040042064182413FB7
:10655000B24765771307F7FB2392F400B7170010D3
:10656000938707703E940A041C40F98F93C7070372
:10657000C207C1831CC04101F1BE36C67DBFB7371B
:1065800000200506BE95058286050A062E966393B1
:10659000C50082809C410905A183A30FF5FE9C41A3
:1065A0009105230FF5FEE5B7EFF21FB64111231554
:1065B0000100B767004083A747C403A70183C20750
:1065C000C1832315F1008357A1002A84F98FBD836D
:1065D000E9CF03AB0182056A23160100B71A001048
:1065E000930BFAF823170100938A0A70130A0A80A2
:1065F000B767004083A747C4139707014183C207C9
:106600002316E100C18763D2070A8354C100BD8805
:10661000B38754018A079843420741832317E10057
:106620000357C100418B21E30357E10013770708AB
:1066300061D39843A5669386F6F0758F98C39397B8
:106640004400DA9703D74700D147B387F4021377A2
:10665000F73FA6852285A297944F98D3369798CF77
:10666000EF00807B71B70357E10042074187E35198
:1066700007F898433377770198C3139744005A97E4
:106680000359C7001379F93F6300091C8357E100E0
:10669000B3F747016381071A83558B001305440044
:1066A0004A86F13D2285EF00B01103A7018383578D
:1066B000A100F98F0567F98F99CFBD67FD1737677F
:1066C00000402322F7C483472400A300F40083C7BB
:1066D000418391E3E12A8357A10003A70183F98F46
:1066E000AD83858B85CFB767004083A707C4C18B77
:1066F00095E7834714002301F4009147A300F400B9
:10670000B707002083C7C709638207187D2ABD67C2
:10671000376700409387F77F2322F7C48357A10090
:1067200003A70183F98F93F7072091CFC167938760
:10673000F7DF376700402322F7C483A7C18581C7ED
:106740009C43228582978357A10003A70183F98F79
:1067500093F70710B9C3B76700404166138747C472
:106760009306F6EF14C383C6518385CA83C651834B
:10677000FD1693F6F60FA38AD18283C6518391EE5C
:1067800083C641830545938707C46395A610984344
:106790003D16718F98C3238A01828357A10003A7F6
:1067A0000183F98F93F70740C9C737670040C16776
:1067B000930647C49387F7BF9CC283A701829306C1
:1067C00000021306000A2390D700930600062394C4
:1067D000D700B706002023ACC608E1769386F67F83
:1067E0002396D700930700045CC85CDC930607C0BF
:1067F0009C4265761306F6F8F18FC207C1839CC2EE
:10680000930547C09C411307C7C4F18F93E7170056
:10681000C207C1839CC1930700081CC39C42C207E6
:10682000C1839CC28D67938707229CC28547A300C2
:10683000F400410131B2D147B387F4028355870098
:106840004A86A297A843253BD147B387F402A29773
:10685000B847B043F4434A974A96B3862641B8C72F
:10686000B0C3F4C381C6DC5F637CF900A6852285D2
:10687000312BD147B387F402A29723A407048DBB21
:10688000C206C182A68522851D369DB30D47A38A07
:10689000E182B5BD944393E60601C206C18294C36A
:1068A0008D47A38AF182238AA182C5BDB7670040C4
:1068B000938707C4944341671306B7FFF18E94C3CF
:1068C00094435D17758F98C3828037670040130724
:1068D00007C41C4393E7C700C207C1831CC382805F
:1068E00082802851834705002310F600828068517A
:1068F000834725002310F60082803C558A05AE9719
:106900008843834705002310F6008280EFF25F8200
:1069100083C725000547238BF1826376F700814505
:10692000C1346FF03F830346150089462A8493756E
:10693000F60F630FD6000D46E395C5FE83A40182D2
:10694000A1E73C59A300D50023000500814519A803
:1069500083A4018289CB8D47A300F5007C552300D9
:10696000E5008545829737670040130707C01C4341
:10697000E5769386F6FBF58F93C70703C20723924C
:106980000400C1831CC371BF83450500E38DE5FC92
:106990003C59829783C561837C5422852300B400CF
:1069A000D1B7EFF2EFF883C605000546AA878D8AB6
:1069B0002E876384C60489456385B606B9EE83468F
:1069C0001500F9166365D604035727006311C70441
:1069D000A301E50083A7018237670040130707C0C2
:1069E000239207001C43E5769386F6FBF58F93C749
:1069F0000703C207C1831CC319A803461500094534
:106A00009375F60F630BA6000D466384C5006FF007
:106A10006FF403474700E3FCE6FE81453E85C9323B
:106A2000FDB703461500834547001378F60F630D45
:106A3000D6008D47E31DF8FC83572700C1FF93F76D
:106A4000F507C9DB713A79B793F5F507F9F5C1B7E1
:106A5000EFF20FEE03D76500411102C685476305CB
:106A6000F7008145B53A1DA08347150089462A865F
:106A700013F7F70F6387D7008D47E314F7FE8546BA
:106A800019A08546700093050008613441016FF03C
:106A90006FECEFF2EFE903C7050041112316010087
:106AA000231701000D8B05466306C702894663075D
:106AB000D70431E383471500F9176367F60283476C
:106AC000350099C32316D10089467000930500084C
:106AD000893419A883471500094693F6F70F638C8C
:106AE000C7008D476385F60041016FF0AFE683C7AD
:106AF0004500E37BF7FC8145E530FDB783D64500D3
:106B00000346150093F7F60F9375F60F6309E60237
:106B10000D47E39BE5FCE206E18663D6060293F7A8
:106B2000F7075147B387E702AA9783C7070181C7D1
:106B300085472317F10089461306E10041BF93F70B
:106B4000F707D5FB55B75147B387E702AA9783C725
:106B50008703F1BFEFF2CFDD83C7050005472A8425
:106B60008D8BAE84638DE7048946638BD706B9E3CA
:106B700083471500F917636EF70483D725006399DF
:106B8000E7027C59A3010500829783A7018237673A
:106B90000040130707C0239207001C43E576938645
:106BA000F6FBF58F93C70703C207C1831CC315A06B
:106BB0006391D70281452285EFF09F8219A8034790
:106BC000150009469376F70FE306C7FE0D47638469
:106BD000E6006FF02FD803C74500E3FCE7FED9BFFE
:106BE0000347150083C545009376F70F6301F7024D
:106BF0008D47E390F6FE83D7240091E793F7F507DE
:106C000099C3EFF03F857C58A6852285B5BF93F5E3
:106C1000F507CDF17DBFEFF2AFD1834615000948EE
:106C20006384060513F6F60F8D466304D6006FF0F5
:106C30006FD283C6450005476368D7027C5991C36C
:106C4000829783A7018237670040130707C023920A
:106C500007001C43E5769386F6FBF58F93C7070381
:106C6000C207C1831CC3E1B78145EFF06FF7C1B71D
:106C7000EFF20FCC8346150009486382060313F632
:106C8000F60F8D466304D6006FF0CFCC83C6450067
:106C900005476366D7007C59E5DB8297F5B78145E8
:106CA000EFF00FF4D5B7EFF2AFC883C7050041117D
:106CB0002A848D8BBDE7AE8483D525002317010080
:106CC0000D4793D785006369F70493F5F50F1547D2
:106CD0006364B70437C70008FD17130787918A0755
:106CE000BA979C431306E10082970357E1002A8676
:106CF0000DC383D7640091CFBA8663F3E700BE86E5
:106D00002317D100C206C182930500082285EFF047
:106D10005F8041016FF00FC481452285EFF04FEC99
:106D2000CDBF0547E397E7FE7C59E5D78297D5B7F6
:106D3000828083D7450099EF83D7650081EF03D721
:106D40002500834615001377F707A38BE1828D4753
:106D50006395F60081456FF0AFE883A70182B766BF
:106D60000040938606C0239207009C426576130676
:106D7000F6FBF18F93C70703C207C1839CC2894703
:106D800011E38547A300F50082808280EFF24FBABD
:106D90002A84ADE95C45A1CF74415C5D63FCD700FA
:106DA0009D8E304174C1C206C182EFF04FE00145B3
:106DB0006FF04FBA034715008D476315F7007C5DF0
:106DC00091C3829783A7018237670040130707C0EA
:106DD000239207001C43E5769386F6FBF58F93C755
:106DE0000703C207C1831CC323260400C9B7B767C2
:106DF0000040938707C09843A5669386F6E8758F91
:106E000098C375B7034715008D47E312F7FA832738
:106E10004508D1DF829761BFEFF28FB12A84CDE9B7
:106E2000584559CB544D5C4963F4D7029D8E104DA3
:106E300054CDC206C18293050008EFF08FED814664
:106E4000014681452285EFF08FD601456FF08FB066
:106E5000B3F7F60281EF63FBE60081460146930536
:106E60000008EFF00FEB23260400D1BF0347140006
:106E7000232E04008D476316F7003C5C99C32285DE
:106E8000829737670040130707C01C43E576938657
:106E9000F6E8F58F93E70710C207C1831CC31C43B4
:106EA000F1769386F6F8F58F8D66B58FC207C183AC
:106EB0001CC32326040051BF83C77183D9D793E72E
:106EC0000708B766004023A6F6C4A38B0182B5BFAE
:106ED0005147B387E502AA97D44F9853998ED4CFE0
:106EE00099EA034715008D47E311F7F68327050854
:106EF000A9DF829799BF904FC206C182EFF06FE180
:106F0000A9B7EFF2EFA203C71500B7C70008938730
:106F100047920A07BA979C43829701456FF08FA367
:106F2000EFF20FA1834615000D47AA876393E6048D
:106F300083C6450005472E84636DD7027C5982972E
:106F40008357640085E71DE183A70182376700400E
:106F5000130707C0239207001C43E5769386F6FBD0
:106F6000F58F93C70703C207C1831CC301456FF0A8
:106F70006F9E81453E85EFF0AFC6CDBF834745008C
:106F80002380F50083475500A380F50083477500F3
:106F900003476500A207D98F2391F5008347950029
:106FA00003478500A207D98F2392F5008347B500D8
:106FB0000347A500A207D98F2393F5005CC5828003
:106FC000EFF20F9741112C002A844D3F8347810037
:106FD0001307000293F70706638EE7001307000408
:106FE0006386E70081EF2C002285213F01454101A6
:106FF0006FF04F962C0022852537CDBF8145228525
:10700000EFF00FBEE5B781456FF08FBDEFF24F9205
:107010000145EF40A03F854537058010EF40805087
:10702000156585451305D581EF40E04D6FF08F92D2
:10703000EFF20F9041110545EF40203705449307CB
:10704000400228002314F10022C623050100EF406E
:10705000203693079012280022C62314F10023053E
:107060000100EF40E03441016FF0CF8EEFF24F8C22
:10707000411137050400EF30B07DB70704003EC072
:10708000B1473EC40A8585473EC602C2EF3030761E
:1070900041016FF02F8CEFF2AF8901116800EF40D2
:1070A000803837340140130504C0EF40404DE247BB
:1070B00037470F0013070724B3D7E7028A85130564
:1070C00004C02311010023040100FD172310F10067
:1070D0009307703E3EC2EF4080520546130504C040
:1070E0008545EF40805B8545130504C0EF4020597E
:1070F000B7F700E023A00700814694C70147D8C72F
:107100007D5690CB8146D4CB154798C305616FF06F
:107110006F84EFF2EF8137440140AA8513050480A4
:10712000EF406074130404808544930500042285B5
:10713000EF400074E31B95FE6FF0CF81D9BFEFE203
:107140003FFF37440140411113050480EF40E058F0
:107150000A85EF40C06AF167938707208A85130587
:1071600004803EC0EF40405F054613050480930550
:107170005052EF40C06B854513050480EF40A06975
:10718000B77700089387C71323A2F18841016FE006
:107190007FFCEFE2FFF9156513055555EF40801EA2
:1071A0001545EF40A01E13051027EF40A01EEF402D
:1071B000E01E6FE03FFAB717014093870780414711
:1071C00098CB9843B706F1FFFD16758FB7060800F8
:1071D000558F98C38280B717014093870780414736
:1071E000D8CB9843B706F1FFFD16758FB70602009E
:1071F000558F98C38280EFE2BFF34111B7C50008F5
:1072000031469385058A4800EFE09FF53715014028
:107210004C00130505C0EF40600641016FE09FF38D
:10722000EFE21FF137C4000801111304048A93052B
:10723000C40031462800EFE0BFF2314693058401D7
:107240004808EFE0FFF1371401402C00130504C09B
:10725000EF40C0024C08130504C0EF402002056156
:107260006FE05FEFEFE2DFECB7C400083971138421
:10727000048A9305440231464800EFE07FEE93050F
:10728000040331460808EFE0BFED9305C40331461F
:107290006808EFE0FFEC9385048A31462810EFE0A0
:1072A0003FEC3146930584044818EFE07FEB371438
:1072B00001404C0013050480EF30507C0C0813058E
:1072C0000480EF30B07B6C0813050480EF30107B36
:1072D0002C1013050480EF30707A4C1813050480CD
:1072E000EF30D07913040480930700021CC8C14713
:1072F0001CC8930700081CC8A14444C80545E522E2
:1073000004C821616FE01FE5EFE29FE237C4000887
:1073100039711304048A9305440231464800EFE0B2
:107320003FE49305040331460808EFE07FE393054B
:10733000C40331466808EFE0BFE2930544053146D7
:107340002810EFE0FFE13146930584044818EFE090
:107350003FE1371401404C0013050480EF301072F8
:107360000C0813050480EF3070716C08130504805D
:10737000EF30D0702C1013050480EF3030704C18B3
:1073800013050480EF30906F13040480930700020C
:107390001CC8C1471CC8A14444C80545A92204C84B
:1073A00021616FE03FDBEFE2BFD8411137140140AC
:1073B00093070020854461494C0013050480231283
:1073C000F10026C44AC6EF30706B930700402312C9
:1073D000F1004C00930780041305048026C43EC6C8
:1073E0008964EF30B0698D47938404804C001305A5
:1073F00004803EC4231291004AC6EF303068A6854F
:1074000013050480EF30D076FD33193DF53D410181
:107410006FE05FD4EFE2DFD137C4000839711304A5
:10742000048A9305040631464800EFE07FD39305B4
:10743000C40631460808EFE0BFD293054405314643
:107440006808EFE0FFD19305C40331462810EFE050
:107450003FD13146930584044818EFE07FD03714BC
:1074600001404C0013050480EF3050610C081305F7
:107470000480EF30B0602C1013050480EF301060F2
:107480006C0813050480EF30705F4C1813050480FE
:10749000EF30D05E21616FE0FFCBB7270240C84FCD
:1074A0007A057D858280EFE2BFC8137405F0EF3066
:1074B00050572285EF30B05913050410EF30305982
:1074C00013050420EF30B05813050430EF30305866
:1074D000EF30105711456FE0FFC783A78183850701
:1074E00023ACF182828083A6818383A78183958FD9
:1074F00063E3A70082800100CDBFEFE2DFC1B704E4
:10750000002023A00184938404000D4A954A130BA4
:10751000200337190140854983C71400639447014C
:107520006FE0BFC203A701849307170023A0F18473
:1075300001EB930709C023A8370129456D37E9BF3F
:1075400063975701930709C023AA3701FDB7E39654
:1075500067FF23A00184D5B7EFE2FFBBB7C50008E2
:1075600037F5FF1F938545B21305857EEF30005335
:10757000B707000803A7C70F630DA70483A7470F2A
:107580002A846388A70413059003EF30E043630265
:1075900085040144B71401400549894993771400D3
:1075A000138704C08DC32328270193771400138702
:1075B00004C089EF23283701050413052003137441
:1075C000F40F1537E1BF232A2701C5B7232A370156
:1075D000E5B76FE09FB7EFE21FB4EFF03FA3EF30E6
:1075E0004033EF30A03AEFF0BFA4EFF0DFAA653BE5
:1075F000EFF0DFA7EFF0BFB44D3501E9EF30102613
:107600000545EF301032EF301027371401401304D6
:1076100004C0054923282401EF10006E232A240109
:10762000253F2945C935B704002013850400EFE044
:107630009FB4E522B747024093870780984393841D
:107640000400B71901401367270098C39547A3802A
:10765000F400653513054006232A24016935B75423
:1076600002009384049F496923A0018423AE918280
:107670001309894FEFF0FFB1054AEF303052E92B83
:1076800009ED83A7C183639E2701938709C023A8BF
:10769000470183A7C183FD1711A0A68723AEF182FE
:1076A000E9BFE5FB938709C023AA470123AE918276
:1076B000CDB701458280EFE2BFA703C7050083D69F
:1076C0002500AA871377070613D6860093F6F60FD0
:1076D00055CB130500026315A70403C71500294500
:1076E0007D171377F70F6369E50837C500080A07A8
:1076F000130545A62A971843028705476314E60237
:1077000037260020930600041306C61693051008BA
:107710003E85EFE01FE083A74186850723A2F1861F
:107720000145B9A80D47E318E6FE93060004138649
:107730008187E9BF83A70186850723A0F186CDB79E
:1077400003A7C186372600202308E61A85461306BC
:10775000061B930500083E85EFE0BFDBD1B723A6EB
:10776000C18681460146F5B703A701873726002069
:10777000E1BF23A8D186F5B73E85EFF0DF88094544
:107780006FE05F9D03C715002948630F07052D456E
:107790006302A7069946E315D7F81307100263049E
:1077A000E60293062002631ED60203D66500B28667
:1077B0006374C70093061002C20637C60008C18270
:1077C0001306869579B703D765002546BA86637395
:1077D000E600A546C20637C60008C182130666A3A6
:1077E0008DBF01468146B5B785461386418793050F
:1077F00000089DB723AAD18625B7EFE27F939305B2
:1078000010082A84EFE01FB422858545EFE09FB37E
:1078100001456FE03F9401458280238C018423AAB7
:10782000018423A801840547A386E184238601847B
:1078300023A4018423A201848280EFE27F8F37C6D4
:1078400000081306F6A381452A84EFE0FF9537C6AA
:1078500000082285130666A48145EFE0FF943726D1
:107860000020228593060004130686128545EFE06A
:107870001FB4653701456FE0FF8D05476319E506C5
:107880006397A606EFE2DF8A03A7418483A781847A
:1078900032856315F70083C7C184A9C783A74184D4
:1078A000B7050020938585129A07BE95130600043C
:1078B000EFE01F8B83A7418413090004850723A2EF
:1078C000F18483A741846394270123A2018403A741
:1078D000418483A781846314F70023860184130500
:1078E000000421A0A386D18401456FE0BF86014535
:1078F000828085476395F506EFE29F8303D78186F3
:1079000083D7A186AA846360F702372600208546C4
:107910001306C616814505458D37420541812395DD
:10792000A1862394018603D7A186930700046315DB
:10793000F70237260020930600041306C6169305A7
:1079400010082685EFE0FFBC83D781869387070464
:10795000C207C1832394F18601456FE0AFFF09455B
:1079600082808947631BF506B2853686BDC603C78C
:1079700005009D476316F7000547238DE186828049
:10798000EFE20FFB83C7818599C703A7418583A7D2
:1079900001856302F70483A741853715002013058D
:1079A00085129A073E95EFE0AFFB83A741858507D7
:1079B00023AAF18403A74185930700046314F70009
:1079C00023AA018403A7418583A701856315F700D6
:1079D0008547238CF1846FE0EFF782808547639AB7
:1079E000F502EFE2EFF4B72400202A84054713865E
:1079F00084129306000481450945A5372285930624
:107A00000004138684128545EFE07F9A01456FE0FC
:107A10006FF409458280EFE20FF0034705001D4631
:107A20009306070393F6F60F6364D61A2380E500E6
:107A30001307F7021377F70F9946AE8963EAE6005A
:107A4000B7C600080A07938606A936971843028727
:107A5000B7F7FF1F83A747709386550013D787009A
:107A6000A380F5002381E50013D70701E183A381FB
:107A7000E5002382F5009305F00F2380B6006FE048
:107A8000CFECEF30A05D93861900F5B7EF30A05E24
:107A9000DDBF8346250003471500A206D98E0347A4
:107AA0003500034545004207558F6205598DEFF0BB
:107AB0009F9FD1BF03446500034755002204598CA2
:107AC00013078003E36187FC834625000347150005
:107AD00083444500A206D98E03473500E20413090A
:107AE00075004207558FD98C054A914A49DC834578
:107AF0000900631B4401050901442685EF30605FDE
:107B0000E31355F98904DDB783471900791442045A
:107B1000A207DD8D41800909CDB703476500834683
:107B200055002207558F9306E003E3EEE6F4034683
:107B3000250083461500834745002206558E83465F
:107B40003500E207C206D18ED58FB7460008E3ECB8
:107B5000D7F23796000871066394C70291466319FD
:107B6000D7029307D004A38005002381F500A381E9
:107B700005002382050093866500A3820500E5BD0C
:107B8000B386D7401306F00F6364D6008966B697B4
:107B90001306F7FF4206A38009009386290041825D
:107BA0009305F00FE30B07EC83C50700E30706EC32
:107BB0007D1642062380B600850741828506EDB713
:107BC000B707EFBE37E700E0938707083CC765BDFE
:107BD000812275B59307000463CEC706EFE2AFD3E9
:107BE000370900209307090083C617008D47130744
:107BF0000900639EF60432848D4683D7A186A1E3F3
:107C0000372A002022861305CA164204EFE04FD51A
:107C1000418023940186A286130509001306CA1623
:107C20009305100823958186EFE0BF8E83D7818668
:107C300005453E94420441802394818611A88347E0
:107C40001700E38CD7FA239401862395018601451A
:107C50006FE0AFCF01458280EFE2EFCB03A7018554
:107C600083A741856317F70083C7818513F5F70F55
:107C7000A5C783A7018503A781843709002037158D
:107C800000201A079A079305891213058512BA95E1
:107C90003E95513383A70185130700041309891208
:107CA00085076393E700814723A8F18403A7018533
:107CB00083A741856314F700238C018403C7D18413
:107CC00011CFA386018483A5818413060004014596
:107CD0009A05CA95013705456FE02FC783A78184B0
:107CE0001307000485076393E700814723A4F18409
:107CF00003A7818483A74184E31FF7FC05472386FC
:107D0000E184D1BFFD5741652380F50005058280E0
:107D1000EFE20FBF834705007D47797193C60708DF
:107D20006367D700EF10000145616FE02FC1138733
:107D300007061377F70F9306E00563E4E600D937EB
:107D4000E5B7138715003AC62380F50075472E84E2
:107D50006374F7006F003079B7C6000813972700E7
:107D60009386C6AA36971843AA8902870347150047
:107D70009306E00F6300D7069306F00F6304D70461
:107D80009146630ED7009306000F6303D7023707AF
:107D900002000907A300F4003385E70071B7194614
:107DA0009385818213052400EFE08FBB9947C5B707
:107DB00003A7C180CD4719C3930730032301F40003
:107DC0008547F1B7930700042381F500A3810500DF
:107DD000894775BF93070004D5B78347150099CB32
:107DE00005476388E7029307F00FA300F400370507
:107DF000020091A803472500B7170140938707C0E9
:107E0000058B09C7054798CB8147C5B70547D8CB30
:107E1000E5BF03472500B7170140938707C0058BCF
:107E200019C30947CDB70947DDB783471500054793
:107E3000637DF70009476382E702814793F7F70FF5
:107E4000A300F4004165050515A8B7270020238885
:107E5000E71EEFF06FCB8547D5B737270020230803
:107E6000F71EEFF02FC08947D1BFB7270020238826
:107E7000071EEFF02FDA0545A3000400C167850750
:107E80003E955DB50347250083471500B7460F00B3
:107E900022075D8F83A7C18093860624B3D7D702BC
:107EA0008D468907B3D7D702B387E7023ED6B257CC
:107EB000FD173ED6EDFF89BF23810500A380050095
:107EC00009456DBF8346450003463500034725003D
:107ED000A206D18E034655009378170083471500FC
:107EE0004206558E83466500E206D18E638C0800FB
:107EF0003716014093F5170013060680CDC593058C
:107F000000020CCA13782700630B080037160140E3
:107F100093F5270013060680D9C9C1450CCA93758D
:107F2000470081CD13D52700371601400589130678
:107F3000068049C11305000808CA131387011353AB
:107F40008341635B03003716014013D577001306A6
:107F500006802DC5214508CAD5CAB7F600E090466F
:107F6000D4461377070293DF170093D2270093D3E9
:107F700077003715014037FF00E06384080493065B
:107F80000580D4469582858A6396D704631D0802CE
:107F9000B1E9635D03069306058094468D82858A68
:107FA0006386D30605A8930500024CCAA1BFC1454C
:107FB0004CCAB5B71305000848CA41B7214548CA9D
:107FC00061BF630008029306058094469182858A0A
:107FD000E380DFFC032E8F00832ECF00E30FC6F972
:107FE00035A089C993060580D4469D82858AE3829F
:107FF000D2FACDB759DF93D65700C1DEB7F600E00D
:1080000003AE860083AEC600E306C6FF3717014005
:108010001307078050471C474C4714478D83184768
:108020009581898B91891582CD8F058A8D82D18F1B
:10803000A18A1207D58F13770708D98FA300F40000
:108040003705060009B503472500834715002207B9
:108050005D8F83473500C207D98F0347450062070C
:108060005D8F9307F00F05CF83A7C18093D62700BC
:10807000637CD7028583FD17BA97B3D7E702894699
:10808000054763F5F6000D4733D7E7028146B7276A
:1080900000209387071FA380D700D8C38147A30080
:1080A000F4003705040045B385460547CDB7834442
:1080B00015009305250099E0930400102685EF1024
:1080C0001064138574000D81A300040005054205AA
:1080D0001365150065B38347150037270020130784
:1080E000071F93F637008983858B8506A30CF7005D
:1080F000230CD7008147A9B3A380050003471500CF
:10810000138A25009306250085498547930AF7FFC2
:1081100011E713950701336535018DB303C50600DB
:10812000138916009374F50399E093040004131760
:1081300085019D0461872AC48D80138417006353D1
:108140000702EFF04F8722455286CA85EF109062F2
:1081500063940A00EFF02F88A287269AA699568783
:10816000CA866DB7EFF02F8722455286CA85EF1079
:10817000706063940A00EFF00F862699B38784003D
:10818000F9BFA3800500034A1500938A25009307D1
:1081900025008549054463150A0013150401A5BF90
:1081A00003C90700138B17009374F90399E0930434
:1081B00000044A859D045686DA858D80EF0070386C
:1081C00062091387140013598941B3079B003A943D
:1081D00063540900A69AA6997D1A75BF83471500B6
:1081E000372700201307071F230DF70089CB83468D
:1081F0002500231F070023100702230ED700A3002A
:10820000040013851700E1B5B72700209387071FE7
:1082100083C6070009476391E60403471500A38D51
:10822000E70083C7A7016379F7023945EF10800C97
:10823000EF00F03D935785002301A400A301F40053
:10824000935705016181A302A4004165A3000400C6
:108250002302F40015051DB19307F00FD5B60347AF
:108260001500B72700209387071F2386E7000347E1
:108270003500834625002207558F2398E7000347E2
:108280005500834645002207558F2399E700A30038
:1082900004003705050045BEB724002003CB041FAA
:1082A000930715003ECA85479384041F6306FB02AB
:1082B00089476309FB34834625009307350063969D
:1082C000066A5247A3000400230104003385E740F7
:1082D0004205136525005DB683472500930B3500E5
:1082E000938C3500238D01863EC4014C014D014520
:1082F00002CC894A054AA24795E705466314C52C76
:1083000063000D2E83D4040189496C103945EF10A8
:1083100030556317352989C483C6A187FD14F5D666
:1083200009454DA483C90B0093871B003EC813F673
:1083300029006307061A03D6040163060D0693F5A8
:108340001901B28D639045036C104E85EF105051AA
:10835000631A550363860D0003C6A187FD1D6DD604
:10836000094561A8328D6C103945EF10704F631AC2
:108370005501E3070DFE03C6A1877D1D6DD6014D96
:10838000C5B7014D631B45073256910C93558600C6
:10839000238ECCFEA38EBCFE935506016182238FF3
:1083A000BCFEA38FCCFE13F6090183DD040113F399
:1083B000190055C683C52B0003C61B00A205D18D2D
:1083C00003C63B0042064D8E83C54B00E205B3E772
:1083D000C5003ECE93875B003EC883DB2401630269
:1083E000030281454E85EF10B047631A550163863D
:1083F0000D0083C7A187FD1DEDD7C24B69AAE31EFF
:1084000045FF83DD04016C104E85EF107045AA878F
:108410006313550363860D0083C5A187FD1DE5D554
:10842000D048B25572476D8E6307C70293E70701C4
:1084300013F5F70FD9B7CC4832566D8EE31245FFCE
:10844000F2476388C70063860B0083C7A187FD1BC3
:10845000CDDBDA87F1B7E31245FB014C05A86302D7
:108460000304E31C0DFE894B81454E85EF10503F00
:1084700063197501638F0D0E83C7A187FD1DEDD7AD
:10848000ADBF8547E31BF5F6014C054DE247850777
:108490003ECC83C7A187B5F3A247C24BFD173EC4AC
:1084A00099BD6C104E85EF10B03B63195501E38602
:1084B0000DF483C7A187FD1DEDD781B7E31F45F3F9
:1084C000B257910C13D68700238EFCFEA38ECCFEF0
:1084D00013D60701E183238FCCFEA38FFCFEB5BF2B
:1084E00063020D0483DD04016C103945EF10503731
:1084F00063195501E3830DF003C6A187FD1D6DD6F9
:10850000EDBDE31C45EFB256910C13D68600238EC9
:10851000DCFEA38ECCFE13D60601E182238FCCFEB7
:10852000A38FDCFE83C62B0003C61B0093875B0072
:10853000A206D18E03C63B003EC893F7090242064D
:10854000558E83C64B00E206D18E36D689C7D4C875
:10855000014D054525BF03DD04016C104E85EF106C
:108560003030631A5501E30A0DE883C7A1877D1DEA
:10857000EDD7014D59B5E31E45FF054C014D39B707
:1085800003C60B009375260091C9418A01EA850B49
:10859000A247FD173EC4A247E5F785B3950BCDBFB3
:1085A00085466311D502B256910C13D68600238EF0
:1085B000DCFEA38ECCFE13D60601E182238FCCFE17
:1085C000A38FDCFEE2472301A400A300F400D247FE
:1085D0003385FB40B24742053387FC40598D79B85B
:1085E000E3020CFE83D40401894981453945EF102B
:1085F0003027E31935FDE38504D283C6A187FD1436
:10860000EDD639BB8347150003C7A401238D01862E
:10861000A38DF4001389350063F4E734834C2500FF
:10862000930D35008146014D014502C8894B054C2B
:10863000639E0C02B68985466317D52EA9466385CD
:10864000D9002945EF00104B83D404018949630CFC
:108650000D2E6C103945EF10C00B6314352B89C4F7
:1086600003C7A187FD1475D7094575AC83CA0D00F2
:1086700093871D003EC493F91A0013F62A00A90936
:108680006300061A63110D0613F60A016307061448
:1086900083C52D0003C61D00A205D18D03C63D0074
:1086A00042064D8E83C54D00E205B3E7C5003ECCC2
:1086B00093875D003EC483DD24016385D9004E8528
:1086C000EF00504383D70401814556853ECEEF101D
:1086D00040046314750BF24789C783C6A187FD1751
:1086E000E5D6A24D31A403D604016397D90293F5D0
:1086F0000A019DE16C10568536CE32CCEF10600138
:10870000F24663157505624609C683C5A1877D16C5
:10871000F5D1B6890945F1B7A9476387F600294520
:1087200032CCEF00303D6246328D6C103945EF009F
:10873000507E631B7501630F0D5A83C6A1877D1D93
:10874000EDD6A946014DF1B7A946014D6317851B2A
:108750003256935586002300C900A300B9009355F3
:10876000060161822301B900A301C90013F60A01C1
:108770009305490025C22E8921BFE31485F783D6CE
:1087800004016C10568536CEEF00B078AA87631AC4
:108790007501F24689C683C7A187FD16FDD3DA8726
:1087A00039A8D048B256F18E631B85016247630831
:1087B000D70063860D0083C6A187FD1DE9D2D4488A
:1087C00032566247F18E6306D71093E7070113F51F
:1087D000F70F01BF63120D102E896385D9004E85F6
:1087E000EF00503103DD040181455685EF007072C2
:1087F000631A7501E3070DEE83C7A1877D1DEDD7D1
:10880000014DC5B5E31E85FF054DC24785073EC82E
:1088100083C7A187EDE7A24DFD1CCE86054509BDA6
:10882000630B0D04A9476385F6002945EF00902CE2
:1088300083D604016C10394536CCEF00906D631A75
:108840007501E24689C603C6A187FD1665D6A9490A
:1088500049BDE31E85FF3257110993568700230E49
:10886000E9FEA30ED9FE935607016183230FD9FEBB
:10887000A30FE9FEA94603C72D0003C61D00938779
:108880005D002207518F03C63D003EC493F70A02E4
:108890004206598E03C74D006207518F3AD689C7E9
:1088A000D8C8B689014D95B76385D9004E85EF00CC
:1088B000702403DD04016C105685EF009065631988
:1088C0007501E3000DE283C7A1877D1DEDD70DBFC4
:1088D000014DE30C85F331B5B6892E893DB783C6CA
:1088E0000D0013F6260001CAC18A91E6850DFD1C14
:1088F000E3970CFE89B3950DDDBFB689DDB3054561
:10890000CDB305476311E50232571109935687002D
:10891000230EE9FEA30ED9FE935607016183230FB0
:10892000D9FEA30FE9FEC2472301A400A300F4006F
:10893000D2473385FD40B24742053309F9403365DC
:1089400025016FF0AFD381453945EF00905CE31C02
:1089500035FDE38B04D003C7A187FD146DD729B380
:10896000930D250002C801457DBF03C7070013769C
:10897000270011C6418B01E78507FD1689B29507CF
:10898000EDBF372900208347091F05471309091F39
:10899000638DE70009476382E716A3800500238102
:1089A0000500A38105000D4555A883473500034701
:1089B0002500A207238D018633ECE7009384450050
:1089C000630B0C12834A4500035A090193F72A00EE
:1089D000A9E7930C5500014A094D854D83C71C003A
:1089E00003C70C00835B0901A207D98F03C72C00C2
:1089F000910C42075D8F83C7FCFFE207D98F3ED6FB
:108A00006C105685EF10C0656312A50D638D0B02C7
:108A100083C7A187FD1BEDD73DA093F71A00DDC3E7
:108A2000894B81455685EF10A063631A7501630C6D
:108A30000A0083C7A1877D1AEDD7014A29A085477F
:108A4000014A6301F508A3004401135A8A00230177
:108A50004401B247A301A4003385F44083C7490011
:108A6000898B6388071EB70704005D8D6FF00FC107
:108A7000E31B95FDB2579104050A13D78700A38E17
:108A8000E4FE13D70701238EF4FE238FE4FEE18377
:108A9000A38FF4FEE3090CFA7D1C63160C0093F718
:108AA0001A0091C3B94A835B09016C105685EF1017
:108AB000205BE31FA5FBE3880BF883C7A187FD1BA1
:108AC000EDD751B7014A094D854CF9B7E31DB5F70C
:108AD000050AE3154CF103590901894A81453945D5
:108AE000EF100058E31155F7E30F09F483C7A1878E
:108AF0007D19EDD789BF014589B783471500034725
:108B0000A901238D0186A30DF9009384450063F02C
:108B1000E714034A350083472500220A336AFA0026
:108B200063070A12834A450093FB1A00A90B5E856E
:108B3000EF00407C93F72A00A9E7938C5900814D00
:108B4000094D83C71C0003C70C00035C0901A20781
:108B5000D98F03C72C00910C42075D8F83C7FCFFA0
:108B6000E207D98F3ED66C105685EF00903A8546C5
:108B70006315A50B63070C0683C7A1877D1CE5D78A
:108B80008DA0835D0901094C81455685EF00703841
:108B9000631A850163870D0483C7A187FD1DEDD787
:108BA000814D81A08547814D631DF502A94C094C7B
:108BB000054D7D1A63180A0063859B012945EF0066
:108BC0006073B94A835709016C1056853EC4EF00A3
:108BD0005034631F8501A24789C703C7A187FD17CA
:108BE00065D793D78D00A300B4012301F40095B598
:108BF000E319A5FFB2579104850D13D78700A38E03
:108C0000E4FE13D70701238EF4FE238FE4FEE183F5
:108C1000A38FF4FEE31F0AF8E9B7E314D5FC850D32
:108C2000E311BAF3A9476384FB002945E125035901
:108C30000901094A81453945EF00B02DE31345FB91
:108C4000E30109FA83C7A1877D19EDD759BF014513
:108C500081BF83C7390003C72900A207D98F8507C1
:108C6000CA0721B5B72700209387071F03C707004E
:108C70008546630AD7008946630CD702FD57A300D7
:108C8000F4006FF00FE183473500034725006C10B7
:108C9000A207D98F0347450042075D8F83475500E0
:108CA0000145E207D98F3ED6EF10803B6FF02FDEF3
:108CB00003471500A38DE70083C7A701E370F7FC06
:108CC00021450D2D03C7390083C7290003C559006D
:108CD00022075D8F83C749006205C207D98F5D8D6A
:108CE000FD246FF0CFDAFD5741652300F400050540
:108CF0006FF08F83A94631BC03A7C180B7861E00E1
:108D0000938606483357D702B72700202398071EBB
:108D10009387071F2386070023AA0700238D0700D8
:108D20007917D8C31307400698CB0547239CE70063
:108D30006FE04FEE83470500416505052380F50090
:108D40008280B71701401378F503411113770504AA
:108D5000938707808505631A080055C3414798CB60
:108D600083C8F5FF1308000431A059C7414798CBC9
:108D700083C8F5FFB72E0020B7170140938E0E1F52
:108D800093870780130F00089302000293030002E9
:108D90001375050883AF4E002143014793F6180071
:108DA000B5C223A8E70123AA77007EC6B246FD1606
:108DB00036C6EDFE944723A857007EC49982858A63
:108DC000224E7D1E72C4E31D0EFE05839E067D139A
:108DD00093D81800558F7D1863040300E31008FC36
:108DE00011C5335767002300E6000506630F08002E
:108DF000850583C8F5FF79BF4147D8CB95BF41476B
:108E0000D8CBB9BF23AAE70179BF41018280B71748
:108E1000014093870780414798CB13070002D8CBC6
:108E2000372700209307071FDC4339719306071F7C
:108E30003ECA52477D173ACA6DFF371701401307E4
:108E400007801306000210CB3EC842477D173AC880
:108E50006DFF3717014013070780414650CB1306BB
:108E6000000250CB3EC632477D173AC66DFF37171A
:108E70000140130707801306000210CB3EC42247AF
:108E80007D173AC46DFF371701401307078013069B
:108E9000000250CB3EC212477D173AC26DFF371712
:108EA0000140130707801306000210CB3EC00247A3
:108EB0007D173AC06DFF83C6B60137160140930592
:108EC0000002E5E6371601407D45130606801308CB
:108ED000000293080002232A16013ED212577D1782
:108EE0003AD26DFF1846232806013ED01983058B20
:108EF0008255FD152ED0EDFD7E07558F7D159356BD
:108F0000170071F93717014013070780414610CB4E
:108F10001306000250CB3EDE72577D173ADE6DFF1E
:108F2000371701401307078008471306000210CBCC
:108F3000198105893EDC62577D173ADC6DFF7E059D
:108F400037170140558D130707809306000254CB55
:108F50003EDA52577D173ADA6DFF37170140130793
:108F600007809306000214CB3ED842577D173AD8AB
:108F70006DFF3717014013070780C14654CB930696
:108F8000000254CB3ED632577D173AD66DFF3717C5
:108F90000140130707809306000214CB3ED4A2576A
:108FA000FD173ED4EDFF21618280130706804CCB74
:108FB0003ECE72477D173ACE6DFF130706800CCB6D
:108FC0003ECC62477D173ACC6DFFFD16DDBDB7176D
:108FD000014093870780414798CB13070002D8CB05
:108FE000372700209307071FDC4359719306071F9B
:108FF0003ECA52477D173ACA6DFF37170140130723
:1090000007801306000210CB3EC842477D173AC8BE
:109010006DFF3717014013070780414650CB1306F9
:10902000000250CB3EC632477D173AC66DFF371758
:109030000140130707801306000210CB3EC42247ED
:109040007D173AC46DFF37170140130707801306D9
:10905000000250CB3EC212477D173AC26DFF371750
:109060000140130707801306000210CB3EC00247E1
:109070007D173AC06DFF83C5B6013716014013084E
:109080000002AE8613070680639E061C9306000846
:1090900054CB9306000254CB3EDA52577D173ADA8E
:1090A0006DFF37170140130707809306000214CBAA
:1090B0003ED842577D173AD86DFF37170140130746
:1090C00007809306000254CB3ED632577D173AD61E
:1090D0006DFF37170140130707809306000214CB7A
:1090E0003ED422577D173AD46DFF3717014013073E
:1090F00007809306000254CB3ED212577D173AD216
:109100006DFF37170140130707809306000214CB49
:109110003ED002577D173AD06DFF371701407D468C
:1091200013070780130800089308000213030002C6
:1091300093761500638A061423280701232A670003
:109140003EDEF256FD1636DEEDFE232817013EDC2C
:10915000E256FD1636DCEDFE7D16058171FA3727E5
:1091600000200347A720B716014005460D8F05894B
:1091700093860680630FC712130600086309051063
:1091800090CAB71601409386068013060002D0CA23
:10919000BEC29646FD16B6C2EDFEB71601409386D6
:1091A00006801306000290CABEC08646FD16B6C0F1
:1091B000EDFE7917371601409305000293060680ED
:1091C00069EB414798CA13070002D8CABECA56477E
:1091D0007D17BACA6DFF3717014013070780930642
:1091E000000214CBBEC846477D17BAC86DFF3717BB
:1091F0000140130707809306000254CBBED63657B2
:109200007D17BAD66DFF3717014013070780930605
:10921000000214CBBED426577D17BAD46DFF371782
:10922000014013070780C14654CB9306000254CB7C
:10923000BED216577D17BAD26DFF371701401307FC
:1092400007809306000214CBBED08657FD17BED010
:10925000EDFFB7170140938707801307000898CBED
:1092600065618280232A07013ECE72477D173ACE80
:109270006DFF13070680232807013ECC62477D1748
:109280003ACC6DFFFD16FDBB232A070145BDD0CAB0
:10929000CDBDCCCABEC6B646FD16B6C6EDFE93061B
:1092A00006808CCABEC4A646FD16B6C4EDFE7D1768
:1092B00031B7414798CA130700081DC998CA371724
:1092C0000140130707809306000254CBBECE7647B9
:1092D0007D17BACE6DFF371701401307078093063D
:1092E000000214CBBECC66477D17BACC6DFF01B728
:1092F000D8CAF1B7372700209307071F83C6170086
:10930000B71701401307071F93870780638F061065
:10931000414690CB93060002D4CB94CBD4CB94CBD4
:10932000D0CBD4CB94CBD4CB94CB9306000894CBA6
:109330008346B701B7180140930500029387860062
:10934000139617003A960356E60049E6BA9603C606
:10935000C601054EB7150140130800089308000226
:1093600093761500631EC6078607BA9703D70701D1
:10937000B71701409387078041CFC1C69306000805
:1093800094CBB71701409387078093060002D4CB94
:1093900094CB9306000894CB371601409306000245
:1093A0007D179307068035E3414798CB13070002EA
:1093B000D8CB98CBB71701409387078013070002DB
:1093C000D8CB98CBC146D4CBD8CB98CB13070008C9
:1093D00098CB828023AAB88023A8B8807D16B5B721
:1093E0001383058081CE232803019386058023AA59
:1093F000160123A8160105817D169DB7232A0301B6
:10940000EDB793060008D4CBADBFD4CB94CB49BF06
:10941000414798CB1307000899C698CBB71701406E
:109420009387078061B7D8CBD5BFC14694CB93064D
:109430000002D4CB5C431D71BEC08646FD16B6C08B
:10944000EDFEB7160140938606801306000290CA0F
:10945000BEC29646FD16B6C2EDFEB7160140938613
:10946000068013060002D0CABEC4A646FD16B6C4C6
:10947000EDFEB7160140938606801306000290CADF
:10948000BEC6B646FD16B6C6EDFEB71601409386BB
:1094900006804146D0CA13060002D0CABEC8C646DE
:1094A000FD16B6C8EDFEB71601409386068013067A
:1094B000000290CABECAD646FD16B6CAEDFEB71661
:1094C00001409386068013060002D0CABECCE64651
:1094D000FD16B6CCEDFEB716014093860680130646
:1094E000000290CABECEF646FD16B6CEEDFEB71609
:1094F0000140938606801306000890CA0346B70110
:10950000B7180140130300029306860093951600D6
:10951000BA9503D8E500631808123A968345C60148
:10952000854E371801409308000813030002137694
:109530001500639ED51386063697835607013717A5
:1095400001401307078063850618630F061413068E
:10955000000810CB371701401307078013060002DD
:1095600050CB3ED422577D173AD46DFF37170140B8
:10957000130707801306000210CB3ED632577D1723
:109580003AD66DFF3717014013060008130707800E
:1095900010CB0545371601409305000213070680DE
:1095A0006398A610C14614CB9306000254CB3ECC60
:1095B00062477D173ACC6DFF3717014013070780CC
:1095C0009306000214CB3ECE72477D173ACE6DFF54
:1095D00037170140130707809306000254CB3EC0A3
:1095E00002477D173AC06DFF371701401307078008
:1095F0009306000214CB3EC212477D173AC26DFF9C
:109600003717014013070780C14654CB9306000269
:1096100054CB3EC422477D173AC46DFF3717014033
:10962000130707809306000214CB3EC6B247FD170E
:109630003EC6EDFFB7170140938707801307000868
:1096400098CB256182809385088023AA65003EDC43
:10965000E255FD152EDCEDFD9385088023A86500FD
:109660003EDEF255FD152EDEEDFD7D186DB5130EB7
:10967000088005CA23281E0113060880232A6600D5
:109680003ED842567D1632D86DFE13060880232838
:1096900066003EDA52567D1632DA6DFE0581FD1502
:1096A00079B5232A1E01C9BF1306000850CB5DB54A
:1096B0004CCB3ED002577D173AD06DFF1307068082
:1096C0000CCB3ED212577D173AD26DFFFD16F9B57D
:1096D000C14614CB930600081DCA14CB37170140AE
:1096E000130707809306000254CB3EC842477D17FC
:1096F0003AC86DFF37170140130707809306000231
:1097000014CB3ECA52477D173ACA6DFFD1B554CB30
:10971000F1B7372300201307031F8348B70183469F
:109720001700B71701402A86468893870780638C05
:109730000624C14694CB13070002D8CB98CBD4CBD8
:10974000D8CB98CBD8CB98CB1303031FB7160140C7
:1097500093070002631B080C13571600B71701404C
:10976000058B9387078061CB1307000898CBB71749
:1097700001409387078013070002D8CB944798CB0A
:10978000135726009582058B898A55CB130700084D
:1097900098CB13070002D8CB884798CB13573600D5
:1097A0001981058B058945C31307000898CBB717A6
:1097B000014093870780130E000223AAC701984730
:1097C00023A8C7011183118B558FB366E5000547A8
:1097D000638FE606414798CB23AAC70123A8C70198
:1097E000B71701409387078013070002D8CB98CBA7
:1097F000C145CCCBD8CB98CB1307000898CB1375B9
:10980000060819C5B7F700E09847DC472324E300B2
:109810008347C300FD553715014013070002FD17AC
:10982000639EB71413F5F60F8280138706805CCB16
:109830001CCB7D1805B713070008D8CB0DBF130745
:109840000008D8CBB9B713070008D8CB8DB713776A
:10985000260051C77D45130E0002930E000223AA75
:10986000D70198477D1523A8D70119837E07336751
:1098700007011358170065F50345A3010547330594
:1098800015416304E50423AAC70198479308000221
:1098900023A8C7011983058B9307E5FF371E0140F5
:1098A00013050E8089EFC1471CC9930700025CC9EC
:1098B0001CC99DD57E073367070198C115B7232AB8
:1098C000150123281501FD17E1BF414798CB23AAB5
:1098D000C701984723A8C7011983058BD9BF8C41BD
:1098E0007D47130800081305000213FE1500630BE3
:1098F0000E0423A80701C8CB88CB7D17858175F797
:109900000347A30105458589330717416307A7046A
:109910008DCD930500088CCBB71701409387078046
:1099200093050002CCCB8CCB371501409307E7FFA2
:109930001307058099EFC1471CCB930700025CCB4E
:109940001CCB79BD23AA07017DB793050008CCCBBA
:10995000E1B74CCB0CCBFD17E1BF414798CB1307C8
:10996000000899C998CBB717014093870780130760
:109970000002D8CB98CBADB5D8CBF5B71306058090
:1099800058CA18CA69BDC14694CB93060002D4CB0D
:109990005C4371713ECD6A477D173ACD6DFF371735
:1099A0000140130707809306000214CB3ECF7A478D
:1099B0007D173ACF6DFF3717014013070780C14667
:1099C00054CB9306000254CB3ED10A577D173AD1AF
:1099D0006DFF37170140130707809306000214CB71
:1099E0003ED31A577D173AD36DFF3717014013073F
:1099F00007809306000254CB3ED52A577D173AD5EF
:109A00006DFF37170140130707809306000214CB40
:109A10003ED73A577D173AD76DFFB7160140130569
:109A200000026316081E9356160037170140858AF8
:109A300013070780638F061E9306000814CB3717A1
:109A40000140130707809306000254CBBEDC665723
:109A50007D17BADC6DFFB7160140938606809846E5
:109A60001305000288CA1983058BBEDEF656FD1663
:109A7000B6DEEDFE1313170013572600B71601408C
:109A8000058B93860680630A071A1307000898CA95
:109A900037170140130707809306000254CB3EC1DD
:109AA0008A46FD1636C1EDFE371801400325888031
:109AB000130700022328E880198105893EC39A46CE
:109AC000FD1636C3EDFE13573600B7160140058B61
:109AD00093860680630707161307000898CA37178E
:109AE0000140130707809306000254CB3EC5AA46E7
:109AF000FD1636C5EDFEB7160140938606809846E2
:109B00001308000223A806011983058B3EC73A48B3
:109B10007D1842C7E31D08FE0A0733676700B36676
:109B2000E50005476383E6123717014013070780F6
:109B3000C1450CCB930500024CCBBED846577D17D0
:109B4000BAD86DFF3717014013070780930500024D
:109B50000CCBBEDAD657FD17BEDAEDFFB7170140C2
:109B60009387078013070002D8CB3727002093077D
:109B7000071FCC431307071F2EC8C247FD173EC857
:109B8000EDFFB7170140938707801305000288CBCC
:109B90002ECAD247FD173ECAEDFFB7170140938783
:109BA00007804145C8CB13050002C8CB2ECCE24745
:109BB000FD173ECCEDFFB7170140938707801305D3
:109BC000000288CB2ECEF247FD173ECEEDFFB71731
:109BD0000140130500089387078088CB137506089A
:109BE00009C9B7F700E003A8870083A8C7002324AA
:109BF00007010347C7007D583716014013050002CF
:109C00007D17631D072D13F5F60F4D6182801387B5
:109C1000068048CB3EC94A477D173AC96DFF138776
:109C2000068008CB3ECB5A477D173ACB6DFF7D1897
:109C3000CDBB9306000854CB19B513070008D8CA4A
:109C400081BD13070008D8CA59BD137726006300E9
:109C50000714371501407D4E13050580930E000251
:109C6000130F0002232AE501BED426577D17BAD46C
:109C70006DFF18452328D501BED61983058B3653B1
:109C80007D139AD6E31D03FE7E07336707017D1E11
:109C900013581700E3180EFC372700200345A720B0
:109CA00037170140130707803305154185486305C1
:109CB000150B93080002232A1701BED006577D1703
:109CC000BAD06DFFB718014003A7888013030002C4
:109CD00023A868801983058BBED29658FD18C6D27A
:109CE000E39D08FE791537130140130E0002930817
:109CF000038029E1414523A8A8001305000223AAF7
:109D0000A800BEC846457D15AAC86DFD371501409F
:109D1000130505809308000223281501BECAD64703
:109D2000FD17BECAEDFFE38B05E27E07336707012F
:109D300098C12DB523AAC801BECCE648FD18C6CCF3
:109D4000E39D08FE2328C381BECEF648FD18C6CE8B
:109D5000E39D08FE7D1561BF414508CB1305000258
:109D600048CBBEC426477D17BAC46DFF37150140E6
:109D7000130505801845930800022328150119834F
:109D8000058BBEC6B647FD17BEC6EDFF69BF8C4149
:109D9000371701407D481307078013030008130E8F
:109DA0000002930E000213F515005DCD2328670015
:109DB000232AD701BEC006457D15AAC06DFD232804
:109DC000C701BEC216457D15AAC26DFD7D188581ED
:109DD000E31B08FC372700200347A72013F51500D5
:109DE0000548B71501403307174193850580630681
:109DF000070B35CD1305000888C9B71501409385B9
:109E0000058013050002C8C93EDCE255FD152EDCB5
:109E1000EDFDB7150140938505801305000288C943
:109E20003EDEF255FD152EDEEDFD791737150140AA
:109E300013080002930505801DEF414798C91307D9
:109E40000002D8C93ED422577D173AD46DFF371788
:109E5000014013070780930500020CCB3ED6B25792
:109E6000FD173ED6EDFFDDB9232A670091B7130534
:109E70000008C8C959B723AA05013ED8C255FD1527
:109E80002ED8EDFD9305058023A805013EDAD255B5
:109E9000FD152EDAEDFD7D1771BF414798C91307F7
:109EA00000081DC998C9371701401307078093059B
:109EB00000024CCB3ED002577D173AD06DFF3717CA
:109EC000014013070780930500020CCB3ED2925746
:109ED000FD173ED2EDFF59B1D8C9F1B793070680FF
:109EE000C8CB2EC4A247FD173EC4EDFF93070680E2
:109EF00088CB2EC6B247FD173EC6EDFF11B3B7277C
:109F000000209387071FFD5E7D1503A847000147CA
:109F1000814737160140C148130300026316D5017B
:109F20008280232A1E0131A8411109E783C7050059
:109F30002147850593F61700130E0680FDD22328CE
:109F40001E019306068023AA660042C6B246FD168D
:109F500036C6EDFE9306068023A8660042C4A246DC
:109F6000FD1636C4EDFE7D1585837D17E31FD5FBF9
:109F7000410182809377F503372800204111137542
:109F800005081308081FB1EF2DED0325480083C60F
:109F900005001386150093070004371701401307C7
:109FA000078041489308000213030002138E87FFC5
:109FB00093F516009DCD23280701232A67002AC6A2
:109FC000B245FD152EC6EDFD232817012AC4A24572
:109FD000FD152EC4EDFDFD178582638FC701E9FBDA
:109FE000B5A815E10325480083C6050013861500B2
:109FF0006DB7232A0701D1B7B5C305068346F6FF1F
:10A0000075B793070004B715014093850580930E3B
:10A010000002130E0002032348002145014723AA32
:10A02000C5011AC29246FD1636C2EDFE944523A81C
:10A03000D5011AC09182858A8248FD1846C0E39DE9
:10A0400008FE05839E067D15558FFD1711C1E1FBA6
:10A0500005063357A700A30FE6FED5FF4101828016
:10A06000EFC26F8BB72A002013870A1F0346170021
:10A07000B717014031712A892E8A9376150093878C
:10A0800007806306062A414798CB13060002D0CB0F
:10A0900090CB938A0A1F638B061298CBB7160140A8
:10A0A0009307000293860680DCCA9CCA9357190066
:10A0B00013F71700630E0710414798CA13070002F1
:10A0C000D8CA1356290098CA3387C700058AC147E2
:10A0D000630306109CCAB7170140930600029387DA
:10A0E0000780D4CB94CB9356390013F616004A97C9
:10A0F0006DC6414690CB13060002D0CB369790CB6D
:10A10000058B79CF414798CBB717014093870780DC
:10A1100013070002D8CB98CBC146D4CBD8CB98CB71
:10A1200094CBD8CB98CBEFD00F8983C98A01B716CF
:10A13000014013070002CE8793840680CDE7130702
:10A140000002D8C8944498C8D8C8804498C8D8C8D1
:10A1500090440D8098C813572600118B0988598C9C
:10A1600013D74600058B598C05476319E412137702
:10A17000290035EFB7160140930700026399090ED5
:10A18000EFD06F8503270A00B7170140930600023E
:10A1900093870780C145130600021375170071CD20
:10A1A0008CCBD0CB90CBFD16BA990583FDF693F9F5
:10A1B000190041476385090C98CBB7170140938775
:10A1C000078013070002D8CB98CB85A8D8CBF9B568
:10A1D0004147D8CAE5B5DCCAFDBD4146D0CB21BF59
:10A1E0004147D8CB15B7D8C898C8FD17B1B7814635
:10A1F000130600029305000213050002C8C8984424
:10A20000858288C81183058BBA977D167E07D98E03
:10A2100075F6CCC898448CC81183B98F858B91C3CF
:10A22000214463040A002320DA00B7160140930793
:10A23000000263980902EFC01FFA13790908630846
:10A240000900B7F700E09847DC4723A4EA0003C7FA
:10A25000CA0005EBB717014093870780414798CBA9
:10A26000B9A8138706805CCB1CCBFD19D9B713871F
:10A2700006805CCB1CCBFD1911B7CCCB1DB7D8CB5E
:10A280002DBFB7170140C14693870780D4CB9306F3
:10A290000002D4CB94CB7D176DFF6DBF9307E4FF15
:10A2A000F59B9DC3930700021307F0FDDCC89CC813
:10A2B000FD19E39DE9FEEFC01FF2C1479CC813756D
:10A2C000F40F29616FB07FE883C79A019DEFB7163D
:10A2D00001409307000263960904EFC0DFEF83C7D4
:10A2E0009A01ADDB13792900E31609F6B71701408F
:10A2F000414793870780D8CB9306000213071002CB
:10A30000D4CB94CB7D176DFFB1B793772900E1D300
:10A310009307100213070002D8C898C8FD17EDFF75
:10A320007DB7138706805CCB1CCBFD196DB741460A
:10A3300090CB13060002D0CB5C433EC10A477D1789
:10A340003AC16DFF3717014013070780130600025B
:10A3500010CB3EC31A477D173AC36DFF3717014034
:10A3600013070780638B0632C14614CB37170140B1
:10A37000130707809306000254CB3EC52A477D177A
:10A380003AC56DFF37170140130707809306000297
:10A3900014CB3EC73A477D173AC76DFF13571900D4
:10A3A000B71601401376170093860680630A062EBF
:10A3B000414690CAB71601409386068013060002F4
:10A3C000D0CA3EC9CA46FD1636C9EDFEB7160140D1
:10A3D000938606801306000290CA3ECBDA46FD162D
:10A3E00036CBEDFE93562900369713F61600B716B6
:10A3F0000140938606806308062A414690CAB71634
:10A4000001409386068013060002D0CA3ECDEA467C
:10A41000FD1636CDEDFEB716014093860680130675
:10A42000000290CA3ECFFA46FD1636CFEDFE135617
:10A430003900B7160140937516004A979386068037
:10A4400063860526C1458CCAB716014093860680EF
:10A4500093050002CCCA3ED18A56FD1636D1EDFED8
:10A46000B716014093860680930500028CCA3ED33E
:10A470009A56FD1636D3EDFE3297B7160140058B7E
:10A480009386068063070722414798CA3717014021
:10A49000130707809306000254CB3ED52A577D1739
:10A4A0003AD56DFF37170140130707809306000266
:10A4B00014CB3ED73A577D173AD76DFF3717014077
:10A4C00013070780C14654CB9306000254CB3ED9F4
:10A4D0004A577D173AD96DFF371701401307078098
:10A4E0009306000214CB3EDB5A577D173ADB6DFF13
:10A4F0003717014013070780C14614CB93060002AB
:10A5000054CB3EDD6A577D173ADD6DFF37170140AA
:10A51000130707809306000214CB3EDFFA57FD179E
:10A520003EDFEDFFEFC03FC9B72900209387091F29
:10A5300083C48701DC439389091FA686371601402F
:10A54000930500021307068063980616930600021F
:10A5500054CBBED006577D17BAD06DFF37170140D8
:10A560001307078010479306000214CB1182058A57
:10A57000BED216577D17BAD26DFF371701401307A9
:10A5800007809306000254CBBED426577D17BAD459
:10A590006DFF37170140130707801447930500022A
:10A5A0000CCB9182858ABED636577D17BAD66DFF01
:10A5B0003717014013070780930500024CCB86062E
:10A5C000BED846577D17BAD86DFF3717014013071D
:10A5D00007800047930500020CCB11800588BEDA86
:10A5E00056577D17BADA6DFF0A04558C518C854693
:10A5F0006314D42293762900E5E2B71601401306CE
:10A6000000026395041EEFC01FBD83260A0003A746
:10A610004900B71701409305000293870780414521
:10A62000130800029308000213F616006302061EC8
:10A6300088CB23AA17013ADC62567D1632DC6DFE08
:10A6400023A807013ADE72567D1632DE6DFEFD1537
:10A65000B6948582F1F9B717014085889387078002
:10A66000C1466389041A94CBB717014093870780CA
:10A6700093060002D4CB3AD8C257FD173ED8EDFF5F
:10A68000B7170140938707809306000294CB3ADA0C
:10A69000D257FD173EDAEDFFF9A8C14654CBF9B108
:10A6A0004146D0CA01BB4146D0CA91BBC145CCCAC4
:10A6B00061BB4147D8CAD9BB4CCBBEDC66577D17BE
:10A6C000BADC6DFF130706800CCBBEDE76577D1714
:10A6D000BADE6DFFFD16BDB5B71501400146130882
:10A6E000000293850580930800021303000223AA49
:10A6F0006500BECCE646FD16B6CCEDFE944523A81B
:10A700001501BECE9182858A76457D15AACE6DFD56
:10A7100036970582FE067D18558EE31A08FCB7169B
:10A7200001409386068093050002CCCABEC8C64687
:10A73000FD16B6C8EDFEB71501409385058094451A
:10A740001305000288C99182858ABECAD647FD17C3
:10A75000BECAEDFF058B6303D700214463040A00E2
:10A760002320CA0003A74900B716014013060002C0
:10A77000A1ECEFC05FA61379090863080900B7F7D9
:10A7800000E09847DC4723A4E90003C7C900E303BE
:10A7900007ACB717014093870780C146D4CB03A607
:10A7A00049009305000213050002C8CB32D4A2561B
:10A7B000FD1636D4EDFE8CCB32D6B256FD1636D60B
:10A7C000EDFE7D177DF379B493870680D0CBBAC4B4
:10A7D000A647FD17BEC4EDFF9387068090CBBAC68F
:10A7E000B647FD17BEC6EDFFFD1459B713870680A7
:10A7F00050CBBEC006477D17BAC06DFF13870680D9
:10A8000010CBBEC216477D17BAC26DFFFD14D5BB73
:10A81000C8CB05B5D4CB89BD1307E4FF759B0DCF1D
:10A820003717014013070780930500021305000244
:10A830001306F0FD48CB3EC4A246FD1636C4EDFE1D
:10A840000CCB3EC6B246FD1636C6EDFEFD14E393B4
:10A85000C4FEEFC05F98FDBA03C7990129EFB71690
:10A86000014013060002C1E4EFC0FF9683C79901BF
:10A87000E382079E13792900E31E099CB717014064
:10A88000938707804147D8CB03A64900930610025F
:10A890009305000213050002C8CB32C842477D175A
:10A8A0003AC86DFF8CCB32CA52477D173ACA6DFF4A
:10A8B000FD16FDF245B21377290055D33717014035
:10A8C0001306100213070780930500021305000208
:10A8D00048CB3ED08256FD1636D0EDFE0CCB3ED294
:10A8E0009256FD1636D2EDFE7D167DF28DBF138792
:10A8F000068050CB3ECC62477D173ACC6DFF138764
:10A90000068010CB3ECE72477D173ACE6DFFFD1408
:10A9100099BFB757000837061000B9659387E70756
:10A9200001471306060A93859533130500023A88FA
:10A9300005079376F701B2969E0683D8070083D663
:10A94000E607C206C182639B08006399B60003D57F
:10A95000E7FF239E01874205418182809387070894
:10A96000E317A7FCEFB2CFFC239E0186C52D03D5CC
:10A97000C187B70710009387070A3E951E05EF00B1
:10A98000C073D52D41657D156FB0CFFC83D7C187CE
:10A9900013060008FD8B239EF18683A6818037076E
:10A9A00010001307070ABA979E070147B385E7000F
:10A9B00003D50500B385E60009072390A500E3173A
:10A9C000C7FE03D5C607828083A781801375F50F64
:10A9D00005050605AA9703D7070003D5E7FF420739
:10A9E000598D8280EFB2CFF493582600930640032E
:10A9F000B3C616031377C60F71172A971C43378304
:10AA0000379E01481303939BFD18130EF00F910618
:10AA10001A989352280093F23200AA8E814F13F6AF
:10AA20003F00334656000A062E96032F060093D3A6
:10AA300057001394470033CFE70163CA1F03104147
:10AA4000FD1693F6F60F93172600935E3600B3C7F4
:10AA50007700B3CE8E003346C8007A96F697B18F52
:10AA60001043B2971CC3E395C6FB6FB0AFEE03A6CD
:10AA70004E00850F910E93172600B3C777009353AE
:10AA80003600B3C383003346C8007A969E97B18FD1
:10AA900003A6CEFFB29723AEFEFE51B7EFB24FE949
:10AAA0004111930760032300F100834705003146FD
:10AAB000A300F100834715002301F100834725001F
:10AAC000A301F100834735002302F1009307A0FAA8
:10AAD000A302F100834745002303F100834755009B
:10AAE000A303F100834765002304F1008347750049
:10AAF000A304F100930750022305F100834785006A
:10AB0000A305F100834795002306F1008347A500C4
:10AB1000A306F1008347B5000A852307F1009307D8
:10AB2000B0F9A307F1007D3D124782473245B98F46
:10AB300022474101B98F3D8D6FB0CFE1EFB24FDFBA
:10AB4000A9472A846314F5003545CD3F83A70188C2
:10AB500089CB9386170023A0D188238087006FB00C
:10AB60006FDF83A74188E5DF1375F40F8297C5BFB8
:10AB7000EFB20FDC2A840305040019E16FB08FDD0A
:10AB800005046D3FCDBFEFB2AFD70111AA872E8468
:10AB9000130B5002930B0003A54A294CC14C0385AB
:10ABA0000700630E052213891700631A65070385E2
:10ABB000170063197507038527001389370085443B
:10ABC000014A930705FD93F7F70F63FBFA069377A6
:10ABD000F5FD1307C0046397E7000305090093E43C
:10ABE00044000509630D051E13070006AA87635676
:10ABF000A700930705FEE207E1871307F0046380CF
:10AC0000E7186348F704130730046382E70A130761
:10AC100040046386E718130720046381E70A393F7D
:10AC2000A289BDA01307D0026306E500138927009F
:10AC3000814479B70385270013893700894449B7D0
:10AC4000330A8A0305092A9A130A0AFD0305F9FF44
:10AC50008DBF13075005638CE712130780056388C7
:10AC6000E71013073005E39CE7FA032D040093096E
:10AC7000440089886A85EF0090412A84930D14006E
:10AC800081E4636A44016E846A85DD35636B440147
:10AC90004E84CA8729B713050002EFF03FEA6E849D
:10ACA000F1BF13050002EFF07FE90504C5B7030506
:10ACB000040093094400EFF07FE8D9BF93F7440004
:10ACC000F5CB1C40930944000947130680079D46B5
:10ACD0006314C50093067002100893F5F60F3284D2
:10ACE000814633F8E702BE8833850501B3D7E70212
:10ACF00063E50A0113158801618513050503230027
:10AD0000A600138D160063E6E8000506631F9D0B81
:10AD1000BD4693F7840081CF93070D011808338D4A
:10AD2000E7009307D0022308FDFE138D260093F75A
:10AD300014001305000399E313050002EA8D8988C6
:10AD400093871D0081E463E44D09BE8D7D1DB3072B
:10AD5000A40103850700EFF07FDEE3190DFEE3F9A0
:10AD60004DF313050002EFF07FDD850DCDBF93F7A6
:10AD70004400B1C71C40930944004147B9B793F759
:10AD80004400A1C31C409309440021473DBF93F7F1
:10AD9000440095CB1C409309440029473DB71C4013
:10ADA000930944002947E3D207F2B307F04093E444
:10ADB000840021BF09471C409309440039B741472B
:10ADC000DDBF2147CDBF2947FDB7EA8619BF3EC683
:10ADD0002AC4EFF0BFD6B2472245BE8D95B70561B4
:10ADE0006FB0CFB539712ED24C1006CE32D436D6D4
:10ADF0003AD83EDA42DC46DE2EC6EFF0DFD8F2402B
:10AE000021618280730020304111EF0030272AC673
:10AE1000EF0030272AC4EF0030272246B245AA8629
:10AE200037C50008130545B3753F01A073002030F6
:10AE30003705002013050500EFB00FF77300203031
:10AE400037050400312473002030411122C6373405
:10AE500001408545130504C0EF009005854763193F
:10AE6000F500EFC08FE78545130504C0EF0010061D
:10AE7000324441017300203001A09761FF17938194
:10AE8000E1A117A1FF171301E11717150000130522
:10AE900025CE9755FF179385E5161386018363FA30
:10AEA000C5008322050023A0550011059105E3EAA2
:10AEB000C5FE138501839775FF179385E53D63777D
:10AEC000B500232005001105E36DB5FEFD4273902A
:10AED00002BC8D42739042809302800873A00230BE
:10AEE00097B2FFFF9382021293E2320073905230C6
:10AEF000EF00400197C2FFFF9382226E73901234DD
:10AF000073002030B71702409843B706FFF841118D
:10AF10001367170098C3D84337060200758FD8C34C
:10AF20009843B706F7FEFD16758F98C39843B7068A
:10AF3000FCFFFD16758F98C3D843B70681FFFD1639
:10AF4000758FD8C337079F0098C702C402C69843BD
:10AF5000C166558F98C3B716024005679C42F18FB2
:10AF60003EC6A24785073EC4B24781E7A247E397A2
:10AF7000E7FEB71702409C4337070200F98FB5C7B9
:10AF800085473EC632478547631FF704B71702401F
:10AF9000D843B706C1FFFD16D8C3D843D8C3D8439A
:10AFA00013670740D8C3D843758FD8C3D843B706B3
:10AFB0000900558FD8C39843B7060001558F98C331
:10AFC000B70600029843758F75DFD843B716024065
:10AFD000719BD8C3D84313672700D8C32147DC42ED
:10AFE000B18BE39EE7FE4101828002C661BF5841FA
:10AFF0000C415045B7070140938707403E9793C6E1
:10B00000F5FF39C29043758E90C3D043F18ED4C3FF
:10B010001443CD8E14C3184190479346F7FF758EA5
:10B0200090C7D047F18ED4C7144541466399C600F6
:10B030009447D98E94C7D447558FD8C78280B69786
:10B040009443558F98C382801C43F58F1CC3828024
:10B05000B707014093870740C8CB8280B707674591
:10B0600037270240938737125CC3B797EFCD93879A
:10B07000B79A5CC38280372702401C4B93E70708CE
:10B080001CCB8280B7270240C847058911E5C84715
:10B090004189133515000D058280EFB26F892A842E
:10B0A0008544CD376318950019E0154529A0D93F8F
:10B0B0007D14CDBF7DD86FB0EF89EFB26F87AA84C2
:10B0C00037050B00D93F91476313F502372402403F
:10B0D0001C4837050B0093E727001CC844C81C48D0
:10B0E00093E707041CC8553F1C48F59B1CC86FB06C
:10B0F0006F86EFB2EF83AA8415652E89793F914759
:10B10000631FF500372402401C48156593E71700BC
:10B110001CC82390240151371C48F99B1CC86FB0F0
:10B120006F83EFB2EF8001112A8437050B00B5372A
:10B1300091476316F508B70767453727024093879D
:10B1400037121CC7B797EFCD9387B79A1CC7A307D1
:10B1500001009D46370600208347F10063F4F606A0
:10B16000B7270240984B1367070298CB984B136799
:10B17000070498CBD847058B75FF984B1377F7FDDD
:10B1800098CB9307F00F01E49967938757AA372765
:10B1900002402318F1001C4B9D463706002093E720
:10B1A00007011CCBA3070100B72502408347F1002C
:10B1B00063F0F604372702401C4BBD9B1CCB056196
:10B1C0006FA05FF90347F1008347F100060732974C
:10B1D000035707808607938707028A972398E7FE1D
:10B1E0008347F100850793F7F70FA307F100ADB789
:10B1F0000347F1008347F1000607130707020A9788
:10B20000035707FF8607B2972390E780DC45858BBD
:10B21000F5FF8347F100850793F7F70FA307F100C8
:10B2200071B7B7066745B72702409386361237973E
:10B23000EFCDD4C31307B79AD8C3D4D3D8D3828061
:10B24000372702401C4BA166D58F1CCB8280B727C5
:10B250000240984BB7060200137505F0558F98CB46
:10B26000C8CB984B1367070498CBD847058B75FF5D
:10B27000984B8176FD16758F98CB82809C4513F78D
:10B28000070113F8F70001C7D8413368E8003727F2
:10B290000240145B3707000F758F5DEB85462384F2
:10B2A000D188371701406317E50003D705003583C0
:10B2B0002390E50083D5050013F7F50F31C318413E
:10B2C0008146054E930E80023D4F930F800421432B
:10B2D0003316DE00B3F8C500631016036392D70976
:10B2E00050C913962600B318CF0093C8F8FF33F760
:10B2F000E8003316C800518F8506E39B66FC18C131
:10B300001307F00F6375B70454410146054E930EC1
:10B310008002130F80042143130786003317EE00C9
:10B32000B3F8E500631117036390D70558C9931864
:10B3300026003D47331717011347F7FFF98EB3185F
:10B340001801B3E6D8000506E31866FC54C18280F4
:10B3500037170140E310E5F603C7818821DFB1B755
:10B36000E391F7F910C9B5BFE393E7FD18C9C1B779
:10B37000B71701406316F50083C7818891C3B58173
:10B380004CC98280B737004088C38280B7370040FD
:10B39000C8C38280B737004088C78280AD6737371F
:10B3A00000409387A7AA1CC3828023A6A18882801D
:10B3B00003A7C1888547834605006312F7028347C8
:10B3C0001500639DE70283472500960793E707F87A
:10B3D00037E700E093F7F70F36972300F74005476C
:10B3E00093D756003317D700544191CE9387070463
:10B3F0008A07B7E600E0B69798C38280EDF38347EB
:10B4000025009607F1B793870706DDB7B717024007
:10B41000D843B70640FFFD16758FD8C3D8435A05E9
:10B42000598DC8C38280371702405C439146B18B67
:10B430006381D70CA1466393D70C5C435843C16624
:10B44000C983BD8B758F8907C5466393D700C947EC
:10B4500041E33747024003270780418B2DC7371749
:10B460007A0013070720B387E7021CC13716024092
:10B47000544237070020130787089182BD8ABA9685
:10B4800083C60600B3D7D7005CC15442A1829D8A0F
:10B49000BA9683C60600B3D6D70014C55442AD820F
:10B4A0009D8A36970347070093860181B3D7E7004B
:10B4B0005CC5584239830D8B369703470700B3D7D5
:10B4C000E7021CC9828037173D001307079061BF50
:10B4D000371702405843B7060200758F11C73797D8
:10B4E0005B00130707D841B73727B700130707B02A
:10B4F0009DBFB727B700938707B085BFB7177A00FE
:10B50000938707209DB799C5371702401C4FC98FF5
:10B510001CCF8280B7170240984F1345F5FF798DF5
:10B5200088CF828099C5371702405C4FC98F5CCFA6
:10B530008280B7170240D84F1345F5FF798DC8CFE9
:10B54000828099C5371702405C47C98F5CC78280EB
:10B55000B7170240D8471345F5FF798DC8C78280D9
:10B5600099C5371702401C4BC98F1CCB8280B71777
:10B570000240984B1345F5FF798D88CB8280EFA26E
:10B580003FBBB7370140938707C0631DF5000564D3
:10B5900085451305048075378145130504805537AB
:10B5A0006FA05FBBB70700406319F50085450545EF
:10B5B000453F814505456D37E5B7938707406318DB
:10B5C000F50085450945693F81450945EDB7B71740
:10B5D0000040138707806319E50085451145EFF0AA
:10B5E0003FF881451145C1BF938707C0E31AF5FABB
:10B5F00085452145EFF0DFF6814521456DBF835735
:10B60000050037370140130707C0C207C183630431
:10B61000E502370700406300E50213070740630CAB
:10B62000E50037170040930607806306D50013072F
:10B6300007C06317E50003D7250093F7F7F8D98F04
:10B6400003D7650093F7F7CFC207C183D98F2310C3
:10B65000F50083D745002316F50283D70500231490
:10B66000F502B7370140938707C06316F50083C71B
:10B6700085002318F5028547231AF5008280835739
:10B68000050091C593E717002310F5008280C207DB
:10B69000C183F99BC207C183C5BF8357C50009C6D3
:10B6A000CD8F2316F500828093C5F5FFED8FD5BFB2
:10B6B000835705010355C500ED8F4205418189C7B8
:10B6C0006D8D3335A00082800145828093C5F5FFE2
:10B6D000C205C1812318B5008280EFA27FA5B747BC
:10B6E000014093870780631CF50085451165EFF0E5
:10B6F0005FE581451165EFF0DFE46FA0BFA5B747B7
:10B70000004093870740631DF5008545370502001B
:10B71000EFF01FE5814537050200EFF07FE4F1BF50
:10B72000B757004013870780631BE5008545370541
:10B730000400EFF0FFE2814537050400F9BF93876D
:10B7400007C0E31CF5FA854537050800EFF05FE117
:10B75000814537050800D1B7EFA29F9D83560501AB
:10B76000F577FD17FD8E83D7650003D7C50001115E
:10B77000D58F2318F5008356C500FD779387379F33
:10B78000FD8E83D745002A84AE84D58F83D685006D
:10B79000D58F83D6A500D58F2316F5008357450195
:10B7A000C207C18393F7F7CFD98F231AF50068003A
:10B7B000EFF07FC7B747014093870780631FF4020C
:10B7C000E2476547B387E7029840930640060A07B9
:10B7D000B3D7E70233D7D702B3F7D70212079207DE
:10B7E00093872703B3D7D702BD8BD98FC207C183F5
:10B7F0002314F40005616FA0FF95D247D9B789677C
:10B80000938707581CC1B7070C00232205001CC5ED
:10B810002316050082808357C50091C50967D98F1B
:10B820002316F500828079777D17F98FD5BF13F73E
:10B83000F50F85471583B395B7006319F700930794
:10B84000C500984301CE4D8F98C3828089469307E7
:10B850004501E318D7FE93070501E5B793C5F5FF4A
:10B86000F98D8CC3828093F5F51F2312B500828079
:10B87000035505006D8D3335A0008280732510348B
:10B880008280732520348280732530348280AA8799
:10B8900003C7070085076DFF3385A7407D158280AC
:10B8A0008000000002000000100000000100000005
:10B8B0000200000010000000020000000200000072
:10B8C0001000000020000000020000001000000036
:10B8D0001000000002000000100000004000000006
:10B8E0000000000048000000080000000000000008
:10B8F0004800000080000000000000004800000038
:10B9000020000000000000002800000010000000DF
:10B910000000000048000000E2680008EE6800082F
:10B92000FA680008926A0008546B0008E068000892
:10B93000A2690008E0680008326D0008A66C0008E3
:10B94000306D0008506A00080C690008706C00082F
:10B95000166C00088A6D00080600FF0901A1011598
:10B960000026FF00750895400901810295400901F4
:10B97000910295010901B102C0000000BC00002045
:10B9800010BA0008FCB90008C8B90008B4B900082A
:10B9900094B900081E0343004D00530049005300B2
:10B9A0002D004400410050002000470044003300B7
:10B9B000320000001403470044004C0069006E0090
:10B9C0006B002D004F004200320338003100380078
:10B9D0004600420043004500310042003100310082
:10B9E00037003800300035003300440035003700A0
:10B9F00046003100430036003900000014034300C4
:10BA00004D005300490053002D00440041005000F8
:10BA1000120347004400330032002000410052006E
:10BA20004D000000090229000101008032090400D4
:10BA3000000203000000092101000001222100078B
:10BA400005810340000107050103400001000000DB
:10BA50001201100100000040E9288F0600010102D8
:10BA600003010000FA7600084077000868770008B4
:10BA700078770008787700087877000878770008EA
:10BA800078770008347700085E770008727700083E
:10BA9000827A00088C7A0008927A0008867A000878
:10BAA000B47A00081A7B0008C07B00086C7D00088F
:10BAB000DA7D00082A7E00086A7E00085E8200089F
:10BAC0009882000882890008E68C0008648C0008CF
:10BAD000847E0008B87E0008E68C0008E68C00082A
